:100000000C94F5030C9412040C9412040C942B29F8
:100010000C94CC320C9412040C9412040C94120420
:100020000C9412040C9412040C9412040C94811677
:100030000C9412040C9412040C9412040C941204E8
:100040000C9494180C9412040C944A140C940C14F0
:100050000C9412040C9412040C9412040C941204C8
:100060000C9412040C941204084AD73B3BCE016E48
:1000700084BCBFFDC12F3D6C74319ABD56833DDAFF
:100080003D00C77F11BED9E4BB4C3E916BAAAABE0E
:10009000000000803F05A84CCDB2D44EB93836A937
:1000A000020C50B9918688083CA6AAAA2ABE000074
:1000B00000803F003E0D0A006F66663A006F6E3AA0
:1000C000002C6C6173657220007A00790078002C36
:1000D0006C696D6974733A002C52583A002C427561
:1000E000663A002C002C57506F733A002C002C4DB0
:1000F000506F733A003C436865636B003C416C6130
:10010000726D003C486F6D65003C486F6C64003C4C
:1001100052756E003C5175657565003C49646C65AF
:10012000005D0D0A005B302E39675F3230313930A7
:100130003331355F333032363361662D6469727422
:10014000793A000D0A003D00244E005D0D0A0020A2
:100150005300204600205400204D3800204D390027
:10016000204D3500204D3400204D3300204D32000D
:10017000204D3100204D30002047393400204739D0
:1001800033002047393100204739300020473230D2
:1001900000204732310020473139002047313800F4
:1001A00020473137002047005B473830005B47333A
:1001B000005B4732005B4731005B4730005D0D0A52
:1001C000005B544C4F3A005D0D0A002C005B473930
:1001D000323A005D0D0A002C003A0033300032380C
:1001E000005B47005D0D0A002C005B5052423A0054
:1001F000290D0A00206D61782074726176656C2C7F
:10020000206D6D0020616363656C2C206D6D2F7314
:1002100065635E3200206D617820726174652C2008
:100220006D6D2F6D696E002C20737465702F6D6D70
:10023000007A00790078002028003D002400202862
:100240007475726E204C61736572206D6F646520E9
:100250006F6E2C20626F6F6C290D0A002434303DC4
:10026000002028686F6D696E672070756C6C2D6F4B
:1002700066662C206D6D290D0A002028686F6D6957
:100280006E67206465626F756E63652C206D7365A3
:1002900063290D0A2432373D002028686F6D696E8E
:1002A00067207365656B2C206D6D2F6D696E290D50
:1002B0000A2432363D002028686F6D696E6720661B
:1002C0006565642C206D6D2F6D696E290D0A2432D1
:1002D000353D00290D0A2432343D002028686F6D19
:1002E000696E672064697220696E76657274206D2C
:1002F00061736B3A002028686F6D696E67206379BF
:10030000636C652C20626F6F6C290D0A2432333DBB
:1003100000202868617264206C696D6974732C20F8
:10032000626F6F6C290D0A2432323D002028736FF2
:100330006674206C696D6974732C20626F6F6C2910
:100340000D0A2432313D0020286175746F207374CA
:100350006172742C20626F6F6C290D0A2432303D5B
:100360000020287265706F727420696E636865730F
:100370002C20626F6F6C290D0A2431343D00202837
:1003800061726320746F6C6572616E63652C206DA1
:100390006D290D0A2431333D0020286A756E63747F
:1003A000696F6E20646576696174696F6E2C206D6B
:1003B0006D290D0A2431323D00290D0A2431313DC9
:1003C000002028737461747573207265706F727485
:1003D000206D61736B3A00202870726F6265207027
:1003E000696E20696E766572742C20626F6F6C295D
:1003F0000D0A2431303D0020286C696D697420702D
:10040000696E7320696E766572742C20626F6F6CF2
:10041000290D0A24363D0020287374657020656E0E
:1004200061626C6520696E766572742C20626F6FF4
:100430006C290D0A24353D00290D0A24343D002085
:100440002864697220706F727420696E76657274A8
:10045000206D61736B3A00290D0A24333D0020287A
:100460007374657020706F727420696E7665727433
:10047000206D61736B3A0020287374657020696485
:100480006C652064656C61792C206D736563290D42
:100490000A24323D002028737465702070756C73D7
:1004A000652C2075736563290D0A24313D002430C5
:1004B0003D002424202876696577204772626C20ED
:1004C00073657474696E6773290D0A242320287676
:1004D000696577202320706172616D657465727340
:1004E000290D0A2447202876696577207061727388
:1004F0006572207374617465290D0A244920287679
:10050000696577206275696C6420696E666F290D74
:100510000A244E2028766965772073746172747599
:100520007020626C6F636B73290D0A24783D7661CD
:100530006C7565202873617665204772626C207344
:10054000657474696E67290D0A244E783D6C696E76
:1005500065202873617665207374617274757020EC
:10056000626C6F636B290D0A2443202863686563FE
:100570006B2067636F6465206D6F6465290D0A24C5
:100580005820286B696C6C20616C61726D206C6FF7
:10059000636B290D0A2448202872756E20686F6DE0
:1005A000696E67206379636C65290D0A7E20286374
:1005B00079636C65207374617274290D0A21202897
:1005C0006665656420686F6C64290D0A3F202863A6
:1005D000757272656E7420737461747573290D0A77
:1005E0006374726C2D78202872657365742047726D
:1005F000626C290D0A000D0A4772626C20302E3998
:10060000675F32303139303331355F333032363332
:1006100061662D6469727479205B27242720666FD8
:10062000722068656C705D0D0A005D0D0A004469FA
:100630007361626C656400456E61626C6564004361
:10064000617574696F6E3A20556E6C6F636B65648B
:1006500000272448277C2724582720746F20756E94
:100660006C6F636B00526573657420746F20636FE9
:100670006E74696E7565005B000D0A005258204269
:100680007566666572204F76657272756E0050727F
:100690006F6265206661696C0041626F72742064EC
:1006A0007572696E67206379636C65004861726476
:1006B0002F736F6674206C696D697400414C4152F0
:1006C0004D3A20000D0A00202A00496E76616C69BF
:1006D000642067636F64652049443A00556E646521
:1006E00066696E6564206665656420726174650084
:1006F000556E737570706F7274656420636F6D6D85
:10070000616E64004D6F64616C2067726F7570205C
:1007100076696F6C6174696F6E004C696E65206FED
:10072000766572666C6F7700486F6D696E67206ED4
:100730006F7420656E61626C656400416C61726DFE
:10074000206C6F636B004E6F742069646C650045AC
:100750004550524F4D2072656164206661696C2E70
:10076000205573696E672064656661756C747300EB
:1007700056616C7565203C203320757365630053AA
:10078000657474696E672064697361626C65640086
:1007900056616C7565203C203000496E76616C694D
:1007A000642073746174656D656E740042616420C9
:1007B0006E756D62657220666F726D61740045784A
:1007C00070656374656420636F6D6D616E64206C29
:1007D0006574746572006572726F723A20000D0A5A
:1007E000003A00202A006F6B000011241FBECFEFDB
:1007F000D8E0DEBFCDBF11E0A0E0B1E0E6E7F2E770
:1008000002C005900D92A432B107D9F727E0A4E207
:10081000B1E001C01D92A535B207E1F70E941404B2
:100820000C9439390C9400000E94DA130E94F922CA
:100830000E9410190E94BB32EDEAF5E08EE1DF0163
:100840001D928A95E9F781E08093AD0578949091A7
:10085000430794FD8093AE05C1E00E94A6140E9458
:1008600053090E944F130E94BB130E9410290E943B
:100870001A2D0E948E240E94E4180E94EE270E94E6
:1008800065091092AD051092AF058091430781FF75
:1008900005C0C093BD050E946015DFCF1092BD0555
:1008A000FACF4F925F926F927F928F929F92AF9208
:1008B000BF92CF92DF92EF92FF920F931F93CF934D
:1008C000DF93EC014A015B01D22E270138018091B0
:1008D000430785FF03C0CE010E946A2B8091AE05BD
:1008E0008230E1F00E94AB148091AD05811116C0F9
:1008F0000E94DD24882319F00E945315F3CF830151
:1009000072012D2DB501A401CE010E94E524809134
:10091000AE05811103C088E08093AE05DF91CF91D1
:100920001F910F91FF90EF90DF90CF90BF90AF900D
:100930009F908F907F906F905F904F9008952F922F
:100940003F924F925F926F927F928F929F92AF925F
:10095000BF92CF92DF92EF92FF920F931F93CF93AC
:10096000DF93CDB7DEB7E5970FB6F894DEBF0FBEC5
:10097000CDBF9E878D87788B6F873A0109831A8355
:100980002B833C83C98ADA8AEB8AFC8AAF8A24E00B
:10099000829E40011124880D991D998F888FCA016C
:1009A000880D991D9B8F8A8FDC012D903D904D9075
:1009B0005C90E88DF98D2081318142815381C201A3
:1009C000B1010E948B3468A379A38AA39BA32B96C1
:1009D000AFAC2B97F4E0AF9E500111242D853E85DE
:1009E0002A0D3B1D3D8F2C8FC3018A0D9B1D9F8FB0
:1009F0008E8FDC01CD90DD90ED90FC90F90120818F
:100A0000318142815381C701B6010E948B346CA3AE
:100A10007DA38EA39FA33201210177FA709477F80A
:100A20007094D701C601B0588D839E83AF83B88779
:100A3000AF85B8898A0E9B1E28A139A14AA15BA166
:100A4000F40160817181828193810E948A346B01FB
:100A50007C01EF85F889EA0DFB1D2CA13DA14EA17B
:100A60005FA160817181828193810E948A344B01F0
:100A70005C01A7019601C301B2010E94E2376987B8
:100A80007A878B879C87A50194016D817E818F81F8
:100A900098850E94E2379B01AC0169857A858B8538
:100AA0009C850E948B3469877A878B879C87A501F8
:100AB0009401C301B2010E94E2374B015C01A7011E
:100AC00096016D817E818F8198850E94E2379B011E
:100AD000AC01C501B4010E948A3429853A854B8551
:100AE0005C850E940A356B017C018091CD0520E078
:100AF00030E0A901823009F0FCC0C701B6010E94B4
:100B0000A23787FD0AC02BED3FE049EC50E4C70156
:100B1000B6010E948A346B017C0180903F0790905F
:100B20004007A0904107B090420729813A814B814C
:100B30005C81CA01B9010E948B34A50194010E9415
:100B40008A34A50194010E94E2370E9481384B014A
:100B50005C0120E030E040E05FE3C701B6010E94A5
:100B6000E23729813A814B815C810E94E2379F778D
:100B7000A50194010E948A350E946F360E940336B7
:100B800079A768A76115710509F488C090E080E035
:100B90000E9432364B015C013F89332361F0AC0186
:100BA0009B0169897A898B899C890E94E237698BCC
:100BB0007A8B8B8B9C8BA5019401C701B6010E9497
:100BC0008A3569877A878B879C872C968FAD2C977F
:100BD000A4E08A9FC0011124ED85FE85E80FF91F6E
:100BE000FE8BED8B2F853889820F931F20813181F9
:100BF00042815381DC016D917D918D919C910E9488
:100C00008A34A50194010E948A356AAB7BAB8CAB18
:100C10009DAB29853A854B855C85CA01B9010E9447
:100C2000E2379B01AC0160E070E080E090E40E945C
:100C30008A346B017C012BEA3AEA4AE25EE3698579
:100C40007A858B859C850E94E2374B015C0120E010
:100C500030E040E850E4C701B6010E948B349B01AC
:100C6000AC01C501B4010E94E2376AA77BA78CA73B
:100C70009DA720E030E040E05FE3C701B6010E949D
:100C8000E2376EA77FA788AB99AB19822224239401
:100C9000312CE8A5F9A52E163F06D9F56196CFAC03
:100CA00061976096ECACFDAC0EAD1FAD60972F89DF
:100CB00049895A896B897C898F8598890E9451045A
:100CC000E5960FB6F894DEBF0FBECDBFDF91CF9192
:100CD0001F910F91FF90EF90DF90CF90BF90AF905A
:100CE0009F908F907F906F905F904F903F902F904C
:100CF0000895C701B6010E94803518160CF40DCF77
:100D00002BED3FE049EC50E4C701B6010E948B3463
:100D100002CFB981BC3008F08DC02AA53BA54CA5F7
:100D20005DA5C301B2010E94E2376B017C012EA5D3
:100D30003FA548A959A96D817E818F8198850E9420
:100D4000E2379B01AC01C701B6010E948B346B01F5
:100D50007C012EA53FA548A959A9C301B2010E9453
:100D6000E2374B015C012AA53BA54CA55DA56D8131
:100D70007E818F8198850E94E2379B01AC01C5017D
:100D8000B4010E948A342B013C01E981EF5FE983C1
:100D9000C601D7018D839E83AF83B88728A139A16F
:100DA0004AA15BA1C301B2010E948B34E88DF98D89
:100DB00060837183828393832CA13DA14EA15FA1A7
:100DC0006D817E818F8198850E948B34AC8DBD8D25
:100DD0006D937D938D939C9313972AA93BA94CA95E
:100DE0005DA9ED89FE8960817181828193810E9474
:100DF0008B34AD89BE896D937D938D939C931397AE
:100E00006196CFAC61976096ECACFDAC0EAD1FADBA
:100E100060972F8949895A896B897C898D859E8540
:100E20000E9451048091AD0581114ACFBFEF2B1A6A
:100E30003B0A2FCFB10190E080E00E943236298535
:100E40003A854B855C850E94E2376B017C010E94EC
:100E5000853569837A838B839C83C701B6010E94A1
:100E600073384B015C01AA8DBB8DCD90DD90ED9068
:100E7000FC90F7FAF094F7F8F094AE8DBF8D8D9159
:100E80009D910D90BC91A02D8D839E83AF83B887DB
:100E900029813A814B815C81C701B6010E94E2370A
:100EA0002B013C01A50194016D817E818F81988584
:100EB0000E94E2379B01AC01C301B2010E948B3456
:100EC0002B013C01A5019401C701B6010E94E23744
:100ED0006B017C0129813A814B815C816D817E812E
:100EE0008F8198850E94E2379B01AC01C701B60152
:100EF0000E948A346D837E838F83988719824ECFB8
:100F00008F929F92AF92BF92CF92DF92EF92FF9219
:100F1000CF93DF936B017C018091AE05823091F11C
:100F200020E030E040EA51E4C7010E94E2370E942D
:100F30006F360E9403364B01EB010E941D1620E024
:100F400030E04AE754E4C701B6010E94E2376B0182
:100F50007C0182E3889DB001899D700D112490E091
:100F600080E00E9432369B01AC01C701B6010E94AD
:100F70008A340E946F360E940336CB010E94D52826
:100F8000209759F4DF91CF91FF90EF90DF90CF90B1
:100F9000BF90AF909F908F9008950E94AB142197BF
:100FA0008091AD058111EECF2FEF80E792E02150C7
:100FB00080409040E1F700C00000E2CF2F923F92C6
:100FC0004F925F926F927F928F929F92AF92BF9259
:100FD000CF92DF92EF92FF920F931F93CF93DF9305
:100FE00000D000D01F92CDB7DEB79D838C834A011D
:100FF0005B01D22E8091AE05823009F4AFC00E9411
:101000001D168091BD058B830E94282D882351F0E9
:101010009FB7F8948091AF0580648093AF059FBF20
:101020000E94AB148091AD05811198C0C12CE12CB8
:10103000F12C87012D2DB501A4018C819D810E9489
:10104000510481E08093BE059FB7F8948091AF056D
:1010500082608093AF059FBF0E94AB148091AD0565
:1010600081117CC08091AE05877FB1F78091BE056C
:10107000813041F49FB7F8948091AF0580648093EC
:10108000AF059FBF0E94AB148091AD05811166C072
:101090000E94E4180E948E240E94EE27EFEBF5E0F8
:1010A000FA83E98386E0282E87E0382E0C811D81A3
:1010B0007801FCE0EF0EF11CE981FA8161917191F8
:1010C00081919191FA83E983F1014190519061906E
:1010D00071901F010E943436A30192010E948A354B
:1010E000F80161937193819391938F01EE15FF0540
:1010F00019F7C12CE12CF12C87012D2DB501A4018C
:101100008C819D810E9451049FB7F8948091AF0516
:1011100082608093AF059FBF0E941D168091AD0530
:1011200081111CC0FB81F093BD050F900F900F90B3
:101130000F900F90DF91CF911F910F91FF90EF9043
:10114000DF90CF90BF90AF909F908F907F906F90E7
:101150005F904F903F902F900C94D02F0F900F9056
:101160000F900F900F90DF91CF911F910F91FF90F3
:10117000EF90DF90CF90BF90AF909F908F907F9037
:101180006F905F904F903F902F9008958091AF05A2
:1011900084FD1AC09FB7F8948091AF058061809359
:1011A000AF059FBF0E9446130E94B9138091AE0500
:1011B000847351F09FB7F8948091AF05806280935B
:1011C000AF059FBF0C945616089583B190914307C5
:1011D00096FF0DC0867169F00E94C6089FB7F8940B
:1011E0008091AF0580668093AF059FBF089580957D
:1011F000F1CF84E08093AE050E9446130E9405293A
:1012000083E00E945F290E94AB148091AD0581119B
:1012100008C00E9465091092AE050E9456160C94F3
:1012200010290895CF9320913606309137064091CA
:101230003806509139066091E0057091E105809182
:10124000E2059091E3050E948035811128C020912C
:101250003A0630913B0640913C0650913D06609124
:10126000E4057091E5058091E6059091E7050E94FF
:101270008035811114C0C1E020913E0630913F06B7
:1012800040914006509141066091E8057091E90552
:101290008091EA059091EB050E9480358111C0E0B4
:1012A0008C2FCF910895EDECF5E08BE3DF011D92DB
:1012B0008A95E9F76CEE75E080E00E947721811154
:1012C00003C087E00C94B12D08958F929F92AF9246
:1012D000BF92EF92FF920F931F93CF93DF9381EB17
:1012E000E82E85E0F82EC6E0D7E000EE15E0F70125
:1012F00061917191819191917F0189909990A990CB
:10130000B9900E943436A50194010E948A35F801F3
:1013100061937193819391938F01F7E0C231DF075D
:1013200031F7DF91CF911F910F91FF90EF90BF9018
:10133000AF909F908F9008952F923F924F925F921F
:101340006F927F928F929F92AF92BF92CF92DF92D5
:10135000EF92FF920F931F93CF93DF93CDB7DEB73A
:10136000AF970FB6F894DEBF0FBECDBF98A38F8F97
:10137000E8E0F6E08AE3DF011D928A95E9F78AE06A
:10138000EDECF5E0AAE0B6E001900D928A95E1F768
:101390001D8E312C212CB12CA12C812C912C1E8E38
:1013A00044244394512C7724739482E0682E8D8DCD
:1013B000EF8DF8A1E80FF11D008101111BC09920EC
:1013C00029F0BE8DB11102C0E2E0EE8F25FE70C2A1
:1013D0008091250690912606A0912706B0912806B7
:1013E00080389649A849B1050CF462C20E944613A0
:1013F0008BE107C09FEB900F9A31E0F00E944613FB
:1014000081E0AF960FB6F894DEBF0FBECDBFDF917F
:10141000CF911F910F91FF90EF90DF90CF90BF90F1
:10142000AF909F908F907F906F905F904F903F9084
:101430002F9008958F5F8D8FAE01475E5F4FBE0185
:10144000635E7F4F8F8D98A10E942328811104C075
:101450000E94461382E0D5CFC98CDA8CEB8CFC8CD1
:10146000C701B6010E94C5380E940336162F70E0EE
:1014700090E080E00E9434369B01AC01C701B601C8
:101480000E948A3420E030E048EC52E40E94E237C7
:101490000E944F380E940336073421F10D3409F4BD
:1014A0001EC1EAEBE00FE53108F02CC00E2E000C57
:1014B000FF0BE35AF54F0C941939AB0B820A820AE1
:1014C000C50BD10BDD0BE90B820AED0B820AFB0B7E
:1014D000820A050C0F0C3D0C820A820A820A190C42
:1014E000250C310C163209F493C050F5143170F408
:1014F000113108F0CEC0143009F458C008F488C087
:101500001A3091F00E94461384E17BCF1C3161F0C8
:1015100048F41631B8F7143109F0CFC070920C06B8
:1015200015E047C01E3171F761110C94F312BE8DA6
:10153000BB2311F40C9417130E94461388E161CF6A
:10154000103509F4A2C0D8F4153309F45DC080F455
:101550001B3211F01133B1F69E8D9111EDCF113385
:1015600009F0AEC010920F0666E0A3E0AE8F32C065
:101570001C3340F616531093100617E01AC01C35A2
:1015800099F250F41A3508F4BDCF1A3509F08FC01E
:1015900010920D0613E00DC01F3508F0B3CF1D35B6
:1015A00009F088C070920B0614E003C0709209061F
:1015B00010E0662309F48DC00E94461387E121CF15
:1015C000E1E0EE8F60920906F3CF81E08E8F95E027
:1015D00090930906C20102C0880F991F6A95E2F72D
:1015E0009C012A213B21232B09F4B2C00E944613FF
:1015F00085E107CF6A3009F085CFA6E0A093090600
:1016000060E0E8CFB1E0BE8FE7E0E0930906D0CF1D
:101610008E8D811191CF123041F150F41123B1F030
:101620001130E1F01092080611E082E08E8FC1CFF8
:10163000133019F11632B1F7643109F063CFF4E0D9
:10164000F0930A0661E022E02E8FC4CF10920A06C2
:101650007092080611E092E09E8FABCF10930A06BD
:1016600010930806A2E0AE8FA4CF10930A067092E2
:101670000806B2E0BE8F11E09CCF10930A0670926C
:10168000080611E0E2E0EE8F94CF35E030930A06D1
:10169000F2CF123131F0133139F010920E0612E010
:1016A00088CF70920E06FBCF60920E06F8CF709234
:1016B0000D0670CF10920B0677CF10920C0630CF2C
:1016C0006A3009F01FCF70920F0666E0B3E0BE8F5C
:1016D00081CF612F7FCF60E0E1E0EE8F7BCF6111A2
:1016E0006BCF163088F41330D0F0143011F1153070
:1016F00019F17092130689E0920102C0220F331F84
:101700008A95E2F7C9016DCF183008F4FBCE1A3084
:10171000B0F01E3109F0F6CE6092110608C012300A
:10172000D9F31E31C9F3111102C07092110688E07D
:10173000E3CF60921306DFCF10921306DCCF19308F
:1017400021F0609212068AE0D7CF10921206FBCFEA
:10175000A82AB92A2CCEC0921406D0921506E0927F
:101760001606F092170680E08201082E02C0000FD4
:10177000111F0A94E2F7980122213321232B09F447
:101780007EC00E94461389E13CCEC0921806D092DA
:101790001906E0921A06F0921B06689480F881E020
:1017A000E3CFC0921C06D0921D06E0921E06F09276
:1017B0001F06689481F882E0D7CFC0922006D092AD
:1017C0002106E0922206F0922306689482F883E0D4
:1017D000CBCF1093240684E0C7CFC701B6010E9487
:1017E000FC35609325067093260680932706909318
:1017F000280685E0B9CFC0922906D0922A06E09249
:101800002B06F0922C0686E0AFCFC0922D06D09228
:101810002E06E0922F06F092300687E0A5CFC09208
:101820003106D0923206E0923306F092340688E018
:101830009BCFC0923606D0923706E0923806F092DF
:101840003906689490F88AE08FCFC0923A06D09219
:101850003B06E0923C06F0923D06689491F88BE0DE
:1018600083CFC0923E06D0923F06E0924006F092AF
:101870004106689492F88CE077CF89E075CFA1E6B5
:10188000B3E002C0B595A7958A95E2F7A0FF0DC019
:1018900020E030E0A901C701B6010E94803587FF32
:1018A00004C00E94461384E0ACCD202A312A7FCDAB
:1018B00080910B06813049F42E8D223031F520FCC9
:1018C00024C00E94461386E19CCD8091CE058111F3
:1018D0001CC020FE36C080910C068130B1F423E399
:1018E00033E34BEC51E4609114067091150680913E
:1018F0001606909117060E94E237609314067093C3
:101900001506809316069093170630FC10C0809140
:10191000D7059091D805A091D905B091DA058093AB
:10192000310690933206A0933306B093340680912B
:1019300009068130C9F426FC15C00E9446138CE1CB
:1019400060CD8091DB059091DC05A091DD05B09123
:10195000DE058093140690931506A0931606B093A7
:101960001706D3CFE89426F880910E06882349F015
:10197000813009F448C01BA692E09EA3A1E0ADA36C
:1019800005C032E03BA781E08EA31DA280910C062A
:10199000813059F518E0E12E16E0F12E10E000E05C
:1019A000C92CD12CC601002E02C0959587950A94AA
:1019B000E2F780FF12C023E333E34BEC51E4D7019D
:1019C0009E966D917D918D919C91D1970E94E23769
:1019D000F70166A777A780AB91AB0F5F1F4FF4E0CD
:1019E000EF0EF11C03301105E9F62E8D233089F43A
:1019F00080910F06813069F434E0931651F00E9413
:101A0000461385E2FECCB1E0BBA71EA2E2E0EDA347
:101A1000BDCF8CE0ECEEF5E0DE011D9601900D925D
:101A20008A95E1F7A7FE17C080911006873020F055
:101A30000E9446138DE1E5CC9091D305891759F0AA
:101A4000BE01635F7F4F0E947721811104C00E9415
:101A5000461387E0D6CC10910906123009F458C01D
:101A6000183009F4FEC08E8D833009F43FC09920F0
:101A7000E9F100910D068091040690910506A09170
:101A80000606B09107068F8F98A3A9A3BAA3EDEC21
:101A9000AE2EE5E0BE2EF8E0CF2EF6E0DF2EF12CE4
:101AA000E12CA92DB0E0BCA3ABA38BA19CA10E2C73
:101AB00002C0959587950A94E2F780FD3DC1F50136
:101AC00083899489A589B689F60186A797A7A0ABD3
:101AD000B1ABFFEFEF1AFF0A24E0A20EB11C34E015
:101AE000C30ED11C83E0E816F104F9F6153009F4B1
:101AF00073C1173009F475C1BE016F5F7F4F86E077
:101B0000133009F00CC10E947721811108C19FCFC9
:101B1000911004C00E9446138AE173CCC101807504
:101B20009927892B09F409CF6091290670912A061B
:101B300080912B0690912C060E94C5380E94033696
:101B4000673008F075CF80912406843129F0823007
:101B500009F0D8CC27FCD6CC8FEA2822662309F4DA
:101B600074C061506F8FDE0111966D01BD018F8DC4
:101B70000E947721882309F46ACFB0912406BBA381
:101B80008091040690910506A0910606B091070683
:101B90008FA398A7A9A7BAA710E000E0F12CE12C29
:101BA000A92CB12CC5010E2C02C0959587950A94DD
:101BB000E2F780FF30C0F801E85FF94F46A457A470
:101BC00060A871A89BA1943109F043C0F801E353C8
:101BD000FA4F23A534A545A556A56389748985893F
:101BE00096890E948A34A30192010E948A34F601E8
:101BF000E00FF11F6083718382839383A2E0EA1276
:101C00000AC02FA138A549A55AA50E948A34698720
:101C10007A878B879C87BFEFEB1AFB0A0C5F1F4FFD
:101C2000E3E0EE16F10409F0BDCF10910A0615307D
:101C300009F0E0C0992009F400C39E8D913009F4A9
:101C400003C10E9446138FE1DCCB909110069F8F59
:101C50008ACFF601E00FF11F4082518262827382C7
:101C6000DACF992009F456CF40900406509005062B
:101C70006090060670900706ADECCA2EA5E0DA2E3D
:101C8000B8E0EB2EB6E0FB2E5E01FDE0AF0EB11C1E
:101C900010E000E0292D30E038A32F8F8F8D98A120
:101CA000002E02C0959587950A94E2F780FF39C00F
:101CB000D5012D913D914D915C91F6016389748917
:101CC000858996890E948A34D7019E962D913D91EF
:101CD0004D915C91D1970E948A34F70166A777A74E
:101CE00080AB91AB023061F4A30192010E948A346F
:101CF00060933E0670933F068093400690934106A2
:101D00000F5F1F4FF4E0CF0ED11C24E0E20EF11C58
:101D100034E0A30EB11C0330110509F0BFCF1F8EB4
:101D200084CFF60183A594A5A5A5B6A5F70186A73E
:101D300097A7A0ABB1ABE4CF173009F4CACED60158
:101D40009E964D905D906D907C90D197011133C01F
:101D5000F701EE0FFF1FEE0FFF1F2DE030E02C0FFD
:101D60003D1FE20FF31FD5019B962D913D914D91A3
:101D70005C919E9760817181828193810E948B34F6
:101D8000A30192010E948B34F60166A777A780AB6E
:101D900091ABF2E0EF129DCE2F8D38A149A15AA14F
:101DA0000E948B3460933E0670933F0680934006FA
:101DB000909341068ECEA3019201D50153966D9169
:101DC0007D918D919C9156970E948B34F60166A768
:101DD00077A780AB91AB7DCEBE016F5F7F4F87E071
:101DE00092CE80910A06823008F499CF0E94461361
:101DF0008EE107CBAE8DA23009F01FC211110EC0CB
:101E0000911022C02EED22222CEF32221E8E23288A
:101E100009F418C20E94461384E2F3CA20E030E0BD
:101E2000A901609114067091150680911606909193
:101E300017060E948035882309F443CD143048F4F6
:101E4000123088F41130E1F23EED232230EE3322DD
:101E5000DECF1430C9F7992009F45CCE0E94120934
:101E6000882391F362C0992009F454CEFDA1EF2F8D
:101E7000F0E0FCA3EBA33EA1232F30E038A72FA373
:101E800081E090E08C010DA002C0000F111F0A94A8
:101E9000E2F70EA002C0880F991F0A94E2F7082B00
:101EA000192B892D90E080239123892B21F40E9406
:101EB000461380E2A6CA8BA19CA1880F991F880FA8
:101EC000991FFC01E85FF94F83539A4FDC01539649
:101ED0002D913D914D915C91569766A577A580A96E
:101EE00091A90E948A346B017C018FA198A5880F6B
:101EF000991F880F991FFC01E85FF94F83539A4F90
:101F0000DC0153962D913D914D915C91569766A5BC
:101F100077A580A991A90E948A342B013C0127FE54
:101F2000E2C00E941209882321F00E94461381E238
:101F300068CA80910C068130B1F423E333E34BECA3
:101F400051E460912D0670912E0680912F0690919C
:101F500030060E94E23760932D0670932E06809320
:101F60002F069093300680902D0690902E06A0901C
:101F70002F06B090300620E030E040E850E4C50184
:101F8000B4010E94E237A50194010E94E2374B019F
:101F90005C01A7019601C701B6010E94E2379B01CF
:101FA000AC01C501B4010E948A344B015C01A3015C
:101FB0009201C301B2010E94E2379B01AC01C5014D
:101FC000B4010E948A344B015C0120E030E0A90199
:101FD0000E94803587FF04C00E94461382E211CA26
:101FE000C501B4010E9481384B015C01A30192013B
:101FF000C701B6010E94DF289B01AC01C501B401F5
:1020000090580E948A354B015C0180910A0683300A
:1020100021F4B7FAB094B7F8B09480912D0690915E
:102020002E06A0912F06B09130068CA79DA7AEA7D3
:10203000BFA720E030E0A901BC01CD010E9480359E
:1020400087FF11C0B7FAB094B7F8B0948CA59DA5DE
:10205000AEA5BFA5B05880932D0690932E06A093F1
:102060002F06B0933006E89427F80BA11CA1000FAF
:10207000111F000F111F085E194FA3019201C50126
:10208000B4010E94E2379B01AC01C701B6010E9476
:102090008A3420E030E040E05FE30E94E237D8017C
:1020A0006D937D938D939C9313970FA118A5000FAB
:1020B000111F000F111F085E194FA7019601C501DE
:1020C000B4010E94E237A30192010E948B3420E008
:1020D00030E040E05FE30E94E237F8016083718303
:1020E00082839383B1CE912C08211921012B21F4F5
:1020F0000E94461383E285C9F1EF2F2280910C06DE
:10210000813059F510E000E0C401002E02C0959521
:1021100087950A94E2F780FF1BC0C801880F991FBA
:10212000880F991F9C01285F394F590123E333E33E
:102130004BEC51E4D50150966D917D918D919C9120
:1021400053970E94E237F501608B718B828B938BE2
:102150000F5F1F4F03301105B9F60FA118A5000F2F
:10216000111F000F111F085E194FD8012D913D91CD
:102170004D915C91C301B2010E948A342B013C0154
:10218000ABA0BCA0AA0CBB1CAA0CBB1CF501E85E52
:10219000F94F5F012081318142815381C701B6012E
:1021A0000E948A34A30192010E94DF286B017C0106
:1021B000D8012D913D914D915C91F5016081718126
:1021C000828193810E94DF284B015C0180922D0661
:1021D00090922E06A0922F06B0923006AC019B0181
:1021E000C701B6010E948A346B017C01E894F7F8BC
:1021F0002AE037ED43EA5BE3C701B6010E94A2374C
:1022000018160CF021CE20E030E040E05FE3C7017B
:10221000B6010E94A23718160CF487CE2FE632E1E1
:1022200043E85AE3C501B4010E94E237A7019601D1
:102230000E94803587FF08CE78CEFE8DFF2309F4FB
:10224000E1CD02CE80910B068093CE0580911406DD
:1022500090911506A0911606B09117068093DB05A4
:102260009093DC05A093DD05B093DE05C0903106A8
:10227000D0903206E0903306F0903406A701960124
:102280006091D7057091D8058091D9059091DA05B4
:102290000E9480358823D9F0C092D705D092D80506
:1022A000E092D905F092DA058091430790914407B6
:1022B00090FF04C080910806811109C08091D60565
:1022C000882329F020E0B701A6010E9475138091B0
:1022D00035068093DF05809113069091D6059817F7
:1022E000B9F08093D605209143073091440730FF21
:1022F00004C09091080691110BC04091D7055091F0
:10230000D8056091D9057091DA0520E00E94751317
:10231000809112069091D505981721F08093D505EC
:102320000E94BE1380910906813051F46091290604
:1023300070912A0680912B0690912C060E948007AE
:1023400080910E068093D10580910C068093CF0575
:102350008E8D8330B9F480910F068093D205813041
:1023600009F037C080913E0690913F06A09140064B
:10237000B09141068093040690930506A09306064B
:10238000B0930706809110069091D305981759F0E5
:102390008093D3058CE0FE013D96ACEEB5E0019054
:1023A0000D928A95E1F780910D068093D005E0911A
:1023B0000906E250E83050F5F0E0EF51FE4E0C9483
:1023C0001939F2113A1269123A126F120612731287
:1023D00079121092040610920506109206061092C9
:1023E0000706D0CFBE016F5F7F4F8F8D0E9499206F
:1023F0008091D3059F8D891309C08CE0FE01319631
:10240000ACEEB5E001900D928A95E1F780910A0655
:102410008093CD058530C1F0BE8DB230A9F48430F3
:1024200008F06FC0823008F0A7C0882309F47BC091
:10243000813009F48CC08CE0E6E3F6E0A0EEB5E074
:1024400001900D928A95E1F7809111068093D40551
:10245000882311F40C94010A0E941D161092BD05E8
:102460008091D405823009F0BBC00E94C60880E08C
:102470000C94010AAE8DAA2399F0E090D705F09054
:10248000D8050091D9051091DA05C090D60520E055
:1024900040E050E060E87FEB86E396E00E94510464
:1024A000E090D705F090D8050091D9051091DA0594
:1024B000C090D60520E040E050E060E87FEBCE0120
:1024C00001960E9451048CE0FE013196A0EEB5E029
:1024D00099CF60EE75E086E00E94992097CF60EE7C
:1024E00075E087E0F9CF8CE0E6E3F6E0A8EFB5E031
:1024F00089CFE8EFF5E08CE0DF011D928A95E9F7DE
:1025000085CF843009F097CF4091DB055091DC05F1
:102510006091DD057091DE052091CE0586E396E0A1
:102520000E94DE0788CFE090D705F090D805009193
:10253000D9051091DA05C090D60520E040E050E0C2
:1025400060E87FEB86E396E00E94510474CFE09050
:10255000D705F090D8050091D9051091DA05409182
:10256000DB055091DC056091DD057091DE05C090C2
:10257000D6052091CE05E6CFC090DB05D090DC05D6
:10258000E090DD05F090DE0500912D0610912E06FD
:1025900020912F06309130068091D6058F9380913F
:1025A000DA058F938091D9058F938091D8058F9309
:1025B0008091D7058F93EBA5EF93FEA1FF938DA09C
:1025C000A090CE0548E156E066E376E080EE95E027
:1025D0000E949F040FB6F894DEBF0FBECDBF2BCF75
:1025E0001092D40544CF1E3111F40C94FA0A88F4E9
:1025F0001A3011F40C94E20A1C3111F00C94DC0A2C
:102600006A3011F00C94820A34E0309309060C947D
:10261000000B153311F40C94040B1C3511F00C94C1
:10262000DC0A6A3011F00C94820A39E0EECF1E31D8
:1026300011F40C94E50A70F41A3011F40C94E00AC9
:102640001C3109F048C8F1E0FE8F23E02093090611
:102650000C94EA0A153311F40C94020B1C3509F0A2
:102660003AC8F1E0FE8F28E0F1CFE0EBF0E08081A6
:102670008F7780832B9808958091B300882329F069
:102680008091B00080688093B00008951092B300EC
:10269000E0EBF0E080818F7780832B980895239A78
:1026A000239A259A0C94461383E88093B000E1EBBB
:1026B000F0E08081887F8260808308958093B300FA
:1026C0000895BC0190E080E00E94323620E030E0C6
:1026D00040E051E40E948B340E94033683E07695FB
:1026E00067958A95E1F7862F0895CF92DF92EF9252
:1026F000FF92CF93DF93C82F6A017B01D22F809185
:10270000AE05823069F1809143079091440790FFB4
:1027100002C0211102C00E9453158091430790917D
:10272000440790FF02C0D11102C00E941D16C111C2
:1027300008C0DF91CF91FF90EF90DF90CF900C9485
:102740004613C130A1F42D98C701B6010E9403368B
:10275000CB010E9461138093B3000E9454132B9A03
:10276000DF91CF91FF90EF90DF90CF9008952D9A59
:10277000EBCF439808953B9A0C94B913CF93C82F8D
:102780008091AE05823039F00E9453150E941D16CB
:10279000C23019F4439ACF910895CF910C94B91394
:1027A0009091260180912701891710F0891B0895C7
:1027B0008058FCCFE0ECF0E0808182608083109252
:1027C000C50080E18093C400E1ECF0E0808180618D
:1027D0008083808188608083808180688083089581
:1027E000E091250191E09E0F943409F490E020914E
:1027F0002401291761F0F0E0EE5BF94F808390939C
:1028000025018091C10080628093C10004C02091A5
:10281000AF0524FFECCF08951F920F920FB60F92D1
:1028200011248F939F93EF93FF9380912401E82FBE
:10283000F0E0EE5BF94F90819093C6008F5F843497
:1028400009F480E08093240190912501981305C03C
:102850008091C1008F7D8093C100FF91EF919F9186
:102860008F910F900FBE0F901F9018959091260199
:1028700080912701891761F0E92FF0E0EA57F94FBD
:1028800080819F5F903809F490E09093260108952D
:102890008FEF08951F920F920FB60F9211242F936E
:1028A0003F934F935F936F937F938F939F93AF93D8
:1028B000BF93EF93FF938091C600813241F1A0F462
:1028C000883159F1E091270191E09E0F903809F489
:1028D00090E020912601291799F1F0E0EA57F94F8D
:1028E0008083909327011BC08F3341F08E3751F7BF
:1028F0009FB7F8948091AF05826005C09FB7F894A8
:102900008091AF0581608093AF059FBF08C09FB7DE
:10291000F8948091AF058860F6CF0E94C608FF91B9
:10292000EF91BF91AF919F918F917F916F915F9147
:102930004F913F912F910F900FBE0F901F901895C0
:102940009FB7F8948091AF058068DDCF8091270113
:10295000809326010895CF93C091AF05CC2309F44D
:1029600094C08C2F807619F181E08093AE050E948F
:102970003513C6FF25C08FEFC5FF8DEF0E94D62D02
:1029800081E00E940B2E9FB7F8948091AF058F7E57
:102990008093AF059FBF8091AF0584FFFCCF9FB7A9
:1029A000F8948091AF058F798093AF059FBFC4FFE6
:1029B0000BC00E94351381E08093AD05CF9108953F
:1029C0008EEF0E94D62DEBCFC0FF0AC00E94893146
:1029D0009FB7F8948091AF058E7F8093AF059FBF1E
:1029E000C3FF15C08091AE05803149F480E2809329
:1029F000AE050E9432190E9454191092BD059FB76E
:102A0000F8948091AF05877F8093AF059FBFC1FF8A
:102A10001CC08091AE05883081F480E18093AE05C2
:102A20000E943C130E9454190E943516809143075E
:102A300081FF33C081E08093BD059FB7F8948091FA
:102A4000AF058D7F8093AF059FBFC2FF11C00E946D
:102A5000B324892B29F10E94351388E08093AE05B9
:102A60009FB7F8948091AF058B7F8093AF059FBF90
:102A7000C7FF0BC08CEF0E94D62D9FB7F8948091B2
:102A8000AF058F778093AF059FBF8091AE058473AC
:102A900009F494CFCF910C9454191092BD05CDCF69
:102AA0001092AE05DDCF8091BD05882341F09FB720
:102AB000F8948091AF0582608093AF059FBF089521
:102AC000EF92FF920F931F93CF93DF930E94312ECB
:102AD0008091AE058130A9F582E00E940B2E109204
:102AE000CC051092CB05C0E0D0E0F12CE12C11E038
:102AF0000AE00E9436148F3F09F453C08A3019F05F
:102B00008D3009F044C0EF2DF0E0E85DFE4F1082FB
:102B10008091CC058823E1F08091CB058D17C1F021
:102B200080E091E00E949C091093AE0588E291E05C
:102B30000E94FB2D1092CB05C0E0D0E0F12CE12CDF
:102B4000D8CF1092AE0588E291E00E940833C7CF3B
:102B50000E94AB148091AD058111ECCF80912801CA
:102B6000811103C00E94B12DE5CF843229F488E29F
:102B700091E00E942833F6CF8091AE05813011F4A8
:102B800089E0F0CF88E291E00E949C09EBCFCC2352
:102B9000C1F090ED980F9A30A0F4D09F900D1124C1
:102BA000D92F0E9453150E94AB148091AD05882344
:102BB00009F49FCFDF91CF911F910F91FF90EF907C
:102BC00008958032B9F19091CB05980F9093CB0581
:102BD000EE2039F0EE24E394893209F4E12CC0E0D0
:102BE00088CF8132E0F38F32D1F38832F9F08A3224
:102BF00041F49A529093CB051093CC05D0E0C1E0FC
:102C000078CF9EE49F1530F48BE00E94B12DC0E098
:102C1000F12C6FCFEF2DF0E0E85DFE4FF3949FE9CC
:102C2000980F9A3108F480528083D9CFC0E0EE2407
:102C3000E3945FCFE110CECFD2CF0E9453158091A5
:102C4000AE05803119F481E08093BD050E94B32464
:102C5000892B21F48091AE05803131F40E94AB14B0
:102C60008091AD05882391F308958091430782FFF9
:102C70001BC0289A8091AE058471A9F08091A601AD
:102C80008093BA018091A7018093B90180913607A2
:102C90008250990B880F81958093B80180916F00C5
:102CA000826080936F0008952898E4CF80916F0030
:102CB0008D7F80936F0080918100887F81608093F9
:102CC00081001092A501809139078F3F21F49091E6
:102CD000AF0595FF12C09091AE05943071F090E071
:102CE0000E94D52881E09091430792FF02C091E0B5
:102CF0008927882321F0289A089580E0F4CF289826
:102D000008951F920F920FB60F9211240F931F93E5
:102D10002F933F934F935F936F937F938F939F93E3
:102D2000AF93BF93EF93FF938091A5018111DDC114
:102D30009BB18091BA01807E9F71892B8BB98BB139
:102D4000837E9091B901892B8BB98091B80186BDA2
:102D500082E085BD81E08093A50178948091CC01CB
:102D60009091CD01892B09F0A7C08091AA01909183
:102D7000A901981709F4AFC1E091AA0186E0E89F84
:102D8000F0011124E253FE4FF093CD01E093CC010A
:102D900083819481909389008093880080819181C0
:102DA0009093C8018093C701E2818091C9018E1779
:102DB000C1F1E093C90183E1E89FF0011124EE50D5
:102DC000FE4FF093CB01E093CA0185859685A785D8
:102DD000B089B695A795979587958093AB01909309
:102DE000AC01A093AD01B093AE018093AF0190937D
:102DF000B001A093B101B093B2018093B30190935D
:102E0000B401A093B501B093B601809143079091AE
:102E1000440790FF06C08289882319F081890E94A7
:102E20005E13E091CA01F091CB0180819091A601DF
:102E300089278093BA01A091CC01B091CD0115965C
:102E40002C9181819281A381B481022E04C0B69518
:102E5000A795979587950A94D2F78093BB01909395
:102E6000BC01A093BD01B093BE0185819681A7816D
:102E7000B085022E04C0B695A795979587950A94BC
:102E8000D2F78093BF019093C001A093C101B0938A
:102E9000C20181859285A385B48504C0B695A795A6
:102EA000979587952A95D2F78093C3019093C40193
:102EB000A093C501B093C6010E942E2D1092B901B6
:102EC0008091AB019091AC01A091AD01B091AE01A8
:102ED0004091BB015091BC016091BD017091BE0158
:102EE000840F951FA61FB71F8093AB019093AC0171
:102EF000A093AD01B093AE01E091CA01F091CB0176
:102F00004585568567857089481759076A077B0785
:102F100028F524E02093B901841B950BA60BB70B71
:102F20008093AB019093AC01A093AD01B093AE013F
:102F30008091B1059091B205A091B305B091B4050F
:102F4000208125FFE5C00197A109B1098093B10552
:102F50009093B205A093B305B093B4058091AF01EF
:102F60009091B001A091B101B091B2010091BF0167
:102F70001091C0012091C1013091C201800F911FB9
:102F8000A21FB31F8093AF019093B001A093B10132
:102F9000B093B201481759076A077B0738F52091AB
:102FA000B90128602093B901841B950BA60BB70BC0
:102FB0008093AF019093B001A093B101B093B2019F
:102FC0008091B5059091B605A091B705B091B8056F
:102FD000208126FFA1C00197A109B1098093B50501
:102FE0009093B605A093B705B093B8058091B3014F
:102FF0009091B401A091B501B091B6010091C301C7
:103000001091C4012091C5013091C601800F911F1C
:10301000A21FB31F8093B3019093B401A093B50195
:10302000B093B601481759076A077B0738F5209116
:10303000B90120612093B901841B950BA60BB70B36
:103040008093B3019093B401A093B501B093B601FE
:103050008091B9059091BA05A091BB05B091BC05CE
:10306000208127FF5DC00197A109B1098093B905AF
:103070009093BA05A093BB05B093BC058091AE05B3
:10308000843039F48091B0059091B90189238093FF
:10309000B9018091C7019091C80101979093C8012F
:1030A0008093C701892B69F41092CD011092CC0155
:1030B0008091AA018F5F8093AA01863011F410924B
:1030C000AA018091B9019091A70189278093B90144
:1030D0001092A5010AC00E9456169FB7F8948091DD
:1030E000AF0584608093AF059FBFFF91EF91BF91C3
:1030F000AF919F918F917F916F915F914F913F9190
:103100002F911F910F910F900FBE0F901F90189548
:103110000196A11DB11D1ACF0196A11DB11D5ECF53
:103120000196A11DB11DA2CF1F920F920FB60F9253
:1031300011248F939F939BB18091A7018C71937EF3
:10314000892B8BB915BC9F918F910F900FBE0F905B
:103150001F9018950F931F93CF93DF931092A701A1
:103160001092A601D0E0C0E01C2F0C2F80913707F1
:1031700090E00C2E02C0959587950A94E2F780FFA7
:1031800008C0812F0E9428239091A701892B80934A
:10319000A7018091380790E002C0959587950A9520
:1031A000E2F780FF08C0812F0E9432239091A60190
:1031B000892B8093A6012196C330D105A9F6DF9112
:1031C000CF911F910F9108950E945616E8E7F1E004
:1031D0008BE2DF011D928A95E9F7EBEAF1E083E2E9
:1031E000DF011D928A95E9F71092A4011092A301C4
:1031F0001092AA011092A90181E08093A801109277
:10320000A5010E94AA188BB1837E9091A701892BFA
:103210008BB98BB18F719091A601892B8BB90895D1
:103220008AB18C618AB9209A8AB1806E8AB9E1E844
:10323000F0E080818F7E8083808188608083E0E8F9
:10324000F0E080818C7F808380818F708083EEE6C8
:10325000F0E08081887F808314BC15BC8081816010
:1032600080830895CF93DF93C091A301D091A401EF
:103270002097B9F081E08093790160918F0170917E
:10328000900180919101909192019B01AC010E946B
:10329000E2376E8B7F8B888F998F1092A4011092EA
:1032A000A301DF91CF9108952F923F924F925F92A9
:1032B0006F927F928F929F92AF92BF92CF92DF9246
:1032C000EF92FF920F931F93CF93DF93CDB7DEB7AB
:1032D000E6970FB6F894DEBF0FBECDBF9091AA015E
:1032E0008091A801981709F4A2C48091A30190913C
:1032F000A401892B09F07DC00E94B324FC019093A6
:10330000A4018093A301892B09F491C480917901D0
:10331000882309F46EC11092790110928B011092EA
:103320008C0110928D0110928E012091A301309199
:10333000A4013A832983D9019696CD90DD90ED9032
:10334000FC909997A701960160E070E080E09FE310
:103350000E948A354B015C01E981FA8142A453A4A1
:1033600064A475A48091AE05803209F039C2F2E000
:10337000F0938A01A981BA8156962D913D914D9184
:103380005C91599729833A834B835C83A50194010F
:1033900069817A818B819C810E94E2379B01AC011B
:1033A000C301B2010E948A344B015C0120E030E08D
:1033B000A9010E94803587FF02C2A7019601C701BB
:1033C000B6010E948B34A30192010E94E2379B0157
:1033D000AC0169817A818B819C810E948A340E9430
:1033E000813860939701709398018093990190932D
:1033F0009A018091A901282F30E03A87298746E079
:10340000429FF001439FF00D1124E253FE4F809143
:10341000780182838091A3019091A4019E878D877A
:10342000DC019A96BC91BCA7FC01F3A5FDA7DC01C9
:103430009C96BC91BEA7FC01F5A5FFA72091820137
:103440003091830140918401509185016CA57DA547
:103450008B2F9F2F0E948A3468A779A78AA79BA7E2
:1034600020E030E0A9010E94803587FF04C018A643
:1034700019A61AA61BA6209193012C8F30919401B6
:103480003D8F409195014E8F509196015F8F8091B5
:103490009F0188A39091A00199A3A091A101AAA343
:1034A000B091A201BBA3E0919B01E88FF0919C0138
:1034B000F98F20919D012A8F30919E013B8F409181
:1034C0008A014F8750918B015CA380918C018DA361
:1034D00090918D019EA3A0918E01AFA320919701A1
:1034E000309198014091990150919A0129AB3AABE2
:1034F0004BAB5CAB30908F012090900130919101EB
:103500003983409192014D8328A139A14AA15B2FB3
:10351000BF018A8D9B8D0E948035811173C252E05C
:1035200058AB9CA59C8BADA5AD8BBEA5BE8BEFA566
:10353000EF8B8EE3C82E83ECD82E8EE2E82E89E343
:10354000F82E188A198A1A8A1B8A260137013F85A4
:10355000332309F461C2313009F48FC3AD85BE85D0
:1035600096962D913D914D915C919997C701B60129
:103570000E94E2374B015C01AC019B01632D722D6F
:1035800089819D810E94A23718160CF0AFC320E0FC
:1035900030E040E05FE3C501B4010E94E2379B01E7
:1035A000AC01632D722D89819D810E948A34A7010F
:1035B00096010E94E2379B01AC016C897D898E895E
:1035C0009F890E948A348B018EAB9DAB9B01AC011D
:1035D0006CA17DA18EA19FA10E94803587FF86C32B
:1035E000A5019401632D722D89819D810E948A34E9
:1035F0003FC3809178018F5F853009F4CCC0809300
:1036000078012091780153E1529FA00111248A0191
:103610000E501E4F8581D8018C9386819781A0859D
:10362000B185AC01BD0193E0440F551F661F771FA4
:103630009A95D1F7D80111964D935D936D937C9334
:10364000149782859385A485B585AC01BD0123E0DF
:10365000440F551F661F771F2A95D1F7D80115967D
:103660004D935D936D937C93189786859785A0897C
:10367000B189AC01BD0133E0440F551F661F771FB0
:103680003A95D1F7D80119964D935D936D937C933C
:103690001C9782899389A489B589AC01BD01A3E0F7
:1036A000440F551F661F771FAA95D1F7D8011D96A5
:1036B0004D935D936D937C935097848152968C9338
:1036C00060817181828193810E940336CB010E94C7
:1036D0006113F801818B2091A3013091A4013A83F9
:1036E0002983D90152966D917D918D919C91559729
:1036F0000E94323660937A0170937B0180937C0143
:1037000090937D01E981FA8122A533A544A555A5B1
:103710000E948A359B01AC0120937E0130937F018A
:10372000409380015093810160E070E080EA9FE364
:103730000E948A3560938201709383018093840193
:103740009093850110928601109287011092880152
:10375000109289018091AE05803201F56091970148
:10376000709198018091990190919A0160938F01D5
:103770007093900180939101909392019B01AC0111
:103780000E94E237A981BA8156966D937D938D93FD
:103790009C935997C2CD1092780133CFE981FA8179
:1037A00066897789808D918D0E94813860938F0121
:1037B000709390018093910190939201AECD80928D
:1037C0008B0190928C01A0928D01B0928E0110928B
:1037D0009701109298011092990110929A0109CEC6
:1037E00010928A0140929B0150929C0160929D012F
:1037F00070929E010E94C3242B013C0140929701CC
:10380000509298016092990170929A01AC019B01CB
:103810000E94E2376D837E838F839887E091A301B6
:10382000F091A401FE87ED8722A533A544A555A5F7
:1038300029873A874B875C8726893789408D518D48
:1038400029833A834B835C839B01AC0169817A8134
:103850008B819C810E948A34A50194010E94E237E9
:1038600029853A854B855C850E948B3420E030E0C9
:1038700040E05FE30E94E2376B017C0120E030E032
:10388000A9010E94A23718160CF0ABC0A70196013F
:1038900069857A858B859C850E94A23718160CF065
:1038A0008CC0ED85FE8542A053A064A075A02D813B
:1038B0003E814F815885C301B2010E948A34A5011F
:1038C00094010E94E23760939F017093A00180935E
:1038D000A1019093A201A70196010E94803587FF64
:1038E0003BC0C301B2010E94813860939301709381
:1038F00094018093950190939601A30192016981AF
:103900007A818B819C810E948035811104C0F1E015
:10391000F0938A016ECD29813A814B815C81C3018C
:10392000B2010E948A34A50194010E94E2379B01F2
:10393000AC0160919B0170919C0180919D019091DF
:103940009E010E948A3460939B0170939C01809336
:103950009D0190939E014DCDC0929B01D0929C0100
:10396000E0929D01F0929E01C0929F01D092A00131
:10397000E092A101F092A201AD85BE8596966D916F
:103980007D918D919C9199979B01AC010E948B3404
:10399000A70196010E94E2372D813E814F81588513
:1039A0000E948B340E94813860939301709394013C
:1039B00080939501909396011CCD80918F019091F9
:1039C0009001A0919101B0919201E2E0E0938A010F
:1039D0008093930190939401A0939501B0939601E5
:1039E00008CD10929B0110929C0110929D011092A3
:1039F0009E014092930150929401609295017092C1
:103A00009601F7CC81E088AB8CCD0C8B1D8BFEA989
:103A1000FE8B2DA92F8B9BCDAD85BE8596962D91C6
:103A20003D914D915C919997C701B6010E94E23793
:103A30004B015C0120E030E040E05FE30E94E237B0
:103A4000232D322D49815D810E948B34A70196017F
:103A50000E94E2379B01AC016C897D898E899F8928
:103A60000E948A348B018EAB9DAB9B01AC01688DAB
:103A7000798D8A8D9B8D0E94A23718160CF0F0C0AC
:103A8000288D398D4A8D5B8D6CA57DA58EA59FA552
:103A90000E948A349B01AC010E948B346B017C0133
:103AA0002C8D3D8D4E8D5F8D632D722D89819D8175
:103AB0000E948B349B01AC01C701B6010E948A357C
:103AC0006B017C013C8C2D8CBE8DB983EF8DED8319
:103AD000F8A9FF87088D198D2A8D2EAB3B8D3DAB44
:103AE000A7019601688979898A899B890E948B340C
:103AF000688B798B8A8B9B8B9B01AC01C301B201D4
:103B00000E94A23718160CF01AC1288939894A89EF
:103B10005B89C301B2010E948A346B017C01980168
:103B20004EA95DA96CA17DA18EA19FA10E948035A7
:103B300087FD6BCFFF85F0938A01832D922DA9819C
:103B4000BD8180938F0190939001A0939101B093D8
:103B5000920140907E0150907F01609080017090B2
:103B6000810198014EA95DA9C301B2010E94E2370B
:103B700069837A838B839C830E9469356B017C0106
:103B800060917A0170917B0180917C0190917D011F
:103B90000E9469354B015C01A70196010E948A349D
:103BA0000E9403366D837E838F83988786E04985E4
:103BB0005A85849FF001859FF00D1124E253FE4F3A
:103BC000AD81BE81B183A083AB2B09F0D2C08091BF
:103BD000AE05803209F0CDC010928F011092900195
:103BE0001092910110929201109286011092870119
:103BF0001092880110928901C0927A01D0927B01C3
:103C0000E0927C01F0927D01A3019201C701B6010F
:103C10000E948A35AD85BE859A966D937D938D936E
:103C20009C939D970E941B2888E08093AE05E696A2
:103C30000FB6F894DEBF0FBECDBFDF91CF911F91BD
:103C40000F91FF90EF90DF90CF90BF90AF909F903B
:103C50008F907F906F905F904F903F902F9008953E
:103C6000A5019401632D722D89819D810E948B3461
:103C7000362E272E89839D8333CFA70196016C8D25
:103C80007D8D8E8D9F8D0E94E2379B01AC016C89EA
:103C90007D898E899F890E948A348B018EAB9DAB72
:103CA0009B01AC0168A179A18AA19BA10E94A237C6
:103CB00018160CF015CF28A139A14AA15BA16C8977
:103CC0007D898E899F890E948A342C8D3D8D4E8DF1
:103CD0005F8D0E948A356B017C0108A119A14AA160
:103CE0004EAB5BA15DAB82E08F87FACE2CA13DA1EC
:103CF0004EA15FA16C897D898E899F890E948A343B
:103D00009B01AC010E948B346B017C0129A93AA96B
:103D10004BA95CA9632D722D89819D810E948B34F2
:103D20009B01AC01C701B6010E948A356B017C0181
:103D30000CA11DA1BEA1BEABEFA1EDABD1CE28A5BC
:103D400039A54AA55BA5B8018EA99DA90E94A237F5
:103D500018165CF42EE333EC4EE259E3C301B201D2
:103D60000E948B342B013C01D0CE2F8520938A01F9
:103D7000E4CE2091860130918701409188015091D5
:103D80008901688979898A899B890E948B342B01F2
:103D90003C0129813A814B815C81C501B4010E94BB
:103DA0008A349B01AC01C301B2010E948A354B01E8
:103DB0005C0129813A814B815C81C701B6010E9477
:103DC0008A34A50194010E94E237609386017093C2
:103DD0008701809388019093890120EC31EE44E6BD
:103DE0005EE4C501B4010E94E2370E9469350E9479
:103DF0000336603DB7E07B078105910508F048C0B8
:103E000046E029853A85429FF001439FF00D112439
:103E1000E253FE4F158246E029853A85429FF00124
:103E2000439FF00D1124E253FE4F7483638380910E
:103E3000A8018093A9018F5F863009F482C0809326
:103E4000A80198014EA95DA960918B0170918C0128
:103E500080918D0190918E010E94803587FF74C002
:103E6000E091A301F091A401C801AEA9BDA982A768
:103E700093A7A4A7B5A729813A814B815C812093A0
:103E80007A0130937B0140937C0150937D0126CAD7
:103E9000603A5FE0750781059105A0F526E0A985E8
:103EA000BA852A9FF0012B9FF00D1124E253FE4F9B
:103EB00031E0358346E029853A85429FF001439FF2
:103EC000F00D1124E253FE4F2581022E04C0969579
:103ED0008795779567950A94D2F7AD81BE8102C028
:103EE000AA0FBB1F2A95E2F7B183A0836115710564
:103EF000B1E08B07910508F48ECF8FEF9FEF94838D
:103F0000838395CF60344FE174078105910560F498
:103F100026E0A985BA852A9FF0012B9FF00D112478
:103F2000E253FE4F32E0C5CFA6E049855A85A49FF3
:103F3000F001A59FF00D1124E253FE4FB3E0B583CD
:103F4000B9CF1092A8017DCF20E030E0A901B801DF
:103F50008EA99DA90E94A23718166CF510928F01A8
:103F6000109290011092910110929201109286018C
:103F7000109287011092880110928901C0927A01F3
:103F8000D0927B01E0927C01F0927D014091A301EF
:103F90005091A4015A83498320917E0130917F0181
:103FA0004091800150918101C701B6010E948A357C
:103FB000A981BA8131CE1092A4011092A3010E946E
:103FC0009F248CC9F999FECF92BD81BD81E08FBB42
:103FD00080B50895F894F999FECF92BD81BD81E036
:103FE0008FBB20B5862F8227082E000C990B50E03E
:103FF00086239523892B49F084E16F3F11F060BD42
:1040000084E08FBBF99A789408952617E1F360BD98
:1040100084E2F7CF9F92AF92BF92CF92DF92EF925E
:10402000FF920F931F93CF93DF935C018A017B0173
:10403000E40EF51EEB01912C6C01C61AD70ACE01D5
:104040008C0D9D1DCE15DF0589F4692DC501800FEE
:10405000911FDF91CF911F910F91FF90EF90DF9013
:10406000CF90BF90AF909F900C94EA1F21E09110E9
:1040700007C0292D990C330B232F221F2227221F23
:104080006991962E920E0E94EA1FD9CF9F92AF920D
:10409000BF92CF92DF92EF92FF920F931F93CF9335
:1040A000DF935B018A017C01E40EF51EEC01912C8B
:1040B0006B01C81AD90AC6018C0F9D1FCE15DF05EA
:1040C000C1F4C501800F911F0E94E21F21E030E082
:1040D000891511F030E020E0C901DF91CF911F91E7
:1040E0000F91FF90EF90DF90CF90BF90AF909F9097
:1040F00008950E94E21F21E0911007C0292D990C1C
:10410000330B232F221F2227221F982E920E8993D2
:10411000D2CF21E5829FC001112440E550E09D5F90
:104120000C940A2040E550E0BC018EEA93E00C9428
:104130000A202DE0829FC00111244CE050E09E5FD8
:104140000C940A2069E090E080E00E94EA1F4EE4AF
:1041500050E066E077E081E090E00C940A20E6E031
:10416000F7E08AE080AB8FEF83AB11AA82E082ABED
:104170008FE184AB8AE097EDA3EABCE385AB96AB15
:10418000A7ABB0AF8FE692E1A3E0BBE381AF92AF04
:10419000A3AFB4AF17AE80E090E0A8ECB1E4809399
:1041A000460790934707A0934807B093490780E0DC
:1041B00090E0AAEFB4E480934A0790934B07A09352
:1041C0004C07B0934D0784E690E090934F0780939F
:1041D0004E0780E090E0A0E8BFE380935007909303
:1041E0005107A0935207B093530782E391E096AF33
:1041F00085AF80E090E0A8ECB2E480839183A28355
:10420000B38384839583A683B78380879187A287AE
:10421000B38780E090E4ACE9B5E484879587A6870E
:10422000B787808B918BA28BB38B848B958BA68B5E
:10423000B78B80E09FECA9E1BAE4808F918FA28FC9
:10424000B38F848F958FA68FB78F80E098ECAFEAFD
:10425000B8E480A391A3A2A3B3A386E696ECA0E062
:10426000B4EC84A395A3A6A3B7A38DEC9CE8A3EC20
:10427000B3EC80A791A7A2A7B3A780E090E0A0E24B
:10428000B2EC84A795A7A6A7B7A70C94A2201F936A
:10429000CF93DF93182FEB0181E5189FB001112414
:1042A0007D5F40E550E0CE010E944620892B51F40D
:1042B0001882BE01812F0E94892080E0DF91CF917A
:1042C0001F91089581E0FACFCF93DF93EC0140E591
:1042D00050E06EEA73E00E944620892B21F4188298
:1042E000CE010E94922081E0DF91CF9108951F932B
:1042F000CF93DF93182FEB018DE0189FB0011124AD
:104300007E5F4CE050E0CE010E944620892B71F484
:104310008CE0FE0111928A95E9F7BE01812F0E947F
:10432000992080E0DF91CF911F91089581E0FACF2D
:1043300090E080E00E94E21F893059F44EE450E0A2
:1043400061E070E086E097E00E94462021E0892B42
:1043500009F420E0822F0895CF92DF92EF92FF922E
:10436000CF93DF93C82F6A017B0120E030E0A901E1
:10437000CB01B6010E94803587FD35C1C43608F4F3
:104380004AC0C45620E0C330E8F58C2F90E0880F77
:10439000991F880F991F223079F0FC01233059F1C1
:1043A000213039F0EA5FF84FC082D182E282F38295
:1043B00018C0EE5EF84FF8CFEC01C25ED84F20E097
:1043C00030E040E752E4C701B6010E94E23720E046
:1043D00030E040E752E40E94E237688379838A83C1
:1043E0009B830E94A22080E0DF91CF91FF90EF900D
:1043F000DF90CF900895E65DF84FF7FAF094F7F864
:10440000F094D2CF2F5FCA3008F4EFC0243009F403
:10441000ECC0CA50B8CFC701B6010E94C5380E948F
:104420000336C93208F0E1C0EC2FF0E0E65EFD4D46
:104430000C94193943224A224D22522255226322DA
:104440006D22F522F522F5227722792282228B2213
:104450009522F522F522F522F522F5229F22AB22A4
:10446000BB22C522C822D122DA22E022F522F5227F
:10447000F522F522F522F522F522F522F522F52284
:10448000F522F522E92286E0633008F4ADCF60938F
:104490003607A7CF60933907A4CF609337070E94F0
:1044A000AA189FCF60933807FACF80914307909165
:1044B0004407662331F08460909344078093430758
:1044C00090CF8B7FF9CF809143079091440766236B
:1044D00011F08064F1CF8F7BEFCF809143079091F3
:1044E0004407662311F08068E7CF8F77E5CF6093AC
:1044F0003A07C0923B07D0923C07E0923D07F0920A
:104500003E076FCFC0923F07D0924007E09241072D
:10451000F092420766CF809143079091440766234B
:1045200011F08160C9CF8E7FC7CF809143079091F2
:104530004407662311F08260BFCF8D7FBDCF80918D
:10454000430790914407662321F084FF50C08062A6
:10455000B3CF8F7DB1CF80914307909144076623FD
:1045600041F0886090934407809343070E9410298C
:1045700038CF877FF7CF8091430790914407662318
:1045800011F0806199CF8F7C97CF6093450729CF39
:10459000C0924607D0924707E0924807F092490739
:1045A00020CFC0924A07D0924B07E0924C07F0927E
:1045B0004D0717CF70E070934F0760934E0711CFF0
:1045C000C0925007D0925107E0925207F0925307E1
:1045D00008CF8091430790914407662311F09160C2
:1045E0006BCF9E7F69CF84E0FFCE83E0FDCE8AE073
:1045F000FBCE1F93CF93DF93CDB7DEB72C970FB6CB
:10460000F894DEBF0FBECDBF0E949821811107C074
:1046100087E00E94B12D0E94AF200E94392E10E049
:10462000BE016F5F7F4F812F0E947721811103C0F0
:1046300087E00E94B12D1F5F183091F72C960FB6BE
:10464000F894DEBF0FBECDBFDF91CF911F910895CB
:10465000882321F0813021F080E1089584E00895DD
:1046600088E00895882321F0813021F080E80895C2
:1046700080E2089580E40895882321F0813021F0BC
:1046800080E1089582E0089584E008952F923F929A
:104690004F925F926F927F928F929F92AF92BF9252
:1046A000CF92DF92EF92FF920F931F93CF93DF93FE
:1046B00000916F02011101C002E1015010916D02E1
:1046C000101709F4BAC0E02EF12C2EE2029FE0018F
:1046D0001124CF58DD4F8A8C9B8CAC8CBD8C6EA185
:1046E0007FA188A599A59B01AC010E948B342AA5C6
:1046F0003BA54CA55DA50E94E2376B01D82FC92FC1
:104700009B01482F592FB401C5010E94803587FFB6
:1047100003C06401DA2DCB2D8EE28E9DF0018F9DBA
:10472000F00D1124EF58FD4FC601AD2FBC2F868B25
:10473000978BA08FB18FC02F011101C0C2E1C15072
:104740001C1709F45FC03EE2039F800111240F583B
:104750001D4FDEE280916D028C1709F459C0EC2EDA
:10476000F12CCD9FC0011124FC01EF58FD4F6F01CA
:10477000C11101C0C2E1C150809170028C1302C00E
:104780000E943219DE9DC001DF9D900D11249C0115
:104790002F583D4F7901F901828C938CA48CB58CF4
:1047A000A501940166897789808D918D0E9480355D
:1047B000882331F1F70166A177A180A591A59B011E
:1047C000AC010E948B34F70122A533A544A555A561
:1047D0000E94E237F80126893789408D518D0E9469
:1047E0008B342B013C01AC019B01C501B4010E943B
:1047F000A237F7011816A4F5468A578A608E718E83
:104800008601A8CF80917002811302C00E943219E4
:10481000D0916D02FEE2DF9F800111240F581D4FE1
:10482000C1E0CD0FC23109F4C0E020906F028EE2EA
:10483000382E2C121AC0D0936D02DF91CF911F91A8
:104840000F91FF90EF90DF90CF90BF90AF909F902F
:104850008F907F906F905F904F903F902F90089532
:10486000868A978AA08EB18ECBCFCC2ED12CC39DB9
:10487000C00111249C012F583D4F7901F801468851
:104880005788608C718CF90186889788A08CB18CD0
:10489000A5019401C301B2010E94803587FF24C0A5
:1048A000F80166A177A180A591A59B01AC010E94AA
:1048B0008B34F80122A533A544A555A50E94E23703
:1048C000A30192010E948B342B013C01AC019B019E
:1048D000C501B4010E94A237181634F4F701468AC4
:1048E000578A608E718EDC2F3C9CF0013D9CF00D50
:1048F0001124EF58FD4F228D338D448D558D6689DF
:104900007789808D918D0E948035811101C0DC2FC7
:10491000CF5FC23109F4C0E087018BCFE1E5F2E05F
:104920008CE1DF011D928A95E9F7109270021092D6
:104930006F0281E080936E0210926D020895909153
:10494000700280916F02891769F081E0890F8231CE
:1049500009F480E020916D02921302C080936D02F1
:104960008093700208958091700290916F02981761
:1049700039F02EE2829FC00111248F589D4F089577
:1049800090E080E00895E0917002EF5FE23109F479
:10499000E0E080916F028E1761F08EE2E89FF001F7
:1049A0001124EF58FD4F66897789808D918D0C9485
:1049B000813860E070E0CB01089581E020917002C1
:1049C00090916E02291380E008952F923F924F92AA
:1049D0005F926F927F928F929F92AF92BF92CF928F
:1049E000DF92EF92FF920F931F93CF93DF93CDB798
:1049F000DEB7E5970FB6F894DEBF0FBECDBF498F87
:104A00005A8F6B8F7C8F2DAB20916F02422F50E01D
:104A100058A34F8F5EE2259F90011124F901EF58B2
:104A2000FD4FE082F18202831383C482128A138ACB
:104A3000148A158A12A613A614A615A6158249E98A
:104A400056E766E97EE746A357A360A771A76C0106
:104A500086E097E09CA38BA3AE01435F5F4F5EA30C
:104A60004DA381E592E09CA78BA7A90149585D4F12
:104A70005EA74DA7CE0101969AA389A398AB8FA7F5
:104A800021E532E038A72FA346E057E05E8F4D8F37
:104A9000F12C8F01CF0142969AAB89AB3596FCABD6
:104AA000EBAB1801FAE22F0E311CF6016191719106
:104AB000819191916F01ED8DFE8D81909190A190EA
:104AC000B190FE8FED8FA50194010E94E2370E9404
:104AD000AF37EDA1FEA16193719381939193FEA3F2
:104AE000EDA3EFA1F8A54190519061907190F8A7C6
:104AF000EFA364197509860997092B013C0197FFFB
:104B000007C0442455243201461A570A680A790A14
:104B1000EDA5FEA54192519261927192FEA7EDA77B
:104B2000E9A9FAA9208131814281538124153505F3
:104B30004605570510F4A3019201E9A9FAA92083BB
:104B40003183428353830E943436A50194010E942D
:104B50008A354B015C01EFA5F8A981929192A1924F
:104B6000B192F8ABEFA720E030E0A9010E948035B8
:104B700087FF08C08F2D0E943223EBA9FCA99081EA
:104B8000892B8083A5019401C501B4010E94E237FD
:104B9000F10120813181428153810E948B34F101E6
:104BA0006083718382839383F394F3E0FF127DCF5C
:104BB0000E9481384B015C01F10180829182A282C6
:104BC000B382F80182899389A489B589892B8A2BBC
:104BD0008B2B09F4EAC120E030E0A901698D7A8DC0
:104BE0008B8D9C8D0E94803587FD7DC1FDA9FF23A3
:104BF00061F0298D3A8D4B8D5C8DC501B4010E9409
:104C00008A35698F7A8F8B8F9C8F20E030E040E867
:104C10005FE3698D7A8D8B8D9C8D0E94803587FF37
:104C200006C0198E1A8E20E82B8F3FE33C8FA5011A
:104C3000940160E070E080E89FE30E948A356FA3F2
:104C400078A789A79AA7E9A1FAA13C96FEA3EDA3AC
:104C5000812C912C54012EE24F8D58A1249FC0012C
:104C6000259F900D1124FC01E956FD4FFE8FED8F1D
:104C7000E9A1FAA1C190D190E190F190FAA3E9A342
:104C800020E030E0A901C701B6010E9480358823E9
:104C900009F46BC02FA138A549A55AA5C701B601D3
:104CA0000E94E2372B013C01E9A1FAA1349740822E
:104CB000518262827382AC019B0160E070E080E807
:104CC0009FE30E948A356B017C01E894F7F8EBA121
:104CD000FCA12485358546855785C701B6010E940C
:104CE000E2371B018C01298D3A8D4B8D5C8D0E9422
:104CF000A237181624F0298E3A8E0B8F1C8FED8D5B
:104D0000FE8D2080318002811381EBA1FCA1208DDA
:104D1000318D428D538DC701B6010E94E2376B0180
:104D20007C019B01AC01B101C8010E94803587FD67
:104D300002C016018701C101D801ED8DFE8D80836F
:104D40009183A283B383EBA5FCA524853585468595
:104D50005785C301B2010E94E2379B01AC01C50136
:104D6000B4010E948A344B015C012BA53CA52C5F49
:104D70003F4F3CA72BA74BA15CA14C5F5F4F5CA3AF
:104D80004BA38DA19EA1E9A1FAA18E179F0709F05F
:104D90006FCF90916F02809170029813ADC08EE238
:104DA0002F8D38A1829FF001839FF00D1124EF58C1
:104DB000FD4F168A178A108E118E168E178E10A22E
:104DC00011A2298D3A8D4B8D5C8D698D7A8D8B8DDD
:104DD0009C8D0E94E2377B018C018EE24F8D58A1A1
:104DE000849FF001859FF00D1124EF58FD4FC701FE
:104DF000D80182A393A3A4A3B5A3A68CB78CC0A00B
:104E000081A06090690270906A0290906B02D090CD
:104E10006C029301492D5D2DB701C8010E948035B8
:104E200087FF03C03701902ED12E9301492D5D2DB0
:104E3000B5018C2D982D0E94803587FD03C053014C
:104E4000C92C8D2C8EE22F8D38A1829FF001839F7B
:104E5000F00D1124EF58FD4FC501AC2DB82D828FF8
:104E6000938FA48FB58F8CE0FE013196ADE5B2E053
:104E700001900D928A95E1F7C701D80180936902EC
:104E800090936A02A0936B02B0936C028CE0FE01D7
:104E90003D96A1E5B2E001900D928A95E1F78091EF
:104EA0006E0280936F028F5F823109F480E08093FD
:104EB0006E02E5960FB6F894DEBF0FBECDBFDF9150
:104EC000CF911F910F91FF90EF90DF90CF90BF9007
:104ED000AF909F908F907F906F905F904F903F909A
:104EE0002F900C94462349E9498F56E75A8F86E95B
:104EF0008B8F9EE79C8F9BCEA501940160E070E0B4
:104F000080E89FE30E948A3420E030E040E05FE3E5
:104F10000E94E2370E9481386B017C018EE24F8D46
:104F200058A1849FF001859FF00D1124EF58FD4F8B
:104F300020913B0730913C0740913D0750913E073F
:104F400066A177A180A591A50E94E237A7019601ED
:104F50000E94E2374B015C01A701960160E070E01E
:104F600080E89FE30E948A349B01AC01C501B40133
:104F70000E948A356B017C0120E030E0A9010E948B
:104F8000803587FF03C0C12CD12C76018EE22F8D96
:104F900038A1829FF001839FF00D1124EF58FD4F3F
:104FA000C68ED78EE0A2F1A20CCFE5960FB6F8948C
:104FB000DEBF0FBECDBFDF91CF911F910F91FF904C
:104FC000EF90DF90CF90BF90AF909F908F907F90A9
:104FD0006F905F904F903F902F900895E1E5F2E041
:104FE000ADEAB5E014964D915D916D917C91179766
:104FF000408351836283738318964D915D916D91C7
:105000007C911B9744835583668377831C968D918F
:105010009D910D90BC91A02D80879187A287B38729
:10502000089580916F0290917002891710F0891B8A
:1050300008958E5EFCCF0E94321980917002809399
:105040006D020C9446234F925F926F927F92AF92C3
:10505000BF92CF92DF92EF92FF920F931F93CF9365
:10506000DF936C017B015A01DB01EC91E80FF92F12
:10507000F11D8081EF018D3229F52296818101E0B9
:10508000512CF0E010E020E030E0A9013E01E0ED1D
:10509000E80FEA3018F5FF5FF930E0F451101150D5
:1050A000A5E0B0E00E941F399B01AC01220F331F25
:1050B000441F551F2E0F311D411D511D2196D30137
:1050C0008C91E4CF8B3219F0219600E0D9CF229653
:1050D0008181FBCF5110F2CF1F5FF0CFEE3F29F45B
:1050E000511003C055245394E9CFFF23F9F0CA01AE
:1050F000B9010E9432362B013C0120E030E0A901C9
:105100000E94803581112DC0002309F447C077FA31
:10511000709477F87094F5014082518262827382B4
:10512000CC19DD09C150F701C083F1E08F2FDF9169
:10513000CF911F910F91FF90EF90DF90CF90BF9094
:10514000AF907F906F905F904F9008952AE037ED79
:1051500043E25CE3C301B2010E94E2372B013C0150
:105160001E5F1F3F9CF31F3F59F42DEC3CEC4CECB1
:105170005DE3C301B2010E94E2372B013C01C4CFC1
:10518000112311F220E030E040E251E4C301B2010A
:105190000E94E2372B013C011150F2CFD5014D9214
:1051A0005D926D927C921397BBCF019708F408959E
:1051B000EFE9FFE03197F1F700C00000F6CF8F92E2
:1051C0009F92AF92BF92CF92DF92EF92FF926901CE
:1051D0007A019B01AC010E94E2374B015C01A701FF
:1051E0009601C701B6010E94E2379B01AC01C501DF
:1051F000B4010E948B34FF90EF90DF90CF90BF906E
:10520000AF909F908F900C948138EBE6F0E0808116
:10521000897E8083E8E6F0E080818E7F8083089538
:1052200084B1897E84B99091430785B196FF0FC000
:10523000897E85B993FF0DC080916B008661809354
:105240006B0080916800816080936800089586619A
:10525000F0CF0C9405291F920F920FB60F921124D4
:105260002F933F934F935F936F937F938F939F936E
:10527000AF93BF93EF93FF938091AE05813071F0B0
:105280008091AF0585FD0AC00E94C6089FB7F894BB
:105290008091AF0580668093AF059FBFFF91EF912E
:1052A000BF91AF919F918F917F916F915F914F913E
:1052B0003F912F910F900FBE0F901F9018952F9236
:1052C0003F924F925F926F927F928F929F92AF9296
:1052D000BF92CF92DF92EF92FF920F931F93CF93E3
:1052E000DF93CDB7DEB7A4970FB6F894DEBF0FBE3D
:1052F000CDBF282E8091AD058111FAC0E0904A07FC
:10530000F0904B0700914C0710914D07EB8AFC8AF7
:105310000D8B1E8B3AE2A32E37E0B32E8E01035F76
:105320001F4F68019E01205F3F4F790110E0312C33
:10533000812C912C00E0812F0E943C23D7018D937A
:105340007D01812F0E942823F60181936F01D501F1
:105350004D905D906D907D905D01232D382D492DF0
:10536000502FC301B2010E94803587FF04C0342C46
:10537000852C962C072D1F5F1330E9F620E030E0D6
:1053800040EC5FEB632D782D892D902F0E94E23742
:105390004B015C010E948E2426E0522EDD24D39422
:1053A00044244394E22DF0E0FC8FEB8F95018401BF
:1053B00030580D8F1E8F2F8F38A32DE030E02C0F2B
:1053C0003D1F2D5F3F4F388F2F8B809143076D2CF2
:1053D00086FDA7C0A09145078A2F90E09CA38BA3D0
:1053E000DE0111961D01FD01712C60E090E080E06E
:1053F000A9A33AA2782F4B8D5C8D082E02C055953B
:1054000047950A94E2F79A012170332740FF90C034
:105410006F5FD11088C0ED8CFE8C0F8D18A1E082DB
:10542000F182028313834BA15CA102C0559547957D
:105430007A95E2F740FF0CC0E080F1800281138191
:1054400017FB109517F91095E082F1820283138300
:10545000232B49F02DE030E02C0F3D1F280F391F82
:10546000D9012C91722A019634968330910511F658
:1054700070E090E080E00E9432360E9481387092A5
:10548000B0052B893C894D895E890E94E237AB01CA
:10549000BC01C12CE12CF12C870120E0CE0101964A
:1054A0000E94E5240E9454190E94351693B166208B
:1054B00011F0B6E19B27DE015096FE013D968191E9
:1054C000282F272129F02C91292311F0809578226B
:1054D0001196EF88F88CEE15FF0589F77092B005EC
:1054E0000E9454198091AF0584FF27C00E94AB141D
:1054F000A4960FB6F894DEBF0FBECDBFDF91CF915B
:105500001F910F91FF90EF90DF90CF90BF90AF90E1
:105510009F908F907F906F905F904F903F902F90D3
:105520000895642457CF80829182A282B3827BCF78
:10553000108211821282138276CF872D8C7109F02E
:10554000B5CF0E94E4180E948E2480914E0790915E
:105550004F070E94D528E0904607F090470700913A
:10556000480710914907EB8AFC8A0D8B1E8BD424C7
:105570005A9451102ACF80914507082F10E01C8BB8
:105580000B8B8090500790905107A0905207B090DD
:105590005307D501C401B0588F8B988FA98FBA8F4C
:1055A0008DEAC82E85E0D82E96E0E92E97E0F92EF8
:1055B00010E000E08B8D9C8D002E02C095958795A4
:1055C0000A94E2F780FF72C08B899C89002E02C08A
:1055D000959587950A94E2F780FF57C0D701949676
:1055E0004D905D906D907C909797A5019401C301BB
:1055F000B2010E948B34F1016083718382839383B3
:10560000D7012D913D914D915C91C301B2010E9452
:10561000E2370E94AF37F6016483758386839783F0
:105620000F5F1F4FF4E02F0E311C24E0C20ED11C7F
:1056300034E0E30EF11C0330110509F0BBCF0E94EA
:10564000EE2740914A0750914B0760914C077091AB
:105650004D07C12CE12CF12C870120E089A19AA1F2
:105660000E94E52488E08093AE059FB7F89480916E
:10567000AF0582608093AF059FBF0E94AB140E946C
:105680001D1684E08093AE0533CF8F89988DA98D48
:10569000BA8DF10180839183A283B383D6011496DE
:1056A0001D921D921D921C921797BACFF60164812C
:1056B0007581868197810E943436D7012D913D9165
:1056C0004D915C910E948A35F101608371838283E0
:1056D0009383A6CFAF92BF92CF92DF92EF92FF92C9
:1056E0000F931F93CF93DF93EC010AE217E05C0165
:1056F0008CE0A80EB11CC990D990E990F99020E0F7
:1057000030E0A901C701B6010E94A237181664F063
:10571000F80121913191419151918F01C701B60159
:105720000E94803587FF33C08091AE058031C9F477
:105730009FB7F8948091AF0588608093AF059FBFB5
:105740000E94AB148091AD058823D1F3DF91CF91F6
:105750001F910F91FF90EF90DF90CF90BF90AF908F
:1057600008950E94C6089FB7F8948091AF0580669F
:105770008093AF059FBFDF91CF911F910F91FF9055
:10578000EF90DF90CF90BF90AF900C94AB14CA1500
:10579000DB0509F0B0CFDACFCF93DF93EC0189912D
:1057A000811103C0DF91CF9108950E94F013F7CFCC
:1057B000CF93DF93EC01FE0184912196811103C008
:1057C000DF91CF9108950E94F013F5CFEF92FF92F1
:1057D0000F931F93CF93DF93CDB7DEB728970FB604
:1057E000F894DEBF0FBECDBF9E012F5F3F4F790102
:1057F000285F3F4FF701982F917091938695E2179C
:10580000F307C9F78F01F80182918F01805D0E9433
:10581000F0130E151F05B9F728960FB6F894DEBFE2
:105820000FBECDBFDF91CF911F910F91FF90EF90F1
:105830000895EF92FF920F931F93CF93DF9300D0C1
:105840001F92CDB7DEB781110CC080E30F900F908F
:105850000F90DF91CF911F910F91FF90EF900C94DB
:10586000F01300E09E012F5F3F4F79012AE0F7011E
:10587000E00FF11D622F0E94EB38905D90830F5F67
:105880008111F5CF0E0D1F2D111DE016F10651F4FB
:105890000F900F900F90DF91CF911F910F91FF907C
:1058A000EF900895F80182918F010E94F013EDCFDF
:1058B0008F929F92AF92BF92CF92DF92EF92FF9220
:1058C0000F931F93CF93DF93CDB7DEB72A970FB611
:1058D000F894DEBF0FBECDBF6B017C01142F20E01A
:1058E00030E0A9010E94803587FF07C08DE20E9449
:1058F000F013F7FAF094F7F8F094012F023008F063
:1059000054C010FF0AC020E030E040E251E4C7017B
:10591000B6010E94E2376B017C0120E030E040E0FC
:105920005FE3C701B6010E948B340E94FC359E01E3
:105930002F5F3F4F7901F901E10FF11D2EE2208326
:1059400000E02AE0822E912CA12CB12C611571056A
:1059500081059105B1F5F701E00FF11D80E3011715
:1059600008F440C0011308C0E1E0E00FEE0DFF2D88
:10597000F11D0E5F80E380830E0D1F2D111DE016BB
:10598000F10699F52A960FB6F894DEBF0FBECDBF8B
:10599000DF91CF911F910F91FF90EF90DF90CF900B
:1059A000BF90AF909F908F90089520E030E048EC3A
:1059B00052E4C701B6010E94E2376B017C0102503C
:1059C0009DCF011301C00F5F6701C00ED11CA5015F
:1059D00094010E94F738605DF6016083B901CA0145
:1059E0000F5FB4CF0F5F8193BACFF80182918F011F
:1059F0000E94F013C4CF2091430743E020FF07C06B
:105A00002BE832E441E25DE30E94E23744E00C948B
:105A1000582C2091430740E020FF07C02BE832E4D8
:105A200041E25DE30E94E23741E00C94582C43E0F0
:105A30000C94582C3D988091430787FF04C04598EB
:105A4000109254070895459A80E280935407089570
:105A500086B1807290915407892708958091BE0580
:105A60008130A1F40E94282D882381F01092BE0578
:105A70008CE0E1EBF5E0AFEBB5E001900D928A959B
:105A8000E1F78091AF0588608093AF050895CF93CB
:105A9000C82F86ED97E00E94D82BEFEFEC0FE63190
:105AA00008F057C0F0E0E95AF24D0C9419396D2D09
:105AB000822D852D882D8B2D8E2D912D942D972D1A
:105AC0009A2D9D2DA92DA92DA92DA92DA92DA92D41
:105AD000A92DA92DA32DA02DA62D8EEB97E00E9418
