:100000000C944B040C9468040C9468040C944D29D3
:100010000C94AF320C9468040C9468040C9468043B
:100020000C9468040C9468040C9468040C94B11645
:100030000C9468040C9468040C9468040C94680490
:100040000C94D5180C9468040C9476140C94381401
:100050000C9468040C9468040C9468040C94680470
:100060000C9468040C946804A30B6B0D6B0DAD0B22
:10007000BA0BC70BD40B6B0DD80B6B0DE60B6B0DCE
:10008000F00BFA0B2B0C6B0D6B0D6B0D040C110CA4
:100090001E0C081219124C12191250126312561229
:1000A0005C1246224C224F225222572261226B229E
:1000B000FA22FA22FA2275227722802289229322BA
:1000C000FA22FA22FA22FA22FA229D22A922B9223F
:1000D000C322C622CF22D822DE22FA22FA22FA2214
:1000E000FA22FA22FA22FA22FA22FA22FA22FA2230
:1000F000FA22E722602D632D682D6B2D6E2D712D58
:10010000742D772D7A2D7D2D802D8C2D8C2D8C2D81
:100110008C2D8C2D8C2D8C2D8C2D862D832D892D29
:10012000084AD73B3BCE016E84BCBFFDC12F3D6C5E
:1001300074319ABD56833DDA3D00C77F11BED9E4C4
:10014000BB4C3E916BAAAABE000000803F05A84CA4
:10015000CDB2D44EB93836A9020C50B99186880870
:100160003CA6AAAA2ABE000000803F003E0D0A005D
:100170006F66663A006F6E3A002C6C617365722090
:10018000007A00790078002C6C696D6974733A000C
:100190002C52583A002C4275663A002C002C5750CD
:1001A0006F733A002C002C4D506F733A003C43683B
:1001B00065636B003C416C61726D003C486F6D651E
:1001C000003C486F6C64003C52756E003C51756594
:1001D0007565003C49646C65005D0D0A005B302E5E
:1001E00039675F32303231303731345F64356533EF
:1001F0003165653A000D0A003D00244E005D0D0A90
:1002000000205300204600205400204D3800204D8F
:100210003900204D3500204D3400204D3300204D55
:100220003200204D3100204D30002047393400206D
:100230004739330020473931002047393000204703
:100240003230002047323100204731390020473119
:10025000380020473137002047005B473830005BCB
:100260004733005B4732005B4731005B4730005D3E
:100270000D0A005B544C4F3A005D0D0A002C005BE8
:100280004739323A005D0D0A002C003A0033300045
:100290003238005B47005D0D0A002C005B50524273
:1002A0003A00290D0A00206D61782074726176652C
:1002B0006C2C206D6D0020616363656C2C206D6D6E
:1002C0002F7365635E3200206D6178207261746502
:1002D0002C206D6D2F6D696E002C20737465702F4E
:1002E0006D6D007A00790078002028003D00240020
:1002F00020287475726E204C61736572206D6F6476
:1003000065206F6E2C20626F6F6C290D0A002434FB
:10031000303D002028686F6D696E672070756C6CC9
:100320002D6F66662C206D6D290D0A002028686FE0
:100330006D696E67206465626F756E63652C206DF4
:10034000736563290D0A2432373D002028686F6DDC
:10035000696E67207365656B2C206D6D2F6D696EFE
:10036000290D0A2432363D002028686F6D696E67BA
:1003700020666565642C206D6D2F6D696E290D0AF0
:100380002432353D00290D0A2432343D00202868EE
:100390006F6D696E672064697220696E766572742C
:1003A000206D61736B3A002028686F6D696E67205D
:1003B0006379636C652C20626F6F6C290D0A24329F
:1003C000333D00202868617264206C696D69747324
:1003D0002C20626F6F6C290D0A2432323D002028D8
:1003E000736F6674206C696D6974732C20626F6F13
:1003F0006C290D0A2432313D0020286175746F206C
:1004000073746172742C20626F6F6C290D0A243230
:10041000303D0020287265706F727420696E6368C9
:1004200065732C20626F6F6C290D0A2431343D00F6
:10043000202861726320746F6C6572616E63652C35
:10044000206D6D290D0A2431333D0020286A756E18
:100450006374696F6E20646576696174696F6E2C70
:10046000206D6D290D0A2431323D00290D0A2431F9
:10047000313D002028737461747573207265706F4C
:100480007274206D61736B3A00202870726F626520
:100490002070696E20696E766572742C20626F6FB1
:1004A0006C290D0A2431303D0020286C696D697477
:1004B0002070696E7320696E766572742C20626F8D
:1004C0006F6C290D0A24363D002028737465702056
:1004D000656E61626C6520696E766572742C20624F
:1004E0006F6F6C290D0A24353D00290D0A24343D17
:1004F00000202864697220706F727420696E7665BE
:100500007274206D61736B3A00290D0A24333D002B
:1005100020287374657020706F727420696E766520
:100520007274206D61736B3A0020287374657020BB
:1005300069646C652064656C61792C206D736563FA
:10054000290D0A24323D00202873746570207075CF
:100550006C73652C2075736563290D0A24313D0089
:1005600024303D0024242028766965772047726274
:100570006C2073657474696E6773290D0A242320D7
:100580002876696577202320706172616D657465D6
:100590007273290D0A2447202876696577207061D7
:1005A00072736572207374617465290D0A24492081
:1005B0002876696577206275696C6420696E666F5C
:1005C000290D0A244E20287669657720737461729C
:1005D00074757020626C6F636B73290D0A24783D0B
:1005E00076616C7565202873617665204772626C50
:1005F0002073657474696E67290D0A244E783D6C0A
:10060000696E6520287361766520737461727475F4
:100610007020626C6F636B290D0A24432028636885
:1006200065636B2067636F6465206D6F6465290D7A
:100630000A245820286B696C6C20616C61726D20F3
:100640006C6F636B290D0A2448202872756E206830
:100650006F6D696E67206379636C65290D0A7E2072
:10066000286379636C65207374617274290D0A21A3
:1006700020286665656420686F6C64290D0A3F2038
:100680002863757272656E74207374617475732952
:100690000D0A6374726C2D7820287265736574205E
:1006A0004772626C290D0A000D0A4772626C203095
:1006B0002E39675F32303231303731345F6435651F
:1006C00033316565205B27242720666F72206865BB
:1006D0006C705D0D0A005D0D0A0044697361626C07
:1006E000656400456E61626C6564004361757469A0
:1006F0006F6E3A20556E6C6F636B656400272448FB
:10070000277C2724582720746F20756E6C6F636BCD
:1007100000526573657420746F20636F6E74696E28
:100720007565005B000D0A005258204275666665CB
:1007300072204F76657272756E0050726F6265201E
:100740006661696C0041626F727420647572696ED3
:1007500067206379636C6500486172642F736F660C
:1007600074206C696D697400414C41524D3A20000F
:100770000D0A00202A00496E76616C696420676367
:100780006F64652049443A00556E646566696E651C
:10079000642066656564207261746500556E7375CA
:1007A00070706F7274656420636F6D6D616E64004C
:1007B0004D6F64616C2067726F75702076696F6C25
:1007C0006174696F6E004C696E65206F7665726644
:1007D0006C6F7700486F6D696E67206E6F7420656F
:1007E0006E61626C656400416C61726D206C6F6358
:1007F0006B004E6F742069646C6500454550524F24
:100800004D2072656164206661696C2E20557369A4
:100810006E672064656661756C74730056616C75F3
:1008200065203C20332075736563005365747469DB
:100830006E672064697361626C65640056616C75F3
:1008400065203C203000496E76616C6964207374C9
:100850006174656D656E7400426164206E756D62D1
:10086000657220666F726D6174004578706563749F
:10087000656420636F6D6D616E64206C6574746572
:1008800072006572726F723A20000D0A003A002001
:100890002A006F6B000011241FBECFEFD8E0DEBF2F
:1008A000CDBF11E0A0E0B1E0ECE2F2E702C00590BC
:1008B0000D92A432B107D9F727E0A4E2B1E001C05C
:1008C0001D92A535B207E1F70E946A040C94143911
:1008D0000C9400000E9406140E9406230E945119E5
:1008E0000E949E328EE1EDEAF5E0DF011D928A95CD
:1008F000E9F781E08093AD0578949091430794FDEA
:100900008093AE05C1E00E94D2140E9494090E9417
:1009100072130E94E7130E9432290E94222D0E9426
:10092000A0240E9425190E9414280E94A609109252
:10093000AD051092AF058091430781FF03C0C093BE
:10094000BD0502C01092BD050E949015DCCF4F92EC
:100950005F926F927F928F929F92AF92BF92CF924F
:10096000DF92EF92FF920F931F93CF93DF93EC01EF
:100970004A015B01D22E270138018091430785FF90
:1009800003C0CE010E94742B8091AE058230E1F04D
:100990000E94D7148091AD05811116C00E94EF24EA
:1009A000882319F00E948315F3CF830172012D2D46
:1009B000B501A401CE010E94F7248091AE058111FA
:1009C00003C088E08093AE05DF91CF911F910F9116
:1009D000FF90EF90DF90CF90BF90AF909F908F905F
:1009E0007F906F905F904F9008952F923F924F921B
:1009F0005F926F927F928F929F92AF92BF92CF92AF
:100A0000DF92EF92FF920F931F93CF93DF93CDB7B7
:100A1000DEB7E5970FB6F894DEBF0FBECDBF9E8759
:100A20008D87788B6F873A0109831A832B833C83E8
:100A3000C98ADA8AEB8AFC8AAF8A24E0829E400166
:100A40001124880D991D998F888FCA01880D991DD1
:100A50009B8F8A8FDC012D903D904D905C90E88DAE
:100A6000F98D2081318142815381C201B1010E94FF
:100A700066346C8F7D8F8E8F9F8F2B96AFAC2B97AC
:100A8000F4E0AF9E500111242D853E852A0D3B1DBB
:100A900039A328A3C3018A0D9B1D9BA38AA3DC0154
:100AA000CD90DD90ED90FC90F90120813181428163
:100AB0005381C701B6010E9466346CA37DA38EA347
:100AC0009FA33201210177FA709477F87094D701CF
:100AD000C601B0588D839E83AF83B887EF85F889B0
:100AE000E80DF91D2C8D3D8D4E8D5F8D60817181DE
:100AF000828193810E9465346B017C01EF85F889C6
:100B0000EA0DFB1D2CA13DA14EA15FA16081718169
:100B1000828193810E9465344B015C01A70196019B
:100B2000C301B2010E94BD3769877A878B879C8792
:100B3000A50194016D817E818F8198850E94BD37CA
:100B40009B01AC0169857A858B859C850E94663402
:100B500069877A878B879C87A5019401C301B201BD
:100B60000E94BD374B015C01A70196016D817E811A
:100B70008F8198850E94BD379B01AC01C501B401EE
:100B80000E94653429853A854B855C850E94E53451
:100B90006B017C018091CD0520E030E0A90182301D
:100BA00079F4C701B6010E947D3787FD19C02BED8E
:100BB0003FE049EC50E4C701B6010E9465340EC025
:100BC000C701B6010E945B35181654F02BED3FE0CB
:100BD00049EC50E4C701B6010E9466346B017C0108
:100BE00080903F0790904007A0904107B090420747
:100BF00029813A814B815C81CA01B9010E94663426
:100C0000A50194010E946534A50194010E94BD379D
:100C10000E945C384B015C0120E030E040E05FE383
:100C2000C701B6010E94BD3729813A814B815C81A1
:100C30000E94BD379F77A50194010E9465350E94EF
:100C40004A360E94DE3579A768A7DB01AB2B09F491
:100C500085C14B01A12CB12CBF89BB2381F0C501FB
:100C6000B4010E940D369B01AC0169897A898B8998
:100C70009C890E94BD37698B7A8B8B8B9C8BC501BD
:100C8000B4010E940D364B015C019B01AC01C70110
:100C9000B6010E94653569877A878B879C872C9679
:100CA0008FAD2C97E4E08E9FC00111242D853E85E9
:100CB000280F391F3E8B2D8BEF85F889E80FF91F20
:100CC000D9012D913D914D915C916081718182811D
:100CD00093810E946534A50194010E9465356AAB39
:100CE0007BAB8CAB9DAB29853A854B855C85CA0176
:100CF000B9010E94BD379B01AC0160E070E080E06B
:100D000090E40E9465346B017C012BEA3AEA4AE2E6
:100D10005EE369857A858B859C850E94BD374B0192
:100D20005C0120E030E040E850E4C701B6010E94D9
:100D300066349B01AC01C501B4010E94BD376AA7AE
:100D40007BA78CA79DA720E030E040E05FE3C701D0
:100D5000B6010E94BD376EA77FA788AB99AB1982F9
:100D600022242394312CE8A5F9A52E163F0609F478
:100D7000F5C0B981BC3008F040C02EA53FA548A9F8
:100D800059A96D817E818F8198850E94BD376B0145
:100D90007C012AA53BA54CA55DA5C301B2010E941B
:100DA000BD37A70196010E9466346B017C012EA518
:100DB0003FA548A959A9C301B2010E94BD374B0103
:100DC0005C012AA53BA54CA55DA56D817E818F8127
:100DD00098850E94BD379B01AC01C501B4010E94FA
:100DE00065342B013C01E981EF5FE983C601D7013E
:100DF0008D839E83AF83B88765C0B10180E090E0AA
:100E00000E940D3629853A854B855C850E94BD3749
:100E10006B017C010E9460356D837E838F83988790
:100E2000C701B6010E944E384B015C01AA8DBB8DF3
:100E3000CD90DD90ED90FC90F7FAF094F7F8F094F7
:100E4000AAA1BBA18D919D910D90BC91A02D8983EC
:100E50009A83AB83BC83A70196016D817E818F81CC
:100E600098850E94BD372B013C0129813A814B8135
:100E70005C81C501B4010E94BD379B01AC01C30177
:100E8000B2010E9466342B013C01A7019601C50105
:100E9000B4010E94BD376B017C0129813A814B81ED
:100EA0005C816D817E818F8198850E94BD379B0119
:100EB000AC01C701B6010E9465346D837E838F83C8
:100EC000988719822C8D3D8D4E8D5F8DC301B201A7
:100ED0000E946634E88DF98D6083718382839383E9
:100EE0002CA13DA14EA15FA16D817E818F8198854E
:100EF0000E946634A8A1B9A16D937D938D939C93B4
:100F000013972AA93BA94CA95DA9ED89FE896081A7
:100F10007181828193810E946634AD89BE896D930F
:100F20007D938D939C9313976196CFAC6197609658
:100F3000ECACFDAC0EAD1FAD60972F8949895A8985
:100F40006B897C898D859E850E94A7048091AD0563
:100F5000811116C0BFEF2B1A3B0A05CF6196CFACAB
:100F600061976096ECACFDAC0EAD1FAD60972F891C
:100F700049895A896B897C898F8598890E94A70441
:100F8000E5960FB6F894DEBF0FBECDBFDF91CF91CF
:100F90001F910F91FF90EF90DF90CF90BF90AF9097
:100FA0009F908F907F906F905F904F903F902F9089
:100FB00008958F929F92AF92BF92CF92DF92EF925D
:100FC000FF922091AE05223009F447C04B015C012D
:100FD00020E030E040EA51E40E94BD370E944A36EA
:100FE0000E94DE356B017C010E944C1620E030E04F
:100FF0004AE754E4C501B4010E94BD374B015C01CE
:1010000082E38C9DB0018D9D700D112480E090E0F5
:101010000E940D369B01AC01C501B4010E946534EC
:101020000E944A360E94DE35CB010E94F628C11488
:10103000D10499F00E94D71421E0C21AD1088091FE
:10104000AD0581110AC08FEF90E722E081509040FA
:101050002040E1F700C00000EACFFF90EF90DF9062
:10106000CF90BF90AF909F908F9008952F923F9216
:101070004F925F926F927F928F929F92AF92BF92A8
:10108000CF92DF92EF92FF920F931F93CF93DF9354
:101090003091AE05323009F4A6C0322E4A015B0110
:1010A000C92FD82F0E944C162090BD050E94302DCC
:1010B000882351F09FB7F8948091AF0580648093A6
:1010C000AF059FBF0E94D7148091AD0581118BC0E1
:1010D000C12CE12CF12C8701232DB501A4018D2F0A
:1010E0009C2F0E94A70481E08093BE059FB7F894CF
:1010F0008091AF0582608093AF059FBF0E94D71497
:101100008091AD0581116FC08091AE05877FB1F7E9
:101110008091BE05813041F49FB7F8948091AF056E
:1011200080648093AF059FBF0E94D7148091AD0566
:10113000811159C00E9425190E94A0240E941428E0
:101140008FEB682E85E0782E06E017E04D2E5C2EA2
:10115000F30161917191819191913F01F801C190E9
:10116000D190E190F1908F010E940F36A701960176
:101170000E946535F20161937193819391932F01E0
:10118000F7E002311F0721F7C12CE12CF12C870178
:10119000232DB501A4018D2F9C2F0E94A7049FB77A
:1011A000F8948091AF0582608093AF059FBF0E9445
:1011B0004C168091AD05811116C02092BD05DF91BE
:1011C000CF911F910F91FF90EF90DF90CF90BF9044
:1011D000AF909F908F907F906F905F904F903F90D7
:1011E0002F900C94C82FDF91CF911F910F91FF90FA
:1011F000EF90DF90CF90BF90AF909F908F907F90B7
:101200006F905F904F903F902F9008958091AF0521
:1012100084FD1AC09FB7F8948091AF0580618093D8
:10122000AF059FBF0E9469130E94E5138091AE0530
:10123000847351F09FB7F8948091AF0580628093DA
:10124000AF059FBF0C948616089583B18671909167
:10125000430796FD02C096E18927882359F00E9432
:1012600006099FB7F8948091AF0580668093AF051B
:101270009FBF089584E08093AE050E9469130E9489
:10128000272983E00E9481290E94D7148091AD050F
:10129000811108C00E94A6091092AE050E94861610
:1012A0000C9432290895CF93209136063091370659
:1012B00040913806509139066091E0057091E10542
:1012C0008091E2059091E3050E945B35811128C071
:1012D00020913A0630913B0640913C0650913D06E4
:1012E0006091E4057091E5058091E6059091E70530
:1012F0000E945B35811114C0C1E020913E063091FF
:101300003F0640914006509141066091E80570917A
:10131000E9058091EA059091EB050E945B3581110A
:10132000C0E08C2FCF9108958BE3EDECF5E0DF0169
:101330001D928A95E9F76CEE75E080E00E94AA2183
:10134000811103C087E00C94A42D08958F929F9281
:10135000AF92BF92EF92FF920F931F93CF93DF93C1
:10136000C1EBD5E086E0E82E87E0F82E00EE15E030
:101370006991799189919991F70181909190A190CA
:10138000B1907F010E940F36A50194010E9465353E
:10139000F80161937193819391938F01F5E0CD3BB7
:1013A000DF0731F7DF91CF911F910F91FF90EF9001
:1013B000BF90AF909F908F9008952F923F924F9241
:1013C0005F926F927F928F929F92AF92BF92CF92D5
:1013D000DF92EF92FF920F931F93CF93DF93CDB7DE
:1013E000DEB7AB970FB6F894DEBF0FBECDBF98A3A4
:1013F0008F8F8AE3E8E0F6E0DF011D928A95E9F736
:101400008AE0EDECF5E0AAE0B6E001900D928A9555
:10141000E1F71D8E212C312C812C912C19A2F12C5D
:101420001E8EAA24A394B12CEE24E39402E0D02EC5
:1014300084E0C82E8D8DEF8DF8A1E80FF11D00819D
:10144000002309F432C29FEB900F9A3128F00E94DA
:10145000691381E00C943F138F5F8D8FAE01475E5F
:101460005F4FBE01635E7F4F8F8D98A10E9436282B
:10147000811105C00E94691382E00C943F13498CCE
:101480005A8C6B8C7C8CC301B2010E94A0380E94E4
:10149000DE35162F70E080E090E00E940F369B0151
:1014A000AC01C301B2010E94653420E030E048EC99
:1014B00052E40E94BD370E942A380E94DE3507346C
:1014C00021F00D3409F4EDC02EC1163209F456C0D6
:1014D000B0F4143150F4113108F082C01430E1F14D
:1014E00008F44CC01A3061F1F6C21C3149F120F405
:1014F000163108F495C0EFC21E3111F1ECC210355F
:1015000009F466C090F41533A1F138F41B3209F4E4
:1015100090C0113309F48DC0DEC21C3308F0DBC269
:1015200016531093100687E098C01C3549F020F43C
:101530001A3508F063C0CFC21F3508F468C0CBC2AB
:1015400061118EC0BE8DBB2311F40C9422130E9436
:10155000691388E10C943F13E09209060DC01F3116
:1015600010F40C940C13153311F00C943613A1E005
:10157000AE8FB7E0B093090680E06FC03E8D3111A9
:10158000E6CF82E08E8F1230B1F048F4112381F063
:10159000113011F510930A06109308061FC0163279
:1015A00081F01035A9F01330B9F410930A0606C083
:1015B00010920A0603C09E8D90930A06E0920806D8
:1015C0000DC0643109F087C2C0920A0681E058C09C
:1015D000A5E0A0930A0602C01092080681E03DC073
:1015E000123129F0133131F010920E0605C0E0924D
:1015F0000E0602C0D0920E0682E02FC01A3519F4F2
:1016000010920D0602C0E0920D0683E026C01D3543
:1016100019F4E0920B0602C010920B0684E01DC084
:10162000143119F4E0920C0602C010920C0685E009
:1016300014C0BE8DB1118BCF113331F410920F064F
:1016400086E0E3E0EE8F1CC06A3009F044C2E0920D
:101650000F0686E0F3E0FE8F13C0662389F023C0F7
:101660001E3109F4D2C708F0DFC71A3009F4D8C711
:101670001C31C9F46A3009F02EC2C092090680E01C
:10168000D50102C0AA0FBB1F8A95E2F7CD019401D4
:1016900028233923232B09F443C00E94691385E1D1
:1016A000EEC7662321F00E94691387E1E8C7163070
:1016B00018F4133048F014C0183008F40CC21A3073
:1016C000E8F01E3151F007C2123039F01E3129F016
:1016D00011111DC0E09211061AC0D092110617C058
:1016E000143029F0153031F0E092130605C0D09285
:1016F000130602C01092130689E00AC0193019F0CF
:10170000D092120602C0109212068AE001C088E050
:10171000F50102C0EE0FFF1F8A95E2F7CF01B7CFA8
:10172000882A992A87CE802F000F990BAA0BBB0B12
:10173000FC01E654F109E531F10508F0CCC1EC5C9F
:10174000FF4F0C94F43840921406509215066092A4
:1017500016067092170680E07FC0409218065092DD
:10176000190660921A0670921B06F9A1F160F9A39E
:1017700081E072C040921C0650921D0660921E06C7
:1017800070921F0629A1226029A382E065C04092C1
:10179000200650922106609222067092230639A1FB
:1017A000346039A383E058C01093240684E054C009
:1017B000C301B2010E94D7356093250670932606B7
:1017C000809327069093280685E046C0409229061C
:1017D00050922A0660922B0670922C0686E03CC03E
:1017E00040922D0650922E0660922F06709230067F
:1017F00087E032C040923106509232066092330642
:101800007092340688E028C040923606509237061F
:1018100060923806709239068F2D8160F82E8AE02A
:101820001BC040923A0650923B0660923C06709272
:101830003D069F2D9260F92E8BE00EC040923E0631
:1018400050923F066092400670924106AF2DA46010
:10185000FA2E8CE001C089E08501082E02C0000F3D
:10186000111F0A94E2F7910120233123232B21F049
:101870000E94691389E103C7E1E6F3E002C0F59530
:10188000E7958A95E2F7E0FF0DC020E030E0A9017E
:10189000C301B2010E945B3587FF04C00E94691337
:1018A00084E0EDC6202A312AC5CDFF2029F0FE8D27
:1018B000F11102C022E02E8F25FE11C08091250675
:1018C00090912606A0912706B09128068038964967
:1018D000A849B10524F00E9469138BE1D0C680911C
:1018E0000B06813031F48E8D8230A1F520FC32C0A0
:1018F000AAC28091CE0581112DC020FE1BC080910F
:101900000C06813039F523E333E34BEC51E460916D
:1019100014067091150680911606909117060E9484
:10192000BD37609314067093150680931606909346
:10193000170610C08091DB059091DC05A091DD05B4
:10194000B091DE058093140690931506A0931606B9
:10195000B093170630FC10C08091D7059091D80540
:10196000A091D905B091DA058093310690933206A3
:10197000A0933306B093340680910906813041F478
:1019800026FC04C00E9469138CE179C6E89426F80D
:1019900080910E06882371F0813031F491E099A78F
:1019A00018A6A2E0AFA30BC019A6B2E0B8A7E1E069
:1019B000EFA305C0F2E0F9A721E028A71FA28091BC
:1019C0000C06813021F03E8D3330C1F52CC0B8E0DB
:1019D000CB2EB6E0DB2E00E010E0AF2CB12CC50121
:1019E000002E02C0959587950A94E2F780FF12C0F9
:1019F00023E333E34BEC51E4D6019E966D917D9148
:101A00008D919C91D1970E94BD37F60166A777A76B
:101A100080AB91AB0F5F1F4FF4E0CF0ED11C0330B2
:101A20001105E9F6D0CF80910F06813039F424E01A
:101A3000F21621F00E94691385E221C68CE0ECEEDB
:101A4000F5E0DE011D9601900D928A95E1F787FE83
:101A500017C080911006873020F00E9469138DE135
:101A60000EC69091D305891759F0BE01635F7F4F71
:101A70000E94AA21811104C00E94691387E0FFC55A
:101A8000309109063F8F323021F0383009F4A4C07C
:101A90000CC1F11004C00E9469138AE1F0C5C101B4
:101AA00080759927892B09F46DCF60912906709173
:101AB0002A0680912B0690912C060E94A0380E9445
:101AC000DE35673050F680912406843141F0823053
:101AD00011F427FE04C00E94691384E1D0C5662377
:101AE00019F061506F8F03C0809110068F8FBE0177
:101AF0006F5F7F4F8F8D0E94AA21882309F4BCCF8E
:101B0000E09024064090040650900506609006067A
:101B1000709007068E010F5F1F4FF8E08F2EF6E0E2
:101B20009F2EADECAA2EA5E0BA2EC12CD12CAF2D44
:101B3000B0E0BEA3ADA38DA19EA10C2C02C09595D3
:101B400087950A94E2F780FF34C0B4E1EB1227C016
:101B5000F50123A534A545A556A563897489858912
:101B600096890E946534D4019E962D913D914D91A8
:101B70005C91D1970E946534F80160837183828300
:101B80009383F2E0CF1215C0A30192010E94653445
:101B9000D8016D937D938D939C9313970AC0F401A4
:101BA00086A597A5A0A9B1A9F80180839183A283F6
:101BB000B383FFEFCF1ADF0A0C5F1F4F24E0820EC2
:101BC000911C34E0A30EB11C83E0C816D10409F0C7
:101BD000B2CF9FEA292213C1FF2009F45CCF4090C5
:101BE000040650900506609006067090070608E00F
:101BF00016E0EDECAE2EE5E0BE2E4E019DE0890E26
:101C0000911CC12CD12CAF2DB0E0B8A3AF8F8F8D1C
:101C100098A10C2C02C0959587950A94E2F780FF55
:101C200029C0F4012081318142815381D50153962D
:101C30006D917D918D919C9156970E946534F8012C
:101C400026A537A540A951A90E946534D8019E96C2
:101C50006D937D938D939C93D197B2E0CB1214C07A
:101C6000A30192010E946534F80166A777A780ABB3
:101C700091AB0AC0F50183A594A5A5A5B6A5F80169
:101C800086A797A7A0ABB1ABFFEFCF1ADF0A0C5F17
:101C90001F4F24E0A20EB11C34E0830E911C83E0A0
:101CA000C816D10409F0B3CFA9C09E8D933079F442
:101CB000AF8DA53009F491C0A73009F497C0A330C7
:101CC00009F09CC0BE016F5F7F4F86E08AC0FF2095
:101CD00079F3E0900D064090040650900506609060
:101CE0000606709007067DECA72E75E0B72E08E07B
:101CF00016E04E01BDE08B0E911CC12CD12CEF2DB6
:101D0000F0E0FEA3EDA38DA19EA10C2C02C0959541
:101D100087950A94E2F780FD0BC0F50183899489C9
:101D2000A589B689F80186A797A7A0ABB1AB44C037
:101D3000FF8DF73009F440C0E1102BC0D5019B9610
:101D40002D913D914D915C919E97F401608171813F
:101D5000828193810E946634D8019E962D913D9197
:101D60004D915C91D1970E946634F80166A777A7E0
:101D700080AB91ABF2E0CF121FC0A30192010E9491
:101D80006634D8019E966D937D938D939C93D197E5
:101D900013C0F5012389348945895689D8019E9657
:101DA0006D917D918D919C91D1970E946634F8013F
:101DB00066A777A780AB91ABFFEFCF1ADF0A24E0CD
:101DC000A20EB11C0C5F1F4F34E0830E911C83E008
:101DD000C816D10409F097CF6BCFBE016F5F7F4F5C
:101DE00087E00E94AA21811109C046CE80910A068F
:101DF000823020F00E9469138EE141C41F8E109141
:101E00000A06153059F4FF2009F426C2AE8DA13020
:101E100009F42AC20E9469138FE131C4BE8DB23029
:101E200009F01AC21123F1F020E030E0A90160911D
:101E300014067091150680911606909117060E945F
:101E40005B35811104C00E94691386E118C4143007
:101E500028F4123058F4113029F006C2143009F475
:101E6000F3C102C2FF2009F4FAC1FEC1FF2009F448
:101E700012CEFFA1EF2FF0E0FEA3EDA338A5232F94
:101E800030E03BA72AA781E090E08C010FA002C0C0
:101E9000000F111F0A94E2F708A402C0880F991FCF
:101EA0000A94E2F7082B192B8F2D90E080239123C1
:101EB000892B21F40E94691380E2E1C38DA19EA1C8
:101EC000880F991F880F991FFC01E85FF94FDC010B
:101ED000A353BA4F53962D913D914D915C915697D6
:101EE00066A577A580A991A90E9465346B017C0144
:101EF0008AA59BA5880F991F880F991FFC01E85F91
:101F0000F94FDC01A353BA4F53962D913D914D915A
:101F10005C91569766A577A580A991A90E94653422
:101F20002B013C0127FEE2C0E89427F80E945309E8
:101F3000882321F00E94691381E2A1C380910C06DD
:101F40008130B1F423E333E34BEC51E460912D068F
:101F500070912E0680912F06909130060E94BD3719
:101F600060932D0670932E0680932F069093300673
:101F700080902D0690902E06A0902F06B0903006EF
:101F800020E030E040E850E4C501B4010E94BD37D4
:101F9000A50194010E94BD374B015C01A701960188
:101FA000C701B6010E94BD379B01AC01C501B40158
:101FB0000E9465344B015C01A3019201C301B2018F
:101FC0000E94BD379B01AC01C501B4010E9465347C
:101FD0004B015C0120E030E0A9010E945B3587FFE6
:101FE00004C00E94691382E24AC3C501B4010E9481
:101FF0005C384B015C01A3019201C701B6010E944C
:1020000001299B01AC01C501B40190580E946535BE
:102010004B015C0180910A06833021F4B7FAB09439
:10202000B7F8B09480912D0690912E06A0912F06BE
:10203000B091300689A39AA3ABA3BCA320E030E003
:10204000A901BC01CD010E945B3587FF11C0B7FA21
:10205000B094B7F8B09489A19AA1ABA1BCA1B05833
:1020600080932D0690932E06A0932F06B0933006F2
:102070000DA11EA1000F111F000F111F085E194FA7
:10208000A3019201C501B4010E94BD379B01AC01BF
:10209000C701B6010E94653420E030E040E05FE314
:1020A0000E94BD37D8016D937D938D939C931397B8
:1020B0000AA51BA5000F111F000F111F085E194F65
:1020C000A7019601C501B4010E94BD37A301920189
:1020D0000E94663420E030E040E05FE30E94BD37BC
:1020E000F8016083718382839383BEC0F9A18F2E30
:1020F000912C08211921012B21F40E94691383E2FC
:10210000BEC221EF222280910C06813009F456C014
:102110000AA51BA5000F111F000F111F085E194F04
:10212000D8012D913D914D915C91C301B2010E9466
:1021300065342B013C018DA19EA1880F991F880F4A
:10214000991FFC01E85EF94F5F01208131814281D6
:102150005381C701B6010E946534A30192010E9418
:1021600001296B017C01D8012D913D914D915C912C
:10217000F50160817181828193810E9401294B0167
:102180005C0160932D0670932E0680932F0690932A
:1021900030069B01AC01C701B6010E9465346B019A
:1021A0007C01E894F7F82AE037ED43EA5BE3C701E6
:1021B000B6010E947D3718165CF156C088E0A82E43
:1021C00086E0B82E00E010E0C401002E02C0959514
:1021D00087950A94E2F780FF12C023E333E34BECC8
:1021E00051E4D50150966D917D918D919C915397BD
:1021F0000E94BD37F501608B718B828B938B0F5FD3
:102200001F4FF4E0AF0EB11C03301105E9F680CF8B
:1022100020E030E040E05FE3C701B6010E947D3777
:1022200018160CF487CE2FE632E143E85AE3C501D5
:10223000B4010E94BD379B01AC01C701B6010E94E9
:102240007D3718168CF476CEFF2009F424CC0E943A
:102250005309882349F06ECE2E8D211105C0C1018E
:102260008E7D9C7F1E8E03C0C1018E7D907E892B4A
:1022700021F00E94691384E202C280910B068093D0
:10228000CE058091140690911506A0911606B09186
:1022900017068093DB059093DC05A093DD05B093D2
:1022A000DE05C0903106D0903206E0903306F09003
:1022B0003406A70196016091D7057091D8058091E9
:1022C000D9059091DA050E945B358823D9F0C09238
:1022D000D705D092D805E092D905F092DA05809121
:1022E00043079091440790FF04C080910806811134
:1022F00009C08091D605882329F020E0B701A60106
:102300000E94A013809135068093DF05809113060B
:102310009091D6059817B9F08093D6052091430780
:102320003091440730FF04C09091080691110BC012
:102330004091D7055091D8056091D9057091DA0583
:1023400020E00E94A013809112069091D505981765
:1023500021F08093D5050E94EA138091090681300F
:1023600051F46091290670912A0680912B06909174
:102370002C060E94D90780910E068093D10580918A
:102380000C068093CF053E8D3330F9F480910F0613
:102390008093D205813089F480913E0690913F066A
:1023A000A0914006B09141068093040690930506E3
:1023B000A0930606B093070608C010920406109278
:1023C000050610920606109207068091100690915D
:1023D000D305981759F08093D3058CE0FE013D9604
:1023E000ACEEB5E001900D928A95E1F780910D0673
:1023F0008093D005E09109068E2F90E0FC01329782
:10240000E830F10508F05FC0E75BFF4F0C94F4384B
:10241000BE016F5F7F4F8F8D0E94CC208091D305CE
:102420009F8D981350C08CE0FE013196ACEEB5E064
:102430002EC0AE8DAA2399F0E090D705F090D80574
:102440000091D9051091DA05C090D60520E040E052
:1024500050E060E87FEB86E396E00E94A704E090FE
:10246000D705F090D8050091D9051091DA05C090F4
:10247000D60520E040E050E060E87FEBCE01019619
:102480000E94A7048CE0FE013196A0EEB5E0019019
:102490000D928A95E1F717C060EE75E086E003C003
:1024A00060EE75E087E00E94CC200DC08CE0E6E392
:1024B000F6E0A8EFB5E0EBCF8CE0E8EFF5E0DF0168
:1024C0001D928A95E9F780910A068093CD058530A3
:1024D00009F485C0BE8DB23009F081C08430E8F4C3
:1024E000823008F040C0882351F1813009F06EC07D
:1024F000E090D705F090D8050091D9051091DA0544
:102500004091DB055091DC056091DD057091DE05A1
:10251000C090D6052091CE0521C0843009F056C068
:102520004091DB055091DC056091DD057091DE0581
:102530002091CE0586E396E00E94360847C0E090E1
:10254000D705F090D8050091D9051091DA05C09013
:10255000D60520E040E050E060E87FEB86E396E0BF
:102560000E94A70433C0C090DB05D090DC05E0904A
:10257000DD05F090DE0500912D0610912E062091CC
:102580002F06309130068091D6058F938091DA0521
:102590008F938091D9058F938091D8058F938091E7
:1025A000D7058F93E9A5EF93F8A5FF938FA0A0908F
:1025B000CE0548E156E066E376E080EE95E00E94C5
:1025C000F5040FB6F894DEBF0FBECDBF8CE0E6E396
:1025D000F6E0A0EEB5E001900D928A95E1F78091CA
:1025E00011068093D405882309F449C00E944C1633
:1025F0001092BD058091D405823019F40E9406091D
:1026000002C01092D40580E03AC06A3009F063CA73
:1026100096E09093090633C81A30F1F4E1E0EE8FAA
:10262000D09209060C94BC0A153311F40C94B90A23
:102630001C3509F038C86A3009F04DCA29E02093EA
:1026400009061DC81E3111F00C94AF0A31E03E8F0F
:1026500085E08093090613C81C3121F4F1E0FE8F58
:1026600023E0EDCF80E021E02E8F0AC81C35D1F7A2
:10267000E1E0EE8FF8E0F09309060C943F0BAB9687
:102680000FB6F894DEBF0FBECDBFDF91CF911F9183
:102690000F91FF90EF90DF90CF90BF90AF909F9001
:1026A0008F907F906F905F904F903F902F90089504
:1026B000E0EBF0E080818F7780832B980895809104
:1026C000B300882329F08091B00080688093B00027
:1026D00008951092B300E0EBF0E080818F77808363
:1026E0002B980895239A239A259A0C946913823083
:1026F00040F48091B100887F81608093B10082E0D6
:1027000006C09091B100987F92609093B100809341
:10271000B3000895BC0180E090E00E940D3620E0F7
:1027200030E040E051E40E9466340E94DE35687F6C
:102730007770CB0123E0969587952A95E1F7089568
:10274000CF92DF92EF92FF92CF93DF939091AE05FD
:102750009230A1F1D22F6A017B01C82F80914307EB
:102760009091440790FF02C0211102C00E9483157E
:10277000809143079091440790FF02C0D11102C09D
:102780000E944C16C11108C0DF91CF91FF90EF90CD
:10279000DF90CF900C946913C13011F42D9801C0D3
:1027A0002D9AC701B6010E94DE35CB010E948A1323
:1027B0000E94771383E88093B0002B9ADF91CF912A
:1027C000FF90EF90DF90CF900895439808953B9A43
:1027D0000C94E513CF939091AE05923061F0C82F21
:1027E0000E9483150E944C16C23011F4439A03C014
:1027F000CF910C94E513CF9108959091260180918B
:102800002701891708F48058891B0895E0ECF0E04F
:102810008081826080831092C50080E18093C40033
:10282000E1ECF0E08081806180838081886080833A
:102830008081806880830895E091250191E09E0F5A
:10284000943431F490E004C02091AF0524FD0FC012
:10285000209124012917C1F3F0E0EE5BF94F80834A
:10286000909325018091C10080628093C1000895FA
:102870001F920F920FB60F9211248F939F93EF9395
:10288000FF9380912401E82FF0E0EE5BF94F9081F7
:102890009093C6008F5F843409F480E08093240114
:1028A00090912501891305C08091C1008F7D80938F
:1028B000C100FF91EF919F918F910F900FBE0F90EC
:1028C0001F9018959091260180912701981761F02B
:1028D000E92FF0E0EA57F94F80819F5F903809F4C3
:1028E00090E09093260108958FEF08951F920F9224
:1028F0000FB60F9211242F933F934F935F936F93D3
:102900007F938F939F93AF93BF93EF93FF938091A8
:10291000C6008132B1F028F48831C9F40E9406095A
:1029200030C08F3341F08E3791F49FB7F894809187
:10293000AF05826023C09FB7F8948091AF05816096
:102940001DC09FB7F8948091AF05886017C0E091D3
:10295000270191E09E0F903809F490E02091260124
:10296000921739F0F0E0EA57F94F808390932701EE
:1029700008C09FB7F8948091AF0580688093AF0539
:102980009FBFFF91EF91BF91AF919F918F917F91E9
:102990006F915F914F913F912F910F900FBE0F90CC
:1029A0001F90189580912701809326010895CF9359
:1029B000C091AF05CC2309F49DC08C2F807649F1DE
:1029C00081E08093AE050E945813C6FF17C0C5FF73
:1029D00002C08FEF01C08DEF0E94C92D81E00E94DF
:1029E000FE2D9FB7F8948091AF058F7E8093AF0541
:1029F0009FBF8091AF0584FFFCCF03C08EEF0E9484
:102A0000C92D9FB7F8948091AF058F798093AF055A
:102A10009FBFC4FF06C00E94581381E08093AD059C
:102A200070C0C0FF0AC00E946B319FB7F8948091BC
:102A3000AF058E7F8093AF059FBFC3FF15C0809108
:102A4000AE05803149F480E28093AE050E9473198F
:102A50000E9495191092BD059FB7F8948091AF051B
:102A6000877F8093AF059FBFC1FF1FC08091AE05D8
:102A7000883099F480E18093AE050E945F130E9434
:102A800095190E9466168091430781FF04C081E07A
:102A90008093BD0502C01092BD059FB7F894809148
:102AA000AF058D7F8093AF059FBFC2FF14C00E940A
:102AB00058130E94C524892B21F088E08093AE052D
:102AC00002C01092AE059FB7F8948091AF058B7F3E
:102AD0008093AF059FBFC7FF0DC00E9458138CEFB6
:102AE0000E94C92D9FB7F8948091AF058F7780938E
:102AF000AF059FBF8091AE05847319F0CF910C9400
:102B00009519CF9108958091BD05882341F09FB715
:102B1000F8948091AF0582608093AF059FBF0895C0
:102B2000FF920F931F93CF93DF930E94242E8091E7
:102B3000AE05813021F482E00E94FE2D06C0109285
:102B4000AE0588E291E00E94EB321092CC05109223
:102B5000CB05D0E000E0C0E010E0FF24F3940E9439
:102B600062148F3F09F485C08A3011F08D30E1F591
:102B7000EC2FF0E0E85DFE4F10828091CC058823B9
:102B800079F08091CB05081759F080E091E00E9420
:102B9000DD09F092AE0588E291E00E94EE2D1DC0A5
:102BA0000E94D7148091AD05811117C08091280132
:102BB000882389F0843229F488E291E00E940B3363
:102BC0000AC08091AE05813011F489E004C088E22A
:102BD00091E00E94DD090E94A42D1092CB05D0E067
:102BE00000E0C0E010E0BBCFDD2351F090ED980F86
:102BF0009A3030F48AE0089F900D1124092F39C0D3
:102C0000803209F445C09091CB05980F9093CB0585
:102C1000112329F011E08932E9F510E03BC081323F
:102C2000C8F18F32B9F1883209F18A3241F49A52EF
:102C30009093CB05F092CC05D1E000E090CFCF345B
:102C400030F08BE00E94A42DD0E0C0E088CF2C2F84
:102C500030E0E1E0EC0F9FE9980FD901A85DBE4F8D
:102C60009A3108F480528C93CE2F14C0D0E011E03A
:102C700076CF0E9483150E94D7148091AD058823DA
:102C800009F46DCFDF91CF911F910F91FF900895BF
:102C90001111C0CFD0E063CF0E9483158091AE05A3
:102CA000803171F481E08093BD050AC08091AE054A
:102CB000803159F40E94D7148091AD05811105C06F
:102CC0000E94C524892BB1F7F1CF08958091430765
:102CD00082FF02C0289A01C028988091AE058471B5
:102CE000A1F08091A6018093BA018091A701809301
:102CF000B90180913607880F845081958093B8017F
:102D000080916F00826080936F00089580916F00C2
:102D10008D7F80936F0080918100887F8160809398
:102D200081001092A501809139078F3F21F4909185
:102D3000AF0595FF09C09091AE05943029F090E061
:102D40000E94F62881E001C080E09091430792FF45
:102D500002C091E08927882311F0289A08952898C5
:102D600008951F920F920FB60F9211242F933F9345
:102D70004F935F936F937F938F939F93AF93BF9383
:102D8000EF93FF938091A5018111FEC18BB19091CA
:102D9000BA01907E8F71892B8BB98BB1837E909114
:102DA000B901892B8BB98091B80186BD82E085BDC0
:102DB00081E08093A50178948091CC019091CD0120
:102DC000892B09F0B3C08091AA019091A9019817AD
:102DD00009F4A1C0E091AA0186E0E89FF001112466
:102DE000E253FE4FF093CD01E093CC0183819481B7
:102DF0009093890080938800808191819093C8018D
:102E00008093C701E2818091C9018E17C1F1E093DF
:102E1000C90183E1E89FF0011124EE50FE4FF093C9
:102E2000CB01E093CA0185859685A785B089B695C3
:102E3000A795979587958093AB019093AC01A0934C
:102E4000AD01B093AE018093AF019093B001A09318
:102E5000B101B093B2018093B3019093B401A093F8
:102E6000B501B093B601809143079091440790FF5C
:102E700006C08289882319F081890E947713E09126
:102E8000CA01F091CB0190818091A601892780939E
:102E9000BA01A091CC01B091CD0115962C91818100
:102EA0009281A381B481022E04C0B695A79597950F
:102EB00087950A94D2F78093BB019093BC01A093AD
:102EC000BD01B093BE0185819681A781B085022E98
:102ED00004C0B695A795979587950A94D2F78093E5
:102EE000BF019093C001A093C101B093C20181853D
:102EF0009285A385B48504C0B695A79597958795C7
:102F00002A95D2F78093C3019093C401A093C50181
:102F1000B093C6010BC00E9486169FB7F8948091AB
:102F2000AF0584608093AF059FBF2EC10E94362DF0
:102F30001092B9014091AB015091AC016091AD018B
:102F40007091AE018091BB019091BC01A091BD0137
:102F5000B091BE01840F951FA61FB71F8093AB01D0
:102F60009093AC01A093AD01B093AE01E091CA0182
:102F7000F091CB01458556856785708948175907BB
:102F80006A077B0768F524E02093B90145855685DB
:102F900067857089841B950BA60BB70B8093AB01DB
:102FA0009093AC01A093AD01B093AE0120818091CC
:102FB000B1059091B205A091B305B091B40525FF7C
:102FC00004C00197A109B10903C00196A11DB11D5B
:102FD0008093B1059093B205A093B305B093B40567
:102FE0004091AF015091B0016091B1017091B20177
:102FF0008091BF019091C001A091C101B091C20127
:10300000840F951FA61FB71F8093AF019093B00147
:10301000A093B101B093B20145855685678570894B
:10302000481759076A077B0778F52091B90128608E
:103030002093B9014585568567857089841B950B5A
:10304000A60BB70B8093AF019093B001A093B10191
:10305000B093B20120818091B5059091B605A09101
:10306000B705B091B80526FF04C00197A109B109C1
:1030700003C00196A11DB11D8093B5059093B605BF
:10308000A093B705B093B8054091B3015091B40136
:103090006091B5017091B6018091C3019091C40116
:1030A000A091C501B091C601840F951FA61FB71F3F
:1030B0008093B3019093B401A093B501B093B6018E
:1030C0004585568567857089481759076A077B07C4
:1030D00078F52091B90120612093B9014585568585
:1030E00067857089841B950BA60BB70B8093B30182
:1030F0009093B401A093B501B093B6012081809163
:10310000B9059091BA05A091BB05B091BC0527FF08
:1031100004C00197A109B10903C00196A11DB11D09
:103120008093B9059093BA05A093BB05B093BC05F5
:103130008091AE05843039F49091B9018091B00549
:1031400089238093B9018091C7019091C8010197AB
:103150009093C8018093C701892B69F41092CD0127
:103160001092CC018091AA018F5F8093AA018630D2
:1031700011F41092AA019091B9018091A7018927B9
:103180008093B9011092A501FF91EF91BF91AF918A
:103190009F918F917F916F915F914F913F912F916F
:1031A0000F900FBE0F901F9018951F920F920FB6A1
:1031B0000F9211248F939F938BB19091A7019C71D3
:1031C000837E892B8BB915BC9F918F910F900FBE79
:1031D0000F901F9018950F931F93CF93DF9310922A
:1031E000A7011092A601C0E0D0E01C2F0C2F809107
:1031F000370790E00C2E02C0959587950A94E2F768
:1032000080FF08C0812F0E9435239091A701892B50
:103210008093A7018091380790E002C0959587952B
:103220000A95E2F780FF08C0812F0E943F2390910A
:10323000A601892B8093A6012196C330D105A9F65A
:10324000DF91CF911F910F9108950E9486168BE216
:10325000E8E7F1E0DF011D928A95E9F783E2EBEA06
:10326000F1E0DF011D928A95E9F71092A401109216
:10327000A3011092AA011092A90181E08093A801F4
:103280001092A5010E94EB188BB1837E9091A7014B
:10329000892B8BB98BB18F719091A601892B8BB93A
:1032A00008958AB18C618AB9209A8AB1806E8AB9F0
:1032B000E1E8F0E080818F7E808380818860808378
:1032C000E0E8F0E080818C7F808380818F70808354
:1032D000EEE6F0E08081887F808314BC15BC80819D
:1032E000816080830895CF93DF93C091A301D09133
:1032F000A4012097B9F081E08093790160918F015A
:103300007091900180919101909192019B01AC018B
:103310000E94BD376E8B7F8B888F998F1092A4018E
:103320001092A301DF91CF9108952F923F924F9277
:103330005F926F927F928F929F92AF92BF92CF9245
:10334000DF92EF92FF920F931F93CF93DF93CDB74E
:10335000DEB7E7970FB6F894DEBF0FBECDBF9091F2
:10336000AA018091A801981709F442C68091A3018F
:103370009091A401892B09F083C20E94C524FC010D
:103380009093A4018093A301892B09F431C6809105
:103390007901882319F010927901E5C080917801B4
:1033A0008F5F853019F08093780102C01092780108
:1033B000209178012983858153E1529FA001112436
:1033C0008A010E501E4FD8018C9386819781A0856B
:1033D000B185AC01BD0193E0440F551F661F771FF7
:1033E0009A95D1F7D80111964D935D936D937C9387
:1033F000149782859385A485B585AC01BD0123E032
:10340000440F551F661F771F2A95D1F7D8011596CF
:103410004D935D936D937C93189786859785A089CE
:10342000B189AC01BD0133E0440F551F661F771F02
:103430003A95D1F7D80119964D935D936D937C938E
:103440001C9782899389A489B589AC01BD01A3E049
:10345000440F551F661F771FAA95D1F7D8011D96F7
:103460004D935D936D937C935097848152968C938A
:1034700060817181828193810E94DE35CB010E943F
:103480008A13F801818B2091A3013091A4013A8322
:103490002983D90152966D917D918D919C9155977B
:1034A0000E940D3660937A0170937B0180937C01BA
:1034B00090937D01E981FA8122A533A544A555A504
:1034C0000E9465359B01AC0160937E0170937F0182
:1034D000809380019093810160E070E080EA9FE337
:1034E0000E9465356093820170938301809384010B
:1034F00090938501109286011092870110928801A5
:10350000109289018091AE058032E9F460919701B3
:10351000709198018091990190919A0160938F0127
:103520007093900180939101909392019B01AC0163
:103530000E94BD37A981BA8156966D937D938D9374
:103540009C93599710C0E981FA8166897789808DAB
:10355000918D0E945C3860938F01709390018093ED
:1035600091019093920110928B0110928C01109214
:103570008D0110928E012091A3013091A4013A8314
:103580002983D90196968D909D90AD90BC90999786
:10359000A501940160E070E080E09FE30E94653542
:1035A0002B013C018091AE05E981FA81C2A4D3A42C
:1035B000E4A4F5A4803209F050C0F2E0F0938A014F
:1035C000A981BA8156962D913D914D915C91599763
:1035D00029833A834B835C83C301B2010E94BD37C8
:1035E0009B01AC01C701B6010E9465342B013C016F
:1035F00020E030E0A9010E945B3587FF1DC0A501D6
:103600009401C501B4010E946634A70196010E948D
:10361000BD379B01AC0169817A818B819C810E94BD
:1036200065340E945C386093970170939801809391
:10363000990190939A0124C140928B0150928C0180
:1036400060928D0170928E011092970110929801F4
:103650001092990110929A0113C110928A01C0929E
:103660009B01D0929C01E0929D01F0929E010E94EC
:10367000D5244B015C01609397017093980180936E
:10368000990190939A019B01AC010E94BD376D8313
:103690007E838F839887E091A301F091A401FF8737
:1036A000EE8722A533A544A555A529873A874B87E0
:1036B0005C8726893789408D518D29833A834B83D6
:1036C0005C839B01AC0169817A818B819C810E9422
:1036D0006534A30192010E94BD3729853A854B8547
:1036E0005C850E94663420E030E040E05FE30E94A9
:1036F000BD376B017C0120E030E0A9010E947D37DD
:1037000018160CF0ADC0A701960169857A858B85E6
:103710009C850E947D3718160CF08EC0EE85FF85C3
:1037200082A093A0A4A0B5A02D813E814F81588591
:10373000C501B4010E946534A30192010E94BD3706
:103740009B01AC0160939F017093A0018093A10144
:103750009093A201C701B6010E947D371816DCF5CF
:10376000C501B4010E945C38609393017093940189
:103770008093950190939601A501940169817A81C6
:103780008B819C810E945B35811104C0F1E0F09334
:103790008A0176C029813A814B815C81C501B401DF
:1037A0000E946534A30192010E94BD379B01AC01C8
:1037B00060919B0170919C0180919D0190919E016F
:1037C0000E94653460939B0170939C0180939D01DE
:1037D00090939E0155C0C0929B01D0929C01E092B3
:1037E0009D01F0929E01C0929F01D092A001E092B3
:1037F000A101F092A201AE85BF8596966D917D9153
:103800008D919C9199979B01AC010E946634A70110
:1038100096010E94BD372D813E814F8158850E94BF
:1038200066340E945C386093930170939401809396
:1038300095019093960124C0B2E0B0938A018091E3
:103840008F0190919001A0919101B091920180938C
:10385000930190939401A0939501B093960110C0A9
:1038600010929B0110929C0110929D0110929E015A
:103870008092930190929401A0929501B09296014A
:103880008091A901082F10E026E0209FF001219FE0
:10389000F00D1124E253FE4F809178018283409114
:1038A000A3015091A4015F874E87DA019A96BC91DB
:1038B000B9A7FA01F3A5FAA7DA019C96BC91BBA7B8
:1038C000FA01F5A5FCA72091820130918301409176
:1038D00084015091850169A57AA58B2F9F2F0E94A5
:1038E00065346DA37EA38FA398A720E030E0A901E3
:1038F0000E945B3587FF04C01DA21EA21FA218A64E
:1039000020919B012D8B30919C013E8B40919D011C
:103910004F8B50919E01588F80919301898F909188
:1039200094019A8FA0919501AB8FB0919601BC8FB5
:10393000E0919F01ED8FF091A001FE8F2091A101F8
:103940002F8F3091A20138A340918A014C8B509166
:103950008F015983809190018D8390919101998776
:10396000A0919201AD87B0918B01B9A3E0918C0138
:10397000EAA3F0918D01FBA320918E012CA38091ED
:10398000970190919801A0919901B0919A018AAB09
:103990009BABACABBDAB2D8D3E8D4F8D58A16D89D2
:1039A0007E898F89988D0E945B35811103C092E0DA
:1039B0009DA702C0A1E0ADA7B9A5BFABEAA5EEAB3C
:1039C0002BA43CA48EE3C82E83ECD82E8EE2E82EE6
:1039D00089E3F82E188A198A1A8A1B8A4601570128
:1039E000FC89FF2321F0F13009F471C0A6C0AE8537
:1039F000BF8596962D913D914D915C919997C70108
:103A0000B6010E94BD372B013C0120E030E040E0D0
:103A10005FE30E94BD3729813D8149855D850E9414
:103A20006634A70196010E94BD379B01AC016FA9C6
:103A30007EA9C1010E9465346FAB7EAB1C012D894C
:103A40003E894F89588D0E945B3587FF33C02D8991
:103A50003E894F89588D69A57AA58BA59CA50E94A2
:103A600065349B01AC010E9466346B017C012981A5
:103A70003D8149855D85698D7A8D8B8D9C8D0E94F8
:103A800066349B01AC01C701B6010E9465356B012C
:103A90007C01B98DB983EA8DED83FB8DF9872C8D7F
:103AA0002D873DA53C8B4D894FAB5E895EAB2F8842
:103AB000388CBEC0A301920169817D8189859D8575
:103AC0000E94663469837D8389879D87B1C0298D73
:103AD0003A8D4B8D5C8DC701B6010E94BD379B01AD
:103AE000AC016FA97EA9C1010E9465342B013C0184
:103AF0009B01AC016D8D7E8D8F8D98A10E947D37CD
:103B000018160CF092C02D8D3E8D4F8D58A16FA9C7
:103B10007EA9C1010E946534298D3A8D4B8D5C8D43
:103B20000E9465356B017C018D8D8FAB9E8D9EABA8
:103B30002F8C38A0A2E0AC8B7BC0EE85FF8526A140
:103B400037A140A551A5C701B6010E94BD372B0181
:103B50003C019B01AC0169817D8189859D850E9425
:103B60007D371816D4F520E030E040E05FE3C30174
:103B7000B2010E94BD379B01AC0169817D818985BD
:103B80009D850E946534A70196010E94BD379B0167
:103B9000AC016FA97EA9C1010E9465346EA77FA701
:103BA00088AB99AB29A13AA14BA15CA10E947D37BA
:103BB00018169CF4A301920169817D8189859D85F8
:103BC0000E94653469837D8389879D87FEA5FFAB4D
:103BD0002FA52EAB28A839A82BC029A13AA14BA10B
:103BE0005CA16FA97EA9C1010E9465349B01AC0153
:103BF0000E9466346B017C012AA93BA94CA95DA9EE
:103C000069817D8189859D850E9466349B01AC0117
:103C1000C701B6010E9465356B017C0139A13FAB3C
:103C20004AA14EAB2BA03CA003C04FAA5EAA130131
:103C3000A7019601688979898A899B890E946634DF
:103C4000688B798B8A8B9B8B9B01AC01C501B4017E
:103C50000E947D3718160CF461C02DA13EA14FA122
:103C600058A56FA97EA9C1010E947D3718160CF4D2
:103C70004BC05C8950938A0189819D81A985BD854E
:103C800080938F0190939001A0939101B093920142
:103C900040907E0150907F01609080017090810182
:103CA000A30192016FA97EA9C1010E94BD3769835A
:103CB0007A838B839C830E9444356B017C016091E5
:103CC0007A0170917B0180917C0190917D010E942D
:103CD00044354B015C01A70196010E9465340E94A6
:103CE000DE356D837E838F83988786E0809FF00129
:103CF000819FF00D1124E253FE4FAD81BE81B1834F
:103D0000A083AB2B29F14FC02EE333EC4EE259E3F5
:103D1000C501B4010E9466344B015C0128893989D0
:103D20004A895B89C501B4010E9465346B017C013D
:103D300029A13AA14BA15CA16FA97EA9C1010E9452
:103D40007D3718160CF44CCEFC89F0938A0194CF81
:103D50008091AE05803239F510928F01109290015A
:103D60001092910110929201109286011092870197
:103D70001092880110928901C0927A01D0927B0141
:103D8000E0927C01F0927D01A3019201C701B6018E
:103D90000E946535AE85BF859A966D937D938D9310
:103DA0009C939D9718C12091860130918701409185
:103DB000880150918901688979898A899B890E9443
:103DC00066342B013C0129813A814B815C81C5011C
:103DD000B4010E9465349B01AC01C301B2010E9491
:103DE00065354B015C0129813A814B815C81C701BA
:103DF000B6010E946534A50194010E94BD3760930D
:103E0000860170938701809388019093890120EC4B
:103E100031EE44E65EE4C501B4010E94BD370E9464
:103E200044350E94DE35603DB7E07B078105910592
:103E300050F426E0209FF001219FF00D1124E25361
:103E4000FE4F15824CC0603A3FE073078105910533
:103E500058F446E0409FF001419FF00D1124E253D9
:103E6000FE4F51E055831BC06034AFE17A078105F6
:103E7000910558F4B6E0B09FF001B19FF00D112408
:103E8000E253FE4F22E025830AC036E0309FF00166
:103E9000319FF00D1124E253FE4F43E0458356E07D
:103EA000509FF001519FF00D1124E253FE4F2581E8
:103EB000022E04C096958795779567950A94D2F758
:103EC000AD81BE8102C0AA0FBB1F2A95E2F7B18364
:103ED000A08361157105B1E08B07910558F426E0C8
:103EE000209FF001219FF00D1124E253FE4F7483B7
:103EF000638304C04FEF5FEF548343838091A80135
:103F00008093A9018F5F863019F08093A80102C0C9
:103F10001092A80120918B0130918C0140918D016C
:103F200050918E016FA97EA9C1010E947D3718169C
:103F3000C4F4E091A301F091A4018FA99EA9D1013D
:103F400082A793A7A4A7B5A789819A81AB81BC81D9
:103F500080937A0190937B01A0937C01B0937D01C3
:103F6000FEC920E030E0A9016FA97EA9C1010E942D
:103F70007D371816B4F510928F01109290011092AF
:103F80009101109292011092860110928701109275
:103F9000880110928901C0927A01D0927B01E0924F
:103FA0007C01F0927D01A091A301B091A401BA839C
:103FB000A98320917E0130917F0140918001509131
:103FC0008101C701B6010E946535E981FA8162A7C6
:103FD00073A784A795A70E942E2888E08093AE053A
:103FE00007C01092A4011092A3010E94B124B7C986
:103FF000E7960FB6F894DEBF0FBECDBFDF91CF912D
:104000001F910F91FF90EF90DF90CF90BF90AF90F6
:104010009F908F907F906F905F904F903F902F90E8
:104020000895F999FECF92BD81BD81E08FBB80B527
:104030000895F894F999FECF92BD81BD81E08FBBC0
:1040400080B58627482F082E000C550B262F30E010
:1040500024233523232B39F06F3F19F060BD84E012
:1040600006C084E104C0882321F060BD84E28FBBD8
:10407000F99A789408959F92AF92BF92CF92DF926F
:10408000EF92FF920F931F93CF93DF935C018A010E
:104090007B01E40EF51EEB01912C6C01C61AD70AC8
:1040A000CE018C0D9D1DCE15DF0589F0911008C045
:1040B000292D990C330B232F221F2227221F01C0E9
:1040C00021E06991922E960E0E941920E9CF692D68
:1040D000C501800F911FDF91CF911F910F91FF902C
:1040E000EF90DF90CF90BF90AF909F900C941920ED
:1040F0009F92AF92BF92CF92DF92EF92FF920F9377
:104100001F93CF93DF935B018A017C01E40EF51EC0
:10411000EC01912C6B01C81AD90AC6018C0F9D1FA6
:10412000CE15DF0589F00E941120911008C0292DBD
:10413000990C330B232F221F2227221F01C021E0BD
:10414000982E920E8993E9CFC501800F911F0E948E
:10415000112021E030E0981611F020E030E0C90194
:10416000DF91CF911F910F91FF90EF90DF90CF9053
:10417000BF90AF909F90089521E5829FC0011124C8
:1041800040E550E09D5F0C943B2040E550E0BC01D1
:104190008EEA93E00C943B202DE0829FC001112415
:1041A0004CE050E09E5F0C943B2069E080E090E0A2
:1041B0000E9419204EE450E066E077E081E090E054
:1041C0000C943B20E6E0F7E08AE080AB8FEF83AB16
:1041D00011AA82E082AB8FE184AB8AE097EDA3EA7B
:1041E000BCE385AB96ABA7ABB0AF8FE692E1A3E0A3
:1041F000BBE381AF92AFA3AFB4AF17AE80E090E066
:10420000A8ECB1E48093460790934707A093480732
:10421000B093490780E090E0AAEFB4E480934A07A6
:1042200090934B07A0934C07B0934D0784E690E022
:1042300090934F0780934E0780E090E0A0E8BFE3A3
:104240008093500790935107A0935207B093530760
:1042500082E391E096AF85AF80E090E0A8ECB2E415
:1042600080839183A283B38384839583A683B7835A
:1042700080879187A287B38780E090E4ACE9B5E4BA
:1042800084879587A687B787808B918BA28BB38B0A
:10429000848B958BA68BB78B80E09FECA9E1BAE469
:1042A000808F918FA28FB38F848F958FA68FB78FBA
:1042B00080E098ECAFEAB8E480A391A3A2A3B3A3F3
:1042C00086E696ECA0E0B4EC84A395A3A6A3B7A3DE
:1042D0008DEC9CE8A3ECB3EC80A791A7A2A7B3A7B1
:1042E00080E090E0A0E2B2EC84A795A7A6A7B7A7CC
:1042F0000C94D5201F93CF93DF93182FEB0181E50A
:10430000189FB00111247D5F40E550E0CE010E946E
:104310007820892B39F41882BE01812F0E94BC209D
:1043200080E001C081E0DF91CF911F910895CF938C
:10433000DF93EC0140E550E06EEA73E00E947820E4
:10434000892B21F41882CE010E94C52081E0DF91E3
:10435000CF9108951F93CF93DF93182FEB018DE03A
:10436000189FB00111247E5F4CE050E0CE010E9406
:104370007820892B59F48CE0FE0111928A95E9F797
:10438000BE01812F0E94CC2080E001C081E0DF913E
:10439000CF911F91089580E090E00E941120893014
:1043A00059F44EE450E061E070E086E097E00E944E
:1043B000782021E0892B09F420E0822F0895CF9204
:1043C000DF92EF92FF92CF93DF93C82F6A017B01B8
:1043D00020E030E0A901C701B6010E945B3587FDEE
:1043E00007C1C43608F441C08CE98C0F20E083304B
:1043F00098F590E0880F991F880F991F223059F087
:10440000FC012330F1F0213019F0EA5FF84F1FC0B2
:10441000EE5EF84F1CC0EC01C25ED84F20E030E0E9
:1044200040E752E4C701B6010E94BD3720E030E00A
:1044300040E752E40E94BD37688379838A839B8377
:10444000D3C0E65DF84FF7FAF094F7F8F094C08225
:10445000D182E282F382C8C02F5F8A3008F4CAC0DA
:10446000243009F4C7C08A50C2CFC701B6010E94E8
:10447000A0380E94DE358C2F90E08932910508F03B
:10448000B9C0FC01EF5AFF4F0C94F438633008F4C4
:10449000B3C060933607A8C060933907A5C0609386
:1044A000370702C0609338070E94EB189DC08091C7
:1044B000430790914407662311F0846091C08B7F7D
:1044C0008FC08091430790914407662311F0806468
:1044D00087C08F7B85C080914307909144076623F6
:1044E00011F080687DC08F777BC060933A07C092DF
:1044F0003B07D0923C07E0923D07F0923E0774C024
:10450000C0923F07D0924007E0924107F0924207E5
:104510006BC08091430790914407662311F081603E
:104520005FC08E7F5DC080914307909144076623F2
:1045300011F0826055C08D7F53C0809143079091E8
:104540004407662321F084FF59C0806249C08F7DF3
:1045500047C08091430790914407662311F088601B
:1045600001C0877F90934407809343070E943229BC
:104570003BC08091430790914407662311F080610E
:104580002FC08F7C2DC0609345072EC0C092460778
:10459000D0924707E0924807F092490725C0C092A1
:1045A0004A07D0924B07E0924C07F0924D071CC08F
:1045B00070E070934F0760934E0716C0C09250078B
:1045C000D0925107E0925207F09253070DC08091AC
:1045D000430790914407662311F0916001C09E7FCC
:1045E00090934407809343070E94D52080E007C042
:1045F00084E005C083E003C086E001C08AE0DF916B
:10460000CF91FF90EF90DF90CF9008951F93CF93BD
:10461000DF93CDB7DEB72C970FB6F894DEBF0FBE91
:10462000CDBF0E94CB21811107C087E00E94A42D3D
:104630000E94E2200E942C2E10E0BE016F5F7F4F8F
:10464000812F0E94AA21811103C087E00E94A42D1E
:104650001F5F183091F72C960FB6F894DEBF0FBE8F
:10466000CDBFDF91CF911F910895882321F0813034
:1046700021F080E1089584E0089588E0089588237A
:1046800021F0813021F080E8089580E2089580E4EF
:104690000895882321F0813021F080E1089582E09F
:1046A000089584E008952F923F924F925F926F9207
:1046B0007F928F929F92AF92BF92CF92DF92EF92B2
:1046C000FF920F931F93CF93DF93C0916F02C1119D
:1046D00001C0C2E1C150D0916D02DC1709F41DC1C7
:1046E000EC2EF12C2EE2C29F800111240F581D4F99
:1046F000F801A28CB38CC48CD58C66A177A180A55F
:1047000091A59B01AC010E946634F80122A533A556
:1047100044A555A50E94BD374B018C019B01AC01FE
:10472000B501C6010E945B3587FD02C054016801D6
:104730008EE28E9DF0018F9DF00D1124EF58FD4FFC
:10474000C501D601868B978BA08FB18FC11101C097
:10475000C2E1C150DC1761F02EE22E9DC0012F9DF9
:10476000900D11249C012F583D4F7901DEE233C09A
:1047700080917002D81360C00E9473195DC0AC2E86
:10478000B12CDA9DC001DB9D900D1124FC01EF5886
:10479000FD4F6F01C11101C0C2E1C1508091700293
:1047A0008C1302C00E947319DA9D8001DB9D100DED
:1047B00011240F581D4FF801828C938CA48CB58C5A
:1047C000A501940166897789808D918D0E945B3562
:1047D000811106C0760180916D02C813D0CF2CC024
:1047E000F80166A177A180A591A59B01AC010E946B
:1047F0006634F80122A533A544A555A50E94BD370E
:10480000F70126893789408D518D0E9466342B012E
:104810003C019B01AC01C501B4010E947D37F80148
:1048200018162CF4468A578A608E718ED3CF868AEA
:10483000978AA08EB18ECECFD0916D02FEE2DF9F1F
:10484000800111240F581D4FC1E0CD0FC23109F472
:10485000C0E020906F028EE2382EC21509F45BC0D2
:10486000CC2ED12C3C9CC0013D9C900D11249C0170
:104870002F583D4F7901F80146885788608C718C1C
:10488000F90186889788A08CB18CA5019401C30199
:10489000B2010E945B3587FF24C0F80166A177A1B1
:1048A00080A591A59B01AC010E946634F80122A568
:1048B00033A544A555A50E94BD37A30192010E94CE
:1048C00066342B013C019B01AC01C501B4010E947F
:1048D0007D37181634F4F701468A578A608E718E38
:1048E000DC2F3C9CF0013D9CF00D1124EF58FD4F56
:1048F000228D338D448D558D66897789808D918D7C
:104900000E945B35811101C0DC2FCF5FC23109F4F9
:10491000C0E08701A2CFD0936D02DF91CF911F91AC
:104920000F91FF90EF90DF90CF90BF90AF909F904E
:104930008F907F906F905F904F903F902F90089551
:104940008CE1E1E5F2E0DF011D928A95E9F7109232
:10495000700210926F0281E080936E0210926D02DD
:1049600008959091700280916F02891769F081E03B
:10497000890F823109F480E020916D02921302C008
:1049800080936D02809370020895809170029091DF
:104990006F02981739F02EE2829FC00111248F58C0
:1049A0009D4F089580E090E00895E0917002EF5FE0
:1049B000E23109F4E0E080916F028E1761F08EE23F
:1049C000E89FF0011124EF58FD4F66897789808DAB
:1049D000918D0C945C3860E070E0CB01089581E02B
:1049E0002091700290916E02291380E008952F9219
:1049F0003F924F925F926F927F928F929F92AF926F
:104A0000BF92CF92DF92EF92FF920F931F93CF93BB
:104A1000DF93CDB7DEB7E7970FB6F894DEBF0FBED2
:104A2000CDBF4B8F5C8F6D8F7E8F2FAB20916F0230
:104A3000422F50E05AA349A3EEE22E9FA001112479
:104A4000FA01EF58FD4FE082F18202831383C482A2
:104A5000128A138A148A158A12A613A614A615A6FA
:104A6000158249E956E766E97EE746A357A360A7A2
:104A700071A798AB8FA746E057E05EA34DA36E01E8
:104A80005DE0C50ED11C81E592E09CA78BA73EE2BC
:104A9000239FC0011124AC0149585D4F58A34F8F8B
:104AA000CE0101969CA38BA39AAB89AB21E532E0A2
:104AB00038A72FA346E057E05EA74DA7F12C8F0142
:104AC000CF0142969CAB8BAB3596FEABEDAB18019C
:104AD000FAE22F0E311CEFA5F8A961917191819135
:104AE0009191F8ABEFA7EDA5FEA581909190A190D3
:104AF000B190FEA7EDA7A50194010E94BD370E94C9
:104B00008A37F60161937193819391936F01EFA1BD
:104B1000F8A54190519061907190F8A7EFA36419A6
:104B20007509860997092B013C0197FF07C04424AA
:104B300055243201461A570A680A790AEF8DF8A1FE
:104B40004192519261927192F8A3EF8FEBA9FCA967
:104B50002081318142815381241535054605570551
:104B600010F4A3019201EBA9FCA9208331834283B5
:104B700053830E940F36A50194010E9465354B01B5
:104B80005C01E9A9FAA96193719381939193FAABBE
:104B9000E9AB20E030E0A9010E945B3587FF08C047
:104BA0008F2D0E943F23EDA9FEA99081892B808340
:104BB000A5019401C501B4010E94BD37F101208116
:104BC0003181428153810E946634F1016083718397
:104BD00082839383F394F3E0FF127DCF0E945C38CD
:104BE0004B015C01F1016083718382839383F8013F
:104BF00082899389A489B589892B8A2B8B2B09F407
:104C0000FAC120E030E0A9016B8D7C8D8D8D9E8DE9
:104C10000E945B3587FD22C0FFA9FF2361F02B8D29
:104C20003C8D4D8D5E8DC501B4010E9465356B8F45
:104C30007C8F8D8F9E8F20E030E040E85FE36B8DAE
:104C40007C8D8D8D9E8D0E945B3587FF0FC01B8EE6
:104C50001C8E20E82D8F3FE33E8F08C049E94B8F23
:104C600056E75C8F86E98D8F9EE79E8FA5019401A4
:104C700060E070E080E89FE30E9465356FA378A74D
:104C800089A79AA7FE013D96FA8FE98F812C912C76
:104C900054012EE249A15AA1249FC001259F900DE5
:104CA0001124FC01E956FD4FF8A3EF8FEBA1FCA105
:104CB000C080D180E280F38020E030E0A901C7010C
:104CC000B6010E945B35882309F46AC0A7019601EA
:104CD0006FA178A589A59AA50E94BD372B013C013B
:104CE000EBA1FCA160837183828393839B01AC0160
:104CF00060E070E080E89FE30E9465356B017C0115
:104D0000E894F7F8EDA1FEA1248535854685578501
:104D1000C701B6010E94BD371B018C012B8D3C8D54
:104D20004D8D5E8D0E947D37181624F02B8E3C8EA3
:104D30000D8F1E8FEF8DF8A10081118122803380AD
:104D4000EDA1FEA1208D318D428D538DC701B6019D
:104D50000E94BD377B016C019B01AC01B801C10110
:104D60000E945B3587FD02C087011601C801D10191
:104D7000EF8DF8A180839183A283B383EBA5FCA57B
:104D80002485358546855785C301B2010E94BD370C
:104D90009B01AC01C501B4010E9465344B015C016B
:104DA0002BA13CA12C5F3F4F3CA32BA34BA55CA5A3
:104DB0004C5F5F4F5CA74BA78DA19EA104969EA35D
:104DC0008DA3E98DFA8DE217F30709F06FCF90916B
:104DD0006F0280917002981313C08EE229A13AA14C
:104DE000829FF001839FF00D1124EF58FD4F168A2A
:104DF000178A108E118E168E178E10A211A25BC00C
:104E0000A501940160E070E080E89FE30E946534B2
:104E100020E030E040E05FE30E94BD370E945C3854
:104E20006B017C018EE249A15AA1849FF001859F0C
:104E3000F00D1124EF58FD4F20913B0730913C07B6
:104E400040913D0750913E0766A177A180A591A5AD
:104E50000E94BD37A70196010E94BD374B015C013E
:104E6000A701960160E070E080E89FE30E9465344E
:104E70009B01AC01C501B4010E9465357B018C0129
:104E800020E030E0A9010E945B3587FF04C0E12CDF
:104E9000F12C00E010E08EE229A13AA1829FF001FE
:104EA000839FF00D1124EF58FD4FA701B801468FE5
:104EB000578F60A371A32B8D3C8D4D8D5E8D6B8DB7
:104EC0007C8D8D8D9E8D0E94BD377B018C018EE285
:104ED00049A15AA1849FF001859FF00D1124EF583C
:104EE000FD4FC701D80182A393A3A4A3B5A3A68CA9
:104EF000B78CC0A0D1A06090690270906A028090C7
:104F00006B0290906C029301A401B701C8010E944A
:104F10005B3587FD05C0B62DA72DF82DE92D04C002
:104F2000BE2DAF2DF02FE12F9501A6016B2F7A2F0B
:104F30008F2F9E2F0E947D3718166CF09301A401CD
:104F4000B701C8010E945B3587FD03C053016401AE
:104F500002C0570168018EE229A13AA1829FF001A7
:104F6000839FF00D1124EF58FD4FC501D601828FAC
:104F7000938FA48FB58F8CE0FE013196ADE5B2E042
:104F800001900D928A95E1F7C701D80180936902DB
:104F900090936A02A0936B02B0936C028CE0FE01C6
:104FA0003D96A1E5B2E001900D928A95E1F78091DE
:104FB0006E0280936F028F5F823109F480E08093EC
:104FC0006E02E7960FB6F894DEBF0FBECDBFDF913D
:104FD000CF911F910F91FF90EF90DF90CF90BF90F6
:104FE000AF909F908F907F906F905F904F903F9089
:104FF0002F900C945323E7960FB6F894DEBF0FBEA4
:10500000CDBFDF91CF911F910F91FF90EF90DF9077
:10501000CF90BF90AF909F908F907F906F905F9058
:105020004F903F902F900895A1EBB5E0E1E5F2E0BD
:105030004D915D916D917D914193519361937193E8
:1050400082E0ED35F807A1F7089580916F02909105
:105050007002891708F48E5E891B08950E947319E7
:105060008091700280936D020C9453234F925F9253
:105070006F927F92AF92BF92CF92DF92EF92FF92A8
:105080000F931F93CF93DF937C01FB015A01C081E3
:10509000D0E0DC01AC0FBD1F8C918D3231F4ED01FD
:1050A000229611968C9101E00BC08B3221F0219653
:1050B000CE0DDF1D04C0ED01229611968C9100E00B
:1050C000512C612C10E020E030E0A9016E0160ED70
:1050D000762E780E89E08715D8F06394A8E0A6159F
:1050E00098F051101150A5E0B0E00E94FA38DC01B0
:1050F000CB01880F991FAA1FBB1F9C01AD01270D73
:10510000311D411D511D0BC0511009C01F5F07C04B
:10511000BEEF7B1208C0511006C05524539421964F
:10512000D6018C91D3CF662009F450C06F01CA011B
:10513000B9010E940D362B013C0120E030E0A901AD
:105140000E945B35882349F11F3F64F42AE037ED64
:1051500043E25CE3C301B2010E94BD372B013C0175
:105160001E5FF2CF1F3F59F42DEC3CEC4CEC5DE39D
:10517000C301B2010E94BD372B013C010EC01123B7
:1051800061F020E030E040E251E4C301B2010E944E
:10519000BD372B013C011150F2CF002351F077FABB
:1051A000709477F87094F501408251826282738224
:1051B00006C0D5014D925D926D927C921397CE19E7
:1051C000DF09C150F601C08381E001C080E0DF91BA
:1051D000CF911F910F91FF90EF90DF90CF90BF90F4
:1051E000AF907F906F905F904F900895009741F03F
:1051F000EFE9FFE03197F1F700C000000197F6CF2B
:1052000008958F929F92AF92BF92CF92DF92EF92CA
:10521000FF9269017A019B01AC010E94BD374B01ED
:105220005C01A7019601C701B6010E94BD379B0131
:10523000AC01C501B4010E946634FF90EF90DF908D
:10524000CF90BF90AF909F908F900C945C38EBE61E
:10525000F0E08081897E8083E8E6F0E080818E7FC7
:105260008083089584B1897E84B99091430785B184
:1052700096FF02C0897E01C0866185B993FF0BC08D
:1052800080916B00866180936B00809168008160E3
:105290008093680008950C9427291F920F920FB6EF
:1052A0000F9211242F933F934F935F936F937F93AC
:1052B0008F939F93AF93BF93EF93FF938091AE052E
:1052C000813071F08091AF0585FD0AC00E9406090A
:1052D0009FB7F8948091AF0580668093AF059FBF1C
:1052E000FF91EF91BF91AF919F918F917F916F91BE
:1052F0005F914F913F912F910F900FBE0F901F9094
:1053000018952F923F924F925F926F927F928F9259
:105310009F92AF92BF92CF92DF92EF92FF920F9344
:105320001F93CF93DF93CDB7DEB76E970FB6F89488
:10533000DEBF0FBECDBF9091AD059111BCC1082F4E
:1053400080914A0790914B07A0914C07B0914D076F
:105350008D8B9E8BAF8BB88F3AE2A32E37E0B32EA6
:10536000DE011D966D01FE0170967F01212C312C0E
:10537000812C912C10E0812F0E944923D7018D931D
:105380007D01812F0E943523F60181936F01D501A4
:105390004D905D906D907D905D019101A401C301E0
:1053A000B2010E945B3587FF02C0120143011F5FFB
:1053B000133009F720E030E040EC5FEBB101C401AD
:1053C0000E94BD372B013C010E94A02426E0922EB2
:1053D000BB24B39488248394E02FF0E0FA8FE98F04
:1053E0009301820130580B8F1C8F2D8F3E8F1E0131
:1053F00010E1210E311C80914307AB2C86FDA824BF
:10540000E0904507F12C9E012F5F3F4F3C8B2B8B8B
:10541000F901DE011D9680E090E0D12C60E0782F4C
:10542000298D3A8D082E02C0359527950A94E2F70A
:10543000A9014170552720FF11C06F5FB11009C04D
:105440000B8D1C8D2D8D3E8D008311832283338324
:1054500009C0408251826282738204C0108211822C
:1054600012821382970102C0359527957A95E2F74B
:1054700020FF09C0008111812281338130580083CF
:10548000118322833383452B11F02C91D22A01966C
:10549000119634968330910511F670E080E090E02B
:1054A0000E940D360E945C389B01AC01D092B00581
:1054B0006D897E898F89988D0E94BD37AB01BC01B3
:1054C000C12CE12CF12C870120E0CE0101960E9435
:1054D000F7240E9495190E94661693B1AA2011F034
:1054E00016E19127DE015096FE013D968191282F0D
:1054F0002D2129F02C91292311F08095D822119685
:10550000E215F30599F7D092B0050E9495198091A4
:10551000AF0584FF03C00E94D714CDC08D2D8C71C0
:10552000E1F60E9425190E94A02480914E079091D7
:105530004F070E94F6288091460790914707A09157
:105540004807B09149078D8B9E8BAF8BB88FB824DD
:105550009A94911050CF20904507312C809050079D
:1055600090905107A0905207B09053079501840185
:1055700030580D8B1E8B2F8B388F8DEAC82E85E00F
:10558000D82E96E0E92E97E0F92E00E010E0898D04
:105590009A8D002E02C0959587950A94E2F780FFB8
:1055A0003FC0C101002E02C0959587950A94E2F78D
:1055B00080FF24C0D70194964D905D906D907C90B3
:1055C0009797A3019201C501B4010E946634EB894B
:1055D000FC896083718382839383D7012D913D91F0
:1055E0004D915C91C301B2010E94BD370E948A3780
:1055F000F601648375838683978326C08D899E898F
:10560000AF89B88DEB89FC8980839183A283B383B2
:10561000D60114961D921D921D921C92179714C0CC
:10562000F60164817581868197810E940F36D701CA
:105630002D913D914D915C910E946535EB89FC89DE
:1056400060837183828393830F5F1F4F2B893C8913
:105650002C5F3F4F3C8B2B8B34E0C30ED11C84E07E
:10566000E80EF11C0330110509F091CF0E941428B7
:1056700040914A0750914B0760914C0770914D073C
:10568000C12CE12CF12C870120E0CE0101960E9473
:10569000F72488E08093AE059FB7F8948091AF051A
:1056A00082608093AF059FBF0E94D7140E944C1662
:1056B00084E08093AE056E960FB6F894DEBF0FBE01
:1056C000CDBFDF91CF911F910F91FF90EF90DF90B1
:1056D000CF90BF90AF909F908F907F906F905F9092
:1056E0004F903F902F900895AF92BF92CF92DF924C
:1056F000EF92FF920F931F93CF93DF93EC010AE297
:1057000017E05C018CE0A80EB11CC990D990E9901B
:10571000F99020E030E0A901C701B6010E947D3771
:10572000181664F0F80121913191419151918F0146
:10573000C701B6010E945B3587FF29C08091AE0585
:10574000803179F49FB7F8948091AF058860809399
:10575000AF059FBF0E94D7148091AD058823D1F378
:105760001AC00E9406099FB7F8948091AF05806621
:105770008093AF059FBFDF91CF911F910F91FF9055
:10578000EF90DF90CF90BF90AF900C94D714CA15D4
:10579000DB0509F0BACFDF91CF911F910F91FF90F8
:1057A000EF90DF90CF90BF90AF900895CF93DF93AD
:1057B000EC018991882319F00E941C14FACFDF9123
:1057C000CF910895CF93DF93FC018491EF0121964F
:1057D000882321F00E941C14FE01F7CFDF91CF91A6
:1057E0000895EF92FF920F931F93CF93DF93CDB75E
:1057F000DEB728970FB6F894DEBF0FBECDBF9E016F
:105800002F5F3F4F79018E01075F1F4FF901982FDE
:105810009170919386950E171F07C9F7F801829131
:105820008F01805D0E941C140E151F05B9F7289684
:105830000FB6F894DEBF0FBECDBFDF91CF911F91A1
:105840000F91FF90EF9008951F93CF93DF9300D0B7
:105850001F92CDB7DEB7811109C080E30F900F9082
:105860000F90DF91CF911F910C941C1490E02AE0CF
:1058700011E0190FE1E0F0E0EC0FFD1FE90FF11D61
:10588000622F0E94C638905D9083912F8111F0CFD6
:10589000112341F0FE01E10FF11D80810E941C14D3
:1058A0001150F6CF0F900F900F90DF91CF911F9175
:1058B00008958F929F92AF92BF92CF92DF92EF9214
:1058C000FF920F931F93CF93DF93CDB7DEB72A9745
:1058D0000FB6F894DEBF0FBECDBF6B017C01042F65
:1058E00020E030E0A9010E945B3587FF07C08DE210
:1058F0000E941C14F7FAF094F7F8F094102F12306D
:1059000060F020E030E048EC52E4C701B6010E94AC
:10591000BD376B017C011250F2CF00FF0AC020E0BE
:1059200030E040E251E4C701B6010E94BD376B018F
:105930007C0120E030E040E05FE3C701B6010E9457
:1059400066340E94D735E1E0F0E0EC0FFD1FE00F78
:10595000F11D2EE2208310E03AE0832E912CA12C41
:10596000B12C6115710581059105A9F0101301C0D5
:105970001F5FEE24E394F12CEC0EFD1EE10EF11CF2
:10598000A50194010E94D238605DF7016083B901DE
:10599000CA011F5FE6CF80E3101748F4E1E0F0E0B2
:1059A000EC0FFD1FE10FF11D80831F5FF5CF10137A
:1059B0000BC081E0810FE1E0F0E0EC0FFD1FE80F8C
:1059C000F11D1E5F80E38083112341F0FE01E10F92
:1059D000F11D80810E941C141150F6CF2A960FB63B
:1059E000F894DEBF0FBECDBFDF91CF911F910F9115
:1059F000FF90EF90DF90CF90BF90AF909F908F90EF
:105A000008952091430720FF08C02BE832E441E2CB
:105A10005DE30E94BD3744E001C043E00C94592C83
:105A20002091430720FF08C02BE832E441E25DE308
:105A30000E94BD3741E001C040E00C94592C43E086
:105A40000C94592C3D988091430787FF04C04598DA
:105A5000109254070895459A80E280935407089560
:105A600086B1807290915407892708958091BE0570
:105A70008130A1F40E94302D882381F01092BE0560
:105A80008CE0E1EBF5E0AFEBB5E001900D928A958B
:105A9000E1F78091AF0588608093AF050895CF93BB
:105AA000C82F82E898E00E94E22B8C2F90E0FC0146
:105AB0003197E631F10580F5E658FF4F0C94F43844
:105AC0008AE698E002C088E598E00E94E22B2BC0AD
:105AD00086E498E0FACF8CE398E0F7CF8BE298E089
