:100000000C94EB030C9408040C9408040C94CE2874
:100010000C9444320C9408040C9408040C940804C6
:100020000C9408040C9408040C9408040C942416F2
:100030000C9408040C9408040C9408040C94080410
:100040000C9437180C9408040C9440140C9402146B
:100050000C9408040C9408040C9408040C940804F0
:100060000C9408040C940804084AD73B3BCE016E5C
:1000700084BCBFFDC12F3D6C74319ABD56833DDAFF
:100080003D00C77F11BED9E4BB4C3E916BAAAABE0E
:10009000000000803F05A84CCDB2D44EB93836A937
:1000A000020C50B9918688083CA6AAAA2ABE000074
:1000B00000803F003E0D0A006F66663A006F6E3AA0
:1000C000002C6C6173657220007A00790078002C36
:1000D0006C696D6974733A002C52583A002C427561
:1000E000663A002C002C57506F733A002C002C4DB0
:1000F000506F733A003C436865636B003C416C6130
:10010000726D003C486F6D65003C486F6C64003C4C
:1001100052756E003C5175657565003C49646C65AF
:10012000005D0D0A005B302E39675F3230313830A8
:100130003832375F666535363431353A000D0A009E
:100140003D00244E005D0D0A002053002046002093
:100150005400204D3800204D3900204D3500204DF1
:100160003400204D3300204D3200204D3100204D11
:1001700030002047393400204739330020473931D7
:10018000002047393000204732300020473231000C
:1001900020473139002047313800204731370020CF
:1001A00047005B473830005B4733005B4732005BFA
:1001B0004731005B4730005D0D0A005B544C4F3AFD
:1001C000005D0D0A002C005B4739323A005D0D0AD4
:1001D000002C003A003330003238005B47005D0DE0
:1001E0000A002C005B5052423A00290D0A00206D93
:1001F00061782074726176656C2C206D6D002061D1
:100200006363656C2C206D6D2F7365635E32002017
:100210006D617820726174652C206D6D2F6D696E33
:10022000002C20737465702F6D6D007A0079007852
:10023000002028003D00240020287475726E204C98
:1002400061736572206D6F6465206F6E2C20626F24
:100250006F6C290D0A002434303D002028686F6D32
:10026000696E672070756C6C2D6F66662C206D6DE5
:10027000290D0A002028686F6D696E672064656229
:100280006F756E63652C206D736563290D0A2432CA
:10029000373D002028686F6D696E67207365656B58
:1002A0002C206D6D2F6D696E290D0A2432363D00AC
:1002B0002028686F6D696E6720666565642C206D07
:1002C0006D2F6D696E290D0A2432353D00290D0A06
:1002D0002432343D002028686F6D696E67206469A0
:1002E0007220696E76657274206D61736B3A0020BE
:1002F00028686F6D696E67206379636C652C206276
:100300006F6F6C290D0A2432333D0020286861721A
:1003100064206C696D6974732C20626F6F6C290D99
:100320000A2432323D002028736F6674206C696D98
:100330006974732C20626F6F6C290D0A2432313D71
:100340000020286175746F2073746172742C2062B0
:100350006F6F6C290D0A2432303D002028726570C1
:100360006F727420696E636865732C20626F6F6CA6
:10037000290D0A2431343D00202861726320746FF6
:100380006C6572616E63652C206D6D290D0A2431D8
:10039000333D0020286A756E6374696F6E20646552
:1003A00076696174696F6E2C206D6D290D0A243198
:1003B000323D00290D0A2431313D0020287374613B
:1003C000747573207265706F7274206D61736B3A0F
:1003D00000202870726F62652070696E20696E76E9
:1003E0006572742C20626F6F6C290D0A2431303DC8
:1003F0000020286C696D69742070696E7320696EC5
:10040000766572742C20626F6F6C290D0A24363D5C
:100410000020287374657020656E61626C652069C8
:100420006E766572742C20626F6F6C290D0A24350C
:100430003D00290D0A24343D002028646972207093
:100440006F727420696E76657274206D61736B3A99
:1004500000290D0A24333D00202873746570207034
:100460006F727420696E76657274206D61736B3A79
:10047000002028737465702069646C652064656C65
:1004800061792C206D736563290D0A24323D0020AB
:1004900028737465702070756C73652C2075736596
:1004A00063290D0A24313D0024303D0024242028F6
:1004B00076696577204772626C2073657474696E23
:1004C0006773290D0A242320287669657720232065
:1004D000706172616D6574657273290D0A2447201D
:1004E0002876696577207061727365722073746114
:1004F0007465290D0A24492028766965772062757C
:10050000696C6420696E666F290D0A244E20287676
:10051000696577207374617274757020626C6F63A3
:100520006B73290D0A24783D76616C7565202873FC
:10053000617665204772626C2073657474696E67BA
:10054000290D0A244E783D6C696E6520287361760A
:1005500065207374617274757020626C6F636B29AF
:100560000D0A24432028636865636B2067636F640A
:1005700065206D6F6465290D0A245820286B696C0D
:100580006C20616C61726D206C6F636B290D0A24A5
:1005900048202872756E20686F6D696E67206379D8
:1005A000636C65290D0A7E20286379636C6520736E
:1005B00074617274290D0A212028666565642068BB
:1005C0006F6C64290D0A3F202863757272656E7422
:1005D00020737461747573290D0A6374726C2D78BD
:1005E00020287265736574204772626C290D0A00B9
:1005F0000D0A4772626C20302E39675F3230313815
:10060000303832375F66653536343135205B272424
:100610002720666F722068656C705D0D0A005D0DA5
:100620000A0044697361626C656400456E61626CC6
:1006300065640043617574696F6E3A20556E6C6F26
:10064000636B656400272448277C2724582720747F
:100650006F20756E6C6F636B0052657365742074E8
:100660006F20636F6E74696E7565005B000D0A0024
:10067000525820427566666572204F7665727275B3
:100680006E0050726F6265206661696C0041626F36
:10069000727420647572696E67206379636C65009B
:1006A000486172642F736F6674206C696D697400A1
:1006B000414C41524D3A20000D0A00496E76616C62
:1006C00069642067636F64652049443A00556E642D
:1006D0006566696E6564206665656420726174652F
:1006E00000556E737570706F7274656420636F6D02
:1006F0006D616E64004D6F64616C2067726F757020
:100700002076696F6C6174696F6E004C696E65204C
:100710006F766572666C6F7700486F6D696E6720E3
:100720006E6F7420656E61626C656400416C61720D
:100730006D206C6F636B004E6F742069646C650094
:10074000454550524F4D2072656164206661696C69
:100750002E205573696E672064656661756C7473CD
:100760000056616C7565203C20332075736563000D
:1007700053657474696E672064697361626C656443
:100780000056616C7565203C203000496E76616CC6
:1007900069642073746174656D656E740042616490
:1007A000206E756D62657220666F726D61740045B2
:1007B0007870656374656420636F6D6D616E64202D
:1007C0006C6574746572006572726F723A20000D08
:1007D0000A006F6B3A0011241FBECFEFD8E0DEBFD6
:1007E000CDBF11E0A0E0B1E0E6E6F1E702C0059080
:1007F0000D92A030B107D9F727E0A0E0B1E001C029
:100800001D92A531B207E1F70E940A040C94B13899
:100810000C9400000E94D0130E949C220E94B318E6
:100820000E943332E5E7F5E08EE1DF011D928A9503
:10083000E9F781E08093750578949091030794FD22
:1008400080937605C1E00E949C140E9449090E9491
:1008500045130E94B1130E94B3280E94BD2C0E9430
:1008600031240E9487180E9491270E945B091092F0
:100870007505109277058091030781FF05C0C0932D
:1008800085050E945615DFCF10928505FACF4F924D
:100890005F926F927F928F929F92AF92BF92CF9210
:1008A000DF92EF92FF920F931F93CF93DF93EC01B0
:1008B0004A015B01D22E270138018091030785FF91
:1008C00003C0CE010E940D2B809176058230E1F0AD
:1008D0000E94A11480917505811116C00E94802488
:1008E000882319F00E944915F3CF830172012D2D41
:1008F000B501A401CE010E94882480917605811162
:1009000003C088E080937605DF91CF911F910F910E
:10091000FF90EF90DF90CF90BF90AF909F908F901F
:100920007F906F905F904F9008952F923F924F92DB
:100930005F926F927F928F929F92AF92BF92CF926F
:10094000DF92EF92FF920F931F93CF93DF93CDB778
:10095000DEB7E5970FB6F894DEBF0FBECDBF9E871A
:100960008D87788B6F873A0109831A832B833C83A9
:10097000C98ADA8AEB8AFC8AAF8A24E0829E400127
:100980001124880D991D998F888FCA01880D991D92
:100990009B8F8A8FDC012D903D904D905C90E88D6F
:1009A000F98D2081318142815381C201B1010E94C0
:1009B000033468A379A38AA39BA32B96AFAC2B9790
:1009C000F4E0AF9E500111242D853E852A0D3B1D7C
:1009D0003D8F2C8FC3018A0D9B1D9F8F8E8FDC0155
:1009E000CD90DD90ED90FC90F90120813181428124
:1009F0005381C701B6010E9403346CA37DA38EA36B
:100A00009FA33201210177FA709477F87094D7018F
:100A1000C601B0588D839E83AF83B887AF85B889F0
:100A20008A0E9B1E28A139A14AA15BA1F401608115
:100A30007181828193810E9402346B017C01EF8578
:100A4000F889EA0DFB1D2CA13DA14EA15FA160819B
:100A50007181828193810E9402344B015C01A70164
:100A60009601C301B2010E945A3769877A878B8742
:100A70009C87A50194016D817E818F8198850E945C
:100A80005A379B01AC0169857A858B859C850E94CC
:100A9000033469877A878B879C87A5019401C301FA
:100AA000B2010E945A374B015C01A70196016D818A
:100AB0007E818F8198850E945A379B01AC01C501C8
:100AC000B4010E94023429853A854B855C850E94D9
:100AD00082346B017C018091930520E030E0A90114
:100AE000823009F0FCC0C701B6010E941A3787FDA9
:100AF0000AC02BED3FE049EC50E4C701B6010E946B
:100B000002346B017C018090FF0690900007A0905A
:100B10000107B090020729813A814B815C81CA01AB
:100B2000B9010E940334A50194010E940234A50179
:100B300094010E945A370E94F9374B015C0120E072
:100B400030E040E05FE3C701B6010E945A372981D7
:100B50003A814B815C810E945A379F77A5019401AD
:100B60000E9402350E94E7350E947B3579A768A76D
:100B70006115710509F488C090E080E00E94AA35F3
:100B80004B015C013F89332361F0AC019B01698912
:100B90007A898B899C890E945A37698B7A8B8B8BD7
:100BA0009C8BA5019401C701B6010E94023569879B
:100BB0007A878B879C872C968FAD2C97A4E08A9F91
:100BC000C0011124ED85FE85E80FF91FFE8BED8B2A
:100BD0002F853889820F931F208131814281538173
:100BE000DC016D917D918D919C910E940234A50153
:100BF00094010E9402356AAB7BAB8CAB9DAB29851F
:100C00003A854B855C85CA01B9010E945A379B0120
:100C1000AC0160E070E080E090E40E9402346B017F
:100C20007C012BEA3AEA4AE25EE369857A858B85A4
:100C30009C850E945A374B015C0120E030E040E87F
:100C400050E4C701B6010E9403349B01AC01C50109
:100C5000B4010E945A376AA77BA78CA79DA720E002
:100C600030E040E05FE3C701B6010E945A376EA74B
:100C70007FA788AB99AB198222242394312CE8A555
:100C8000F9A52E163F06D9F56196CFAC619760960F
:100C9000ECACFDAC0EAD1FAD60972F8949895A8928
:100CA0006B897C898F8598890E944704E5960FB6E9
:100CB000F894DEBF0FBECDBFDF91CF911F910F9192
:100CC000FF90EF90DF90CF90BF90AF909F908F906C
:100CD0007F906F905F904F903F902F900895C70145
:100CE000B6010E94F83418160CF40DCF2BED3FE03E
:100CF00049EC50E4C701B6010E94033402CFB98128
:100D0000BC3008F08DC02AA53BA54CA55DA5C3014C
:100D1000B2010E945A376B017C012EA53FA548A95C
:100D200059A96D817E818F8198850E945A379B01D8
:100D3000AC01C701B6010E9403346B017C012EA5F2
:100D40003FA548A959A9C301B2010E945A374B01D6
:100D50005C012AA53BA54CA55DA56D817E818F8197
:100D600098850E945A379B01AC01C501B4010E94CD
:100D700002342B013C01E981EF5FE983C601D70111
:100D80008D839E83AF83B88728A139A14AA15BA137
:100D9000C301B2010E940334E88DF98D6083718331
:100DA000828393832CA13DA14EA15FA16D817E81A1
:100DB0008F8198850E940334AC8DBD8D6D937D939A
:100DC0008D939C9313972AA93BA94CA95DA9ED8902
:100DD000FE8960817181828193810E940334AD8993
:100DE000BE896D937D938D939C9313976196CFAC41
:100DF00061976096ECACFDAC0EAD1FAD60972F898E
:100E000049895A896B897C898D859E850E94470412
:100E10008091750581114ACFBFEF2B1A3B0A2FCF66
:100E2000B10190E080E00E94AA3529853A854B8582
:100E30005C850E945A376B017C010E94FD346983F6
:100E40007A838B839C83C701B6010E94EB374B01E9
:100E50005C01AA8DBB8DCD90DD90ED90FC90F7FAF2
:100E6000F094F7F8F094AE8DBF8D8D919D910D901B
:100E7000BC91A02D8D839E83AF83B88729813A8151
:100E80004B815C81C701B6010E945A372B013C019E
:100E9000A50194016D817E818F8198850E945A37CA
:100EA0009B01AC01C301B2010E9403342B013C0140
:100EB000A5019401C701B6010E945A376B017C015C
:100EC00029813A814B815C816D817E818F819885FA
:100ED0000E945A379B01AC01C701B6010E9402343F
:100EE0006D837E838F83988719824ECF8F929F92D6
:100EF000AF92BF92CF92DF92EF92FF92CF93DF93A8
:100F00006B017C0180917605823091F120E030E028
:100F100040EA51E4C7010E945A370E94E7350E9417
:100F20007B354B01EB010E94C01520E030E04AE721
:100F300054E4C701B6010E945A376B017C0182E379
:100F4000889DB001899D700D112490E080E00E9481
:100F5000AA359B01AC01C701B6010E9402340E9470
:100F6000E7350E947B35CB010E947828209759F401
:100F7000DF91CF91FF90EF90DF90CF90BF90AF9037
:100F80009F908F9008950E94A114219780917505DC
:100F90008111EECF2FEF80E792E02150804090400A
:100FA000E1F700C00000E2CF2F923F924F925F9294
:100FB0006F927F928F929F92AF92BF92CF92DF9269
:100FC000EF92FF920F931F93CF93DF9300D000D047
:100FD0001F92CDB7DEB79D838C834A015B01D22E71
:100FE00080917605823009F4AFC00E94C0158091CF
:100FF00085058B830E94CB2C882351F09FB7F894F2
:10100000809177058064809377059FBF0E94A1142B
:1010100080917505811198C0C12CE12CF12C8701BC
:101020002D2DB501A4018C819D810E94470481E092
:10103000809386059FB7F8948091770582608093AE
:1010400077059FBF0E94A1148091750581117CC016
:1010500080917605877FB1F780918605813041F4D4
:101060009FB7F894809177058064809377059FBF40
:101070000E94A11480917505811166C00E94871895
:101080000E9431240E949127E7E8F5E0FA83E98382
:1010900086EC282E86E0382E0C811D817801FCE03C
:1010A000EF0EF11CE981FA81619171918191919129
:1010B000FA83E983F10141905190619071901F0191
:1010C0000E94AC35A30192010E940235F8016193A0
:1010D0007193819391938F01EE15FF0519F7C12C40
:1010E000E12CF12C87012D2DB501A4018C819D816E
:1010F0000E9447049FB7F89480917705826080939F
:1011000077059FBF0E94C0158091750581111CC095
:10111000FB81F09385050F900F900F900F900F902B
:10112000DF91CF911F910F91FF90EF90DF90CF90C3
:10113000BF90AF909F908F907F906F905F904F90F7
:101140003F902F900C94482F0F900F900F900F907E
:101150000F90DF91CF911F910F91FF90EF90DF9053
:10116000CF90BF90AF909F908F907F906F905F9047
:101170004F903F902F9008958091770584FD1AC07D
:101180009FB7F894809177058061809377059FBF22
:101190000E943C130E94AF1380917605847351F036
:1011A0009FB7F894809177058062809377059FBF01
:1011B0000C94F915089583B19091030796FF0DC023
:1011C000867169F00E94BC089FB7F89480917705FA
:1011D0008066809377059FBF08958095F1CF84E066
:1011E000809376050E943C130E94A82883E00E9409
:1011F00002290E94A11480917505811108C00E94E6
:101200005B09109276050E94F9150C94B328089595
:10121000CF932091FC053091FD054091FE05509142
:10122000FF056091A6057091A7058091A805909192
:10123000A9050E94F834811128C020910006309140
:10124000010640910206509103066091AA05709133
:10125000AB058091AC059091AD050E94F8348111E9
:1012600014C0C1E0209104063091050640910606A5
:10127000509107066091AE057091AF058091B00561
:101280009091B1050E94F8348111C0E08C2FCF916C
:101290000895E3E9F5E08BE3DF011D928A95E9F714
:1012A00062EB75E080E00E941A21811103C087E0A3
:1012B0000C94482D08958F929F92AF92BF92EF9217
:1012C000FF920F931F93CF93DF9389E7E82E85E07A
:1012D000F82EC6ECD6E006EA15E0F70161917191AF
:1012E000819191917F0189909990A990B9900E94E4
:1012F000AC35A50194010E940235F8016193719308
:10130000819391938F01F6E0C23DDF0731F7DF91C2
:10131000CF911F910F91FF90EF90BF90AF909F9052
:101320008F9008952F923F924F925F926F927F928B
:101330008F929F92AF92BF92CF92DF92EF92FF92E5
:101340000F931F93CF93DF93CDB7DEB7AF970FB651
:10135000F894DEBF0FBECDBF98A38F8FEEECF5E003
:101360008AE3DF011D928A95E9F78AE0E3E9F5E077
:10137000A0EDB5E001900D928A95E1F71D8E312C1C
:10138000212CB12CA12C812C912C1E8E4424439411
:10139000512C7724739482E0682E8D8DEF8DF8A107
:1013A000E80FF11D008101111BC0992029F0BE8DAD
:1013B000B11102C0E2E0EE8F25FE70C28091EB0514
:1013C0009091EC05A091ED05B091EE05803896491D
:1013D000A849B1050CF462C20E943C138BE107C01E
:1013E0009FEB900F9A31E0F00E943C1381E0AF96A2
:1013F0000FB6F894DEBF0FBECDBFDF91CF911F9126
:101400000F91FF90EF90DF90CF90BF90AF909F90A3
:101410008F907F906F905F904F903F902F900895A6
:101420008F5F8D8FAE01475E5F4FBE01635E7F4F62
:101430008F8D98A10E94C627811104C00E943C1381
:1014400082E0D5CFC98CDA8CEB8CFC8CC701B6015D
:101450000E943D380E947B35162F70E090E080E0BE
:101460000E94AC359B01AC01C701B6010E94023459
:1014700020E030E048EC52E40E945A370E94C7371F
:101480000E947B35073421F10D3409F41EC1EAEBCB
:10149000E00FE53108F02CC00E2E000CFF0BED5ACA
:1014A000F54F0C949138A10B780A780ABB0BC70B47
:1014B000D30BDF0B780AE30B780AF10B780AFB0BEE
:1014C000050C330C780A780A780A0F0C1B0C270CD1
:1014D000163209F493C050F5143170F4113108F04C
:1014E000CEC0143009F458C008F488C01A3091F006
:1014F0000E943C1384E17BCF1C3161F048F416312B
:10150000B8F7143109F0CFC07092D20515E047C08A
:101510001E3171F761110C94E912BE8DBB2311F4D9
:101520000C940D130E943C1388E161CF103509F42F
:10153000A2C0D8F4153309F45DC080F41B3211F059
:101540001133B1F69E8D9111EDCF113309F0AEC07C
:101550001092D50566E0A3E0AE8F32C01C3340F692
:1015600016531093D60517E01AC01C3599F250F4A3
:101570001A3508F4BDCF1A3509F08FC01092D30583
:1015800013E00DC01F3508F0B3CF1D3509F088C03A
:101590007092D10514E003C07092CF0510E066236D
:1015A00009F48DC00E943C1387E121CFE1E0EE8F6A
:1015B0006092CF05F3CF81E08E8F95E09093CF05B9
:1015C000C20102C0880F991F6A95E2F79C012A2187
:1015D0003B21232B09F4B2C00E943C1385E107CFC5
:1015E0006A3009F085CFA6E0A093CF0560E0E8CF90
:1015F000B1E0BE8FE7E0E093CF05D0CF8E8D8111B3
:1016000091CF123041F150F41123B1F01130E1F0DB
:101610001092CE0511E082E08E8FC1CF133019F108
:101620001632B1F7643109F063CFF4E0F093D005DE
:1016300061E022E02E8FC4CF1092D0057092CE05CB
:1016400011E092E09E8FABCF1093D0051093CE05A2
:10165000A2E0AE8FA4CF1093D0057092CE05B2E079
:10166000BE8F11E09CCF1093D0057092CE0511E093
:10167000E2E0EE8F94CF35E03093D005F2CF123117
:1016800031F0133139F01092D40512E088CF709206
:10169000D405FBCF6092D405F8CF7092D30570CFFC
:1016A0001092D10577CF1092D20530CF6A3009F071
:1016B0001FCF7092D50566E0B3E0BE8F81CF612F5A
:1016C0007FCF60E0E1E0EE8F7BCF61116BCF163012
:1016D00088F41330D0F0143011F1153019F17092F4
:1016E000D90589E0920102C0220F331F8A95E2F7E3
:1016F000C9016DCF183008F4FBCE1A30B0F01E319E
:1017000009F0F6CE6092D70508C01230D9F31E3129
:10171000C9F3111102C07092D70588E0E3CF60923F
:10172000D905DFCF1092D905DCCF193021F06092B6
:10173000D8058AE0D7CF1092D805FBCFA82AB92ABE
:101740002CCEC092DA05D092DB05E092DC05F09257
:10175000DD0580E08201082E02C0000F111F0A94EF
:10176000E2F7980122213321232B09F47EC00E9445
:101770003C1389E13CCEC092DE05D092DF05E092B9
:10178000E005F092E105689480F881E0E3CFC09233
:10179000E205D092E305E092E405F092E505689455
:1017A00081F882E0D7CFC092E605D092E705E092BB
:1017B000E805F092E905689482F883E0CBCF1093B6
:1017C000EA0584E0C7CFC701B6010E947435609373
:1017D000EB057093EC058093ED059093EE0585E0A5
:1017E000B9CFC092EF05D092F005E092F105F092EA
:1017F000F20586E0AFCFC092F305D092F405E092F7
:10180000F505F092F60587E0A5CFC092F705D092D6
:10181000F805E092F905F092FA0588E09BCFC092B6
:10182000FC05D092FD05E092FE05F092FF0568945C
:1018300090F88AE08FCFC0920006D0920106E09225
:101840000206F0920306689491F88BE083CFC09271
:101850000406D0920506E0920606F0920706689408
:1018600092F88CE077CF89E075CFA1E6B3E002C0B3
:10187000B595A7958A95E2F7A0FF0DC020E030E06E
:10188000A901C701B6010E94F83487FF04C00E9475
:101890003C1384E0ACCD202A312A7FCD8091D10544
:1018A000813049F42E8D223031F520FC24C00E9475
:1018B0003C1386E19CCD8091940581111CC020FED3
:1018C00036C08091D2058130B1F423E333E34BEC91
:1018D00051E46091DA057091DB058091DC0590910F
:1018E000DD050E945A376093DA057093DB0580931B
:1018F000DC059093DD0530FC10C080919D05909132
:101900009E05A0919F05B091A0058093F705909347
:10191000F805A093F905B093FA058091CF058130C1
:10192000C9F426FC15C00E943C138CE160CD809167
:10193000A1059091A205A091A305B091A405809363
:10194000DA059093DB05A093DC05B093DD05D3CFDA
:10195000E89426F88091D405882349F0813009F471
:1019600048C01BA692E09EA3A1E0ADA305C032E053
:101970003BA781E08EA31DA28091D205813059F54D
:101980001EECE12E15E0F12E10E000E0C92CD12C68
:10199000C601002E02C0959587950A94E2F780FF54
:1019A00012C023E333E34BEC51E4D7019E966D91D3
:1019B0007D918D919C91D1970E945A37F70166A72E
:1019C00077A780AB91AB0F5F1F4FF4E0EF0EF11CD8
:1019D00003301105E9F62E8D233089F48091D50569
:1019E000813069F434E0931651F00E943C1385E293
:1019F000FECCB1E0BBA71EA2E2E0EDA3BDCF8CE020
:101A0000E2EBF5E0DE011D9601900D928A95E1F77B
:101A1000A7FE17C08091D605873020F00E943C13A6
:101A20008DE1E5CC90919905891759F0BE01635F6E
:101A30007F4F0E941A21811104C00E943C1387E04D
:101A4000D6CC1091CF05123009F458C0183009F4E3
:101A5000FEC08E8D833009F43FC09920E9F10091DA
:101A6000D3058091CA059091CB05A091CC05B0918A
:101A7000CD058F8F98A3A9A3BAA3E3E9AE2EE5E025
:101A8000BE2EFEECCF2EF5E0DF2EF12CE12CA92DA1
:101A9000B0E0BCA3ABA38BA19CA10E2C02C095957A
:101AA00087950A94E2F780FD3DC1F5018389948909
:101AB000A589B689F60186A797A7A0ABB1ABFFEFC2
:101AC000EF1AFF0A24E0A20EB11C34E0C30ED11CB1
:101AD00083E0E816F104F9F6153009F473C1173004
:101AE00009F475C1BE016F5F7F4F86E0133009F0C6
:101AF0000CC10E941A21811108C19FCF911004C00E
:101B00000E943C138AE173CCC10180759927892B0F
:101B100009F409CF6091EF057091F0058091F1050E
:101B20009091F2050E943D380E947B35673008F0A5
:101B300075CF8091EA05843129F0823009F0D8CC44
:101B400027FCD6CC8FEA2822662309F474C06150A2
:101B50006F8FDE0111966D01BD018F8D0E941A21DC
:101B6000882309F46ACFB091EA05BBA38091CA0526
:101B70009091CB05A091CC05B091CD058FA398A7EE
:101B8000A9A7BAA710E000E0F12CE12CA92CB12CF8
:101B9000C5010E2C02C0959587950A94E2F780FF47
:101BA00030C0F801E253FA4F46A457A460A871A8C8
:101BB0009BA1943109F043C0F801ED56FA4F23A5DB
:101BC00034A545A556A563897489858996890E949F
:101BD0000234A30192010E940234F601E00FF11FCA
:101BE0006083718382839383A2E0EA120AC02FA1EB
:101BF00038A549A55AA50E94023469877A878B8740
:101C00009C87BFEFEB1AFB0A0C5F1F4FE3E0EE1659
:101C1000F10409F0BDCF1091D005153009F0E0C0F6
:101C2000992009F400C39E8D913009F403C10E94EC
:101C30003C138FE1DCCB9091D6059F8F8ACFF601C4
:101C4000E00FF11F4082518262827382DACF9920C5
:101C500009F456CF4090CA055090CB056090CC0552
:101C60007090CD05A3E9CA2EA5E0DA2EBEECEB2ECE
:101C7000B5E0FB2E5E01FDE0AF0EB11C10E000E010
:101C8000292D30E038A32F8F8F8D98A1002E02C010
:101C9000959587950A94E2F780FF39C0D5012D917B
:101CA0003D914D915C91F60163897489858996898E
:101CB0000E940234D7019E962D913D914D915C91E9
:101CC000D1970E940234F70166A777A780AB91AB4A
:101CD000023061F4A30192010E9402346093040671
:101CE0007093050680930606909307060F5F1F4FBB
:101CF000F4E0CF0ED11C24E0E20EF11C34E0A30E80
:101D0000B11C0330110509F0BFCF1F8E84CFF6013F
:101D100083A594A5A5A5B6A5F70186A797A7A0AB0F
:101D2000B1ABE4CF173009F4CACED6019E964D90E0
:101D30005D906D907C90D197011133C0F701EE0F4B
:101D4000FF1FEE0FFF1F2DE030E02C0F3D1FE20FB5
:101D5000F31FD5019B962D913D914D915C919E97DE
:101D600060817181828193810E940334A301920179
:101D70000E940334F60166A777A780AB91ABF2E02F
:101D8000EF129DCE2F8D38A149A15AA10E94033494
:101D900060930406709305068093060690930706E9
:101DA0008ECEA3019201D50153966D917D918D91B7
:101DB0009C9156970E940334F60166A777A780ABE3
:101DC00091AB7DCEBE016F5F7F4F87E092CE809159
:101DD000D005823008F499CF0E943C138EE107CBE6
:101DE000AE8DA23009F01FC211110EC0911022C099
:101DF0002EED22222CEF32221E8E232809F418C247
:101E00000E943C1384E2F3CA20E030E0A901609113
:101E1000DA057091DB058091DC059091DD050E946B
:101E2000F834882309F443CD143048F4123088F490
:101E30001130E1F23EED232230EE3322DECF1430BA
:101E4000C9F7992009F45CCE0E940809882391F310
:101E500062C0992009F454CEFDA1EF2FF0E0FCA35D
:101E6000EBA33EA1232F30E038A72FA381E090E021
:101E70008C010DA002C0000F111F0A94E2F70EA002
:101E800002C0880F991F0A94E2F7082B192B892D9D
:101E900090E080239123892B21F40E943C1380E25F
:101EA000A6CA8BA19CA1880F991F880F991FFC01BE
:101EB000E253FA4F8D569A4FDC0153962D913D9186
:101EC0004D915C91569766A577A580A991A90E942E
:101ED00002346B017C018FA198A5880F991F880F90
:101EE000991FFC01E253FA4F8D569A4FDC0153962D
:101EF0002D913D914D915C91569766A577A580A94E
:101F000091A90E9402342B013C0127FEE2C00E94ED
:101F10000809882321F00E943C1381E268CA80915D
:101F2000D2058130B1F423E333E34BEC51E460910B
:101F3000F3057091F4058091F5059091F6050E94E6
:101F40005A376093F3057093F4058093F5059093E9
:101F5000F6058090F3059090F405A090F505B090FB
:101F6000F60520E030E040E850E4C501B4010E94ED
:101F70005A37A50194010E945A374B015C01A70111
:101F80009601C701B6010E945A379B01AC01C501F9
:101F9000B4010E9402344B015C01A3019201C30110
:101FA000B2010E945A379B01AC01C501B4010E94E5
:101FB00002344B015C0120E030E0A9010E94F834BA
:101FC00087FF04C00E943C1382E211CAC501B4011C
:101FD0000E94F9374B015C01A3019201C701B601D0
:101FE0000E9482289B01AC01C501B40190580E9457
:101FF00002354B015C018091D005833021F4B7FAA2
:10200000B094B7F8B0948091F3059091F405A09145
:10201000F505B091F6058CA79DA7AEA7BFA720E058
:1020200030E0A901BC01CD010E94F83487FF11C046
:10203000B7FAB094B7F8B0948CA59DA5AEA5BFA58E
:10204000B0588093F3059093F405A093F505B093F1
:10205000F605E89427F80BA11CA1000F111F000F33
:10206000111F02521A4FA3019201C501B4010E942F
:102070005A379B01AC01C701B6010E94023420E02F
:1020800030E040E05FE30E945A37D8016D937D93C2
:102090008D939C9313970FA118A5000F111F000F8C
:1020A000111F02521A4FA7019601C501B4010E94E7
:1020B0005A37A30192010E94033420E030E040E04F
:1020C0005FE30E945A37F8016083718382839383B0
:1020D000B1CE912C08211921012B21F40E943C132F
:1020E00083E285C9F1EF2F228091D205813059F525
:1020F00010E000E0C401002E02C0959587950A9477
:10210000E2F780FF1BC0C801880F991F880F991F35
:102110009C0122533A4F590123E333E34BEC51E442
:10212000D50150966D917D918D919C9153970E9410
:102130005A37F501608B718B828B938B0F5F1F4F2A
:1021400003301105B9F60FA118A5000F111F000FDC
:10215000111F02521A4FD8012D913D914D915C9162
:10216000C301B2010E9402342B013C01ABA0BCA010
:10217000AA0CBB1CAA0CBB1CF501E252FA4F5F0172
:102180002081318142815381C701B6010E9402340E
:10219000A30192010E9482286B017C01D8012D913C
:1021A0003D914D915C91F5016081718182819381B6
:1021B0000E9482284B015C018092F3059092F40505
:1021C000A092F505B092F605AC019B01C701B601DE
:1021D0000E9402346B017C01E894F7F82AE037EDA5
:1021E00043EA5BE3C701B6010E941A3718160CF0E8
:1021F00021CE20E030E040E05FE3C701B6010E945D
:102200001A3718160CF487CE2FE632E143E85AE36A
:10221000C501B4010E945A37A70196010E94F83403
:1022200087FF08CE78CEFE8DFF2309F4E1CD02CEE4
:102230008091D105809394058091DA059091DB051A
:10224000A091DC05B091DD058093A1059093A205D6
:10225000A093A305B093A405C090F705D090F8050E
:10226000E090F905F090FA05A701960160919D05AF
:1022700070919E0580919F059091A0050E94F83471
:102280008823D9F0C0929D05D0929E05E0929F05CB
:10229000F092A005809103079091040790FF04C07D
:1022A0008091CE05811109C080919C05882329F079
:1022B00020E0B701A6010E946B138091FB0580937B
:1022C000A5058091D90590919C059817B9F0809348
:1022D0009C05209103073091040730FF04C09091C2
:1022E000CE0591110BC040919D0550919E056091C6
:1022F0009F057091A00520E00E946B138091D80586
:1023000090919B05981721F080939B050E94B41330
:102310008091CF05813051F46091EF057091F00507
:102320008091F1059091F2050E9476078091D40585
:10233000809397058091D205809395058E8D83308B
:10234000B9F48091D50580939805813009F037C0A4
:102350008091040690910506A0910606B0910706AB
:102360008093CA059093CB05A093CC05B093CD057F
:102370008091D60590919905981759F08093990509
:102380008CE0FE013D96A2EBB5E001900D928A959E
:10239000E1F78091D30580939605E091CF05E25057
:1023A000E83050F5F0E0E952FE4E0C949138E81117
:1023B00030125F1230126512FC1169126F12109206
:1023C000CA051092CB051092CC051092CD05D0CF46
:1023D000BE016F5F7F4F8F8D0E943C2080919905D9
:1023E0009F8D891309C08CE0FE013196A2EBB5E008
:1023F00001900D928A95E1F78091D0058093930525
:102400008530C1F0BE8DB230A9F4843008F06FC0C1
:10241000823008F0A7C0882309F47BC0813009F41A
:102420008CC08CE0ECEFF5E0A6EAB5E001900D92EF
:102430008A95E1F78091D70580939A05882311F456
:102440000C94F7090E94C0151092850580919A0599
:10245000823009F0BBC00E94BC0880E00C94F709F0
:10246000AE8DAA2399F0E0909D05F0909E05009115
:102470009F051091A005C0909C0520E040E050E031
:1024800060E87FEB8CEF95E00E944704E0909D05AB
:10249000F0909E0500919F051091A005C0909C05AD
:1024A00020E040E050E060E87FEBCE0101960E9422
:1024B00047048CE0FE013196A6EAB5E099CF66EAC2
:1024C00075E086E00E943C2097CF66EA75E087E0E1
:1024D000F9CF8CE0ECEFF5E0AEEBB5E089CFEEEBB9
:1024E000F5E08CE0DF011D928A95E9F785CF843015
:1024F00009F097CF4091A1055091A2056091A305E5
:102500007091A405209194058CEF95E00E94D4076A
:1025100088CFE0909D05F0909E0500919F05109159
:10252000A005C0909C0520E040E050E060E87FEB13
:102530008CEF95E00E94470474CFE0909D05F090E9
:102540009E0500919F051091A0054091A105509115
:10255000A2056091A3057091A405C0909C052091EF
:102560009405E6CFC090A105D090A205E090A30508
:10257000F090A4050091F3051091F4052091F50564
:102580003091F60580919C058F938091A0058F93E3
:1025900080919F058F9380919E058F9380919D05DB
:1025A0008F93EBA5EF93FEA1FF938DA0A0909405D0
:1025B0004EED55E06CEF75E086EA95E00E949504DB
:1025C0000FB6F894DEBF0FBECDBF2BCF10929A0589
:1025D00044CF1E3111F40C94F00A88F41A3011F42F
:1025E0000C94D80A1C3111F00C94D20A6A3011F004
:1025F0000C94780A34E03093CF050C94F60A153326
:1026000011F40C94FA0A1C3511F00C94D20A6A30B9
:1026100011F00C94780A39E0EECF1E3111F40C94CD
:10262000DB0A70F41A3011F40C94D60A1C3109F04C
:1026300048C8F1E0FE8F23E02093CF050C94E00A18
:10264000153311F40C94F80A1C3509F03AC8F1E07E
:10265000FE8F28E0F1CFE0EBF0E080818F77808380
:102660002B9808958091B300882329F08091B000C1
:1026700080688093B00008951092B300E0EBF0E022
:1026800080818F7780832B980895239A239A259AA7
:102690000C943C1383E88093B000E1EBF0E0808180
:1026A000887F8260808308958093B3000895BC0181
:1026B00090E080E00E94AA3520E030E040E051E464
:1026C0000E9403340E947B3583E0769567958A9556
:1026D000E1F7862F0895CF92DF92EF92FF92CF938A
:1026E000DF93C82F6A017B01D22F8091760582305B
:1026F00069F1809103079091040790FF02C02111B6
:1027000002C00E944915809103079091040790FF31
:1027100002C0D11102C00E94C015C11108C0DF91D2
:10272000CF91FF90EF90DF90CF900C943C13C1308D
:10273000A1F42D98C701B6010E947B35CB010E9400
:1027400057138093B3000E944A132B9ADF91CF91C5
:10275000FF90EF90DF90CF9008952D9AEBCF4398A4
:1027600008953B9A0C94AF13CF93C82F80917605B0
:10277000823039F00E9449150E94C015C23019F408
:10278000439ACF910895CF910C94AF139091020189
:1027900080910301891710F0891B08958E57FCCF93
:1027A000E0ECF0E08081826080831092C50080E1DF
:1027B0008093C400E1ECF0E08081806180838081BF
:1027C000886080838081806880830895E091010122
:1027D00091E09E0F9C3309F490E0209100012917AD
:1027E00061F0F0E0E85FF94F808390930101809100
:1027F000C10080628093C10004C02091770524FF4E
:10280000ECCF08951F920F920FB60F9211248F9361
:102810009F93EF93FF9380910001E82FF0E0E85F32
:10282000F94F90819093C6008F5F8C3309F480E05C
:102830008093000190910101981305C08091C1001F
:102840008F7D8093C100FF91EF919F918F910F90A9
:102850000FBE0F901F901895909102018091030177
:10286000891761F0E92FF0E0EC5BF94F80819F5F01
:10287000923809F490E09093020108958FEF089543
:102880001F920F920FB60F9211242F933F934F93E5
:102890005F936F937F938F939F93AF93BF93EF93C8
:1028A000FF938091C600813241F1A0F4883159F143
:1028B000E091030191E09E0F923809F490E020919D
:1028C0000201291799F1F0E0EC5BF94F80839093B6
:1028D00003011BC08F3341F08E3751F79FB7F89437
:1028E00080917705826005C09FB7F8948091770545
:1028F0008160809377059FBF08C09FB7F89480914F
:1029000077058860F6CF0E94BC08FF91EF91BF91D8
:10291000AF919F918F917F916F915F914F913F9177
:102920002F910F900FBE0F901F9018959FB7F8949E
:10293000809177058068DDCF80910301809302014B
:102940000895CF93C0917705CC2309F494C08C2FC0
:10295000807619F181E0809376050E942B13C6FFE3
:1029600025C08FEFC5FF8DEF0E945E2D81E00E9494
:10297000832D9FB7F894809177058F7E809377059C
:102980009FBF8091770584FFFCCF9FB7F89480911B
:1029900077058F79809377059FBFC4FF0BC00E9496
:1029A0002B1381E080937505CF9108958EEF0E94DF
:1029B0005E2DEBCFC0FF0AC00E9401319FB7F89493
:1029C000809177058E7F809377059FBFC3FF15C0E9
:1029D00080917605803149F480E2809376050E94EB
:1029E000D5180E94F718109285059FB7F89480912A
:1029F0007705877F809377059FBFC1FF1CC08091BB
:102A00007605883081F480E1809376050E94321348
:102A10000E94F7180E94D8158091030781FF33C0E8
:102A200081E0809385059FB7F894809177058D7F2D
:102A3000809377059FBFC2FF11C00E945624892B47
:102A400029F10E942B1388E0809376059FB7F894B4
:102A5000809177058B7F809377059FBFC7FF0BC061
:102A60008CEF0E945E2D9FB7F894809177058F7749
:102A7000809377059FBF80917605847309F494CF86
:102A8000CF910C94F71810928505CDCF1092760552
:102A9000DDCF80918505882341F09FB7F894809120
:102AA00077058260809377059FBF0895CF93DF936A
:102AB0000E94A92D80917605813029F482E00E9440
:102AC000832DC0E043C01092760584E091E00E941F
:102AD0008032F7CF8A3011F08D3099F5EC2FF0E08D
:102AE000EC5FFE4F10820E94A114D0917505D111A8
:102AF000E8CF80910401811112C00E94482DC0E0EE
:102B00000E942C148F3F31F70E9449150E94A11496
:102B1000809175058823A1F3DF91CF9108958432C8
:102B200029F484E091E00E94A032E7CF80917605FD
:102B3000813011F489E0E1CF84E091E00E949209B4
:102B4000DCCFDD2329F0D1E08932D1F6D0E0D8CF37
:102B50008132B0F28F32A1F2883281F0CB3310F0A3
:102B60008BE0CBCFEC2FF0E0EC5FFE4FCF5F9FE927
:102B7000980F9A3108F480528083C2CFD1E0C0CF41
:102B80000E94491580917605803119F481E0809387
:102B900085050E945624892B21F480917605803189
:102BA00031F40E94A11480917505882391F3089552
:102BB0008091030782FF1BC0289A8091760584715B
:102BC000A9F080916E018093820180916F018093C2
:102BD00081018091F6068250990B880F8195809330
:102BE000800180916F00826080936F000895289823
:102BF000E4CF80916F008D7F80936F008091810082
:102C0000887F81608093810010926D018091F90628
:102C10008F3F21F49091770595FF12C09091760532
:102C2000943071F090E00E94782881E09091030741
:102C300092FF02C091E08927882321F0289A089505
:102C400080E0F4CF289808951F920F920FB60F924C
:102C500011240F931F932F933F934F935F936F9381
:102C60007F938F939F93AF93BF93EF93FF93809145
:102C70006D018111DDC19BB180918201807E9F71C8
:102C8000892B8BB98BB1837E90918101892B8BB974
:102C90008091800186BD82E085BD81E080936D01D9
:102CA00078948091940190919501892B09F0A7C0A7
:102CB0008091720190917101981709F4AFC1E09170
:102CC000720186E0E89FF0011124EA56FE4FF0936E
:102CD0009501E0939401838194819093890080937E
:102CE0008800808191819093900180938F01E2818F
:102CF000809191018E17C1F1E093910183E1E89FEA
:102D0000F0011124E654FE4FF0939301E0939201F9
:102D100085859685A785B089B695A795979587955A
:102D20008093730190937401A0937501B093760121
:102D30008093770190937801A0937901B0937A0101
:102D400080937B0190937C01A0937D01B0937E01E1
:102D5000809103079091040790FF06C08289882321
:102D600019F081890E945413E0919201F09193012E
:102D7000808190916E01892780938201A0919401B6
:102D8000B091950115962C9181819281A381B48196
:102D9000022E04C0B695A795979587950A94D2F709
:102DA0008093830190938401A0938501B093860161
:102DB00085819681A781B085022E04C0B695A7951E
:102DC000979587950A94D2F780938701909388010D
:102DD000A0938901B0938A0181859285A385B485EA
:102DE00004C0B695A795979587952A95D2F78093B5
:102DF0008B0190938C01A0938D01B0938E010E9462
:102E0000D12C109281018091730190917401A09155
:102E10007501B091760140918301509184016091D8
:102E2000850170918601840F951FA61FB71F80939F
:102E3000730190937401A0937501B0937601E091B2
:102E40009201F091930145855685678570894817F1
:102E500059076A077B0728F524E020938101841B2A
:102E6000950BA60BB70B8093730190937401A093FD
:102E70007501B09376018091790590917A05A091C2
:102E80007B05B0917C05208125FFE5C00197A10954
:102E9000B1098093790590937A05A0937B05B0934F
:102EA0007C058091770190917801A0917901B09192
:102EB0007A01009187011091880120918901309158
:102EC0008A01800F911FA21FB31F809377019093F7
:102ED0007801A0937901B0937A01481759076A07DE
:102EE0007B0738F520918101286020938101841BA4
:102EF000950BA60BB70B8093770190937801A09365
:102F00007901B0937A0180917D0590917E05A09121
:102F10007F05B0918005208126FFA1C00197A109FE
:102F2000B10980937D0590937E05A0937F05B093B2
:102F3000800580917B0190917C01A0917D01B091F1
:102F40007E0100918B0110918C0120918D013091B7
:102F50008E01800F911FA21FB31F80937B0190935E
:102F60007C01A0937D01B0937E01481759076A0741
:102F70007B0738F520918101206120938101841B1A
:102F8000950BA60BB70B80937B0190937C01A093CC
:102F90007D01B0937E018091810590918205A09181
:102FA0008305B0918405208127FF5DC00197A109A9
:102FB000B1098093810590938205A0938305B09316
:102FC000840580917605843039F48091780590915C
:102FD000810189238093810180918F0190919001DB
:102FE00001979093900180938F01892B69F410923F
:102FF000950110929401809172018F5F809372010C
:10300000863011F4109272018091810190916F01CC
:1030100089278093810110926D010AC00E94F915E1
:103020009FB7F894809177058460809377059FBF60
:10303000FF91EF91BF91AF919F918F917F916F9190
:103040005F914F913F912F911F910F910F900FBE64
:103050000F901F9018950196A11DB11D1ACF0196D2
:10306000A11DB11D5ECF0196A11DB11DA2CF1F9262
:103070000F920FB60F9211248F939F939BB1809163
:103080006F018C71937E892B8BB915BC9F918F91A9
:103090000F900FBE0F901F9018950F931F93CF9313
:1030A000DF9310926F0110926E01D0E0C0E01C2FF0
:1030B0000C2F8091F70690E00C2E02C09595879515
:1030C0000A94E2F780FF08C0812F0E94CB229091E2
:1030D0006F01892B80936F018091F80690E002C008
:1030E000959587950A95E2F780FF08C0812F0E9489
:1030F000D52290916E01892B80936E012196C33069
:10310000D105A9F6DF91CF911F910F9108950E94EB
:10311000F915E0E4F1E08BE2DF011D928A95E9F711
:10312000E3E7F1E083E2DF011D928A95E9F710926F
:103130006C0110926B01109272011092710181E08A
:103140008093700110926D010E944D188BB1837EA7
:1031500090916F01892B8BB98BB18F7190916E011A
:10316000892B8BB908958AB18C618AB9209A8AB16A
:10317000806E8AB9E1E8F0E080818F7E8083808173
:1031800088608083E0E8F0E080818C7F80838081AC
:103190008F708083EEE6F0E08081887F808314BCAE
:1031A00015BC8081816080830895CF93DF93C091A7
:1031B0006B01D0916C012097B9F081E080934101BF
:1031C00060915701709158018091590190915A0175
:1031D0009B01AC010E945A376E8B7F8B888F998F31
:1031E00010926C0110926B01DF91CF9108952F9294
:1031F0003F924F925F926F927F928F929F92AF9287
:10320000BF92CF92DF92EF92FF920F931F93CF93D3
:10321000DF93CDB7DEB7E6970FB6F894DEBF0FBEEB
:10322000CDBF9091720180917001981709F4A2C4EA
:1032300080916B0190916C01892B09F07DC00E94F7
:103240005624FC0190936C0180936B01892B09F447
:1032500091C480914101882309F46EC1109241010B
:103260001092530110925401109255011092560180
:1032700020916B0130916C013A832983D901969694
:10328000CD90DD90ED90FC909997A701960160E0BC
:1032900070E080E09FE30E9402354B015C01E98110
:1032A000FA8142A453A464A475A480917605803267
:1032B00009F039C2F2E0F0935201A981BA81569621
:1032C0002D913D914D915C91599729833A834B8380
:1032D0005C83A501940169817A818B819C810E9424
:1032E0005A379B01AC01C301B2010E9402344B0169
:1032F0005C0120E030E0A9010E94F83487FF02C29F
:10330000A7019601C701B6010E940334A3019201EF
:103310000E945A379B01AC0169817A818B819C8123
:103320000E9402340E94F93760935F01709360013C
:10333000809361019093620180917101282F30E0A8
:103340003A87298746E0429FF001439FF00D112400
:10335000EA56FE4F80914001828380916B019091EB
:103360006C019E878D87DC019A96BC91BCA7FC01FD
:10337000F3A5FDA7DC019C96BC91BEA7FC01F5A5B9
:10338000FFA720914A0130914B0140914C0150918F
:103390004D016CA57DA58B2F9F2F0E94023468A73D
:1033A00079A78AA79BA720E030E0A9010E94F83402
:1033B00087FF04C018A619A61AA61BA620915B01B8
:1033C0002C8F30915C013D8F40915D014E8F50916B
:1033D0005E015F8F8091670188A39091680199A336
:1033E000A0916901AAA3B0916A01BBA3E091630116
:1033F000E88FF0916401F98F209165012A8F309157
:1034000066013B8F409152014F87509153015CA35D
:10341000809154018DA3909155019EA3A0915601D6
:10342000AFA320915F013091600140916101509103
:10343000620129AB3AAB4BAB5CAB309057012090AB
:10344000580130915901398340915A014D8328A187
:1034500039A14AA15B2FBF018A8D9B8D0E94F83450
:10346000811173C252E058AB9CA59C8BADA5AD8B6E
:10347000BEA5BE8BEFA5EF8B8EE3C82E83ECD82EB6
:103480008EE2E82E89E3F82E188A198A1A8A1B8A96
:10349000260137013F85332309F461C2313009F435
:1034A0008FC3AD85BE8596962D913D914D915C91D2
:1034B0009997C701B6010E945A374B015C01AC01D4
:1034C0009B01632D722D89819D810E941A371816E8
:1034D0000CF0AFC320E030E040E05FE3C501B40191
:1034E0000E945A379B01AC01632D722D89819D8109
:1034F0000E940234A70196010E945A379B01AC0139
:103500006C897D898E899F890E9402348B018EABE4
:103510009DAB9B01AC016CA17DA18EA19FA10E94DE
:10352000F83487FF86C3A5019401632D722D89812C
:103530009D810E9402343FC3809140018F5F85309E
:1035400009F4CCC0809340012091400153E1529F87
:10355000A00111248A0106541E4F8581D8018C9345
:1035600086819781A085B185AC01BD0193E0440FB0
:10357000551F661F771F9A95D1F7D80111964D9365
:103580005D936D937C93149782859385A485B5850F
:10359000AC01BD0123E0440F551F661F771F2A951C
:1035A000D1F7D80115964D935D936D937C93189741
:1035B00086859785A089B189AC01BD0133E0440FB0
:1035C000551F661F771F3A95D1F7D80119964D936D
:1035D0005D936D937C931C9782899389A489B589A7
:1035E000AC01BD01A3E0440F551F661F771FAA95CC
:1035F000D1F7D8011D964D935D936D937C935097B1
:10360000848152968C9360817181828193810E9422
:103610007B35CB010E945713F801818B20916B0100
:1036200030916C013A832983D90152966D917D9135
:103630008D919C9155970E94AA3560934201709399
:1036400043018093440190934501E981FA8122A5C9
:1036500033A544A555A50E9402359B01AC012093DA
:10366000460130934701409348015093490160E07F
:1036700070E080EA9FE30E94023560934A017093F4
:103680004B0180934C0190934D0110924E0110928A
:103690004F011092500110925101809176058032B5
:1036A00001F560915F0170916001809161019091DD
:1036B0006201609357017093580180935901909370
:1036C0005A019B01AC010E945A37A981BA815696D2
:1036D0006D937D938D939C935997C2CD1092400129
:1036E00033CFE981FA8166897789808D918D0E9437
:1036F000F937609357017093580180935901909363
:103700005A01AECD8092530190925401A09255017E
:10371000B092560110925F01109260011092610107
:103720001092620109CE10925201409263015092B0
:10373000640160926501709266010E9466242B010B
:103740003C0140925F015092600160926101709271
:103750006201AC019B010E945A376D837E838F8387
:103760009887E0916B01F0916C01FE87ED8722A5AF
:1037700033A544A555A529873A874B875C872689B9
:103780003789408D518D29833A834B835C839B011C
:10379000AC0169817A818B819C810E940234A501F0
:1037A00094010E945A3729853A854B855C850E9491
:1037B000033420E030E040E05FE30E945A376B01C1
:1037C0007C0120E030E0A9010E941A3718160CF0A5
:1037D000ABC0A701960169857A858B859C850E947F
:1037E0001A3718160CF08CC0ED85FE8542A053A048
:1037F00064A075A02D813E814F815885C301B2011F
:103800000E940234A50194010E945A376093670117
:10381000709368018093690190936A01A7019601F2
:103820000E94F83487FF3BC0C301B2010E94F93700
:1038300060935B0170935C0180935D0190935E01E6
:10384000A301920169817A818B819C810E94F83465
:10385000811104C0F1E0F09352016ECD29813A81CB
:103860004B815C81C301B2010E940234A501940125
:103870000E945A379B01AC01609163017091640111
:1038800080916501909166010E940234609363010A
:103890007093640180936501909366014DCDC09251
:1038A0006301D0926401E0926501F0926601C092DA
:1038B0006701D0926801E0926901F0926A01AD85DA
:1038C000BE8596966D917D918D919C9199979B0166
:1038D000AC010E940334A70196010E945A372D8142
:1038E0003E814F8158850E9403340E94F9376093CE
:1038F0005B0170935C0180935D0190935E011CCD30
:103900008091570190915801A0915901B0915A01AD
:10391000E2E0E093520180935B0190935C01A093FD
:103920005D01B0935E0108CD1092630110926401B5
:10393000109265011092660140925B0150925C0109
:1039400060925D0170925E01F7CC81E088AB8CCD16
:103950000C8B1D8BFEA9FE8B2DA92F8B9BCDAD85CE
:10396000BE8596962D913D914D915C919997C70199
:10397000B6010E945A374B015C0120E030E040E084
:103980005FE30E945A37232D322D49815D810E94C9
:103990000334A70196010E945A379B01AC016C8940
:1039A0007D898E899F890E9402348B018EAB9DABED
:1039B0009B01AC01688D798D8A8D9B8D0E941A3791
:1039C00018160CF0F0C0288D398D4A8D5B8D6CA5D2
:1039D0007DA58EA59FA50E9402349B01AC010E948B
:1039E00003346B017C012C8D3D8D4E8D5F8D632DDD
:1039F000722D89819D810E9403349B01AC01C70116
:103A0000B6010E9402356B017C013C8C2D8CBE8D71
:103A1000B983EF8DED83F8A9FF87088D198D2A8D65
:103A20002EAB3B8D3DABA7019601688979898A89C8
:103A30009B890E940334688B798B8A8B9B8B9B01BB
:103A4000AC01C301B2010E941A3718160CF01AC15A
:103A5000288939894A895B89C301B2010E940234ED
:103A60006B017C0198014EA95DA96CA17DA18EA17D
:103A70009FA10E94F83487FD6BCFFF85F093520120
:103A8000832D922DA981BD81809357019093580178
:103A9000A0935901B0935A014090460150904701BC
:103AA000609048017090490198014EA95DA9C30139
:103AB000B2010E945A3769837A838B839C830E9468
:103AC000E1346B017C01609142017091430180916E
:103AD0004401909145010E94E1344B015C01A70132
:103AE00096010E9402340E947B356D837E838F8312
:103AF000988786E049855A85849FF001859FF00D5F
:103B00001124EA56FE4FAD81BE81B183A083AB2B59
:103B100009F0D2C080917605803209F0CDC01092B4
:103B20005701109258011092590110925A011092A7
:103B30004E0110924F011092500110925101C0920B
:103B40004201D0924301E0924401F0924501A30169
:103B50009201C701B6010E940235AD85BE859A96D5
:103B60006D937D938D939C939D970E94BE2788E0D3
:103B700080937605E6960FB6F894DEBF0FBECDBFF4
:103B8000DF91CF911F910F91FF90EF90DF90CF9039
:103B9000BF90AF909F908F907F906F905F904F906D
:103BA0003F902F900895A5019401632D722D898176
:103BB0009D810E940334362E272E89839D8333CF27
:103BC000A70196016C8D7D8D8E8D9F8D0E945A3739
:103BD0009B01AC016C897D898E899F890E9402348A
:103BE0008B018EAB9DAB9B01AC0168A179A18AA131
:103BF0009BA10E941A3718160CF015CF28A139A1E5
:103C00004AA15BA16C897D898E899F890E940234BB
:103C10002C8D3D8D4E8D5F8D0E9402356B017C0198
:103C200008A119A14AA14EAB5BA15DAB82E08F87D1
:103C3000FACE2CA13DA14EA15FA16C897D898E8910
:103C40009F890E9402349B01AC010E9403346B01E6
:103C50007C0129A93AA94BA95CA9632D722D898100
:103C60009D810E9403349B01AC01C701B6010E94F3
:103C700002356B017C010CA11DA1BEA1BEABEFA161
:103C8000EDABD1CE28A539A54AA55BA5B8018EA973
:103C90009DA90E941A3718165CF42EE333EC4EE20D
:103CA00059E3C301B2010E9403342B013C01D0CE81
:103CB0002F8520935201E4CE20914E0130914F0187
:103CC0004091500150915101688979898A899B8975
:103CD0000E9403342B013C0129813A814B815C8194
:103CE000C501B4010E9402349B01AC01C301B201C1
:103CF0000E9402354B015C0129813A814B815C8134
:103D0000C701B6010E940234A50194010E945A37EE
:103D100060934E0170934F01809350019093510135
:103D200020EC31EE44E65EE4C501B4010E945A374E
:103D30000E94E1340E947B35603DB7E07B0781053E
:103D4000910508F048C046E029853A85429FF00178
:103D5000439FF00D1124EA56FE4F158246E0298557
:103D60003A85429FF001439FF00D1124EA56FE4F21
:103D70007483638380917001809371018F5F8630BB
:103D800009F482C08093700198014EA95DA96091E9
:103D900053017091540180915501909156010E94F8
:103DA000F83487FF74C0E0916B01F0916C01C80199
:103DB000AEA9BDA982A793A7A4A7B5A729813A81D7
:103DC0004B815C8120934201309343014093440135
:103DD0005093450126CA603A5FE075078105910559
:103DE000A0F526E0A985BA852A9FF0012B9FF00D4A
:103DF0001124EA56FE4F31E0358346E029853A85A5
:103E0000429FF001439FF00D1124EA56FE4F258199
:103E1000022E04C096958795779567950A94D2F7F8
:103E2000AD81BE8102C0AA0FBB1F2A95E2F7B18304
:103E3000A08361157105B1E08B07910508F48ECF61
:103E40008FEF9FEF9483838395CF60344FE17407A6
:103E50008105910560F426E0A985BA852A9FF001C5
:103E60002B9FF00D1124EA56FE4F32E0C5CFA6E09D
:103E700049855A85A49FF001A59FF00D1124EA56AB
:103E8000FE4FB3E0B583B9CF109270017DCF20E033
:103E900030E0A901B8018EA99DA90E941A37181611
:103EA0006CF510925701109258011092590110921E
:103EB0005A0110924E0110924F011092500110922F
:103EC0005101C0924201D0924301E0924401F0922C
:103ED000450140916B0150916C015A8349832091B7
:103EE0004601309147014091480150914901C70175
:103EF000B6010E940235A981BA8131CE10926C01BF
:103F000010926B010E9442248CC9F999FECF92BD98
:103F100081BD81E08FBB80B50895F894F999FECFFB
:103F200092BD81BD81E08FBB20B5862F8227082EF0
:103F3000000C990B50E086239523892B49F084E1EE
:103F40006F3F11F060BD84E08FBBF99A78940895BB
:103F50002617E1F360BD84E2F7CF9F92AF92BF9244
:103F6000CF92DF92EF92FF920F931F93CF93DF9345
:103F70005C018A017B01E40EF51EEB01912C6C01C2
:103F8000C61AD70ACE018C0D9D1DCE15DF0589F40A
:103F9000692DC501800F911FDF91CF911F910F9166
:103FA000FF90EF90DF90CF90BF90AF909F900C94D8
:103FB0008D1F21E0911007C0292D990C330B232F61
:103FC000221F2227221F6991962E920E0E948D1F7A
:103FD000D9CF9F92AF92BF92CF92DF92EF92FF9292
:103FE0000F931F93CF93DF935B018A017C01E40E53
:103FF000F51EEC01912C6B01C81AD90AC6018C0F71
:104000009D1FCE15DF05C1F4C501800F911F0E94D1
:10401000851F21E030E0891511F030E020E0C90172
:10402000DF91CF911F910F91FF90EF90DF90CF9094
:10403000BF90AF909F9008950E94851F21E091103E
:1040400007C0292D990C330B232F221F2227221F53
:10405000982E920E8993D2CF2DE3829FC001112416
:104060004CE350E09D5F0C94AD1F4CE350E0BC016D
:104070008EEA93E00C94AD1F2DE0829FC0011124C5
:104080004CE050E09E5F0C94AD1F69E090E080E052
:104090000E948D1F4EE450E066EC76E081E090E0F7
:1040A0000C94AD1FE6ECF6E08AE080AB8FEF83ABBB
:1040B00011AA82E082AB8FE184AB8AE097EDA3EA9C
:1040C000BCE385AB96ABA7ABB0AF8FE692E1A3E0C4
:1040D000BBE381AF92AFA3AFB4AF17AE80E090E087
:1040E000A8ECB1E48093060790930707A093080714
:1040F000B093090780E090E0AAEFB4E480930A0748
:1041000090930B07A0930C07B0930D0784E690E003
:1041100090930F0780930E0780E090E0A0E8BFE344
:104120008093100790931107A0931207B093130781
:1041300082E391E096AF85AF80E090E0A8ECB2E436
:1041400080839183A283B38384839583A683B7837B
:1041500080879187A287B38780E090E4ACE9B5E4DB
:1041600084879587A687B787808B918BA28BB38B2B
:10417000848B958BA68BB78B80E09FECA9E1BAE48A
:10418000808F918FA28FB38F848F958FA68FB78FDB
:1041900080E098ECAFEAB8E480A391A3A2A3B3A314
:1041A00086E696ECA0E0B4EC84A395A3A6A3B7A3FF
:1041B0008DEC9CE8A3ECB3EC80A791A7A2A7B3A7D2
:1041C00080E090E0A0E2B2EC84A795A7A6A7B7A7ED
:1041D0000C9445201F93CF93DF93182FEB018DE3B1
:1041E000189FB00111247D5F4CE350E0CE010E9486
:1041F000E91F892B51F41882BE01812F0E942C20C7
:1042000080E0DF91CF911F91089581E0FACFCF93A5
:10421000DF93EC014CE350E06EEA73E00E94E91F8B
:10422000892B21F41882CE010E94352081E0DF9194
:10423000CF9108951F93CF93DF93182FEB018DE05B
:10424000189FB00111247E5F4CE050E0CE010E9427
:10425000E91F892B71F48CE0FE0111928A95E9F730
:10426000BE01812F0E943C2080E0DF91CF911F9101
:10427000089581E0FACF90E080E00E94851F8930A8
:1042800059F44EE450E061E070E086EC96E00E9464
:10429000E91F21E0892B09F420E0822F0895CF92B5
:1042A000DF92EF92FF92CF93DF93C82F6A017B01D9
:1042B00020E030E0A901CB01B6010E94F83487FD6F
:1042C00035C1C43608F44AC0C45620E0C330E8F50E
:1042D0008C2F90E0880F991F880F991F223079F05A
:1042E000FC01233059F1213039F0EA53F94FC082F3
:1042F000D182E282F38218C0EE52F94FF8CFEC017E
:10430000C252D94F20E030E040E752E4C701B60185
:104310000E945A3720E030E040E752E40E945A37CA
:10432000688379838A839B830E94452080E0DF91A4
:10433000CF91FF90EF90DF90CF900895E651F94F25
:10434000F7FAF094F7F8F094D2CF2F5FCA3008F460
:10435000EFC0243009F4ECC0CA50B8CFC701B60191
:104360000E943D380E947B35C93208F0E1C0EC2F35
:10437000F0E0E354FE4D0C949138E621ED21F0215C
:10438000F521F821062210229822982298221A223A
:104390001C2225222E223822982298229822982206
:1043A000982242224E225E2268226B2274227D22B3
:1043B0008322982298229822982298229822982242
:1043C000982298229822982298228C2286E06330A4
:1043D00008F4ADCF6093F606A7CF6093F906A4CF9B
:1043E0006093F7060E944D189FCF6093F806FACFAE
:1043F0008091030790910407662331F084609093C5
:1044000004078093030790CF8B7FF9CF8091030738
:1044100090910407662311F08064F1CF8F7BEFCF7A
:104420008091030790910407662311F08068E7CF1D
:104430008F77E5CF6093FA06C092FB06D092FC0618
:10444000E092FD06F092FE066FCFC092FF06D0927A
:104450000007E0920107F092020766CF8091030700
:1044600090910407662311F08160C9CF8E7FC7CF7A
:104470008091030790910407662311F08260BFCFFB
:104480008D7FBDCF8091030790910407662321F0B3
:1044900084FF50C08062B3CF8F7DB1CF809103077E
:1044A00090910407662341F08860909304078093FD
:1044B00003070E94B32838CF877FF7CF8091030787
:1044C00090910407662311F0806199CF8F7C97CF7C
:1044D0006093050729CFC0920607D0920707E092A4
:1044E0000807F092090720CFC0920A07D0920B0765
:1044F000E0920C07F0920D0717CF70E070930F0752
:1045000060930E0711CFC0921007D0921107E0926E
:104510001207F092130708CF8091030790910407C8
:10452000662311F091606BCF9E7F69CF84E0FFCE50
:1045300083E0FDCE8AE0FBCE1F93CF93DF93CDB710
:10454000DEB72C970FB6F894DEBF0FBECDBF0E942A
:104550003B21811107C087E00E94482D0E94522014
:104560000E94B12D10E0BE016F5F7F4F812F0E942E
:104570001A21811103C087E00E94482D1F5F183067
:1045800091F72C960FB6F894DEBF0FBECDBFDF912A
:10459000CF911F910895882321F0813021F080E18F
:1045A000089584E0089588E00895882321F08130FB
:1045B00021F080E8089580E2089580E4089588233A
:1045C00021F0813021F080E1089582E0089584E0B7
:1045D00008952F923F924F925F926F927F928F92A7
:1045E0009F92AF92BF92CF92DF92EF92FF920F9382
:1045F0001F93CF93DF9300913702011101C002E1B5
:10460000015010913502101709F4BAC0E02EF12CB8
:104610002EE2029FE0011124C75CDD4F8A8C9B8C47
:10462000AC8CBD8C6EA17FA188A599A59B01AC0126
:104630000E9403342AA53BA54CA55DA50E945A37CC
:104640006B01D82FC92F9B01482F592FB401C501E9
:104650000E94F83487FF03C06401DA2DCB2D8EE26F
:104660008E9DF0018F9DF00D1124E75CFD4FC6017A
:10467000AD2FBC2F868B978BA08FB18FC02F0111D0
:1046800001C0C2E1C1501C1709F45FC03EE2039FA4
:1046900080011124075C1D4FDEE2809135028C17EA
:1046A00009F459C0EC2EF12CCD9FC0011124FC015E
:1046B000E75CFD4F6F01C11101C0C2E1C1508091A3
:1046C00038028C1302C00E94D518DE9DC001DF9D08
:1046D000900D11249C01275C3D4F7901F901828CDA
:1046E000938CA48CB58CA501940166897789808D03
:1046F000918D0E94F834882331F1F70166A177A1EA
:1047000080A591A59B01AC010E940334F70122A56D
:1047100033A544A555A50E945A37F8012689378943
:10472000408D518D0E9403342B013C01AC019B0153
:10473000C501B4010E941A37F7011816A4F5468A7C
:10474000578A608E718E8601A8CF809138028113BE
:1047500002C00E94D518D0913502FEE2DF9F800191
:104760001124075C1D4FC1E0CD0FC23109F4C0E038
:10477000209037028EE2382E2C121AC0D0933502C8
:10478000DF91CF911F910F91FF90EF90DF90CF902D
:10479000BF90AF909F908F907F906F905F904F9061
:1047A0003F902F900895868A978AA08EB18ECBCFA6
:1047B000CC2ED12CC39DC00111249C01275C3D4F00
:1047C0007901F80146885788608C718CF9018688D8
:1047D0009788A08CB18CA5019401C301B2010E94FD
:1047E000F83487FF24C0F80166A177A180A591A5C0
:1047F0009B01AC010E940334F80122A533A544A516
:1048000055A50E945A37A30192010E9403342B013F
:104810003C01AC019B01C501B4010E941A37181676
:1048200034F4F701468A578A608E718EDC2F3C9CE7
:10483000F0013D9CF00D1124E75CFD4F228D338D7E
:10484000448D558D66897789808D918D0E94F834CD
:10485000811101C0DC2FCF5FC23109F4C0E08701B4
:104860008BCFE9E1F2E08CE1DF011D928A95E9F757
:10487000109238021092370281E080933602109233
:10488000350208959091380280913702891769F0B6
:1048900081E0890F823109F480E020913502921382
:1048A00002C08093350280933802089580913802C7
:1048B00090913702981739F02EE2829FC00111249F
:1048C000875C9D4F089590E080E00895E091380264
:1048D000EF5FE23109F4E0E0809137028E1761F07A
:1048E0008EE2E89FF0011124E75CFD4F668977892D
:1048F000808D918D0C94F93760E070E0CB010895C4
:1049000081E02091380290913602291380E00895C9
:104910002F923F924F925F926F927F928F929F92CF
:10492000AF92BF92CF92DF92EF92FF920F931F93BD
:10493000CF93DF93CDB7DEB7E5970FB6F894DEBF20
:104940000FBECDBF498F5A8F6B8F7C8F2DAB2091BF
:104950003702422F50E058A34F8F5EE2259F90010F
:104960001124F901E75CFD4FE082F1820283138399
:10497000C482128A138A148A158A12A613A614A650
:1049800015A6158249E956E766E97EE746A357A3CF
:1049900060A771A76C0186EC96E09CA38BA3AE0187
:1049A000435F5F4F5EA34DA389E192E09CA78BA775
:1049B000A901415C5D4F5EA74DA7CE0101969AA368
:1049C00089A398AB8FA729E132E038A72FA346EC43
:1049D00056E05E8F4D8FF12C8F01CF0142969AAB3E
:1049E00089AB3596FCABEBAB1801FAE22F0E311C0C
:1049F000F60161917191819191916F01ED8DFE8D23
:104A000081909190A190B190FE8FED8FA5019401BE
:104A10000E945A370E942737EDA1FEA1619371933E
:104A200081939193FEA3EDA3EFA1F8A5419051903E
:104A300061907190F8A7EFA3641975098609970929
:104A40002B013C0197FF07C0442455243201461A2C
:104A5000570A680A790AEDA5FEA541925192619222
:104A60007192FEA7EDA7E9A9FAA9208131814281BF
:104A70005381241535054605570510F4A30192010D
:104A8000E9A9FAA920833183428353830E94AC357C
:104A9000A50194010E9402354B015C01EFA5F8A924
:104AA00081929192A192B192F8ABEFA720E030E011
:104AB000A9010E94F83487FF08C08F2D0E94D522DB
:104AC000EBA9FCA99081892B8083A5019401C501E4
:104AD000B4010E945A37F101208131814281538112
:104AE0000E940334F1016083718382839383F39482
:104AF000F3E0FF127DCF0E94F9374B015C01F10119
:104B000080829182A282B382F80182899389A489EA
:104B1000B589892B8A2B8B2B09F4EAC120E030E080
:104B2000A901698D7A8D8B8D9C8D0E94F83487FD4B
:104B30007DC1FDA9FF2361F0298D3A8D4B8D5C8DE0
:104B4000C501B4010E940235698F7A8F8B8F9C8FCB
:104B500020E030E040E85FE3698D7A8D8B8D9C8D9D
:104B60000E94F83487FF06C0198E1A8E20E82B8F1A
:104B70003FE33C8FA501940160E070E080E89FE393
:104B80000E9402356FA378A789A79AA7E9A1FAA185
:104B90003C96FEA3EDA3812C912C54012EE24F8D67
:104BA00058A1249FC001259F900D1124FC01E15ABA
:104BB000FD4FFE8FED8FE9A1FAA1C190D190E19058
:104BC000F190FAA3E9A320E030E0A901C701B60102
:104BD0000E94F834882309F46BC02FA138A549A599
:104BE0005AA5C701B6010E945A372B013C01E9A121
:104BF000FAA134974082518262827382AC019B0198
:104C000060E070E080E89FE30E9402356B017C0168
:104C1000E894F7F8EBA1FCA12485358546855785F6
:104C2000C701B6010E945A371B018C01298D3A8DAC
:104C30004B8D5C8D0E941A37181624F0298E3A8EFF
:104C40000B8F1C8FED8DFE8D2080318002811381B2
:104C5000EBA1FCA1208D318D428D538DC701B60192
:104C60000E945A376B017C019B01AC01B101C80164
:104C70000E94F83487FD02C016018701C101D801E6
:104C8000ED8DFE8D80839183A283B383EBA5FCA57C
:104C90002485358546855785C301B2010E945A3760
:104CA0009B01AC01C501B4010E9402344B015C01BF
:104CB0002BA53CA52C5F3F4F3CA72BA74BA15CA18C
:104CC0004C5F5F4F5CA34BA38DA19EA1E9A1FAA10C
:104CD0008E179F0709F06FCF9091370280913802AD
:104CE0009813ADC08EE22F8D38A1829FF001839F73
:104CF000F00D1124E75CFD4F168A178A108E118E75
:104D0000168E178E10A211A2298D3A8D4B8D5C8DB7
:104D1000698D7A8D8B8D9C8D0E945A377B018C0119
:104D20008EE24F8D58A1849FF001859FF00D1124D4
:104D3000E75CFD4FC701D80182A393A3A4A3B5A349
:104D4000A68CB78CC0A081A0609031027090320216
:104D500090903302D09034029301492D5D2DB7011C
:104D6000C8010E94F83487FF03C03701902ED12E6E
:104D70009301492D5D2DB5018C2D982D0E94F8349D
:104D800087FD03C05301C92C8D2C8EE22F8D38A1D5
:104D9000829FF001839FF00D1124E75CFD4FC50158
:104DA000AC2DB82D828F938FA48FB58F8CE0FE0130
:104DB0003196A5E2B2E001900D928A95E1F7C70124
:104DC000D8018093310290933202A0933302B093C2
:104DD00034028CE0FE013D96A9E1B2E001900D9213
:104DE0008A95E1F780913602809337028F5F823196
:104DF00009F480E080933602E5960FB6F894DEBFA2
:104E00000FBECDBFDF91CF911F910F91FF90EF901B
:104E1000DF90CF90BF90AF909F908F907F906F90DA
:104E20005F904F903F902F900C94E92249E9498F71
:104E300056E75A8F86E98B8F9EE79C8F9BCEA50104
:104E4000940160E070E080E89FE30E94023420E07B
:104E500030E040E05FE30E945A370E94F9376B016F
:104E60007C018EE24F8D58A1849FF001859FF00D4B
:104E70001124E75CFD4F2091FB063091FC06409128
:104E8000FD065091FE0666A177A180A591A50E941E
:104E90005A37A70196010E945A374B015C01A701BE
:104EA000960160E070E080E89FE30E9402349B017D
:104EB000AC01C501B4010E9402356B017C0120E008
:104EC00030E0A9010E94F83487FF03C0C12CD12C27
:104ED00076018EE22F8D38A1829FF001839FF00D25
:104EE0001124E75CFD4FC68ED78EE0A2F1A20CCF55
:104EF000E5960FB6F894DEBF0FBECDBFDF91CF9120
:104F00001F910F91FF90EF90DF90CF90BF90AF90E7
:104F10009F908F907F906F905F904F903F902F90D9
:104F20000895E9E1F2E0A5E7B5E014964D915D91B1
:104F30006D917C9117974083518362837383189698
:104F40004D915D916D917C911B9744835583668350
:104F500077831C968D919D910D90BC91A02D80879B
:104F60009187A287B3870895809137029091380284
:104F7000891710F0891B08958E5EFCCF0E94D5180A
:104F800080913802809335020C94E9224F925F920F
:104F90006F927F92AF92BF92CF92DF92EF92FF9289
:104FA0000F931F93CF93DF936C017B015A01DB01B9
:104FB000EC91E80FF92FF11D8081EF018D3229F579
:104FC0002296818101E0512CF0E010E020E030E0F9
:104FD000A9013E01E0EDE80FEA3018F5FF5FF93076
:104FE000E0F451101150A5E0B0E00E9497389B0109
:104FF000AC01220F331F441F551F2E0F311D411DC1
:10500000511D2196D3018C91E4CF8B3219F021965A
:1050100000E0D9CF22968181FBCF5110F2CF1F5FE4
:10502000F0CFEE3F29F4511003C055245394E9CF3B
:10503000FF23F9F0CA01B9010E94AA352B013C01F6
:1050400020E030E0A9010E94F83481112DC0002336
:1050500009F447C077FA709477F87094F5014082AC
:10506000518262827382CC19DD09C150F701C0837D
:10507000F1E08F2FDF91CF911F910F91FF90EF9073
:10508000DF90CF90BF90AF907F906F905F904F90E8
:1050900008952AE037ED43E25CE3C301B2010E94C8
:1050A0005A372B013C011E5F1F3F9CF31F3F59F4F1
:1050B0002DEC3CEC4CEC5DE3C301B2010E945A378D
:1050C0002B013C01C4CF112311F220E030E040E27B
:1050D00051E4C301B2010E945A372B013C01115027
:1050E000F2CFD5014D925D926D927C921397BBCF1A
:1050F000019708F40895EFE9FFE03197F1F700C058
:105100000000F6CF8F929F92AF92BF92CF92DF9224
:10511000EF92FF9269017A019B01AC010E945A371C
:105120004B015C01A7019601C701B6010E945A37E5
:105130009B01AC01C501B4010E940334FF90EF90C4
:10514000DF90CF90BF90AF909F908F900C94F937E5
:10515000EBE6F0E08081897E8083E8E6F0E0808104
:105160008E7F8083089584B1897E84B990910307EE
:1051700085B196FF0FC0897E85B993FF0DC08091E0
:105180006B00866180936B008091680081608093E2
:10519000680008958661F0CF0C94A8281F920F92A2
:1051A0000FB60F9211242F933F934F935F936F93FA
:1051B0007F938F939F93AF93BF93EF93FF938091D0
:1051C0007605813071F08091770585FD0AC00E94D7
:1051D000BC089FB7F8948091770580668093770527
:1051E0009FBFFF91EF91BF91AF919F918F917F9161
:1051F0006F915F914F913F912F910F900FBE0F9044
:105200001F9018952F923F924F925F926F927F92CC
:105210008F929F92AF92BF92CF92DF92EF92FF92C6
:105220000F931F93CF93DF93CDB7DEB7A4970FB63D
:10523000F894DEBF0FBECDBF282E80917505811179
:10524000FAC0E0900A07F0900B0700910C0710914C
:105250000D07EB8AFC8A0D8B1E8B3AEEA32E36E0EF
:10526000B32E8E01035F1F4F68019E01205F3F4FE9
:10527000790110E0312C812C912C00E0812F0E94CB
:10528000DF22D7018D937D01812F0E94CB22F60171
:1052900081936F01D5014D905D906D907D905D0182
:1052A000232D382D492D502FC301B2010E94F8340F
:1052B00087FF04C0342C852C962C072D1F5F1330DC
:1052C000E9F620E030E040EC5FEB632D782D892D8E
:1052D000902F0E945A374B015C010E94312426E036
:1052E000522EDD24D39444244394E22DF0E0FC8F2D
:1052F000EB8F9501840130580D8F1E8F2F8F38A3AF
:105300002DE030E02C0F3D1F2D5F3F4F388F2F8B4E
:10531000809103076D2C86FDA7C0A09105078A2FF9
:1053200090E09CA38BA3DE0111961D01FD01712C61
:1053300060E090E080E0A9A33AA2782F4B8D5C8DCD
:10534000082E02C0559547950A94E2F79A012170FC
:10535000332740FF90C06F5FD11088C0ED8CFE8C6A
:105360000F8D18A1E082F182028313834BA15CA10F
:1053700002C0559547957A95E2F740FF0CC0E08052
:10538000F1800281138117FB109517F91095E082C7
:10539000F18202831383232B49F02DE030E02C0FA0
:1053A0003D1F280F391FD9012C91722A019634967E
:1053B0008330910511F670E090E080E00E94AA35FC
:1053C0000E94F937709278052B893C894D895E8956
:1053D0000E945A37AB01BC01C12CE12CF12C870192
:1053E00020E0CE0101960E9488240E94F7180E94B6
:1053F000D81593B1662011F0B6E19B27DE015096D7
:10540000FE013D968191282F272129F02C912923F7
:1054100011F0809578221196EF88F88CEE15FF0533
:1054200089F7709278050E94F7188091770584FFBC
:1054300027C00E94A114A4960FB6F894DEBF0FBE39
:10544000CDBFDF91CF911F910F91FF90EF90DF9033
:10545000CF90BF90AF909F908F907F906F905F9014
:105460004F903F902F900895642457CF808291826F
:10547000A282B3827BCF108211821282138276CFF6
:10548000872D8C7109F0B5CF0E9487180E943124B6
:1054900080910E0790910F070E947828E0900607F0
:1054A000F09007070091080710910907EB8AFC8A22
:1054B0000D8B1E8BD4245A9451102ACF809105074E
:1054C000082F10E01C8B0B8B809010079090110719
:1054D000A0901207B0901307D501C401B0588F8B6C
:1054E000988FA98FBA8F85E7C82E85E0D82E96ECC5
:1054F000E92E96E0F92E10E000E08B8D9C8D002EB9
:1055000002C0959587950A94E2F780FF72C08B8957
:105510009C89002E02C0959587950A94E2F780FF3A
:1055200057C0D70194964D905D906D907C90979761
:10553000A5019401C301B2010E940334F10160830B
:10554000718382839383D7012D913D914D915C911D
:10555000C301B2010E945A370E942737F6016483C3
:105560007583868397830F5F1F4FF4E02F0E311CE6
:1055700024E0C20ED11C34E0E30EF11C033011050F
:1055800009F0BBCF0E94912740910A0750910B0769
:1055900060910C0770910D07C12CE12CF12C870153
:1055A00020E089A19AA10E94882488E08093760552
:1055B0009FB7F894809177058260809377059FBFAD
:1055C0000E94A1140E94C01584E08093760533CF19
:1055D0008F89988DA98DBA8DF10180839183A283E3
:1055E000B383D60114961D921D921D921C9217979B
:1055F000BACFF60164817581868197810E94AC35AE
:10560000D7012D913D914D915C910E940235F101A0
:105610006083718382839383A6CFAF92BF92CF9230
:10562000DF92EF92FF920F931F93CF93DF93EC01E2
:105630000AEE16E05C018CE0A80EB11CC990D9906E
:10564000E990F99020E030E0A901C701B6010E947D
:105650001A37181664F0F801219131914191519156
:105660008F01C701B6010E94F83487FF33C08091D3
:1056700076058031C9F49FB7F894809177058860EA
:10568000809377059FBF0E94A114809175058823A0
:10569000D1F3DF91CF911F910F91FF90EF90DF90A9
:1056A000CF90BF90AF9008950E94BC089FB7F89428
:1056B000809177058066809377059FBFDF91CF91BA
:1056C0001F910F91FF90EF90DF90CF90BF90AF9020
:1056D0000C94A114CA15DB0509F0B0CFDACFCF9333
:1056E000DF93EC018991811103C0DF91CF9108957F
:1056F0000E94E613F7CFCF93DF93EC01FE01849174
:105700002196811103C0DF91CF9108950E94E61385
:10571000F5CFEF92FF920F931F93CF93DF93CDB707
:10572000DEB728970FB6F894DEBF0FBECDBF9E013F
:105730002F5F3F4F7901285F3F4FF701982F9170FE
:1057400091938695E217F307C9F78F01F8018291CB
:105750008F01805D0E94E6130E151F05B9F728968C
:105760000FB6F894DEBF0FBECDBFDF91CF911F9172
:105770000F91FF90EF900895EF92FF920F931F9378
:10578000CF93DF9300D01F92CDB7DEB781110CC04D
:1057900080E30F900F900F90DF91CF911F910F91A9
:1057A000FF90EF900C94E61300E09E012F5F3F4FB7
:1057B00079012AE0F701E00FF11D622F0E946338A2
:1057C000905D90830F5F8111F5CF0E0D1F2D111D80
:1057D000E016F10651F40F900F900F90DF91CF91EA
:1057E0001F910F91FF90EF900895F80182918F0122
:1057F0000E94E613EDCF8F929F92AF92BF92CF920D
:10580000DF92EF92FF920F931F93CF93DF93CDB769
:10581000DEB72A970FB6F894DEBF0FBECDBF6B017F
:105820007C01142F20E030E0A9010E94F83487FFAA
:1058300007C08DE20E94E613F7FAF094F7F8F094AF
:10584000012F023008F054C010FF0AC020E030E001
:1058500040E251E4C701B6010E945A376B017C0156
:1058600020E030E040E05FE3C701B6010E9403346E
:105870000E9474359E012F5F3F4F7901F901E10FBE
:10588000F11D2EE2208300E02AE0822E912CA12C33
:10589000B12C6115710581059105B1F5F701E00F96
:1058A000F11D80E3011708F440C0011308C0E1E0D6
:1058B000E00FEE0DFF2DF11D0E5F80E380830E0DD6
:1058C0001F2D111DE016F10699F52A960FB6F894D2
:1058D000DEBF0FBECDBFDF91CF911F910F91FF9023
:1058E000EF90DF90CF90BF90AF909F908F900895F2
:1058F00020E030E048EC52E4C701B6010E945A377C
:105900006B017C0102509DCF011301C00F5F670145
:10591000C00ED11CA50194010E946F38605DF60194
:105920006083B901CA010F5FB4CF0F5F8193BACF13
:10593000F80182918F010E94E613C4CF20910307E2
:1059400043E020FF07C02BE832E441E25DE30E9420
:105950005A3744E00C94FB2B2091030740E020FFD2
:1059600007C02BE832E441E25DE30E945A3741E090
:105970000C94FB2B43E00C94FB2B3D988091030788
:1059800087FF04C04598109214070895459A80E255
:1059900080931407089586B1807290911407892727
:1059A0000895809186058130A1F40E94CB2C882334
:1059B00081F0109286058CE0E9E7F5E0A7E8B5E014
:1059C00001900D928A95E1F7809177058860809328
:1059D00077050895CF93C82F87EC97E00E947B2B23
:1059E000EFEFEC0FE63108F04BC0F0E0E650F34D7E
:1059F0000C949138102D192D1C2D1F2D222D252D85
:105A0000282D2B2D2E2D312D342D402D402D402D88
:105A1000402D402D402D402D402D3A2D372D3D2D30
:105A20008FEA97E00E947B2B88EB96E0CF910C9455
:105A30007B2B8DE997E0F6CF8BE897E0F3CF81E8F9
:105A400097E0F0CF80E797E0EDCF81E697E0EACFEF
:105A500080E497E0E7CF87E397E0E4CF8CE297E03C
:105A6000E1CF89E197E0DECF8BE097E0DBCF85EFF8
:105A700096E0D8CF81EE96E0D5CF8DEC96E0D2CFF0
:105A80008BEB96E00E947B2B8C2F0E94BC2BCCCF03
:105A9000CF93811110C00E94C613C82F82ED97E0EA
:105AA0000E947B2B82E88C1B0E94BC2B8FEC97E022
:105AB000CF910C947B2BCF910C94EA2CCF93C82FD1
:105AC00080EB96E00E947B2BCD3FD1F06CF480E719
:105AD00096E0CC3F79F08DE696E00E947B2B84EF38
