:100000000C94F5030C9412040C9412040C942429FF
:100010000C94C5320C9412040C9412040C94120427
:100020000C9412040C9412040C9412040C947A167E
:100030000C9412040C9412040C9412040C941204E8
:100040000C948D180C9412040C944A140C940C14F7
:100050000C9412040C9412040C9412040C941204C8
:100060000C9412040C941204084AD73B3BCE016E48
:1000700084BCBFFDC12F3D6C74319ABD56833DDAFF
:100080003D00C77F11BED9E4BB4C3E916BAAAABE0E
:10009000000000803F05A84CCDB2D44EB93836A937
:1000A000020C50B9918688083CA6AAAA2ABE000074
:1000B00000803F003E0D0A006F66663A006F6E3AA0
:1000C000002C6C6173657220007A00790078002C36
:1000D0006C696D6974733A002C52583A002C427561
:1000E000663A002C002C57506F733A002C002C4DB0
:1000F000506F733A003C436865636B003C416C6130
:10010000726D003C486F6D65003C486F6C64003C4C
:1001100052756E003C5175657565003C49646C65AF
:10012000005D0D0A005B302E39675F3230313930A7
:100130003331355F373732616238372D6469727415
:10014000793A000D0A003D00244E005D0D0A0020A2
:100150005300204600205400204D3800204D390027
:10016000204D3500204D3400204D3300204D32000D
:10017000204D3100204D30002047393400204739D0
:1001800033002047393100204739300020473230D2
:1001900000204732310020473139002047313800F4
:1001A00020473137002047005B473830005B47333A
:1001B000005B4732005B4731005B4730005D0D0A52
:1001C000005B544C4F3A005D0D0A002C005B473930
:1001D000323A005D0D0A002C003A0033300032380C
:1001E000005B47005D0D0A002C005B5052423A0054
:1001F000290D0A00206D61782074726176656C2C7F
:10020000206D6D0020616363656C2C206D6D2F7314
:1002100065635E3200206D617820726174652C2008
:100220006D6D2F6D696E002C20737465702F6D6D70
:10023000007A00790078002028003D002400202862
:100240007475726E204C61736572206D6F646520E9
:100250006F6E2C20626F6F6C290D0A002434303DC4
:10026000002028686F6D696E672070756C6C2D6F4B
:1002700066662C206D6D290D0A002028686F6D6957
:100280006E67206465626F756E63652C206D7365A3
:1002900063290D0A2432373D002028686F6D696E8E
:1002A00067207365656B2C206D6D2F6D696E290D50
:1002B0000A2432363D002028686F6D696E6720661B
:1002C0006565642C206D6D2F6D696E290D0A2432D1
:1002D000353D00290D0A2432343D002028686F6D19
:1002E000696E672064697220696E76657274206D2C
:1002F00061736B3A002028686F6D696E67206379BF
:10030000636C652C20626F6F6C290D0A2432333DBB
:1003100000202868617264206C696D6974732C20F8
:10032000626F6F6C290D0A2432323D002028736FF2
:100330006674206C696D6974732C20626F6F6C2910
:100340000D0A2432313D0020286175746F207374CA
:100350006172742C20626F6F6C290D0A2432303D5B
:100360000020287265706F727420696E636865730F
:100370002C20626F6F6C290D0A2431343D00202837
:1003800061726320746F6C6572616E63652C206DA1
:100390006D290D0A2431333D0020286A756E63747F
:1003A000696F6E20646576696174696F6E2C206D6B
:1003B0006D290D0A2431323D00290D0A2431313DC9
:1003C000002028737461747573207265706F727485
:1003D000206D61736B3A00202870726F6265207027
:1003E000696E20696E766572742C20626F6F6C295D
:1003F0000D0A2431303D0020286C696D697420702D
:10040000696E7320696E766572742C20626F6F6CF2
:10041000290D0A24363D0020287374657020656E0E
:1004200061626C6520696E766572742C20626F6FF4
:100430006C290D0A24353D00290D0A24343D002085
:100440002864697220706F727420696E76657274A8
:10045000206D61736B3A00290D0A24333D0020287A
:100460007374657020706F727420696E7665727433
:10047000206D61736B3A0020287374657020696485
:100480006C652064656C61792C206D736563290D42
:100490000A24323D002028737465702070756C73D7
:1004A000652C2075736563290D0A24313D002430C5
:1004B0003D002424202876696577204772626C20ED
:1004C00073657474696E6773290D0A242320287676
:1004D000696577202320706172616D657465727340
:1004E000290D0A2447202876696577207061727388
:1004F0006572207374617465290D0A244920287679
:10050000696577206275696C6420696E666F290D74
:100510000A244E2028766965772073746172747599
:100520007020626C6F636B73290D0A24783D7661CD
:100530006C7565202873617665204772626C207344
:10054000657474696E67290D0A244E783D6C696E76
:1005500065202873617665207374617274757020EC
:10056000626C6F636B290D0A2443202863686563FE
:100570006B2067636F6465206D6F6465290D0A24C5
:100580005820286B696C6C20616C61726D206C6FF7
:10059000636B290D0A2448202872756E20686F6DE0
:1005A000696E67206379636C65290D0A7E20286374
:1005B00079636C65207374617274290D0A21202897
:1005C0006665656420686F6C64290D0A3F202863A6
:1005D000757272656E7420737461747573290D0A77
:1005E0006374726C2D78202872657365742047726D
:1005F000626C290D0A000D0A4772626C20302E3998
:10060000675F32303139303331355F3737326162CD
:1006100038372D6469727479205B27242720666F30
:10062000722068656C705D0D0A005D0D0A004469FA
:100630007361626C656400456E61626C6564004361
:10064000617574696F6E3A20556E6C6F636B65648B
:1006500000272448277C2724582720746F20756E94
:100660006C6F636B00526573657420746F20636FE9
:100670006E74696E7565005B000D0A005258204269
:100680007566666572204F76657272756E0050727F
:100690006F6265206661696C0041626F72742064EC
:1006A0007572696E67206379636C65004861726476
:1006B0002F736F6674206C696D697400414C4152F0
:1006C0004D3A20000D0A00202A00496E76616C69BF
:1006D000642067636F64652049443A00556E646521
:1006E00066696E6564206665656420726174650084
:1006F000556E737570706F7274656420636F6D6D85
:10070000616E64004D6F64616C2067726F7570205C
:1007100076696F6C6174696F6E004C696E65206FED
:10072000766572666C6F7700486F6D696E67206ED4
:100730006F7420656E61626C656400416C61726DFE
:10074000206C6F636B004E6F742069646C650045AC
:100750004550524F4D2072656164206661696C2E70
:10076000205573696E672064656661756C747300EB
:1007700056616C7565203C203320757365630053AA
:10078000657474696E672064697361626C65640086
:1007900056616C7565203C203000496E76616C694D
:1007A000642073746174656D656E740042616420C9
:1007B0006E756D62657220666F726D61740045784A
:1007C00070656374656420636F6D6D616E64206C29
:1007D0006574746572006572726F723A20000D0A5A
:1007E000003A00202A006F6B000011241FBECFEFDB
:1007F000D8E0DEBFCDBF11E0A0E0B1E0E8E6F2E76F
:1008000002C005900D92A232B107D9F727E0A2E20B
:10081000B1E001C01D92A335B207E1F70E941404B4
:100820000C9432390C9400000E94DA130E94F222D8
:100830000E9409190E94B432EBEAF5E08EE1DF0173
:100840001D928A95E9F781E08093AB0578949091A9
:10085000410794FD8093AC05C1E00E94A6140E945C
:1008600053090E944F130E94BB130E9409290E9442
:10087000132D0E9487240E94DD180E94E7270E9402
:1008800065091092AB051092AD058091410781FF7B
:1008900005C0C093BB050E946015DFCF1092BB0559
:1008A000FACF4F925F926F927F928F929F92AF9208
:1008B000BF92CF92DF92EF92FF920F931F93CF934D
:1008C000DF93EC014A015B01D22E270138018091B0
:1008D000410785FF03C0CE010E94632B8091AC05C8
:1008E0008230E1F00E94AB148091AB05811116C0FB
:1008F0000E94D624882319F00E945315F3CF830158
:1009000072012D2DB501A401CE010E94DE2480913B
:10091000AC05811103C088E08093AC05DF91CF91D5
:100920001F910F91FF90EF90DF90CF90BF90AF900D
:100930009F908F907F906F905F904F9008952F922F
:100940003F924F925F926F927F928F929F92AF925F
:10095000BF92CF92DF92EF92FF920F931F93CF93AC
:10096000DF93CDB7DEB7E5970FB6F894DEBF0FBEC5
:10097000CDBF9E878D87788B6F873A0109831A8355
:100980002B833C83C98ADA8AEB8AFC8AAF8A24E00B
:10099000829E40011124880D991D998F888FCA016C
:1009A000880D991D9B8F8A8FDC012D903D904D9075
:1009B0005C90E88DF98D2081318142815381C201A3
:1009C000B1010E94843468A379A38AA39BA32B96C8
:1009D000AFAC2B97F4E0AF9E500111242D853E85DE
:1009E0002A0D3B1D3D8F2C8FC3018A0D9B1D9F8FB0
:1009F0008E8FDC01CD90DD90ED90FC90F90120818F
:100A0000318142815381C701B6010E9484346CA3B5
:100A10007DA38EA39FA33201210177FA709477F80A
:100A20007094D701C601B0588D839E83AF83B88779
:100A3000AF85B8898A0E9B1E28A139A14AA15BA166
:100A4000F40160817181828193810E9483346B0102
:100A50007C01EF85F889EA0DFB1D2CA13DA14EA17B
:100A60005FA160817181828193810E9483344B01F7
:100A70005C01A7019601C301B2010E94DB376987BF
:100A80007A878B879C87A50194016D817E818F81F8
:100A900098850E94DB379B01AC0169857A858B853F
:100AA0009C850E94843469877A878B879C87A501FF
:100AB0009401C301B2010E94DB374B015C01A70125
:100AC00096016D817E818F8198850E94DB379B0125
:100AD000AC01C501B4010E94833429853A854B8558
:100AE0005C850E9403356B017C018091CB0520E081
:100AF00030E0A901823009F0FCC0C701B6010E94B4
:100B00009B3787FD0AC02BED3FE049EC50E4C7015D
:100B1000B6010E9483346B017C0180903D07909068
:100B20003E07A0903F07B090400729813A814B8152
:100B30005C81CA01B9010E948434A50194010E941C
:100B40008334A50194010E94DB370E947A384B015F
:100B50005C0120E030E040E05FE3C701B6010E94A5
:100B6000DB3729813A814B815C810E94DB379F779B
:100B7000A50194010E9483350E9468360E94FC35CD
:100B800079A768A76115710509F488C090E080E035
:100B90000E942B364B015C013F89332361F0AC018D
:100BA0009B0169897A898B899C890E94DB37698BD3
:100BB0007A8B8B8B9C8BA5019401C701B6010E9497
:100BC000833569877A878B879C872C968FAD2C9786
:100BD000A4E08A9FC0011124ED85FE85E80FF91F6E
:100BE000FE8BED8B2F853889820F931F20813181F9
:100BF00042815381DC016D917D918D919C910E9488
:100C00008334A50194010E9483356AAB7BAB8CAB26
:100C10009DAB29853A854B855C85CA01B9010E9447
:100C2000DB379B01AC0160E070E080E090E40E9463
:100C300083346B017C012BEA3AEA4AE25EE3698580
:100C40007A858B859C850E94DB374B015C0120E017
:100C500030E040E850E4C701B6010E9484349B01B3
:100C6000AC01C501B4010E94DB376AA77BA78CA742
:100C70009DA720E030E040E05FE3C701B6010E949D
:100C8000DB376EA77FA788AB99AB19822224239408
:100C9000312CE8A5F9A52E163F06D9F56196CFAC03
:100CA00061976096ECACFDAC0EAD1FAD60972F89DF
:100CB00049895A896B897C898F8598890E9451045A
:100CC000E5960FB6F894DEBF0FBECDBFDF91CF9192
:100CD0001F910F91FF90EF90DF90CF90BF90AF905A
:100CE0009F908F907F906F905F904F903F902F904C
:100CF0000895C701B6010E94793518160CF40DCF7E
:100D00002BED3FE049EC50E4C701B6010E9484346A
:100D100002CFB981BC3008F08DC02AA53BA54CA5F7
:100D20005DA5C301B2010E94DB376B017C012EA5DA
:100D30003FA548A959A96D817E818F8198850E9420
:100D4000DB379B01AC01C701B6010E9484346B0103
:100D50007C012EA53FA548A959A9C301B2010E9453
:100D6000DB374B015C012AA53BA54CA55DA56D8138
:100D70007E818F8198850E94DB379B01AC01C50184
:100D8000B4010E9483342B013C01E981EF5FE983C8
:100D9000C601D7018D839E83AF83B88728A139A16F
:100DA0004AA15BA1C301B2010E948434E88DF98D90
:100DB00060837183828393832CA13DA14EA15FA1A7
:100DC0006D817E818F8198850E948434AC8DBD8D2C
:100DD0006D937D938D939C9313972AA93BA94CA95E
:100DE0005DA9ED89FE8960817181828193810E9474
:100DF0008434AD89BE896D937D938D939C931397B5
:100E00006196CFAC61976096ECACFDAC0EAD1FADBA
:100E100060972F8949895A896B897C898D859E8540
:100E20000E9451048091AB0581114ACFBFEF2B1A6C
:100E30003B0A2FCFB10190E080E00E942B3629853C
:100E40003A854B855C850E94DB376B017C010E94F3
:100E50007E3569837A838B839C83C701B6010E94A8
:100E60006C384B015C01AA8DBB8DCD90DD90ED906F
:100E7000FC90F7FAF094F7F8F094AE8DBF8D8D9159
:100E80009D910D90BC91A02D8D839E83AF83B887DB
:100E900029813A814B815C81C701B6010E94DB3711
:100EA0002B013C01A50194016D817E818F81988584
:100EB0000E94DB379B01AC01C301B2010E94843464
:100EC0002B013C01A5019401C701B6010E94DB374B
:100ED0006B017C0129813A814B815C816D817E812E
:100EE0008F8198850E94DB379B01AC01C701B60159
:100EF0000E9483346D837E838F83988719824ECFBF
:100F00008F929F92AF92BF92CF92DF92EF92FF9219
:100F1000CF93DF936B017C018091AC05823091F11E
:100F200020E030E040EA51E4C7010E94DB370E9434
:100F300068360E94FC354B01EB010E94161620E03A
:100F400030E04AE754E4C701B6010E94DB376B0189
:100F50007C0182E3889DB001899D700D112490E091
:100F600080E00E942B369B01AC01C701B6010E94B4
:100F700083340E9468360E94FC35CB010E94CE2843
:100F8000209759F4DF91CF91FF90EF90DF90CF90B1
:100F9000BF90AF909F908F9008950E94AB142197BF
:100FA0008091AB058111EECF2FEF80E792E02150C9
:100FB00080409040E1F700C00000E2CF2F923F92C6
:100FC0004F925F926F927F928F929F92AF92BF9259
:100FD000CF92DF92EF92FF920F931F93CF93DF9305
:100FE00000D000D01F92CDB7DEB79D838C834A011D
:100FF0005B01D22E8091AC05823009F4AFC00E9413
:1010000016168091BB058B830E94212D882351F0F9
:101010009FB7F8948091AD0580648093AD059FBF24
:101020000E94AB148091AB05811198C0C12CE12CBA
:10103000F12C87012D2DB501A4018C819D810E9489
:10104000510481E08093BC059FB7F8948091AD0571
:1010500082608093AD059FBF0E94AB148091AB0569
:1010600081117CC08091AC05877FB1F78091BC0570
:10107000813041F49FB7F8948091AD0580648093EE
:10108000AD059FBF0E94AB148091AB05811166C076
:101090000E94DD180E9487240E94E727EDEBF5E00F
:1010A000FA83E98384E0282E87E0382E0C811D81A5
:1010B0007801FCE0EF0EF11CE981FA8161917191F8
:1010C00081919191FA83E983F1014190519061906E
:1010D00071901F010E942D36A30192010E94833559
:1010E000F80161937193819391938F01EE15FF0540
:1010F00019F7C12CE12CF12C87012D2DB501A4018C
:101100008C819D810E9451049FB7F8948091AD0518
:1011100082608093AD059FBF0E9416168091AB053B
:1011200081111CC0FB81F093BB050F900F900F90B5
:101130000F900F90DF91CF911F910F91FF90EF9043
:10114000DF90CF90BF90AF909F908F907F906F90E7
:101150005F904F903F902F900C94C92F0F900F905D
:101160000F900F900F90DF91CF911F910F91FF90F3
:10117000EF90DF90CF90BF90AF909F908F907F9037
:101180006F905F904F903F902F9008958091AD05A4
:1011900084FD1AC09FB7F8948091AD05806180935B
:1011A000AD059FBF0E9446130E94B9138091AC0504
:1011B000847351F09FB7F8948091AD05806280935D
:1011C000AD059FBF0C944F16089583B190914107D0
:1011D00096FF0DC0867169F00E94C6089FB7F8940B
:1011E0008091AD0580668093AD059FBF0895809581
:1011F000F1CF84E08093AC050E9446130E94FE2844
:1012000083E00E9458290E94AB148091AB058111A4
:1012100008C00E9465091092AC050E944F160C94FC
:1012200009290895CF9320913406309135064091D5
:101230003606509137066091DE057091DF0580918A
:10124000E0059091E1050E947935811128C0209137
:1012500038063091390640913A0650913B0660912C
:10126000E2057091E3058091E4059091E5050E9407
:101270007935811114C0C1E020913C0630913D06C2
:1012800040913E0650913F066091E6057091E7055A
:101290008091E8059091E9050E9479358111C0E0BF
:1012A0008C2FCF910895EBECF5E08BE3DF011D92DD
:1012B0008A95E9F76AEE75E080E00E94702181115D
:1012C00003C087E00C94AA2D08958F929F92AF924D
:1012D000BF92EF92FF920F931F93CF93DF938FEA0A
:1012E000E82E85E0F82EC4E0D7E00EED15E0F7011A
:1012F00061917191819191917F0189909990A990CB
:10130000B9900E942D36A50194010E948335F80101
:1013100061937193819391938F01F7E0C031DF075F
:1013200031F7DF91CF911F910F91FF90EF90BF9018
:10133000AF909F908F9008952F923F924F925F921F
:101340006F927F928F929F92AF92BF92CF92DF92D5
:10135000EF92FF920F931F93CF93DF93CDB7DEB73A
:10136000AF970FB6F894DEBF0FBECDBF98A38F8F97
:10137000E6E0F6E08AE3DF011D928A95E9F78AE06C
:10138000EBECF5E0A8E0B6E001900D928A95E1F76C
:101390001D8E312C212CB12CA12C812C912C1E8E38
:1013A00044244394512C7724739482E0682E8D8DCD
:1013B000EF8DF8A1E80FF11D008101111BC09920EC
:1013C00029F0BE8DB11102C0E2E0EE8F25FE70C2A1
:1013D0008091230690912406A0912506B0912606BF
:1013E00080389649A849B1050CF462C20E944613A0
:1013F0008BE107C09FEB900F9A31E0F00E944613FB
:1014000081E0AF960FB6F894DEBF0FBECDBFDF917F
:10141000CF911F910F91FF90EF90DF90CF90BF90F1
:10142000AF909F908F907F906F905F904F903F9084
:101430002F9008958F5F8D8FAE01475E5F4FBE0185
:10144000635E7F4F8F8D98A10E941C28811104C07C
:101450000E94461382E0D5CFC98CDA8CEB8CFC8CD1
:10146000C701B6010E94BE380E94FC35162F70E0FD
:1014700090E080E00E942D369B01AC01C701B601CF
:101480000E94833420E030E048EC52E40E94DB37D5
:101490000E9448380E94FC35073421F10D3409F4CC
:1014A0001EC1EAEBE00FE53108F02CC00E2E000C57
:1014B000FF0BE35AF54F0C941239AB0B820A820AE8
:1014C000C50BD10BDD0BE90B820AED0B820AFB0B7E
:1014D000820A050C0F0C3D0C820A820A820A190C42
:1014E000250C310C163209F493C050F5143170F408
:1014F000113108F0CEC0143009F458C008F488C087
:101500001A3091F00E94461384E17BCF1C3161F0C8
:1015100048F41631B8F7143109F0CFC070920A06BA
:1015200015E047C01E3171F761110C94F312BE8DA6
:10153000BB2311F40C9417130E94461388E161CF6A
:10154000103509F4A2C0D8F4153309F45DC080F455
:101550001B3211F01133B1F69E8D9111EDCF113385
:1015600009F0AEC010920D0666E0A3E0AE8F32C067
:101570001C3340F6165310930E0617E01AC01C35A4
:1015800099F250F41A3508F4BDCF1A3509F08FC01E
:1015900010920B0613E00DC01F3508F0B3CF1D35B8
:1015A00009F088C07092090614E003C07092070623
:1015B00010E0662309F48DC00E94461387E121CF15
:1015C000E1E0EE8F60920706F3CF81E08E8F95E029
:1015D00090930706C20102C0880F991F6A95E2F72F
:1015E0009C012A213B21232B09F4B2C00E944613FF
:1015F00085E107CF6A3009F085CFA6E0A093070602
:1016000060E0E8CFB1E0BE8FE7E0E0930706D0CF1F
:101610008E8D811191CF123041F150F41123B1F030
:101620001130E1F01092060611E082E08E8FC1CFFA
:10163000133019F11632B1F7643109F063CFF4E0D9
:10164000F093080661E022E02E8FC4CF10920806C6
:101650007092060611E092E09E8FABCF10930806C1
:1016600010930606A2E0AE8FA4CF109308067092E6
:101670000606B2E0BE8F11E09CCF10930806709270
:10168000060611E0E2E0EE8F94CF35E030930806D5
:10169000F2CF123131F0133139F010920C0612E012
:1016A00088CF70920C06FBCF60920C06F8CF709238
:1016B0000B0670CF1092090677CF10920A0630CF32
:1016C0006A3009F01FCF70920D0666E0B3E0BE8F5E
:1016D00081CF612F7FCF60E0E1E0EE8F7BCF6111A2
:1016E0006BCF163088F41330D0F0143011F1153070
:1016F00019F17092110689E0920102C0220F331F86
:101700008A95E2F7C9016DCF183008F4FBCE1A3084
:10171000B0F01E3109F0F6CE60920F0608C012300C
:10172000D9F31E31C9F3111102C070920F0688E07F
:10173000E3CF60921106DFCF10921106DCCF193093
:1017400021F0609210068AE0D7CF10921006FBCFEE
:10175000A82AB92A2CCEC0921206D0921306E09283
:101760001406F092150680E08201082E02C0000FD8
:10177000111F0A94E2F7980122213321232B09F447
:101780007EC00E94461389E13CCEC0921606D092DC
:101790001706E0921806F0921906689480F881E026
:1017A000E3CFC0921A06D0921B06E0921C06F0927C
:1017B0001D06689481F882E0D7CFC0921E06D092B1
:1017C0001F06E0922006F0922106689482F883E0DA
:1017D000CBCF1093220684E0C7CFC701B6010E9489
:1017E000F535609323067093240680932506909325
:1017F000260685E0B9CFC0922706D0922806E0924F
:101800002906F0922A0686E0AFCFC0922B06D0922E
:101810002C06E0922D06F0922E0687E0A5CFC0920E
:101820002F06D0923006E0923106F092320688E020
:101830009BCFC0923406D0923506E0923606F092E5
:101840003706689490F88AE08FCFC0923806D0921D
:101850003906E0923A06F0923B06689491F88BE0E4
:1018600083CFC0923C06D0923D06E0923E06F092B5
:101870003F06689492F88CE077CF89E075CFA1E6B7
:10188000B3E002C0B595A7958A95E2F7A0FF0DC019
:1018900020E030E0A901C701B6010E94793587FF39
:1018A00004C00E94461384E0ACCD202A312A7FCDAB
:1018B00080910906813049F42E8D223031F520FCCB
:1018C00024C00E94461386E19CCD8091CC058111F5
:1018D0001CC020FE36C080910A068130B1F423E39B
:1018E00033E34BEC51E46091120670911306809142
:1018F0001406909115060E94DB37609312067093D0
:101900001306809314069093150630FC10C0809146
:10191000D5059091D605A091D705B091D8058093B3
:101920002F0690933006A0933106B0933206809133
:1019300007068130C9F426FC15C00E9446138CE1CD
:1019400060CD8091D9059091DA05A091DB05B09129
:10195000DC058093120690931306A0931406B093AF
:101960001506D3CFE89426F880910C06882349F019
:10197000813009F448C01BA692E09EA3A1E0ADA36C
:1019800005C032E03BA781E08EA31DA280910A062C
:10199000813059F516E0E12E16E0F12E10E000E05E
:1019A000C92CD12CC601002E02C0959587950A94AA
:1019B000E2F780FF12C023E333E34BEC51E4D7019D
:1019C0009E966D917D918D919C91D1970E94DB3770
:1019D000F70166A777A780AB91AB0F5F1F4FF4E0CD
:1019E000EF0EF11C03301105E9F62E8D233089F43A
:1019F00080910D06813069F434E0931651F00E9415
:101A0000461385E2FECCB1E0BBA71EA2E2E0EDA347
:101A1000BDCF8CE0EAEEF5E0DE011D9601900D925F
:101A20008A95E1F7A7FE17C080910E06873020F057
:101A30000E9446138DE1E5CC9091D105891759F0AC
:101A4000BE01635F7F4F0E947021811104C00E941C
:101A5000461387E0D6CC10910706123009F458C01F
:101A6000183009F4FEC08E8D833009F43FC09920F0
:101A7000E9F100910B068091020690910306A09176
:101A80000406B09105068F8F98A3A9A3BAA3EBEC27
:101A9000AE2EE5E0BE2EF6E0CF2EF6E0DF2EF12CE6
:101AA000E12CA92DB0E0BCA3ABA38BA19CA10E2C73
:101AB00002C0959587950A94E2F780FD3DC1F50136
:101AC00083899489A589B689F60186A797A7A0ABD3
:101AD000B1ABFFEFEF1AFF0A24E0A20EB11C34E015
:101AE000C30ED11C83E0E816F104F9F6153009F4B1
:101AF00073C1173009F475C1BE016F5F7F4F86E077
:101B0000133009F00CC10E947021811108C19FCFD0
:101B1000911004C00E9446138AE173CCC101807504
:101B20009927892B09F409CF60912706709128061F
:101B30008091290690912A060E94BE380E94FC35A9
:101B4000673008F075CF80912206843129F0823009
:101B500009F0D8CC27FCD6CC8FEA2822662309F4DA
:101B600074C061506F8FDE0111966D01BD018F8DC4
:101B70000E947021882309F46ACFB0912206BBA38A
:101B80008091020690910306A0910406B09105068B
:101B90008FA398A7A9A7BAA710E000E0F12CE12C29
:101BA000A92CB12CC5010E2C02C0959587950A94DD
:101BB000E2F780FF30C0F801EA5FF94F46A457A46E
:101BC00060A871A89BA1943109F043C0F801E553C6
:101BD000FA4F23A534A545A556A56389748985893F
:101BE00096890E948334A30192010E948334F601F6
:101BF000E00FF11F6083718382839383A2E0EA1276
:101C00000AC02FA138A549A55AA50E948334698727
:101C10007A878B879C87BFEFEB1AFB0A0C5F1F4FFD
:101C2000E3E0EE16F10409F0BDCF1091080615307F
:101C300009F0E0C0992009F400C39E8D913009F4A9
:101C400003C10E9446138FE1DCCB90910E069F8F5B
:101C50008ACFF601E00FF11F4082518262827382C7
:101C6000DACF992009F456CF40900206509003062F
:101C70006090040670900506ABECCA2EA5E0DA2E43
:101C8000B6E0EB2EB6E0FB2E5E01FDE0AF0EB11C20
:101C900010E000E0292D30E038A32F8F8F8D98A120
:101CA000002E02C0959587950A94E2F780FF39C00F
:101CB000D5012D913D914D915C91F6016389748917
:101CC000858996890E948334D7019E962D913D91F6
:101CD0004D915C91D1970E948334F70166A777A755
:101CE00080AB91AB023061F4A30192010E94833476
:101CF00060933C0670933D0680933E0690933F06AA
:101D00000F5F1F4FF4E0CF0ED11C24E0E20EF11C58
:101D100034E0A30EB11C0330110509F0BFCF1F8EB4
:101D200084CFF60183A594A5A5A5B6A5F70186A73E
:101D300097A7A0ABB1ABE4CF173009F4CACED60158
:101D40009E964D905D906D907C90D197011133C01F
:101D5000F701EE0FFF1FEE0FFF1F2DE030E02C0FFD
:101D60003D1FE20FF31FD5019B962D913D914D91A3
:101D70005C919E9760817181828193810E948434FD
:101D8000A30192010E948434F60166A777A780AB75
:101D900091ABF2E0EF129DCE2F8D38A149A15AA14F
:101DA0000E94843460933C0670933D0680933E0607
:101DB00090933F068ECEA3019201D50153966D916B
:101DC0007D918D919C9156970E948434F60166A76F
:101DD00077A780AB91AB7DCEBE016F5F7F4F87E071
:101DE00092CE80910806823008F499CF0E94461363
:101DF0008EE107CBAE8DA23009F01FC211110EC0CB
:101E0000911022C02EED22222CEF32221E8E23288A
:101E100009F418C20E94461384E2F3CA20E030E0BD
:101E2000A901609112067091130680911406909199
:101E300015060E947935882309F443CD143048F4FF
:101E4000123088F41130E1F23EED232230EE3322DD
:101E5000DECF1430C9F7992009F45CCE0E94120934
:101E6000882391F362C0992009F454CEFDA1EF2F8D
:101E7000F0E0FCA3EBA33EA1232F30E038A72FA373
:101E800081E090E08C010DA002C0000F111F0A94A8
:101E9000E2F70EA002C0880F991F0A94E2F7082B00
:101EA000192B892D90E080239123892B21F40E9406
:101EB000461380E2A6CA8BA19CA1880F991F880FA8
:101EC000991FFC01EA5FF94F85539A4FDC01539645
:101ED0002D913D914D915C91569766A577A580A96E
:101EE00091A90E9483346B017C018FA198A5880F72
:101EF000991F880F991FFC01EA5FF94F85539A4F8C
:101F0000DC0153962D913D914D915C91569766A5BC
:101F100077A580A991A90E9483342B013C0127FE5B
:101F2000E2C00E941209882321F00E94461381E238
:101F300068CA80910A068130B1F423E333E34BECA5
:101F400051E460912B0670912C0680912D069091A2
:101F50002E060E94DB3760932B0670932C0680932D
:101F60002D0690932E0680902B0690902C06A09024
:101F70002D06B0902E0620E030E040E850E4C50188
:101F8000B4010E94DB37A50194010E94DB374B01AD
:101F90005C01A7019601C701B6010E94DB379B01D6
:101FA000AC01C501B4010E9483344B015C01A30163
:101FB0009201C301B2010E94DB379B01AC01C50154
:101FC000B4010E9483344B015C0120E030E0A901A0
:101FD0000E94793587FF04C00E94461382E211CA2D
:101FE000C501B4010E947A384B015C01A301920142
:101FF000C701B6010E94D8289B01AC01C501B401FC
:1020000090580E9483354B015C0180910806833013
:1020100021F4B7FAB094B7F8B09480912B06909160
:102020002C06A0912D06B0912E068CA79DA7AEA7D9
:10203000BFA720E030E0A901BC01CD010E947935A5
:1020400087FF11C0B7FAB094B7F8B0948CA59DA5DE
:10205000AEA5BFA5B05880932B0690932C06A093F5
:102060002D06B0932E06E89427F80BA11CA1000FB3
:10207000111F000F111F0A5E194FA3019201C50124
:10208000B4010E94DB379B01AC01C701B6010E947D
:10209000833420E030E040E05FE30E94DB37D8018A
:1020A0006D937D938D939C9313970FA118A5000FAB
:1020B000111F000F111F0A5E194FA7019601C501DC
:1020C000B4010E94DB37A30192010E94843420E016
:1020D00030E040E05FE30E94DB37F801608371830A
:1020E00082839383B1CE912C08211921012B21F4F5
:1020F0000E94461383E285C9F1EF2F2280910A06E0
:10210000813059F510E000E0C401002E02C0959521
:1021100087950A94E2F780FF1BC0C801880F991FBA
:10212000880F991F9C012A5F394F590123E333E33C
:102130004BEC51E4D50150966D917D918D919C9120
:1021400053970E94DB37F501608B718B828B938BE9
:102150000F5F1F4F03301105B9F60FA118A5000F2F
:10216000111F000F111F0A5E194FD8012D913D91CB
:102170004D915C91C301B2010E9483342B013C015B
:10218000ABA0BCA0AA0CBB1CAA0CBB1CF501EA5E50
:10219000F94F5F012081318142815381C701B6012E
:1021A0000E948334A30192010E94D8286B017C0114
:1021B000D8012D913D914D915C91F5016081718126
:1021C000828193810E94D8284B015C0180922B066A
:1021D00090922C06A0922D06B0922E06AC019B0187
:1021E000C701B6010E9483346B017C01E894F7F8C3
:1021F0002AE037ED43EA5BE3C701B6010E949B3753
:1022000018160CF021CE20E030E040E05FE3C7017B
:10221000B6010E949B3718160CF487CE2FE632E1E8
:1022200043E85AE3C501B4010E94DB37A7019601D8
:102230000E94793587FF08CE78CEFE8DFF2309F402
:10224000E1CD02CE809109068093CC0580911206E3
:1022500090911306A0911406B09115068093D905AC
:102260009093DA05A093DB05B093DC05C0902F06B0
:10227000D0903006E0903106F0903206A70196012A
:102280006091D5057091D6058091D7059091D805BC
:102290000E9479358823D9F0C092D505D092D60511
:1022A000E092D705F092D8058091410790914207BE
:1022B00090FF04C080910606811109C08091D40569
:1022C000882329F020E0B701A6010E9475138091B0
:1022D00033068093DD05809111069091D4059817FF
:1022E000B9F08093D405209141073091420730FF27
:1022F00004C09091060691110BC04091D5055091F4
:10230000D6056091D7057091D80520E00E9475131D
:10231000809110069091D305981721F08093D305F2
:102320000E94BE1380910706813051F46091270608
:10233000709128068091290690912A060E948007B4
:1023400080910C068093CF0580910A068093CD057D
:102350008E8D8330B9F480910D068093D005813045
:1023600009F037C080913C0690913D06A0913E0651
:10237000B0913F068093020690930306A093040653
:10238000B093050680910E069091D105981759F0EB
:102390008093D1058CE0FE013D96AAEEB5E0019058
:1023A0000D928A95E1F780910B068093CE05E0911E
:1023B0000706E250E83050F5F0E0EF51FE4E0C9485
:1023C0001239F2113A1269123A126F12061273128E
:1023D00079121092020610920306109204061092CF
:1023E0000506D0CFBE016F5F7F4F8F8D0E94922078
:1023F0008091D1059F8D891309C08CE0FE01319633
:10240000AAEEB5E001900D928A95E1F78091080659
:102410008093CB058530C1F0BE8DB230A9F48430F5
:1024200008F06FC0823008F0A7C0882309F47BC091
:10243000813009F48CC08CE0E4E3F6E0AEEDB5E069
:1024400001900D928A95E1F780910F068093D20555
:10245000882311F40C94010A0E9416161092BB05F1
:102460008091D205823009F0BBC00E94C60880E08E
:102470000C94010AAE8DAA2399F0E090D505F09056
:10248000D6050091D7051091D805C090D40520E05D
:1024900040E050E060E87FEB84E396E00E94510466
:1024A000E090D505F090D6050091D7051091D8059C
:1024B000C090D40520E040E050E060E87FEBCE0122
:1024C00001960E9451048CE0FE013196AEEDB5E01C
:1024D00099CF6EED75E086E00E94922097CF6EED69
:1024E00075E087E0F9CF8CE0E4E3F6E0A6EFB5E035
:1024F00089CFE6EFF5E08CE0DF011D928A95E9F7E0
:1025000085CF843009F097CF4091D9055091DA05F5
:102510006091DB057091DC052091CC0584E396E0A9
:102520000E94DE0788CFE090D505F090D605009197
:10253000D7051091D805C090D40520E040E050E0C8
:1025400060E87FEB84E396E00E94510474CFE09052
:10255000D505F090D6050091D7051091D80540918A
:10256000D9055091DA056091DB057091DC05C090CA
:10257000D4052091CC05E6CFC090D905D090DA05DE
:10258000E090DB05F090DC0500912B0610912C0605
:1025900020912D0630912E068091D4058F93809145
:1025A000D8058F938091D7058F938091D6058F930F
:1025B0008091D5058F93EBA5EF93FEA1FF938DA09E
:1025C000A090CC0546E156E064E376E08EED95E020
:1025D0000E949F040FB6F894DEBF0FBECDBF2BCF75
:1025E0001092D20544CF1E3111F40C94FA0A88F4EB
:1025F0001A3011F40C94E20A1C3111F00C94DC0A2C
:102600006A3011F00C94820A34E0309307060C947F
:10261000000B153311F40C94040B1C3511F00C94C1
:10262000DC0A6A3011F00C94820A39E0EECF1E31D8
:1026300011F40C94E50A70F41A3011F40C94E00AC9
:102640001C3109F048C8F1E0FE8F23E02093070613
:102650000C94EA0A153311F40C94020B1C3509F0A2
:102660003AC8F1E0FE8F28E0F1CFE0EBF0E08081A6
:102670008F7780832B9808958091B300882329F069
:102680008091B00080688093B00008951092B300EC
:10269000E0EBF0E080818F7780832B980895239A78
:1026A000239A259A0C94461383E88093B000E1EBBB
:1026B000F0E08081887F8260808308958093B300FA
:1026C0000895BC0190E080E00E942B3620E030E0CD
:1026D00040E051E40E9484340E94FC3583E076950A
:1026E00067958A95E1F7862F0895CF92DF92EF9252
:1026F000FF92CF93DF93C82F6A017B01D22F809185
:10270000AC05823069F1809141079091420790FFBA
:1027100002C0211102C00E9453158091410790917F
:10272000420790FF02C0D11102C00E941616C111CB
:1027300008C0DF91CF91FF90EF90DF90CF900C9485
:102740004613C130A1F42D98C701B6010E94FC3593
:10275000CB010E9461138093B3000E9454132B9A03
:10276000DF91CF91FF90EF90DF90CF9008952D9A59
:10277000EBCF439808953B9A0C94B913CF93C82F8D
:102780008091AC05823039F00E9453150E941616D4
:10279000C23019F4439ACF910895CF910C94B91394
:1027A0009091240180912501891710F0891B0895CB
:1027B0008058FCCFE0ECF0E0808182608083109252
:1027C000C50080E18093C400E1ECF0E0808180618D
:1027D0008083808188608083808180688083089581
:1027E000E091230191E09E0F943409F490E0209150
:1027F0002201291761F0F0E0E05CF94F80839093AB
:1028000023018091C10080628093C10004C02091A7
:10281000AD0524FFECCF08951F920F920FB60F92D3
:1028200011248F939F93EF93FF9380912201E82FC0
:10283000F0E0E05CF94F90819093C6008F5F8434A4
:1028400009F480E08093220190912301981305C040
:102850008091C1008F7D8093C100FF91EF919F9186
:102860008F910F900FBE0F901F901895909124019B
:1028700080912501891761F0E92FF0E0EC57F94FBD
:1028800080819F5F903809F490E09093240108952F
:102890008FEF08951F920F920FB60F9211242F936E
:1028A0003F934F935F936F937F938F939F93AF93D8
:1028B000BF93EF93FF938091C600813241F1A0F462
:1028C000883159F1E091250191E09E0F903809F48B
:1028D00090E020912401291799F1F0E0EC57F94F8D
:1028E0008083909325011BC08F3341F08E3751F7C1
:1028F0009FB7F8948091AD05826005C09FB7F894AA
:102900008091AD0581608093AD059FBF08C09FB7E2
:10291000F8948091AD058860F6CF0E94C608FF91BB
:10292000EF91BF91AF919F918F917F916F915F9147
:102930004F913F912F910F900FBE0F901F901895C0
:102940009FB7F8948091AD058068DDCF8091250117
:10295000809324010895CF93C091AD05CC2309F451
:1029600094C08C2F807619F181E08093AC050E9491
:102970003513C6FF25C08FEFC5FF8DEF0E94CF2D09
:1029800081E00E94042E9FB7F8948091AD058F7E60
:102990008093AD059FBF8091AD0584FFFCCF9FB7AD
:1029A000F8948091AD058F798093AD059FBFC4FFEA
:1029B0000BC00E94351381E08093AB05CF91089541
:1029C0008EEF0E94CF2DEBCFC0FF0AC00E94823154
:1029D0009FB7F8948091AD058E7F8093AD059FBF22
:1029E000C3FF15C08091AC05803149F480E280932B
:1029F000AC050E942B190E944D191092BB059FB780
:102A0000F8948091AD05877F8093AD059FBFC1FF8E
:102A10001CC08091AC05883081F480E18093AC05C6
:102A20000E943C130E944D190E942E16809141076E
:102A300081FF33C081E08093BB059FB7F8948091FC
:102A4000AD058D7F8093AD059FBFC2FF11C00E9471
:102A5000AC24892B29F10E94351388E08093AC05C2
:102A60009FB7F8948091AD058B7F8093AD059FBF94
:102A7000C7FF0BC08CEF0E94CF2D9FB7F8948091B9
:102A8000AD058F778093AD059FBF8091AC058473B2
:102A900009F494CFCF910C944D191092BB05CDCF72
:102AA0001092AC05DDCF8091BB05882341F09FB724
:102AB000F8948091AD0582608093AD059FBF089525
:102AC000DF92EF92FF920F931F93CF93DF930E94B9
:102AD0002A2E8091AC05813079F582E00E94042E87
:102AE0001092C905C0E0D12C00E0D0E010E0FF2436
:102AF000F3948AE0E82E0E9436148F3F09F44CC00C
:102B00008A3011F08D30F1F5ED2FF0E0EA5DFE4FE7
:102B10001082DD20C1F08091C9058017A1F0F092EC
:102B2000AC0586E291E00E94F42D1092C905C0E048
:102B300000E0D0E010E0DFCF1092AC0586E291E03B
:102B40000E940133CDCF0E94AB148091AB0581115F
:102B5000ECCF80912601811103C00E94AA2DE5CF00
:102B6000843229F486E291E00E942133F6CF8091ED
:102B7000AC05813011F489E0F0CF86E291E00E944B
:102B80009C09EBCFCC23C9F090ED980F9A30A8F4B4
:102B90000E9D900D1124092F0E9453150E94AB1415
:102BA0008091AB05882309F4A6CFDF91CF911F91C7
:102BB0000F91FF90EF90DF9008958032A1F19091F6
:102BC000C905980F9093C905112331F011E089329E
:102BD00009F410E0C0E08FCF8132E0F38F32D1F3FF
:102BE0008832F1F08A3241F49A529093C90500E09C
:102BF000C1E0DD24D3947FCFDF3430F08BE00E943E
:102C0000AA2DC0E0D0E077CFED2FF0E0EA5DFE4FD7
:102C1000DF5F9FE9980F9A3108F480528083DACF02
:102C2000C0E011E068CF1111D1CFD4CF0E9453156D
:102C30008091AC05803119F481E08093BB050E943E
:102C4000AC24892B21F48091AC05803131F40E94B1
:102C5000AB148091AB05882391F3089580914107CF
:102C600082FF1BC0289A8091AC058471A9F08091E5
:102C7000A4018093B8018091A5018093B701809150
:102C800034078250990B880F81958093B60180910B
:102C90006F00826080936F0008952898E4CF809140
:102CA0006F008D7F80936F0080918100887F8160AD
:102CB000809381001092A301809137078F3F21F408
:102CC0009091AD0595FF12C09091AC05943071F0D4
:102CD00090E00E94CE2881E09091410792FF02C0CF
:102CE00091E08927882321F0289A089580E0F4CF85
:102CF000289808951F920F920FB60F9211240F93E8
:102D00001F932F933F934F935F936F937F938F9373
:102D10009F93AF93BF93EF93FF938091A301811192
:102D2000DDC19BB18091B801807E9F71892B8BB9E9
:102D30008BB1837E9091B701892B8BB98091B601BD
:102D400086BD82E085BD81E08093A3017894809167
:102D5000CA019091CB01892B09F0A7C08091A801ED
:102D60009091A701981709F4AFC1E091A80186E0FE
:102D7000E89FF0011124E453FE4FF093CB01E09360
:102D8000CA01838194819093890080938800808117
:102D900091819093C6018093C501E2818091C70122
:102DA0008E17C1F1E093C70183E1E89FF001112480
:102DB000E051FE4FF093C901E093C80185859685E7
:102DC000A785B089B695A795979587958093A90112
:102DD0009093AA01A093AB01B093AC018093AD0195
:102DE0009093AE01A093AF01B093B0018093B10175
:102DF0009093B201A093B301B093B40180914107C5
:102E00009091420790FF06C08289882319F081893A
:102E10000E945E13E091C801F091C90180819091F8
:102E2000A40189278093B801A091CA01B091CB0178
:102E300015962C9181819281A381B481022E04C0C8
:102E4000B695A795979587950A94D2F78093B9017F
:102E50009093BA01A093BB01B093BC018581968188
:102E6000A781B085022E04C0B695A7959795879542
:102E70000A94D2F78093BD019093BE01A093BF0145
:102E8000B093C00181859285A385B48504C0B695B1
:102E9000A795979587952A95D2F78093C10190932E
:102EA000C201A093C301B093C4010E94272D1092C8
:102EB000B7018091A9019091AA01A091AB01B091B5
:102EC000AC014091B9015091BA016091BB01709180
:102ED000BC01840F951FA61FB71F8093A901909373
:102EE000AA01A093AB01B093AC01E091C801F091AD
:102EF000C9014585568567857089481759076A074E
:102F00007B0728F524E02093B701841B950BA60BC3
:102F1000B70B8093A9019093AA01A093AB01B09342
:102F2000AC018091AF059091B005A091B105B09131
:102F3000B205208125FFE5C00197A109B109809361
:102F4000AF059093B005A093B105B093B205809101
:102F5000AD019091AE01A091AF01B091B00100918F
:102F6000BD011091BE012091BF013091C001800FC1
:102F7000911FA21FB31F8093AD019093AE01A09348
:102F8000AF01B093B001481759076A077B0738F5BE
:102F90002091B70128602093B701841B950BA60BE5
:102FA000B70B8093AD019093AE01A093AF01B093A6
:102FB000B0018091B3059091B405A091B505B09191
:102FC000B605208126FFA1C00197A109B109809310
:102FD000B3059093B405A093B505B093B605809161
:102FE000B1019091B201A091B301B091B4010091EF
:102FF000C1011091C2012091C3013091C401800F21
:10300000911FA21FB31F8093B1019093B201A093AF
:10301000B301B093B401481759076A077B0738F525
:103020002091B70120612093B701841B950BA60B5B
:10303000B70B8093B1019093B201A093B301B09309
:10304000B4018091B7059091B805A091B905B091F0
:10305000BA05208127FF5DC00197A109B1098093BE
:10306000B7059093B805A093B905B093BA058091C0
:10307000AC05843039F48091AE059091B701892375
:103080008093B7018091C5019091C60101979093FB
:10309000C6018093C501892B69F41092CB0110926F
:1030A000CA018091A8018F5F8093A801863011F436
:1030B0001092A8018091B7019091A5018927809372
:1030C000B7011092A3010AC00E944F169FB7F8944F
:1030D0008091AD0584608093AD059FBFFF91EF9116
:1030E000BF91AF919F918F917F916F915F914F9120
:1030F0003F912F911F910F910F900FBE0F901F9036
:1031000018950196A11DB11D1ACF0196A11DB11DE3
:103110005ECF0196A11DB11DA2CF1F920F920FB6D7
:103120000F9211248F939F939BB18091A5018C7175
:10313000937E892B8BB915BC9F918F910F900FBEF9
:103140000F901F9018950F931F93CF93DF931092BA
:10315000A5011092A401D0E0C0E01C2F0C2F80919B
:10316000350790E00C2E02C0959587950A94E2F7FA
:1031700080FF08C0812F0E9421239091A501892BF7
:103180008093A5018091360790E002C095958795C0
:103190000A95E2F780FF08C0812F0E942B239091AF
:1031A000A401892B8093A4012196C330D105A9F6EF
:1031B000DF91CF911F910F9108950E944F16E6E77E
:1031C000F1E08BE2DF011D928A95E9F7E9EAF1E08F
:1031D00083E2DF011D928A95E9F71092A201109215
:1031E000A1011092A8011092A70181E08093A6018D
:1031F0001092A3010E94A3188BB1837E9091A50128
:10320000892B8BB98BB18F719091A401892B8BB9CC
:1032100008958AB18C618AB9209A8AB1806E8AB980
:10322000E1E8F0E080818F7E808380818860808308
:10323000E0E8F0E080818C7F808380818F708083E4
:10324000EEE6F0E08081887F808314BC15BC80812D
:10325000816080830895CF93DF93C091A101D091C5
:10326000A2012097B9F081E08093770160918D01F0
:1032700070918E0180918F01909190019B01AC0122
:103280000E94DB376E8B7F8B888F998F1092A20103
:103290001092A101DF91CF9108952F923F924F920A
:1032A0005F926F927F928F929F92AF92BF92CF92D6
:1032B000DF92EF92FF920F931F93CF93DF93CDB7DF
:1032C000DEB7E6970FB6F894DEBF0FBECDBF909184
:1032D000A8018091A601981709F4A2C48091A101C8
:1032E0009091A201892B09F07DC00E94AC24FC01C1
:1032F0009093A2018093A101892B09F491C480913C
:103300007701882309F46EC1109277011092890128
:1033100010928A0110928B0110928C012091A101D0
:103320003091A2013A832983D9019696CD90DD9000
:10333000ED90FC909997A701960160E070E080E025
:103340009FE30E9483354B015C01E981FA8142A42D
:1033500053A464A475A48091AC05803209F039C2ED
:10336000F2E0F0938801A981BA8156962D913D91A2
:103370004D915C91599729833A834B835C83A501D6
:10338000940169817A818B819C810E94DB379B014A
:10339000AC01C301B2010E9483344B015C0120E007
:1033A00030E0A9010E94793587FF02C2A70196018A
:1033B000C701B6010E948434A30192010E94DB3749
:1033C0009B01AC0169817A818B819C810E9483344D
:1033D0000E947A38609395017093960180939701CB
:1033E000909398018091A701282F30E03A87298790
:1033F00046E0429FF001439FF00D1124E453FE4F3D
:103400008091760182838091A1019091A2019E8793
:103410008D87DC019A96BC91BCA7FC01F3A5FDA7A2
:10342000DC019C96BC91BEA7FC01F5A5FFA72091ED
:1034300080013091810140918201509183016CA5FE
:103440007DA58B2F9F2F0E94833468A779A78AA719
:103450009BA720E030E0A9010E94793587FF04C0D6
:1034600018A619A61AA61BA6209191012C8F30919F
:1034700092013D8F409193014E8F509194015F8F47
:1034800080919D0188A390919E0199A3A0919F0195
:10349000AAA3B091A001BBA3E0919901E88FF0919C
:1034A0009A01F98F20919B012A8F30919C013B8FCB
:1034B000409188014F87509189015CA380918A01D6
:1034C0008DA390918B019EA3A0918C01AFA320911D
:1034D000950130919601409197015091980129AB47
:1034E0003AAB4BAB5CAB30908D0120908E013091AC
:1034F0008F013983409190014D8328A139A14AA1C0
:103500005B2FBF018A8D9B8D0E947935811173C21B
:1035100052E058AB9CA59C8BADA5AD8BBEA5BE8BD8
:10352000EFA5EF8B8EE3C82E83ECD82E8EE2E82E2B
:1035300089E3F82E188A198A1A8A1B8A260137010C
:103540003F85332309F461C2313009F48FC3AD855F
:10355000BE8596962D913D914D915C919997C701AD
:10356000B6010E94DB374B015C01AC019B01632D6E
:10357000722D89819D810E949B3718160CF0AFC374
:1035800020E030E040E05FE3C501B4010E94DB379A
:103590009B01AC01632D722D89819D810E94833432
:1035A000A70196010E94DB379B01AC016C897D89E4
:1035B0008E899F890E9483348B018EAB9DAB9B01CA
:1035C000AC016CA17DA18EA19FA10E94793587FFDE
:1035D00086C3A5019401632D722D89819D810E946E
:1035E00083343FC3809176018F5F853009F4CCC06E
:1035F000809376012091760153E1529FA00111241E
:103600008A0100511E4F8581D8018C938681978154
:10361000A085B185AC01BD0193E0440F551F661F25
:10362000771F9A95D1F7D80111964D935D936D93BD
:103630007C93149782859385A485B585AC01BD01E3
:1036400023E0440F551F661F771F2A95D1F7D80135
:1036500015964D935D936D937C931897868597850A
:10366000A089B189AC01BD0133E0440F551F661F2D
:10367000771F3A95D1F7D80119964D935D936D93C5
:103680007C931C9782899389A489B589AC01BD017B
:10369000A3E0440F551F661F771FAA95D1F7D801E5
:1036A0001D964D935D936D937C93509784815296B4
:1036B0008C9360817181828193810E94FC35CB0162
:1036C0000E946113F801818B2091A1013091A20128
:1036D0003A832983D90152966D917D918D919C9168
:1036E00055970E942B3660937801709379018093EF
:1036F0007A0190937B01E981FA8122A533A544A543
:1037000055A50E9483359B01AC0120937C01309329
:103710007D0140937E0150937F0160E070E080EA7C
:103720009FE30E94833560938001709381018093B1
:10373000820190938301109284011092850110926E
:103740008601109287018091AC05803201F560916D
:1037500095017091960180919701909198016093E5
:103760008D0170938E0180938F01909390019B0146
:10377000AC010E94DB37A981BA8156966D937D9387
:103780008D939C935997C2CD1092760133CFE981E6
:10379000FA8166897789808D918D0E947A3860934D
:1037A0008D0170938E0180938F0190939001AECD27
:1037B0008092890190928A01A0928B01B0928C0133
:1037C0001092950110929601109297011092980113
:1037D00009CE109288014092990150929A0160920C
:1037E0009B0170929C010E94BC242B013C014092E1
:1037F0009501509296016092970170929801AC01E8
:103800009B010E94DB376D837E838F839887E091D5
:10381000A101F091A201FE87ED8722A533A544A561
:1038200055A529873A874B875C8726893789408D3C
:10383000518D29833A834B835C839B01AC01698161
:103840007A818B819C810E948334A50194010E941E
:10385000DB3729853A854B855C850E94843420E0DE
:1038600030E040E05FE30E94DB376B017C0120E049
:1038700030E0A9010E949B3718160CF0ABC0A701DD
:10388000960169857A858B859C850E949B371816E1
:103890000CF08CC0ED85FE8542A053A064A075A0FD
:1038A0002D813E814F815885C301B2010E9483342E
:1038B000A50194010E94DB3760939D0170939E01E6
:1038C00080939F019093A001A70196010E947935F2
:1038D00087FF3BC0C301B2010E947A386093910117
:1038E000709392018093930190939401A3019201AC
:1038F00069817A818B819C810E947935811104C014
:10390000F1E0F09388016ECD29813A814B815C8191
:10391000C301B2010E948334A50194010E94DB37E8
:103920009B01AC016091990170919A0180919B017A
:1039300090919C010E9483346093990170939A0145
:1039400080939B0190939C014DCDC0929901D092A0
:103950009A01E0929B01F0929C01C0929D01D0924D
:103960009E01E0929F01F092A001AD85BE859696E2
:103970006D917D918D919C9199979B01AC010E94D5
:103980008434A70196010E94DB372D813E814F814F
:1039900058850E9484340E947A3860939101709314
:1039A000920180939301909394011CCD80918D019D
:1039B00090918E01A0918F01B0919001E2E0E0938F
:1039C00088018093910190939201A0939301B09309
:1039D000940108CD1092990110929A0110929B01C6
:1039E00010929C0140929101509292016092930139
:1039F00070929401F7CC81E088AB8CCD0C8B1D8B41
:103A0000FEA9FE8B2DA92F8B9BCDAD85BE859696ED
:103A10002D913D914D915C919997C701B6010E94FE
:103A2000DB374B015C0120E030E040E05FE30E94C7
:103A3000DB37232D322D49815D810E948434A7011B
:103A400096010E94DB379B01AC016C897D898E89D0
:103A50009F890E9483348B018EAB9DAB9B01AC018F
:103A6000688D798D8A8D9B8D0E949B3718160CF07E
:103A7000F0C0288D398D4A8D5B8D6CA57DA58EA5F6
:103A80009FA50E9483349B01AC010E9484346B018A
:103A90007C012C8D3D8D4E8D5F8D632D722D898126
:103AA0009D810E9484349B01AC01C701B6010E9434
:103AB00083356B017C013C8C2D8CBE8DB983EF8DE1
:103AC000ED83F8A9FF87088D198D2A8D2EAB3B8DCC
:103AD0003DABA7019601688979898A899B890E94F3
:103AE0008434688B798B8A8B9B8B9B01AC01C301DF
:103AF000B2010E949B3718160CF01AC12889398927
:103B00004A895B89C301B2010E9483346B017C0145
:103B100098014EA95DA96CA17DA18EA19FA10E94D3
:103B2000793587FD6BCFFF85F0938801832D922D2A
:103B3000A981BD8180938D0190938E01A0938F0107
:103B4000B093900140907C0150907D0160907E0187
:103B500070907F0198014EA95DA9C301B2010E9436
:103B6000DB3769837A838B839C830E9462356B0188
:103B70007C01609178017091790180917A01909136
:103B80007B010E9462354B015C01A70196010E94F6
:103B900083340E94FC356D837E838F83988786E013
:103BA00049855A85849FF001859FF00D1124E453C7
:103BB000FE4FAD81BE81B183A083AB2B09F0D2C093
:103BC0008091AC05803209F0CDC010928D01109229
:103BD0008E0110928F011092900110928401109228
:103BE00085011092860110928701C0927801D092CF
:103BF0007901E0927A01F0927B01A3019201C70161
:103C0000B6010E948335AD85BE859A966D937D93EE
:103C10008D939C939D970E94142888E08093AC0517
:103C2000E6960FB6F894DEBF0FBECDBFDF91CF9101
:103C30001F910F91FF90EF90DF90CF90BF90AF90CA
:103C40009F908F907F906F905F904F903F902F90BC
:103C50000895A5019401632D722D89819D810E9493
:103C60008434362E272E89839D8333CFA701960176
:103C70006C8D7D8D8E8D9F8D0E94DB379B01AC01FD
:103C80006C897D898E899F890E9483348B018EABDC
:103C90009DAB9B01AC0168A179A18AA19BA10E9467
:103CA0009B3718160CF015CF28A139A14AA15BA1AA
:103CB0006C897D898E899F890E9483342C8D3D8DEE
:103CC0004E8D5F8D0E9483356B017C0108A119A187
:103CD0004AA14EAB5BA15DAB82E08F87FACE2CA1EF
:103CE0003DA14EA15FA16C897D898E899F890E942B
:103CF00083349B01AC010E9484346B017C0129A9AF
:103D00003AA94BA95CA9632D722D89819D810E94DE
:103D100084349B01AC01C701B6010E9483356B015D
:103D20007C010CA11DA1BEA1BEABEFA1EDABD1CE1C
:103D300028A539A54AA55BA5B8018EA99DA90E9411
:103D40009B3718165CF42EE333EC4EE259E3C301C3
:103D5000B2010E9484342B013C01D0CE2F852093E8
:103D60008801E4CE20918401309185014091860143
:103D700050918701688979898A899B890E94843456
:103D80002B013C0129813A814B815C81C501B40141
:103D90000E9483349B01AC01C301B2010E948335B0
:103DA0004B015C0129813A814B815C81C701B601DD
:103DB0000E948334A50194010E94DB376093840143
:103DC00070938501809386019093870120EC31EEFA
:103DD00044E65EE4C501B4010E94DB370E9462350F
:103DE0000E94FC35603DB7E07B078105910508F036
:103DF00048C046E029853A85429FF001439FF00D77
:103E00001124E453FE4F158246E029853A85429FEE
:103E1000F001439FF00D1124E453FE4F748363833C
:103E20008091A6018093A7018F5F863009F482C03C
:103E30008093A60198014EA95DA9609189017091B6
:103E40008A0180918B0190918C010E94793587FFC6
:103E500074C0E091A101F091A201C801AEA9BDA971
:103E600082A793A7A4A7B5A729813A814B815C813A
:103E7000209378013093790140937A0150937B012C
:103E800026CA603A5FE0750781059105A0F526E036
:103E9000A985BA852A9FF0012B9FF00D1124E453C8
:103EA000FE4F31E0358346E029853A85429FF00197
:103EB000439FF00D1124E453FE4F2581022E04C0D0
:103EC00096958795779567950A94D2F7AD81BE81CF
:103ED00002C0AA0FBB1F2A95E2F7B183A083611528
:103EE0007105B1E08B07910508F48ECF8FEF9FEF3E
:103EF0009483838395CF60344FE1740781059105E6
:103F000060F426E0A985BA852A9FF0012B9FF00D69
:103F10001124E453FE4F32E0C5CFA6E049855A850F
:103F2000A49FF001A59FF00D1124E453FE4FB3E0D0
:103F3000B583B9CF1092A6017DCF20E030E0A90172
:103F4000B8018EA99DA90E949B3718166CF5109296
:103F50008D0110928E0110928F011092900110929B
:103F60008401109285011092860110928701C092FF
:103F70007801D0927901E0927A01F0927B01409130
:103F8000A1015091A2015A83498320917C01309173
:103F90007D0140917E0150917F01C701B6010E94D1
:103FA0008335A981BA8131CE1092A2011092A1016C
:103FB0000E9498248CC9F999FECF92BD81BD81E001
:103FC0008FBB80B50895F894F999FECF92BD81BD5D
:103FD00081E08FBB20B5862F8227082E000C990B1D
:103FE00050E086239523892B49F084E16F3F11F03F
:103FF00060BD84E08FBBF99A789408952617E1F3A9
:1040000060BD84E2F7CF9F92AF92BF92CF92DF92D2
:10401000EF92FF920F931F93CF93DF935C018A017E
:104020007B01E40EF51EEB01912C6C01C61AD70A38
:10403000CE018C0D9D1DCE15DF0589F4692DC501BE
:10404000800F911FDF91CF911F910F91FF90EF9003
:10405000DF90CF90BF90AF909F900C94E31F21E032
:10406000911007C0292D990C330B232F221F2227D3
:10407000221F6991962E920E0E94E31FD9CF9F9224
:10408000AF92BF92CF92DF92EF92FF920F931F9366
:10409000CF93DF935B018A017C01E40EF51EEC01F6
:1040A000912C6B01C81AD90AC6018C0F9D1FCE1521
:1040B000DF05C1F4C501800F911F0E94DB1F21E0C5
:1040C00030E0891511F030E020E0C901DF91CF9197
:1040D0001F910F91FF90EF90DF90CF90BF90AF9026
:1040E0009F9008950E94DB1F21E0911007C0292DA9
:1040F000990C330B232F221F2227221F982E920E5A
:104100008993D2CF21E5829FC001112440E550E080
:104110009D5F0C94032040E550E0BC018EEA93E0E3
:104120000C9403202DE0829FC00111244CE050E04C
:104130009E5F0C94032069E090E080E00E94E31F02
:104140004EE450E064E077E081E090E00C940320DE
:10415000E4E0F7E08AE080AB8FEF83AB11AA82E066
:1041600082AB8FE184AB8AE097EDA3EABCE385AB39
:1041700096ABA7ABB0AF8FE692E1A3E0BBE381AF14
:1041800092AFA3AFB4AF17AE80E090E0A8ECB1E47B
:104190008093440790934507A0934607B093470741
:1041A00080E090E0AAEFB4E4809348079093490739
:1041B000A0934A07B0934B0784E690E090934D0795
:1041C00080934C0780E090E0A0E8BFE380934E0727
:1041D00090934F07A0935007B093510782E391E06B
:1041E00096AF85AF80E090E0A8ECB2E48083918345
:1041F000A283B38384839583A683B78380879187C3
:10420000A287B38780E090E4ACE9B5E48487958722
:10421000A687B787808B918BA28BB38B848B958B72
:10422000A68BB78B80E09FECA9E1BAE4808F918FD9
:10423000A28FB38F848F958FA68FB78F80E098EC75
:10424000AFEAB8E480A391A3A2A3B3A386E696EC59
:10425000A0E0B4EC84A395A3A6A3B7A38DEC9CE83F
:10426000A3ECB3EC80A791A7A2A7B3A780E090E04E
:10427000A0E2B2EC84A795A7A6A7B7A70C949B20B1
:104280001F93CF93DF93182FEB0181E5189FB001A7
:1042900011247D5F40E550E0CE010E943F20892B34
:1042A00051F41882BE01812F0E94822080E0DF91AC
:1042B000CF911F91089581E0FACFCF93DF93EC0166
:1042C00040E550E06EEA73E00E943F20892B21F424
:1042D0001882CE010E948B2081E0DF91CF9108955A
:1042E0001F93CF93DF93182FEB018DE0189FB00140
:1042F00011247E5F4CE050E0CE010E943F20892BCC
:1043000071F48CE0FE0111928A95E9F7BE01812FCC
:104310000E94922080E0DF91CF911F91089581E06B
:10432000FACF90E080E00E94DB1F893059F44EE420
:1043300050E061E070E084E097E00E943F2021E0DF
:10434000892B09F420E0822F0895CF92DF92EF921B
:10435000FF92CF93DF93C82F6A017B0120E030E00A
:10436000A901CB01B6010E94793587FD35C1C4365C
:1043700008F44AC0C45620E0C330E8F58C2F90E022
:10438000880F991F880F991F223079F0FC01233084
:1043900059F1213039F0EC5FF84FC082D182E282CE
:1043A000F38218C0E05FF84FF8CFEC01C45ED84F3D
:1043B00020E030E040E752E4C701B6010E94DB375D
:1043C00020E030E040E752E40E94DB3768837983E5
:1043D0008A839B830E949B2080E0DF91CF91FF9096
:1043E000EF90DF90CF900895E85DF84FF7FAF094E2
:1043F000F7F8F094D2CF2F5FCA3008F4EFC0243022
:1044000009F4ECC0CA50B8CFC701B6010E94BE384B
:104410000E94FC35C93208F0E1C0EC2FF0E0ED5EFF
:10442000FD4D0C9412393C22432246224B224E224F
:104430005C226622EE22EE22EE22702272227B2283
:1044400084228E22EE22EE22EE22EE22EE2298220C
:10445000A422B422BE22C122CA22D322D922EE2211
:10446000EE22EE22EE22EE22EE22EE22EE22EE22CC
:10447000EE22EE22EE22E22286E0633008F4ADCF97
:1044800060933407A7CF60933707A4CF60933507B5
:104490000E94A3189FCF60933607FACF80914107FF
:1044A00090914207662331F0846090934207809395
:1044B000410790CF8B7FF9CF8091410790914207C0
:1044C000662311F08064F1CF8F7BEFCF809141079D
:1044D00090914207662311F08068E7CF8F77E5CF90
:1044E00060933807C0923907D0923A07E0923B07B1
:1044F000F0923C076FCFC0923D07D0923E07E0920A
:104500003F07F092400766CF8091410790914207A4
:10451000662311F08160C9CF8E7FC7CF809141079C
:1045200090914207662311F08260BFCF8D7FBDCF8F
:104530008091410790914207662321F084FF50C08B
:104540008062B3CF8F7DB1CF8091410790914207B8
:10455000662341F0886090934207809341070E9450
:10456000092938CF877FF7CF809141079091420783
:10457000662311F0806199CF8F7C97CF60934307BA
:1045800029CFC0924407D0924507E0924607F092A7
:10459000470720CFC0924807D0924907E0924A07C8
:1045A000F0924B0717CF70E070934D0760934C0764
:1045B00011CFC0924E07D0924F07E0925007F09271
:1045C000510708CF8091410790914207662311F06F
:1045D00091606BCF9E7F69CF84E0FFCE83E0FDCEFC
:1045E0008AE0FBCE1F93CF93DF93CDB7DEB72C9736
:1045F0000FB6F894DEBF0FBECDBF0E94912181118E
:1046000007C087E00E94AA2D0E94A8200E94322E97
:1046100010E0BE016F5F7F4F812F0E9470218111DA
:1046200003C087E00E94AA2D1F5F183091F72C96D7
:104630000FB6F894DEBF0FBECDBFDF91CF911F91B3
:104640000895882321F0813021F080E1089584E0ED
:10465000089588E00895882321F0813021F080E8D2
:10466000089580E2089580E40895882321F0813040
:1046700021F080E1089582E0089584E008952F926A
:104680003F924F925F926F927F928F929F92AF92E2
:10469000BF92CF92DF92EF92FF920F931F93CF932F
:1046A000DF9300916D02011101C002E101501091F0
:1046B0006B02101709F4BAC0E02EF12C2EE2029F13
:1046C000E0011124C159DD4F8A8C9B8CAC8CBD8CD0
:1046D0006EA17FA188A599A59B01AC010E9484349D
:1046E0002AA53BA54CA55DA50E94DB376B01D82F01
:1046F000C92F9B01482F592FB401C5010E9479355C
:1047000087FF03C06401DA2DCB2D8EE28E9DF00170
:104710008F9DF00D1124E159FD4FC601AD2FBC2F27
:10472000868B978BA08FB18FC02F011101C0C2E182
:10473000C1501C1709F45FC03EE2039F80011124A1
:1047400001591D4FDEE280916B028C1709F459C0AC
:10475000EC2EF12CCD9FC0011124FC01E159FD4F3D
:104760006F01C11101C0C2E1C15080916E028C1372
:1047700002C00E942B19DE9DC001DF9D900D112407
:104780009C0121593D4F7901F901828C938CA48CB5
:10479000B58CA501940166897789808D918D0E94E1
:1047A0007935882331F1F70166A177A180A591A51C
:1047B0009B01AC010E948434F70122A533A544A5D6
:1047C00055A50E94DB37F80126893789408D518D28
:1047D0000E9484342B013C01AC019B01C501B40152
:1047E0000E949B37F7011816A4F5468A578A608EF7
:1047F000718E8601A8CF80916E02811302C00E9443
:104800002B19D0916B02FEE2DF9F80011124015928
:104810001D4FC1E0CD0FC23109F4C0E020906D0200
:104820008EE2382E2C121AC0D0936B02DF91CF91FA
:104830001F910F91FF90EF90DF90CF90BF90AF90BE
:104840009F908F907F906F905F904F903F902F90B0
:104850000895868A978AA08EB18ECBCFCC2ED12C8C
:10486000C39DC00111249C0121593D4F7901F801DC
:1048700046885788608C718CF90186889788A08C4F
:10488000B18CA5019401C301B2010E94793587FF63
:1048900024C0F80166A177A180A591A59B01AC0178
:1048A0000E948434F80122A533A544A555A50E9491
:1048B000DB37A30192010E9484342B013C01AC013F
:1048C0009B01C501B4010E949B37181634F4F7010F
:1048D000468A578A608E718EDC2F3C9CF0013D9C8D
:1048E000F00D1124E159FD4F228D338D448D558DEE
:1048F00066897789808D918D0E947935811101C0FB
:10490000DC2FCF5FC23109F4C0E087018BCFEFE429
:10491000F2E08CE1DF011D928A95E9F710926E02B8
:1049200010926D0281E080936C0210926B020895E8
:1049300090916E0280916D02891769F081E0890F74
:10494000823109F480E020916B02921302C08093BF
:104950006B0280936E02089580916E0290916D02B9
:10496000981739F02EE2829FC001112481599D4F82
:10497000089590E080E00895E0916E02EF5FE231EB
:1049800009F4E0E080916D028E1761F08EE2E89FFD
:10499000F0011124E159FD4F66897789808D918D51
:1049A0000C947A3860E070E0CB01089581E02091AA
:1049B0006E0290916C02291380E008952F923F922D
:1049C0004F925F926F927F928F929F92AF92BF921F
:1049D000CF92DF92EF92FF920F931F93CF93DF93CB
:1049E000CDB7DEB7E5970FB6F894DEBF0FBECDBFEB
:1049F000498F5A8F6B8F7C8F2DAB20916D02422F88
:104A000050E058A34F8F5EE2259F90011124F901D9
:104A1000E159FD4FE082F18202831383C482128A3E
:104A2000138A148A158A12A613A614A615A615822F
:104A300049E956E766E97EE746A357A360A771A751
:104A40006C0184E097E09CA38BA3AE01435F5F4FB2
:104A50005EA34DA38FE492E09CA78BA7A9014B58BE
:104A60005D4F5EA74DA7CE0101969AA389A398AB8F
:104A70008FA72FE432E038A72FA344E057E05E8FE2
:104A80004D8FF12C8F01CF0142969AAB89AB3596B1
:104A9000FCABEBAB1801FAE22F0E311CF601619171
:104AA0007191819191916F01ED8DFE8D8190919029
:104AB000A190B190FE8FED8FA50194010E94DB378C
:104AC0000E94A837EDA1FEA1619371938193919308
:104AD000FEA3EDA3EFA1F8A54190519061907190D4
:104AE000F8A7EFA364197509860997092B013C0102
:104AF00097FF07C0442455243201461A570A680A12
:104B0000790AEDA5FEA54192519261927192FEA79C
:104B1000EDA7E9A9FAA920813181428153812415A9
:104B200035054605570510F4A3019201E9A9FAA934
:104B300020833183428353830E942D36A501940143
:104B40000E9483354B015C01EFA5F8A981929192F7
:104B5000A192B192F8ABEFA720E030E0A9010E944A
:104B6000793587FF08C08F2D0E942B23EBA9FCA964
:104B70009081892B8083A5019401C501B4010E9415
:104B8000DB37F10120813181428153810E948434DD
:104B9000F1016083718382839383F394F3E0FF12C6
:104BA0007DCF0E947A384B015C01F10180829182B5
:104BB000A282B382F80182899389A489B589892B5D
:104BC0008A2B8B2B09F4EAC120E030E0A901698D22
:104BD0007A8D8B8D9C8D0E94793587FD7DC1FDA9D5
:104BE000FF2361F0298D3A8D4B8D5C8DC501B40199
:104BF0000E948335698F7A8F8B8F9C8F20E030E005
:104C000040E85FE3698D7A8D8B8D9C8D0E947935AC
:104C100087FF06C0198E1A8E20E82B8F3FE33C8F4A
:104C2000A501940160E070E080E89FE30E94833575
:104C30006FA378A789A79AA7E9A1FAA13C96FEA33A
:104C4000EDA3812C912C54012EE24F8D58A1249F6D
:104C5000C001259F900D1124FC01EB56FD4FFE8FE6
:104C6000ED8FE9A1FAA1C190D190E190F190FAA362
:104C7000E9A320E030E0A901C701B6010E9479351F
:104C8000882309F46BC02FA138A549A55AA5C701EF
:104C9000B6010E94DB372B013C01E9A1FAA1349750
:104CA0004082518262827382AC019B0160E070E0BD
:104CB00080E89FE30E9483356B017C01E894F7F85C
:104CC000EBA1FCA12485358546855785C701B60132
:104CD0000E94DB371B018C01298D3A8D4B8D5C8D39
:104CE0000E949B37181624F0298E3A8E0B8F1C8F4A
:104CF000ED8DFE8D2080318002811381EBA1FCA11E
:104D0000208D318D428D538DC701B6010E94DB3756
:104D10006B017C019B01AC01B101C8010E94793596
:104D200087FD02C016018701C101D801ED8DFE8DFE
:104D300080839183A283B383EBA5FCA5248535856D
:104D400046855785C301B2010E94DB379B01AC0148
:104D5000C501B4010E9483344B015C012BA53CA525
:104D60002C5F3F4F3CA72BA74BA15CA14C5F5F4F33
:104D70005CA34BA38DA19EA1E9A1FAA18E179F0769
:104D800009F06FCF90916D0280916E029813ADC0C3
:104D90008EE22F8D38A1829FF001839FF00D1124A8
:104DA000E159FD4F168A178A108E118E168E178EB6
:104DB00010A211A2298D3A8D4B8D5C8D698D7A8D53
:104DC0008B8D9C8D0E94DB377B018C018EE24F8D99
:104DD00058A1849FF001859FF00D1124E159FD4FEA
:104DE000C701D80182A393A3A4A3B5A3A68CB78CB3
:104DF000C0A081A0609067027090680290906902E4
:104E0000D0906A029301492D5D2DB701C8010E941F
:104E1000793587FF03C03701902ED12E9301492D9C
:104E20005D2DB5018C2D982D0E94793587FD03C02D
:104E30005301C92C8D2C8EE22F8D38A1829FF00159
:104E4000839FF00D1124E159FD4FC501AC2DB82D04
:104E5000828F938FA48FB58F8CE0FE013196ABE5E6
:104E6000B2E001900D928A95E1F7C701D8018093D5
:104E7000670290936802A0936902B0936A028CE083
:104E8000FE013D96AFE4B2E001900D928A95E1F704
:104E900080916C0280936D028F5F823109F480E013
:104EA00080936C02E5960FB6F894DEBF0FBECDBFBF
:104EB000DF91CF911F910F91FF90EF90DF90CF90F6
:104EC000BF90AF909F908F907F906F905F904F902A
:104ED0003F902F900C943F2349E9498F56E75A8F12
:104EE00086E98B8F9EE79C8F9BCEA501940160E0A5
:104EF00070E080E89FE30E94833420E030E040E0EF
:104F00005FE30E94DB370E947A386B017C018EE2FE
:104F10004F8D58A1849FF001859FF00D1124E15918
:104F2000FD4F2091390730913A0740913B0750914E
:104F30003C0766A177A180A591A50E94DB37A70158
:104F400096010E94DB374B015C01A701960160E0EE
:104F500070E080E89FE30E9483349B01AC01C501AF
:104F6000B4010E9483356B017C0120E030E0A9018F
:104F70000E94793587FF03C0C12CD12C76018EE2C7
:104F80002F8D38A1829FF001839FF00D1124E159EC
:104F9000FD4FC68ED78EE0A2F1A20CCFE5960FB6DC
:104FA000F894DEBF0FBECDBFDF91CF911F910F915F
:104FB000FF90EF90DF90CF90BF90AF909F908F9039
:104FC0007F906F905F904F903F902F900895EFE407
:104FD000F2E0ABEAB5E014964D915D916D917C9154
:104FE0001797408351836283738318964D915D9127
:104FF0006D917C911B9744835583668377831C96C0
:105000008D919D910D90BC91A02D80879187A28755
:10501000B387089580916D0290916E02891710F008
:10502000891B08958E5EFCCF0E942B1980916E0221
:1050300080936B020C943F234F925F926F927F920A
:10504000AF92BF92CF92DF92EF92FF920F931F9396
:10505000CF93DF936C017B015A01DB01EC91E80FE8
:10506000F92FF11D8081EF018D3229F52296818182
:1050700001E0512CF0E010E020E030E0A9013E0119
:10508000E0EDE80FEA3018F5FF5FF930E0F4511079
:105090001150A5E0B0E00E9418399B01AC01220F2D
:1050A000331F441F551F2E0F311D411D511D2196C9
:1050B000D3018C91E4CF8B3219F0219600E0D9CF47
:1050C00022968181FBCF5110F2CF1F5FF0CFEE3FD0
:1050D00029F4511003C055245394E9CFFF23F9F06C
:1050E000CA01B9010E942B362B013C0120E030E0BF
:1050F000A9010E94793581112DC0002309F447C010
:1051000077FA709477F87094F50140825182628248
:105110007382CC19DD09C150F701C083F1E08F2FF4
:10512000DF91CF911F910F91FF90EF90DF90CF9083
:10513000BF90AF907F906F905F904F9008952AE05E
:1051400037ED43E25CE3C301B2010E94DB372B0180
:105150003C011E5F1F3F9CF31F3F59F42DEC3CECBC
:105160004CEC5DE3C301B2010E94DB372B013C0133
:10517000C4CF112311F220E030E040E251E4C3013A
:10518000B2010E94DB372B013C011150F2CFD50157
:105190004D925D926D927C921397BBCF019708F46C
:1051A0000895EFE9FFE03197F1F700C00000F6CF76
:1051B0008F929F92AF92BF92CF92DF92EF92FF9227
:1051C00069017A019B01AC010E94DB374B015C0154
:1051D000A7019601C701B6010E94DB379B01AC0114
:1051E000C501B4010E948434FF90EF90DF90CF900E
:1051F000BF90AF909F908F900C947A38EBE6F0E0E0
:105200008081897E8083E8E6F0E080818E7F8083E4
:10521000089584B1897E84B99091410785B196FF44
:105220000FC0897E85B993FF0DC080916B008661A8
:1052300080936B008091680081608093680008957E
:105240008661F0CF0C94FE281F920F920FB60F923A
:1052500011242F933F934F935F936F937F938F937B
:105260009F93AF93BF93EF93FF938091AC058130F1
:1052700071F08091AD0585FD0AC00E94C6089FB7F8
:10528000F8948091AD0580668093AD059FBFFF9136
:10529000EF91BF91AF919F918F917F916F915F91AE
:1052A0004F913F912F910F900FBE0F901F90189527
:1052B0002F923F924F925F926F927F928F929F9226
:1052C000AF92BF92CF92DF92EF92FF920F931F9314
:1052D000CF93DF93CDB7DEB7A4970FB6F894DEBFB8
:1052E0000FBECDBF282E8091AB058111FAC0E09092
:1052F0004807F090490700914A0710914B07EB8A45
:10530000FC8A0D8B1E8B38E2A32E37E0B32E8E0164
:10531000035F1F4F68019E01205F3F4F790110E03E
:10532000312C812C912C00E0812F0E943523D70154
:105330008D937D01812F0E942123F60181936F01BE
:10534000D5014D905D906D907D905D01232D382DA0
:10535000492D502FC301B2010E94793587FF04C047
:10536000342C852C962C072D1F5F1330E9F620E096
:1053700030E040EC5FEB632D782D892D902F0E945B
:10538000DB374B015C010E94872426E0522EDD248E
:10539000D39444244394E22DF0E0FC8FEB8F9501ED
:1053A000840130580D8F1E8F2F8F38A32DE030E0F1
:1053B0002C0F3D1F2D5F3F4F388F2F8B8091410762
:1053C0006D2C86FDA7C0A09143078A2F90E09CA377
:1053D0008BA3DE0111961D01FD01712C60E090E0B0
:1053E00080E0A9A33AA2782F4B8D5C8D082E02C0D5
:1053F000559547950A94E2F79A012170332740FFAB
:1054000090C06F5FD11088C0ED8CFE8C0F8D18A1FD
:10541000E082F182028313834BA15CA102C0559507
:1054200047957A95E2F740FF0CC0E080F180028159
:10543000138117FB109517F91095E082F182028312
:105440001383232B49F02DE030E02C0F3D1F280F54
:10545000391FD9012C91722A019634968330910517
:1054600011F670E090E080E00E942B360E947A38BE
:105470007092AE052B893C894D895E890E94DB378D
:10548000AB01BC01C12CE12CF12C870120E0CE0145
:1054900001960E94DE240E944D190E942E1693B19F
:1054A000662011F0B6E19B27DE015096FE013D9685
:1054B0008191282F272129F02C91292311F0809503
:1054C00078221196EF88F88CEE15FF0589F7709217
:1054D000AE050E944D198091AD0584FF27C00E9442
:1054E000AB14A4960FB6F894DEBF0FBECDBFDF910C
:1054F000CF911F910F91FF90EF90DF90CF90BF90D1
:10550000AF909F908F907F906F905F904F903F9063
:105510002F900895642457CF80829182A282B38213
:105520007BCF108211821282138276CF872D8C71ED
:1055300009F0B5CF0E94DD180E94872480914C07A6
:1055400090914D070E94CE28E0904407F0904507C7
:105550000091460710914707EB8AFC8A0D8B1E8B42
:10556000D4245A9451102ACF80914307082F10E079
:105570001C8B0B8B80904E0790904F07A09050078C
:10558000B0905107D501C401B0588F8B988FA98F67
:10559000BA8F8BEAC82E85E0D82E94E0E92E97E0EA
:1055A000F92E10E000E08B8D9C8D002E02C09595A9
:1055B00087950A94E2F780FF72C08B899C89002E40
:1055C00002C0959587950A94E2F780FF57C0D701EE
:1055D00094964D905D906D907C909797A501940165
:1055E000C301B2010E948434F1016083718382831C
:1055F0009383D7012D913D914D915C91C301B201EF
:105600000E94DB370E94A837F60164837583868386
:1056100097830F5F1F4FF4E02F0E311C24E0C20E62
:10562000D11C34E0E30EF11C0330110509F0BBCFAF
:105630000E94E727409148075091490760914A0727
:1056400070914B07C12CE12CF12C870120E089A13E
:105650009AA10E94DE2488E08093AC059FB7F8945D
:105660008091AD0582608093AD059FBF0E94AB1411
:105670000E94161684E08093AC0533CF8F89988DF5
:10568000A98DBA8DF10180839183A283B383D60162
:1056900014961D921D921D921C921797BACFF60177
:1056A00064817581868197810E942D36D7012D9165
:1056B0003D914D915C910E948335F101608371832E
:1056C00082839383A6CFAF92BF92CF92DF92EF9265
:1056D000FF920F931F93CF93DF93EC0108E217E043
:1056E0005C018CE0A80EB11CC990D990E990F990AA
:1056F00020E030E0A901C701B6010E949B371816CF
:1057000064F0F80121913191419151918F01C701CC
:10571000B6010E94793587FF33C08091AC05803196
:10572000C9F49FB7F8948091AD0588608093AD056A
:105730009FBF0E94AB148091AB058823D1F3DF910A
:10574000CF911F910F91FF90EF90DF90CF90BF907E
:10575000AF9008950E94C6089FB7F8948091AD0558
:1057600080668093AD059FBFDF91CF911F910F9110
:10577000FF90EF90DF90CF90BF90AF900C94AB1460
:10578000CA15DB0509F0B0CFDACFCF93DF93EC0178
:105790008991811103C0DF91CF9108950E94F01388
:1057A000F7CFCF93DF93EC01FE0184912196811115
:1057B00003C0DF91CF9108950E94F013F5CFEF92CF
:1057C000FF920F931F93CF93DF93CDB7DEB7289748
:1057D0000FB6F894DEBF0FBECDBF9E012F5F3F4FC7
:1057E0007901285F3F4FF701982F9170919386952B
:1057F000E217F307C9F78F01F80182918F01805DED
:105800000E94F0130E151F05B9F728960FB6F894ED
:10581000DEBF0FBECDBFDF91CF911F910F91FF90E3
:10582000EF900895EF92FF920F931F93CF93DF9322
:1058300000D01F92CDB7DEB781110CC080E30F906E
:105840000F900F90DF91CF911F910F91FF90EF90EC
:105850000C94F01300E09E012F5F3F4F79012AE086
:10586000F701E00FF11D622F0E94E438905D9083F4
:105870000F5F8111F5CF0E0D1F2D111DE016F106E2
:1058800051F40F900F900F90DF91CF911F910F91D6
:10589000FF90EF900895F80182918F010E94F0131C
:1058A000EDCF8F929F92AF92BF92CF92DF92EF9205
:1058B000FF920F931F93CF93DF93CDB7DEB72A9755
:1058C0000FB6F894DEBF0FBECDBF6B017C01142F65
:1058D00020E030E0A9010E94793587FF07C08DE202
:1058E0000E94F013F7FAF094F7F8F094012F0230C9
:1058F00008F054C010FF0AC020E030E040E251E45C
:10590000C701B6010E94DB376B017C0120E030E06B
:1059100040E05FE3C701B6010E9484340E94F53580
:105920009E012F5F3F4F7901F901E10FF11D2EE23A
:10593000208300E02AE0822E912CA12CB12C61154D
:10594000710581059105B1F5F701E00FF11D80E3C7
:10595000011708F440C0011308C0E1E0E00FEE0DAC
:10596000FF2DF11D0E5F80E380830E0D1F2D111D95
:10597000E016F10699F52A960FB6F894DEBF0FBE31
:10598000CDBFDF91CF911F910F91FF90EF90DF90EE
:10599000CF90BF90AF909F908F90089520E030E01F
:1059A00048EC52E4C701B6010E94DB376B017C0171
:1059B00002509DCF011301C00F5F6701C00ED11CC3
:1059C000A50194010E94F038605DF6016083B90181
:1059D000CA010F5FB4CF0F5F8193BACFF8018291F4
:1059E0008F010E94F013C4CF2091410743E020FFB4
:1059F00007C02BE832E441E25DE30E94DB3744E07C
:105A00000C94512C2091410740E020FF07C02BE867
:105A100032E441E25DE30E94DB3741E00C94512C1B
:105A200043E00C94512C3D988091410787FF04C0BE
:105A30004598109252070895459A80E28093520744
:105A4000089586B1807290915207892708958091B8
:105A5000BC058130A1F40E94212D882381F0109291
:105A6000BC058CE0EFEAF5E0ADEBB5E001900D92FE
:105A70008A95E1F78091AD0588608093AD05089522
:105A8000CF93C82F86ED97E00E94D12BEFEFEC0F5C
:105A9000E63108F057C0F0E0E05BF24D0C941239AB
:105AA000662D7B2D7E2D812D842D872D8A2D8D2D8C
:105AB000902D932D962DA22DA22DA22DA22DA22D9B
:105AC000A22DA22DA22D9C2D992D9F2D8EEB97E01E
:105AD0000E94D12B8091CA05882341F087EC96E083
