:100000000C94F3030C9410040C9410040C94242905
:100010000C94AE320C9410040C9410040C94100444
:100020000C9410040C9410040C9410040C947A1684
:100030000C9410040C9410040C9410040C941004F0
:100040000C948D180C9410040C9448140C940A14FD
:100050000C9410040C9410040C9410040C941004D0
:100060000C9410040C941004084AD73B3BCE016E4C
:1000700084BCBFFDC12F3D6C74319ABD56833DDAFF
:100080003D00C77F11BED9E4BB4C3E916BAAAABE0E
:10009000000000803F05A84CCDB2D44EB93836A937
:1000A000020C50B9918688083CA6AAAA2ABE000074
:1000B00000803F003E0D0A006F66663A006F6E3AA0
:1000C000002C6C6173657220007A00790078002C36
:1000D0006C696D6974733A002C52583A002C427561
:1000E000663A002C002C57506F733A002C002C4DB0
:1000F000506F733A003C436865636B003C416C6130
:10010000726D003C486F6D65003C486F6C64003C4C
:1001100052756E003C5175657565003C49646C65AF
:10012000005D0D0A005B302E39675F3230313930A7
:100130003331345F373732616238372D6469727416
:10014000793A000D0A003D00244E005D0D0A0020A2
:100150005300204600205400204D3800204D390027
:10016000204D3500204D3400204D3300204D32000D
:10017000204D3100204D30002047393400204739D0
:1001800033002047393100204739300020473230D2
:1001900000204732310020473139002047313800F4
:1001A00020473137002047005B473830005B47333A
:1001B000005B4732005B4731005B4730005D0D0A52
:1001C000005B544C4F3A005D0D0A002C005B473930
:1001D000323A005D0D0A002C003A0033300032380C
:1001E000005B47005D0D0A002C005B5052423A0054
:1001F000290D0A00206D61782074726176656C2C7F
:10020000206D6D0020616363656C2C206D6D2F7314
:1002100065635E3200206D617820726174652C2008
:100220006D6D2F6D696E002C20737465702F6D6D70
:10023000007A00790078002028003D002400202862
:100240007475726E204C61736572206D6F646520E9
:100250006F6E2C20626F6F6C290D0A002434303DC4
:10026000002028686F6D696E672070756C6C2D6F4B
:1002700066662C206D6D290D0A002028686F6D6957
:100280006E67206465626F756E63652C206D7365A3
:1002900063290D0A2432373D002028686F6D696E8E
:1002A00067207365656B2C206D6D2F6D696E290D50
:1002B0000A2432363D002028686F6D696E6720661B
:1002C0006565642C206D6D2F6D696E290D0A2432D1
:1002D000353D00290D0A2432343D002028686F6D19
:1002E000696E672064697220696E76657274206D2C
:1002F00061736B3A002028686F6D696E67206379BF
:10030000636C652C20626F6F6C290D0A2432333DBB
:1003100000202868617264206C696D6974732C20F8
:10032000626F6F6C290D0A2432323D002028736FF2
:100330006674206C696D6974732C20626F6F6C2910
:100340000D0A2432313D0020286175746F207374CA
:100350006172742C20626F6F6C290D0A2432303D5B
:100360000020287265706F727420696E636865730F
:100370002C20626F6F6C290D0A2431343D00202837
:1003800061726320746F6C6572616E63652C206DA1
:100390006D290D0A2431333D0020286A756E63747F
:1003A000696F6E20646576696174696F6E2C206D6B
:1003B0006D290D0A2431323D00290D0A2431313DC9
:1003C000002028737461747573207265706F727485
:1003D000206D61736B3A00202870726F6265207027
:1003E000696E20696E766572742C20626F6F6C295D
:1003F0000D0A2431303D0020286C696D697420702D
:10040000696E7320696E766572742C20626F6F6CF2
:10041000290D0A24363D0020287374657020656E0E
:1004200061626C6520696E766572742C20626F6FF4
:100430006C290D0A24353D00290D0A24343D002085
:100440002864697220706F727420696E76657274A8
:10045000206D61736B3A00290D0A24333D0020287A
:100460007374657020706F727420696E7665727433
:10047000206D61736B3A0020287374657020696485
:100480006C652064656C61792C206D736563290D42
:100490000A24323D002028737465702070756C73D7
:1004A000652C2075736563290D0A24313D002430C5
:1004B0003D002424202876696577204772626C20ED
:1004C00073657474696E6773290D0A242320287676
:1004D000696577202320706172616D657465727340
:1004E000290D0A2447202876696577207061727388
:1004F0006572207374617465290D0A244920287679
:10050000696577206275696C6420696E666F290D74
:100510000A244E2028766965772073746172747599
:100520007020626C6F636B73290D0A24783D7661CD
:100530006C7565202873617665204772626C207344
:10054000657474696E67290D0A244E783D6C696E76
:1005500065202873617665207374617274757020EC
:10056000626C6F636B290D0A2443202863686563FE
:100570006B2067636F6465206D6F6465290D0A24C5
:100580005820286B696C6C20616C61726D206C6FF7
:10059000636B290D0A2448202872756E20686F6DE0
:1005A000696E67206379636C65290D0A7E20286374
:1005B00079636C65207374617274290D0A21202897
:1005C0006665656420686F6C64290D0A3F202863A6
:1005D000757272656E7420737461747573290D0A77
:1005E0006374726C2D78202872657365742047726D
:1005F000626C290D0A000D0A4772626C20302E3998
:10060000675F32303139303331345F3737326162CE
:1006100038372D6469727479205B27242720666F30
:10062000722068656C705D0D0A005D0D0A004469FA
:100630007361626C656400456E61626C6564004361
:10064000617574696F6E3A20556E6C6F636B65648B
:1006500000272448277C2724582720746F20756E94
:100660006C6F636B00526573657420746F20636FE9
:100670006E74696E7565005B000D0A005258204269
:100680007566666572204F76657272756E0050727F
:100690006F6265206661696C0041626F72742064EC
:1006A0007572696E67206379636C65004861726476
:1006B0002F736F6674206C696D697400414C4152F0
:1006C0004D3A20000D0A00202A00496E76616C69BF
:1006D000642067636F64652049443A00556E646521
:1006E00066696E6564206665656420726174650084
:1006F000556E737570706F7274656420636F6D6D85
:10070000616E64004D6F64616C2067726F7570205C
:1007100076696F6C6174696F6E004C696E65206FED
:10072000766572666C6F7700486F6D696E67206ED4
:100730006F7420656E61626C656400416C61726DFE
:10074000206C6F636B004E6F742069646C650045AC
:100750004550524F4D2072656164206661696C2E70
:10076000205573696E672064656661756C747300EB
:1007700056616C7565203C203320757365630053AA
:10078000657474696E672064697361626C65640086
:1007900056616C7565203C203000496E76616C694D
:1007A000642073746174656D656E740042616420C9
:1007B0006E756D62657220666F726D61740045784A
:1007C00070656374656420636F6D6D616E64206C29
:1007D0006574746572006572726F723A20000D0A5A
:1007E000006F6B202A0011241FBECFEFD8E0DEBFC0
:1007F000CDBF11E0A0E0B1E0EAE3F2E702C005906E
:100800000D92A232B107D9F727E0A2E2B1E001C010
:100810001D92A235B207E1F70E9412040C941B3915
:100820000C9400000E94D8130E94F2220E94091921
:100830000E949D32EBEAF5E08EE1DF011D928A9580
:10084000E9F781E08093AB0578949091400794FD9F
:100850008093AC05C1E00E94A4140E9451090E943B
:100860004D130E94B9130E9409290E94132D0E9462
:1008700087240E94DD180E94E7270E9463091092D6
:10088000AB051092AD058091400781FF05C0C09374
:10089000BB050E945E15DFCF1092BB05FACF4F92C9
:1008A0005F926F927F928F929F92AF92BF92CF9200
:1008B000DF92EF92FF920F931F93CF93DF93EC01A0
:1008C0004A015B01D22E270138018091400785FF44
:1008D00003C0CE010E94632B8091AC058230E1F011
:1008E0000E94A9148091AB05811116C00E94D624E4
:1008F000882319F00E945115F3CF830172012D2D29
:10090000B501A401CE010E94DE248091AC058111C5
:1009100003C088E08093AC05DF91CF911F910F91C8
:10092000FF90EF90DF90CF90BF90AF909F908F900F
:100930007F906F905F904F9008952F923F924F92CB
:100940005F926F927F928F929F92AF92BF92CF925F
:10095000DF92EF92FF920F931F93CF93DF93CDB768
:10096000DEB7E5970FB6F894DEBF0FBECDBF9E870A
:100970008D87788B6F873A0109831A832B833C8399
:10098000C98ADA8AEB8AFC8AAF8A24E0829E400117
:100990001124880D991D998F888FCA01880D991D82
:1009A0009B8F8A8FDC012D903D904D905C90E88D5F
:1009B000F98D2081318142815381C201B1010E94B0
:1009C0006D3468A379A38AA39BA32B96AFAC2B9716
:1009D000F4E0AF9E500111242D853E852A0D3B1D6C
:1009E0003D8F2C8FC3018A0D9B1D9F8F8E8FDC0145
:1009F000CD90DD90ED90FC90F90120813181428114
:100A00005381C701B6010E946D346CA37DA38EA3F0
:100A10009FA33201210177FA709477F87094D7017F
:100A2000C601B0588D839E83AF83B887AF85B889E0
:100A30008A0E9B1E28A139A14AA15BA1F401608105
:100A40007181828193810E946C346B017C01EF85FE
:100A5000F889EA0DFB1D2CA13DA14EA15FA160818B
:100A60007181828193810E946C344B015C01A701EA
:100A70009601C301B2010E94C43769877A878B87C8
:100A80009C87A50194016D817E818F8198850E944C
:100A9000C4379B01AC0169857A858B859C850E9452
:100AA0006D3469877A878B879C87A5019401C30180
:100AB000B2010E94C4374B015C01A70196016D8110
:100AC0007E818F8198850E94C4379B01AC01C5014E
:100AD000B4010E946C3429853A854B855C850E945F
:100AE000EC346B017C018091CA0520E030E0A90163
:100AF000823009F0FCC0C701B6010E94843787FD2F
:100B00000AC02BED3FE049EC50E4C701B6010E945A
:100B10006C346B017C0180903C0790903D07A09065
:100B20003E07B0903F0729813A814B815C81CA0121
:100B3000B9010E946D34A50194010E946C34A50195
:100B400094010E94C4370E9463384B015C0120E08D
:100B500030E040E05FE3C701B6010E94C43729815D
:100B60003A814B815C810E94C4379F77A501940133
:100B70000E946C350E9451360E94E53579A768A71E
:100B80006115710509F488C090E080E00E94143678
:100B90004B015C013F89332361F0AC019B01698902
:100BA0007A898B899C890E94C437698B7A8B8B8B5D
:100BB0009C8BA5019401C701B6010E946C35698721
:100BC0007A878B879C872C968FAD2C97A4E08A9F81
:100BD000C0011124ED85FE85E80FF91FFE8BED8B1A
:100BE0002F853889820F931F208131814281538163
:100BF000DC016D917D918D919C910E946C34A501D9
:100C000094010E946C356AAB7BAB8CAB9DAB2985A4
:100C10003A854B855C85CA01B9010E94C4379B01A6
:100C2000AC0160E070E080E090E40E946C346B0105
:100C30007C012BEA3AEA4AE25EE369857A858B8594
:100C40009C850E94C4374B015C0120E030E040E805
:100C500050E4C701B6010E946D349B01AC01C5018F
:100C6000B4010E94C4376AA77BA78CA79DA720E088
:100C700030E040E05FE3C701B6010E94C4376EA7D1
:100C80007FA788AB99AB198222242394312CE8A545
:100C9000F9A52E163F06D9F56196CFAC61976096FF
:100CA000ECACFDAC0EAD1FAD60972F8949895A8918
:100CB0006B897C898F8598890E944F04E5960FB6D1
:100CC000F894DEBF0FBECDBFDF91CF911F910F9182
:100CD000FF90EF90DF90CF90BF90AF909F908F905C
:100CE0007F906F905F904F903F902F900895C70135
:100CF000B6010E94623518160CF40DCF2BED3FE0C3
:100D000049EC50E4C701B6010E946D3402CFB981AD
:100D1000BC3008F08DC02AA53BA54CA55DA5C3013C
:100D2000B2010E94C4376B017C012EA53FA548A9E2
:100D300059A96D817E818F8198850E94C4379B015E
:100D4000AC01C701B6010E946D346B017C012EA578
:100D50003FA548A959A9C301B2010E94C4374B015C
:100D60005C012AA53BA54CA55DA56D817E818F8187
:100D700098850E94C4379B01AC01C501B4010E9453
:100D80006C342B013C01E981EF5FE983C601D70197
:100D90008D839E83AF83B88728A139A14AA15BA127
:100DA000C301B2010E946D34E88DF98D60837183B7
:100DB000828393832CA13DA14EA15FA16D817E8191
:100DC0008F8198850E946D34AC8DBD8D6D937D9320
:100DD0008D939C9313972AA93BA94CA95DA9ED89F2
:100DE000FE8960817181828193810E946D34AD8919
:100DF000BE896D937D938D939C9313976196CFAC31
:100E000061976096ECACFDAC0EAD1FAD60972F897D
:100E100049895A896B897C898D859E850E944F04FA
:100E20008091AB0581114ACFBFEF2B1A3B0A2FCF20
:100E3000B10190E080E00E94143629853A854B8507
:100E40005C850E94C4376B017C010E946735698311
:100E50007A838B839C83C701B6010E9455384B016E
:100E60005C01AA8DBB8DCD90DD90ED90FC90F7FAE2
:100E7000F094F7F8F094AE8DBF8D8D919D910D900B
:100E8000BC91A02D8D839E83AF83B88729813A8141
:100E90004B815C81C701B6010E94C4372B013C0124
:100EA000A50194016D817E818F8198850E94C43750
:100EB0009B01AC01C301B2010E946D342B013C01C6
:100EC000A5019401C701B6010E94C4376B017C01E2
:100ED00029813A814B815C816D817E818F819885EA
:100EE0000E94C4379B01AC01C701B6010E946C345B
:100EF0006D837E838F83988719824ECF8F929F92C6
:100F0000AF92BF92CF92DF92EF92FF92CF93DF9397
:100F10006B017C018091AC05823091F120E030E0E2
:100F200040EA51E4C7010E94C4370E9451360E9432
:100F3000E5354B01EB010E94161620E030E04AE750
:100F400054E4C701B6010E94C4376B017C0182E3FF
:100F5000889DB001899D700D112490E080E00E9471
:100F600014369B01AC01C701B6010E946C340E948B
:100F700051360E94E535CB010E94CE28209759F4C6
:100F8000DF91CF91FF90EF90DF90CF90BF90AF9027
:100F90009F908F9008950E94A91421978091AB058E
:100FA0008111EECF2FEF80E792E0215080409040FA
:100FB000E1F700C00000E2CF2F923F924F925F9284
:100FC0006F927F928F929F92AF92BF92CF92DF9259
:100FD000EF92FF920F931F93CF93DF9300D000D037
:100FE0001F92CDB7DEB79D838C834A015B01D22E61
:100FF0008091AC05823009F4AFC00E941616809132
:10100000BB058B830E94212D882351F09FB7F89454
:101010008091AD0580648093AD059FBF0E94A914A7
:101020008091AB05811198C0C12CE12CF12C870176
:101030002D2DB501A4018C819D810E944F0481E07A
:101040008093BC059FB7F8948091AD058260809332
:10105000AD059FBF0E94A9148091AB0581117CC092
:101060008091AC05877FB1F78091BC05813041F458
:101070009FB7F8948091AD0580648093AD059FBFC4
:101080000E94A9148091AB05811166C00E94DD18F1
:101090000E9487240E94E727EDEBF5E0FA83E983BD
:1010A00083E0282E87E0382E0C811D817801FCE03A
:1010B000EF0EF11CE981FA81619171918191919119
:1010C000FA83E983F10141905190619071901F0181
:1010D0000E941636A30192010E946C35F8016193BB
:1010E0007193819391938F01EE15FF0519F7C12C30
:1010F000E12CF12C87012D2DB501A4018C819D815E
:101100000E944F049FB7F8948091AD058260809350
:10111000AD059FBF0E9416168091AB0581111CC0C2
:10112000FB81F093BB050F900F900F900F900F90E5
:10113000DF91CF911F910F91FF90EF90DF90CF90B3
:10114000BF90AF909F908F907F906F905F904F90E7
:101150003F902F900C94B22F0F900F900F900F9004
:101160000F90DF91CF911F910F91FF90EF90DF9043
:10117000CF90BF90AF909F908F907F906F905F9037
:101180004F903F902F9008958091AD0584FD1AC037
:101190009FB7F8948091AD0580618093AD059FBFA6
:1011A0000E9444130E94B7138091AC05847351F0E0
:1011B0009FB7F8948091AD0580628093AD059FBF85
:1011C0000C944F16089583B19091400796FF0DC07F
:1011D000867169F00E94C4089FB7F8948091AD05AC
:1011E00080668093AD059FBF08958095F1CF84E020
:1011F0008093AC050E9444130E94FE2883E00E9465
:1012000058290E94A9148091AB05811108C00E9441
:1012100063091092AC050E944F160C940929089599
:10122000CF9320913306309134064091350650918A
:1012300036066091DD057091DE058091DF059091A5
:10124000E0050E946235811128C020913706309157
:1012500038064091390650913A066091E105709147
:10126000E2058091E3059091E4050E9462358111C9
:1012700014C0C1E020913B0630913C0640913D06F0
:1012800050913E066091E5057091E6058091E70575
:101290009091E8050E9462358111C0E08C2FCF91BA
:1012A0000895EAECF5E08BE3DF011D928A95E9F7FA
:1012B00069EE75E080E00E947021811103C087E033
:1012C0000C94A62D08958F929F92AF92BF92EF92A9
:1012D000FF920F931F93CF93DF938FEAE82E85E061
:1012E000F82EC3E0D7E00DED15E0F70161917191A3
:1012F000819191917F0189909990A990B9900E94D4
:101300001636A50194010E946C35F8016193719322
:10131000819391938F01F7E0CF30DF0731F7DF91B1
:10132000CF911F910F91FF90EF90BF90AF909F9042
:101330008F9008952F923F924F925F926F927F927B
:101340008F929F92AF92BF92CF92DF92EF92FF92D5
:101350000F931F93CF93DF93CDB7DEB7AF970FB641
:10136000F894DEBF0FBECDBF98A38F8FE5E0F6E007
:101370008AE3DF011D928A95E9F78AE0EAECF5E05D
:10138000A7E0B6E001900D928A95E1F71D8E312C11
:10139000212CB12CA12C812C912C1E8E4424439401
:1013A000512C7724739482E0682E8D8DEF8DF8A1F7
:1013B000E80FF11D008101111BC0992029F0BE8D9D
:1013C000B11102C0E2E0EE8F25FE70C280912206CC
:1013D00090912306A0912406B09125068038964965
:1013E000A849B1050CF462C20E9444138BE107C006
:1013F0009FEB900F9A31E0F00E94441381E0AF968A
:101400000FB6F894DEBF0FBECDBFDF91CF911F9115
:101410000F91FF90EF90DF90CF90BF90AF909F9093
:101420008F907F906F905F904F903F902F90089596
:101430008F5F8D8FAE01475E5F4FBE01635E7F4F52
:101440008F8D98A10E941C28811104C00E94441312
:1014500082E0D5CFC98CDA8CEB8CFC8CC701B6014D
:101460000E94A7380E94E535162F70E090E080E0DA
:101470000E9416369B01AC01C701B6010E946C3474
:1014800020E030E048EC52E40E94C4370E9431383A
:101490000E94E535073421F10D3409F41EC1EAEB51
:1014A000E00FE53108F02CC00E2E000CFF0BE55AC2
:1014B000F54F0C94FB38A90B800A800AC30BCF0BA5
:1014C000DB0BE70B800AEB0B800AF90B800A030C9D
:1014D0000D0C3B0C800A800A800A170C230C2F0C81
:1014E000163209F493C050F5143170F4113108F03C
:1014F000CEC0143009F458C008F488C01A3091F0F6
:101500000E94441384E17BCF1C3161F048F4163112
:10151000B8F7143109F0CFC07092090615E047C042
:101520001E3171F761110C94F112BE8DBB2311F4C1
:101530000C9415130E94441388E161CF103509F40F
:10154000A2C0D8F4153309F45DC080F41B3211F049
:101550001133B1F69E8D9111EDCF113309F0AEC06C
:1015600010920C0666E0A3E0AE8F32C01C3340F64A
:10157000165310930D0617E01AC01C3599F250F45B
:101580001A3508F4BDCF1A3509F08FC010920A063B
:1015900013E00DC01F3508F0B3CF1D3509F088C02A
:1015A0007092080614E003C07092060610E06623ED
:1015B00009F48DC00E94441387E121CFE1E0EE8F52
:1015C00060920606F3CF81E08E8F95E09093060639
:1015D000C20102C0880F991F6A95E2F79C012A2177
:1015E0003B21232B09F4B2C00E94441385E107CFAD
:1015F0006A3009F085CFA6E0A093060660E0E8CF48
:10160000B1E0BE8FE7E0E0930606D0CF8E8D81116A
:1016100091CF123041F150F41123B1F01130E1F0CB
:101620001092050611E082E08E8FC1CF133019F1C0
:101630001632B1F7643109F063CFF4E0F093070696
:1016400061E022E02E8FC4CF10920706709205064B
:1016500011E092E09E8FABCF109307061093050622
:10166000A2E0AE8FA4CF1093070670920506B2E0F9
:10167000BE8F11E09CCF109307067092050611E013
:10168000E2E0EE8F94CF35E030930706F2CF1231CF
:1016900031F0133139F010920B0612E088CF7092BE
:1016A0000B06FBCF60920B06F8CF70920A0670CF44
:1016B0001092080677CF1092090630CF6A3009F0F1
:1016C0001FCF70920C0666E0B3E0BE8F81CF612F12
:1016D0007FCF60E0E1E0EE8F7BCF61116BCF163002
:1016E00088F41330D0F0143011F1153019F17092E4
:1016F000100689E0920102C0220F331F8A95E2F79B
:10170000C9016DCF183008F4FBCE1A30B0F01E318D
:1017100009F0F6CE60920E0608C01230D9F31E31E1
:10172000C9F3111102C070920E0688E0E3CF6092F7
:101730001006DFCF10921006DCCF193021F0609236
:101740000F068AE0D7CF10920F06FBCFA82AB92A3E
:101750002CCEC0921106D0921206E0921306F0929F
:10176000140680E08201082E02C0000F111F0A94A7
:10177000E2F7980122213321232B09F47EC00E9435
:10178000441389E13CCEC0921506D0921606E09231
:101790001706F0921806689480F881E0E3CFC092B3
:1017A0001906D0921A06E0921B06F0921C06689465
:1017B00081F882E0D7CFC0921D06D0921E06E0923B
:1017C0001F06F0922006689482F883E0CBCF109336
:1017D000210684E0C7CFC701B6010E94DE356093C1
:1017E000220670932306809324069093250685E0B5
:1017F000B9CFC0922606D0922706E0922806F09232
:10180000290686E0AFCFC0922A06D0922B06E0923E
:101810002C06F0922D0687E0A5CFC0922E06D0921E
:101820002F06E0923006F092310688E09BCFC092FE
:101830003306D0923406E0923506F092360668946C
:1018400090F88AE08FCFC0923706D0923806E092A7
:101850003906F0923A06689491F88BE083CFC092F3
:101860003B06D0923C06E0923D06F0923E0668941C
:1018700092F88CE077CF89E075CFA1E6B3E002C0A3
:10188000B595A7958A95E2F7A0FF0DC020E030E05E
:10189000A901C701B6010E94623587FF04C00E94FA
:1018A000441384E0ACCD202A312A7FCD80910806F4
:1018B000813049F42E8D223031F520FC24C00E9465
:1018C000441386E19CCD8091CB0581111CC020FE84
:1018D00036C0809109068130B1F423E333E34BEC49
:1018E00051E4609111067091120680911306909157
:1018F00014060E94C43760931106709312068093F9
:1019000013069093140630FC10C08091D40590917A
:10191000D505A091D605B091D70580932E0690935A
:101920002F06A0933006B0933106809106068130D1
:10193000C9F426FC15C00E9444138CE160CD80914F
:10194000D8059091D905A091DA05B091DB05809377
:10195000110690931206A0931306B0931406D3CFEA
:10196000E89426F880910B06882349F0813009F429
:1019700048C01BA692E09EA3A1E0ADA305C032E043
:101980003BA781E08EA31DA280910906813059F505
:1019900015E0E12E16E0F12E10E000E0C92CD12C6C
:1019A000C601002E02C0959587950A94E2F780FF44
:1019B00012C023E333E34BEC51E4D7019E966D91C3
:1019C0007D918D919C91D1970E94C437F70166A7B4
:1019D00077A780AB91AB0F5F1F4FF4E0EF0EF11CC8
:1019E00003301105E9F62E8D233089F480910C0621
:1019F000813069F434E0931651F00E94441385E27B
:101A0000FECCB1E0BBA71EA2E2E0EDA3BDCF8CE00F
:101A1000E9EEF5E0DE011D9601900D928A95E1F761
:101A2000A7FE17C080910D06873020F00E94441356
:101A30008DE1E5CC9091D005891759F0BE01635F27
:101A40007F4F0E947021811104C00E94441387E0DF
:101A5000D6CC10910606123009F458C0183009F49B
:101A6000FEC08E8D833009F43FC09920E9F10091CA
:101A70000A068091010690910206A0910306B0919A
:101A800004068F8F98A3A9A3BAA3EAECAE2EE5E0D3
:101A9000BE2EF5E0CF2EF6E0DF2EF12CE12CA92DA5
:101AA000B0E0BCA3ABA38BA19CA10E2C02C095956A
:101AB00087950A94E2F780FD3DC1F50183899489F9
:101AC000A589B689F60186A797A7A0ABB1ABFFEFB2
:101AD000EF1AFF0A24E0A20EB11C34E0C30ED11CA1
:101AE00083E0E816F104F9F6153009F473C11730F4
:101AF00009F475C1BE016F5F7F4F86E0133009F0B6
:101B00000CC10E947021811108C19FCF911004C0A7
:101B10000E9444138AE173CCC10180759927892BF7
:101B200009F409CF60912606709127068091280656
:101B3000909129060E94A7380E94E535673008F089
:101B400075CF80912106843129F0823009F0D8CCFC
:101B500027FCD6CC8FEA2822662309F474C0615092
:101B60006F8FDE0111966D01BD018F8D0E94702176
:101B7000882309F46ACFB0912106BBA380910106A6
:101B800090910206A0910306B09104068FA398A736
:101B9000A9A7BAA710E000E0F12CE12CA92CB12CE8
:101BA000C5010E2C02C0959587950A94E2F780FF37
:101BB00030C0F801EB5FF94F46A457A460A871A8A4
:101BC0009BA1943109F043C0F801E653FA4F23A5D5
:101BD00034A545A556A563897489858996890E948F
:101BE0006C34A30192010E946C34F601E00FF11FE6
:101BF0006083718382839383A2E0EA120AC02FA1DB
:101C000038A549A55AA50E946C3469877A878B87C5
:101C10009C87BFEFEB1AFB0A0C5F1F4FE3E0EE1649
:101C2000F10409F0BDCF10910706153009F0E0C0AE
:101C3000992009F400C39E8D913009F403C10E94DC
:101C400044138FE1DCCB90910D069F8F8ACFF60174
:101C5000E00FF11F4082518262827382DACF9920B5
:101C600009F456CF4090010650900206609003069A
:101C700070900406AAECCA2EA5E0DA2EB5E0EB2E91
:101C8000B6E0FB2E5E01FDE0AF0EB11C10E000E0FF
:101C9000292D30E038A32F8F8F8D98A1002E02C000
:101CA000959587950A94E2F780FF39C0D5012D916B
:101CB0003D914D915C91F60163897489858996897E
:101CC0000E946C34D7019E962D913D914D915C916F
:101CD000D1970E946C34F70166A777A780AB91ABD0
:101CE000023061F4A30192010E946C3460933B06C0
:101CF00070933C0680933D0690933E060F5F1F4F06
:101D0000F4E0CF0ED11C24E0E20EF11C34E0A30E6F
:101D1000B11C0330110509F0BFCF1F8E84CFF6012F
:101D200083A594A5A5A5B6A5F70186A797A7A0ABFF
:101D3000B1ABE4CF173009F4CACED6019E964D90D0
:101D40005D906D907C90D197011133C0F701EE0F3B
:101D5000FF1FEE0FFF1F2DE030E02C0F3D1FE20FA5
:101D6000F31FD5019B962D913D914D915C919E97CE
:101D700060817181828193810E946D34A3019201FF
:101D80000E946D34F60166A777A780AB91ABF2E0B5
:101D9000EF129DCE2F8D38A149A15AA10E946D341A
:101DA00060933B0670933C0680933D0690933E06FD
:101DB0008ECEA3019201D50153966D917D918D91A7
:101DC0009C9156970E946D34F60166A777A780AB69
:101DD00091AB7DCEBE016F5F7F4F87E092CE809149
:101DE0000706823008F499CF0E9444138EE107CB96
:101DF000AE8DA23009F01FC211110EC0911022C089
:101E00002EED22222CEF32221E8E232809F418C236
:101E10000E94441384E2F3CA20E030E0A9016091FB
:101E200011067091120680911306909114060E947B
:101E30006235882309F443CD143048F4123088F415
:101E40001130E1F23EED232230EE3322DECF1430AA
:101E5000C9F7992009F45CCE0E941009882391F3F8
:101E600062C0992009F454CEFDA1EF2FF0E0FCA34D
:101E7000EBA33EA1232F30E038A72FA381E090E011
:101E80008C010DA002C0000F111F0A94E2F70EA0F2
:101E900002C0880F991F0A94E2F7082B192B892D8D
:101EA00090E080239123892B21F40E94441380E247
:101EB000A6CA8BA19CA1880F991F880F991FFC01AE
:101EC000EB5FF94F86539A4FDC0153962D913D916C
:101ED0004D915C91569766A577A580A991A90E941E
:101EE0006C346B017C018FA198A5880F991F880F16
:101EF000991FFC01EB5FF94F86539A4FDC01539613
:101F00002D913D914D915C91569766A577A580A93D
:101F100091A90E946C342B013C0127FEE2C00E9473
:101F20001009882321F00E94441381E268CA80913D
:101F300009068130B1F423E333E34BEC51E46091C3
:101F40002A0670912B0680912C0690912D060E94F6
:101F5000C43760932A0670932B0680932C069093C7
:101F60002D0680902A0690902B06A0902C06B0900B
:101F70002D0620E030E040E850E4C501B4010E94A5
:101F8000C437A50194010E94C4374B015C01A7012D
:101F90009601C701B6010E94C4379B01AC01C5017F
:101FA000B4010E946C344B015C01A3019201C30196
:101FB000B2010E94C4379B01AC01C501B4010E946B
:101FC0006C344B015C0120E030E0A9010E946235D5
:101FD00087FF04C00E94441382E211CAC501B40104
:101FE0000E9463384B015C01A3019201C701B60155
:101FF0000E94D8289B01AC01C501B40190580E94F1
:102000006C354B015C0180910706833021F4B7FAEF
:10201000B094B7F8B09480912A0690912B06A091C5
:102020002C06B0912D068CA79DA7AEA7BFA720E0D8
:1020300030E0A901BC01CD010E94623587FF11C0CB
:10204000B7FAB094B7F8B0948CA59DA5AEA5BFA57E
:10205000B05880932A0690932B06A0932C06B09339
:102060002D06E89427F80BA11CA1000F111F000FEB
:10207000111F0B5E194FA3019201C501B4010E940B
:10208000C4379B01AC01C701B6010E946C3420E04B
:1020900030E040E05FE30E94C437D8016D937D9348
:1020A0008D939C9313970FA118A5000F111F000F7C
:1020B000111F0B5E194FA7019601C501B4010E94C3
:1020C000C437A30192010E946D3420E030E040E06B
:1020D0005FE30E94C437F801608371838283938336
:1020E000B1CE912C08211921012B21F40E94441317
:1020F00083E285C9F1EF2F2280910906813059F5DD
:1021000010E000E0C401002E02C0959587950A9466
:10211000E2F780FF1BC0C801880F991F880F991F25
:102120009C012B5F394F590123E333E34BEC51E41E
:10213000D50150966D917D918D919C9153970E9400
:10214000C437F501608B718B828B938B0F5F1F4FB0
:1021500003301105B9F60FA118A5000F111F000FCC
:10216000111F0B5E194FD8012D913D914D915C913E
:10217000C301B2010E946C342B013C01ABA0BCA096
:10218000AA0CBB1CAA0CBB1CF501EB5EF94F5F014E
:102190002081318142815381C701B6010E946C3494
:1021A000A30192010E94D8286B017C01D8012D91D6
:1021B0003D914D915C91F5016081718182819381A6
:1021C0000E94D8284B015C0180922A0690922B062F
:1021D000A0922C06B0922D06AC019B01C701B6015E
:1021E0000E946C346B017C01E894F7F82AE037ED2B
:1021F00043EA5BE3C701B6010E94843718160CF06E
:1022000021CE20E030E040E05FE3C701B6010E944C
:10221000843718160CF487CE2FE632E143E85AE3F0
:10222000C501B4010E94C437A70196010E9462351E
:1022300087FF08CE78CEFE8DFF2309F4E1CD02CED4
:10224000809108068093CB0580911106909112062B
:10225000A0911306B09114068093D8059093D905E8
:10226000A093DA05B093DB05C0902E06D0902F0620
:10227000E0903006F0903106A70196016091D405F8
:102280007091D5058091D6059091D7050E94623551
:102290008823D9F0C092D405D092D505E092D60516
:1022A000F092D705809140079091410790FF04C0BC
:1022B00080910506811109C08091D305882329F0FA
:1022C00020E0B701A6010E9473138091320680932B
:1022D000DC05809110069091D3059817B9F0809392
:1022E000D305209140073091410730FF04C0909101
:1022F000050691110BC04091D4055091D505609110
:10230000D6057091D70520E00E94731380910F06C7
:102310009091D205981721F08093D2050E94BC13AA
:1023200080910606813051F460912606709127064F
:1023300080912806909129060E947E0780910B06C5
:102340008093CE05809109068093CC058E8D8330D5
:10235000B9F480910C068093CF05813009F037C025
:1023600080913B0690913C06A0913D06B0913E06BF
:102370008093010690930206A0930306B09304068F
:1023800080910D069091D005981759F08093D00553
:102390008CE0FE013D96A9EEB5E001900D928A9584
:1023A000E1F780910A068093CD05E0910606E250A0
:1023B000E83050F5F0E0E152FE4E0C94FB38F0119D
:1023C0003812671238126D120412711277121092BD
:1023D0000106109202061092030610920406D0CF56
:1023E000BE016F5F7F4F8F8D0E9492208091D0053C
:1023F0009F8D891309C08CE0FE013196A9EEB5E0EE
:1024000001900D928A95E1F7809107068093CA05A5
:102410008530C1F0BE8DB230A9F4843008F06FC0B1
:10242000823008F0A7C0882309F47BC0813009F40A
:102430008CC08CE0E3E3F6E0ADEDB5E001900D92E9
:102440008A95E1F780910E068093D105882311F4D7
:102450000C94FF090E9416161092BB058091D105BD
:10246000823009F0BBC00E94C40880E00C94FF09D0
:10247000AE8DAA2399F0E090D405F090D505009197
:10248000D6051091D705C090D30520E040E050E07C
:1024900060E87FEB83E396E00E944F04E090D40570
:1024A000F090D5050091D6051091D705C090D305C1
:1024B00020E040E050E060E87FEBCE0101960E9412
:1024C0004F048CE0FE013196ADEDB5E099CF6DED96
:1024D00075E086E00E94922097CF6DED75E087E071
:1024E000F9CF8CE0E3E3F6E0A5EFB5E089CFE5EFC7
:1024F000F5E08CE0DF011D928A95E9F785CF843005
:1025000009F097CF4091D8055091D9056091DA052F
:102510007091DB052091CB0583E396E00E94DC07F8
:1025200088CFE090D405F090D5050091D6051091A4
:10253000D705C090D30520E040E050E060E87FEB95
:1025400083E396E00E944F0474CFE090D405F090AE
:10255000D5050091D6051091D7054091D805509129
:10256000D9056091DA057091DB05C090D305209103
:10257000CB05E6CFC090D805D090D905E090DA051C
:10258000F090DB0500912A0610912B0620912C0675
:1025900030912D068091D3058F938091D7058F932D
:1025A0008091D6058F938091D5058F938091D40526
:1025B0008F93EBA5EF93FEA1FF938DA0A090CB0589
:1025C00045E156E063E376E08DED95E00E949D04E1
:1025D0000FB6F894DEBF0FBECDBF2BCF1092D10542
:1025E00044CF1E3111F40C94F80A88F41A3011F417
:1025F0000C94E00A1C3111F00C94DA0A6A3011F0E4
:102600000C94800A34E0309306060C94FE0A1533CD
:1026100011F40C94020B1C3511F00C94DA0A6A3098
:1026200011F00C94800A39E0EECF1E3111F40C94B5
:10263000E30A70F41A3011F40C94DE0A1C3109F02C
:1026400048C8F1E0FE8F23E0209306060C94E80AC8
:10265000153311F40C94000B1C3509F03AC8F1E065
:10266000FE8F28E0F1CFE0EBF0E080818F77808370
:102670002B9808958091B300882329F08091B000B1
:1026800080688093B00008951092B300E0EBF0E012
:1026900080818F7780832B980895239A239A259A97
:1026A0000C94441383E88093B000E1EBF0E0808168
:1026B000887F8260808308958093B3000895BC0171
:1026C00090E080E00E94143620E030E040E051E4E9
:1026D0000E946D340E94E53583E0769567958A9572
:1026E000E1F7862F0895CF92DF92EF92FF92CF937A
:1026F000DF93C82F6A017B01D22F8091AC05823015
:1027000069F1809140079091410790FF02C021112B
:1027100002C00E945115809140079091410790FF9F
:1027200002C0D11102C00E941616C11108C0DF916B
:10273000CF91FF90EF90DF90CF900C944413C13075
:10274000A1F42D98C701B6010E94E535CB010E9486
:102750005F138093B3000E9452132B9ADF91CF91A5
:10276000FF90EF90DF90CF9008952D9AEBCF439894
:1027700008953B9A0C94B713CF93C82F8091AC0562
:10278000823039F00E9451150E941616C23019F499
:10279000439ACF910895CF910C94B713909124014F
:1027A00080912501891710F0891B08958058FCCF6E
:1027B000E0ECF0E08081826080831092C50080E1CF
:1027C0008093C400E1ECF0E08081806180838081AF
:1027D000886080838081806880830895E0912301F0
:1027E00091E09E0F943409F490E020912201291782
:1027F00061F0F0E0E15CF94F8083909323018091D8
:10280000C10080628093C10004C02091AD0524FF07
:10281000ECCF08951F920F920FB60F9211248F9351
:102820009F93EF93FF9380912201E82FF0E0E15C0A
:10283000F94F90819093C6008F5F843409F480E053
:102840008093220190912301981305C08091C100CB
:102850008F7D8093C100FF91EF919F918F910F9099
:102860000FBE0F901F901895909124018091250123
:10287000891761F0E92FF0E0ED57F94F80819F5FF4
:10288000903809F490E09093240108958FEF089513
:102890001F920F920FB60F9211242F933F934F93D5
:1028A0005F936F937F938F939F93AF93BF93EF93B8
:1028B000FF938091C600813241F1A0F4883159F133
:1028C000E091250191E09E0F903809F490E020916D
:1028D0002401291799F1F0E0ED57F94F8083909387
:1028E00025011BC08F3341F08E3751F79FB7F89405
:1028F0008091AD05826005C09FB7F8948091AD05C9
:1029000081608093AD059FBF08C09FB7F894809108
:10291000AD058860F6CF0E94C408FF91EF91BF918A
:10292000AF919F918F917F916F915F914F913F9167
:102930002F910F900FBE0F901F9018959FB7F8948E
:102940008091AD058068DDCF8091250180932401C1
:102950000895CF93C091AD05CC2309F494C08C2F7A
:10296000807619F181E08093AC050E943313C6FF95
:1029700025C08FEFC5FF8DEF0E94B82D81E00E942A
:10298000ED2D9FB7F8948091AD058F7E8093AD05B6
:102990009FBF8091AD0584FFFCCF9FB7F8948091D5
:1029A000AD058F798093AD059FBFC4FF0BC00E941A
:1029B000331381E08093AB05CF9108958EEF0E9491
:1029C000B82DEBCFC0FF0AC00E946B319FB7F894BF
:1029D0008091AD058E7F8093AD059FBFC3FF15C06D
:1029E0008091AC05803149F480E28093AC050E946F
:1029F0002B190E944D191092BB059FB7F894809136
:102A0000AD05877F8093AD059FBFC1FF1CC080913E
:102A1000AC05883081F480E18093AC050E943A13C4
:102A20000E944D190E942E168091400781FF33C0ED
:102A300081E08093BB059FB7F8948091AD058D7FB1
:102A40008093AD059FBFC2FF11C00E94AC24892BAB
:102A500029F10E94331388E08093AC059FB7F89466
:102A60008091AD058B7F8093AD059FBFC7FF0BC0E5
:102A70008CEF0E94B82D9FB7F8948091AD058F77A9
:102A80008093AD059FBF8091AC05847309F494CF0A
:102A9000CF910C944D191092BB05CDCF1092AC057F
:102AA000DDCF8091BB05882341F09FB7F8948091DA
:102AB000AD0582608093AD059FBF0895DF92EF92D0
:102AC000FF920F931F93CF93DF930E94132E809159
:102AD000AC05813089F582E00E94ED2D1092C90588
:102AE000C0E0F12C00E0D0E010E0EE24E3948AE0B6
:102AF000D82E0E9434148F3F09F44EC08A3019F04A
:102B00008D3009F03FC0ED2FF0E0EA5DFE4F1082FE
:102B1000FF20C9F08091C9058017A9F0E092AC05AB
:102B200086E291E00E94DD2D1092C905C0E0F12CF3
:102B300000E0D0E010E0DDCF1092AC0586E291E03D
:102B40000E94EA32CBCF0E94A9148091AB0581117B
:102B5000EBCF80912601811103C00E94A62DE4CF06
:102B6000843229F486E291E00E940A33F6CF809104
:102B7000AC05813011F489E0F0CF86E291E00E944B
:102B80009A09EBCFCC23C9F090ED980F9A30A8F4B6
:102B90000D9D900D1124092F0E9451150E94A9141A
:102BA0008091AB05882309F4A4CFDF91CF911F91C9
:102BB0000F91FF90EF90DF9008958032A1F19091F6
:102BC000C905980F9093C905112331F011E089329E
:102BD00009F410E0C0E08DCF8132E0F38F32D1F301
:102BE0008832F1F08A3241F49A529093C90500E09C
:102BF000C1E0FF24F3947DCFDF3430F08BE00E94FE
:102C0000A62DC0E0D0E075CFED2FF0E0EA5DFE4FDD
:102C1000DF5F9FE9980F9A3108F480528083DACF02
:102C2000C0E011E066CF1111D1CFD4CF0E94511571
:102C30008091AC05803119F481E08093BB050E943E
:102C4000AC24892B21F48091AC05803131F40E94B1
:102C5000A9148091AB05882391F3089580914007D2
:102C600082FF1BC0289A8091AC058471A9F08091E5
:102C7000A4018093B8018091A5018093B701809150
:102C800033078250990B880F81958093B60180910C
:102C90006F00826080936F0008952898E4CF809140
:102CA0006F008D7F80936F0080918100887F8160AD
:102CB000809381001092A301809136078F3F21F409
:102CC0009091AD0595FF12C09091AC05943071F0D4
:102CD00090E00E94CE2881E09091400792FF02C0D0
:102CE00091E08927882321F0289A089580E0F4CF85
:102CF000289808951F920F920FB60F9211240F93E8
:102D00001F932F933F934F935F936F937F938F9373
:102D10009F93AF93BF93EF93FF938091A301811192
:102D2000DDC19BB18091B801807E9F71892B8BB9E9
:102D30008BB1837E9091B701892B8BB98091B601BD
:102D400086BD82E085BD81E08093A3017894809167
:102D5000CA019091CB01892B09F0A7C08091A801ED
:102D60009091A701981709F4AFC1E091A80186E0FE
:102D7000E89FF0011124E453FE4FF093CB01E09360
:102D8000CA01838194819093890080938800808117
:102D900091819093C6018093C501E2818091C70122
:102DA0008E17C1F1E093C70183E1E89FF001112480
:102DB000E051FE4FF093C901E093C80185859685E7
:102DC000A785B089B695A795979587958093A90112
:102DD0009093AA01A093AB01B093AC018093AD0195
:102DE0009093AE01A093AF01B093B0018093B10175
:102DF0009093B201A093B301B093B40180914007C6
:102E00009091410790FF06C08289882319F081893B
:102E10000E945C13E091C801F091C90180819091FA
:102E2000A40189278093B801A091CA01B091CB0178
:102E300015962C9181819281A381B481022E04C0C8
:102E4000B695A795979587950A94D2F78093B9017F
:102E50009093BA01A093BB01B093BC018581968188
:102E6000A781B085022E04C0B695A7959795879542
:102E70000A94D2F78093BD019093BE01A093BF0145
:102E8000B093C00181859285A385B48504C0B695B1
:102E9000A795979587952A95D2F78093C10190932E
:102EA000C201A093C301B093C4010E94272D1092C8
:102EB000B7018091A9019091AA01A091AB01B091B5
:102EC000AC014091B9015091BA016091BB01709180
:102ED000BC01840F951FA61FB71F8093A901909373
:102EE000AA01A093AB01B093AC01E091C801F091AD
:102EF000C9014585568567857089481759076A074E
:102F00007B0728F524E02093B701841B950BA60BC3
:102F1000B70B8093A9019093AA01A093AB01B09342
:102F2000AC018091AF059091B005A091B105B09131
:102F3000B205208125FFE5C00197A109B109809361
:102F4000AF059093B005A093B105B093B205809101
:102F5000AD019091AE01A091AF01B091B00100918F
:102F6000BD011091BE012091BF013091C001800FC1
:102F7000911FA21FB31F8093AD019093AE01A09348
:102F8000AF01B093B001481759076A077B0738F5BE
:102F90002091B70128602093B701841B950BA60BE5
:102FA000B70B8093AD019093AE01A093AF01B093A6
:102FB000B0018091B3059091B405A091B505B09191
:102FC000B605208126FFA1C00197A109B109809310
:102FD000B3059093B405A093B505B093B605809161
:102FE000B1019091B201A091B301B091B4010091EF
:102FF000C1011091C2012091C3013091C401800F21
:10300000911FA21FB31F8093B1019093B201A093AF
:10301000B301B093B401481759076A077B0738F525
:103020002091B70120612093B701841B950BA60B5B
:10303000B70B8093B1019093B201A093B301B09309
:10304000B4018091B7059091B805A091B905B091F0
:10305000BA05208127FF5DC00197A109B1098093BE
:10306000B7059093B805A093B905B093BA058091C0
:10307000AC05843039F48091AE059091B701892375
:103080008093B7018091C5019091C60101979093FB
:10309000C6018093C501892B69F41092CB0110926F
:1030A000CA018091A8018F5F8093A801863011F436
:1030B0001092A8018091B7019091A5018927809372
:1030C000B7011092A3010AC00E944F169FB7F8944F
:1030D0008091AD0584608093AD059FBFFF91EF9116
:1030E000BF91AF919F918F917F916F915F914F9120
:1030F0003F912F911F910F910F900FBE0F901F9036
:1031000018950196A11DB11D1ACF0196A11DB11DE3
:103110005ECF0196A11DB11DA2CF1F920F920FB6D7
:103120000F9211248F939F939BB18091A5018C7175
:10313000937E892B8BB915BC9F918F910F900FBEF9
:103140000F901F9018950F931F93CF93DF931092BA
:10315000A5011092A401D0E0C0E01C2F0C2F80919B
:10316000340790E00C2E02C0959587950A94E2F7FB
:1031700080FF08C0812F0E9421239091A501892BF7
:103180008093A5018091350790E002C095958795C1
:103190000A95E2F780FF08C0812F0E942B239091AF
:1031A000A401892B8093A4012196C330D105A9F6EF
:1031B000DF91CF911F910F9108950E944F16E6E77E
:1031C000F1E08BE2DF011D928A95E9F7E9EAF1E08F
:1031D00083E2DF011D928A95E9F71092A201109215
:1031E000A1011092A8011092A70181E08093A6018D
:1031F0001092A3010E94A3188BB1837E9091A50128
:10320000892B8BB98BB18F719091A401892B8BB9CC
:1032100008958AB18C618AB9209A8AB1806E8AB980
:10322000E1E8F0E080818F7E808380818860808308
:10323000E0E8F0E080818C7F808380818F708083E4
:10324000EEE6F0E08081887F808314BC15BC80812D
:10325000816080830895CF93DF93C091A101D091C5
:10326000A2012097B9F081E08093770160918D01F0
:1032700070918E0180918F01909190019B01AC0122
:103280000E94C4376E8B7F8B888F998F1092A2011A
:103290001092A101DF91CF9108952F923F924F920A
:1032A0005F926F927F928F929F92AF92BF92CF92D6
:1032B000DF92EF92FF920F931F93CF93DF93CDB7DF
:1032C000DEB7E6970FB6F894DEBF0FBECDBF909184
:1032D000A8018091A601981709F4A2C48091A101C8
:1032E0009091A201892B09F07DC00E94AC24FC01C1
:1032F0009093A2018093A101892B09F491C480913C
:103300007701882309F46EC1109277011092890128
:1033100010928A0110928B0110928C012091A101D0
:103320003091A2013A832983D9019696CD90DD9000
:10333000ED90FC909997A701960160E070E080E025
:103340009FE30E946C354B015C01E981FA8142A444
:1033500053A464A475A48091AC05803209F039C2ED
:10336000F2E0F0938801A981BA8156962D913D91A2
:103370004D915C91599729833A834B835C83A501D6
:10338000940169817A818B819C810E94C4379B0161
:10339000AC01C301B2010E946C344B015C0120E01E
:1033A00030E0A9010E94623587FF02C2A7019601A1
:1033B000C701B6010E946D34A30192010E94C43777
:1033C0009B01AC0169817A818B819C810E946C3464
:1033D0000E946338609395017093960180939701E2
:1033E000909398018091A701282F30E03A87298790
:1033F00046E0429FF001439FF00D1124E453FE4F3D
:103400008091760182838091A1019091A2019E8793
:103410008D87DC019A96BC91BCA7FC01F3A5FDA7A2
:10342000DC019C96BC91BEA7FC01F5A5FFA72091ED
:1034300080013091810140918201509183016CA5FE
:103440007DA58B2F9F2F0E946C3468A779A78AA730
:103450009BA720E030E0A9010E94623587FF04C0ED
:1034600018A619A61AA61BA6209191012C8F30919F
:1034700092013D8F409193014E8F509194015F8F47
:1034800080919D0188A390919E0199A3A0919F0195
:10349000AAA3B091A001BBA3E0919901E88FF0919C
:1034A0009A01F98F20919B012A8F30919C013B8FCB
:1034B000409188014F87509189015CA380918A01D6
:1034C0008DA390918B019EA3A0918C01AFA320911D
:1034D000950130919601409197015091980129AB47
:1034E0003AAB4BAB5CAB30908D0120908E013091AC
:1034F0008F013983409190014D8328A139A14AA1C0
:103500005B2FBF018A8D9B8D0E946235811173C232
:1035100052E058AB9CA59C8BADA5AD8BBEA5BE8BD8
:10352000EFA5EF8B8EE3C82E83ECD82E8EE2E82E2B
:1035300089E3F82E188A198A1A8A1B8A260137010C
:103540003F85332309F461C2313009F48FC3AD855F
:10355000BE8596962D913D914D915C919997C701AD
:10356000B6010E94C4374B015C01AC019B01632D85
:10357000722D89819D810E94843718160CF0AFC38B
:1035800020E030E040E05FE3C501B4010E94C437B1
:103590009B01AC01632D722D89819D810E946C3449
:1035A000A70196010E94C4379B01AC016C897D89FB
:1035B0008E899F890E946C348B018EAB9DAB9B01E1
:1035C000AC016CA17DA18EA19FA10E94623587FFF5
:1035D00086C3A5019401632D722D89819D810E946E
:1035E0006C343FC3809176018F5F853009F4CCC085
:1035F000809376012091760153E1529FA00111241E
:103600008A0100511E4F8581D8018C938681978154
:10361000A085B185AC01BD0193E0440F551F661F25
:10362000771F9A95D1F7D80111964D935D936D93BD
:103630007C93149782859385A485B585AC01BD01E3
:1036400023E0440F551F661F771F2A95D1F7D80135
:1036500015964D935D936D937C931897868597850A
:10366000A089B189AC01BD0133E0440F551F661F2D
:10367000771F3A95D1F7D80119964D935D936D93C5
:103680007C931C9782899389A489B589AC01BD017B
:10369000A3E0440F551F661F771FAA95D1F7D801E5
:1036A0001D964D935D936D937C93509784815296B4
:1036B0008C9360817181828193810E94E535CB0179
:1036C0000E945F13F801818B2091A1013091A2012A
:1036D0003A832983D90152966D917D918D919C9168
:1036E00055970E9414366093780170937901809306
:1036F0007A0190937B01E981FA8122A533A544A543
:1037000055A50E946C359B01AC0120937C01309340
:103710007D0140937E0150937F0160E070E080EA7C
:103720009FE30E946C3560938001709381018093C8
:10373000820190938301109284011092850110926E
:103740008601109287018091AC05803201F560916D
:1037500095017091960180919701909198016093E5
:103760008D0170938E0180938F01909390019B0146
:10377000AC010E94C437A981BA8156966D937D939E
:103780008D939C935997C2CD1092760133CFE981E6
:10379000FA8166897789808D918D0E946338609364
:1037A0008D0170938E0180938F0190939001AECD27
:1037B0008092890190928A01A0928B01B0928C0133
:1037C0001092950110929601109297011092980113
:1037D00009CE109288014092990150929A0160920C
:1037E0009B0170929C010E94BC242B013C014092E1
:1037F0009501509296016092970170929801AC01E8
:103800009B010E94C4376D837E838F839887E091EC
:10381000A101F091A201FE87ED8722A533A544A561
:1038200055A529873A874B875C8726893789408D3C
:10383000518D29833A834B835C839B01AC01698161
:103840007A818B819C810E946C34A50194010E9435
:10385000C43729853A854B855C850E946D3420E00C
:1038600030E040E05FE30E94C4376B017C0120E060
:1038700030E0A9010E94843718160CF0ABC0A701F4
:10388000960169857A858B859C850E9484371816F8
:103890000CF08CC0ED85FE8542A053A064A075A0FD
:1038A0002D813E814F815885C301B2010E946C3445
:1038B000A50194010E94C43760939D0170939E01FD
:1038C00080939F019093A001A70196010E94623509
:1038D00087FF3BC0C301B2010E946338609391012E
:1038E000709392018093930190939401A3019201AC
:1038F00069817A818B819C810E946235811104C02B
:10390000F1E0F09388016ECD29813A814B815C8191
:10391000C301B2010E946C34A50194010E94C43716
:103920009B01AC016091990170919A0180919B017A
:1039300090919C010E946C346093990170939A015C
:1039400080939B0190939C014DCDC0929901D092A0
:103950009A01E0929B01F0929C01C0929D01D0924D
:103960009E01E0929F01F092A001AD85BE859696E2
:103970006D917D918D919C9199979B01AC010E94D5
:103980006D34A70196010E94C4372D813E814F817D
:1039900058850E946D340E94633860939101709342
:1039A000920180939301909394011CCD80918D019D
:1039B00090918E01A0918F01B0919001E2E0E0938F
:1039C00088018093910190939201A0939301B09309
:1039D000940108CD1092990110929A0110929B01C6
:1039E00010929C0140929101509292016092930139
:1039F00070929401F7CC81E088AB8CCD0C8B1D8B41
:103A0000FEA9FE8B2DA92F8B9BCDAD85BE859696ED
:103A10002D913D914D915C919997C701B6010E94FE
:103A2000C4374B015C0120E030E040E05FE30E94DE
:103A3000C437232D322D49815D810E946D34A70149
:103A400096010E94C4379B01AC016C897D898E89E7
:103A50009F890E946C348B018EAB9DAB9B01AC01A6
:103A6000688D798D8A8D9B8D0E94843718160CF095
:103A7000F0C0288D398D4A8D5B8D6CA57DA58EA5F6
:103A80009FA50E946C349B01AC010E946D346B01B8
:103A90007C012C8D3D8D4E8D5F8D632D722D898126
:103AA0009D810E946D349B01AC01C701B6010E944B
:103AB0006C356B017C013C8C2D8CBE8DB983EF8DF8
:103AC000ED83F8A9FF87088D198D2A8D2EAB3B8DCC
:103AD0003DABA7019601688979898A899B890E94F3
:103AE0006D34688B798B8A8B9B8B9B01AC01C301F6
:103AF000B2010E94843718160CF01AC1288939893E
:103B00004A895B89C301B2010E946C346B017C015C
:103B100098014EA95DA96CA17DA18EA19FA10E94D3
:103B2000623587FD6BCFFF85F0938801832D922D41
:103B3000A981BD8180938D0190938E01A0938F0107
:103B4000B093900140907C0150907D0160907E0187
:103B500070907F0198014EA95DA9C301B2010E9436
:103B6000C43769837A838B839C830E944B356B01B6
:103B70007C01609178017091790180917A01909136
:103B80007B010E944B354B015C01A70196010E940D
:103B90006C340E94E5356D837E838F83988786E041
:103BA00049855A85849FF001859FF00D1124E453C7
:103BB000FE4FAD81BE81B183A083AB2B09F0D2C093
:103BC0008091AC05803209F0CDC010928D01109229
:103BD0008E0110928F011092900110928401109228
:103BE00085011092860110928701C0927801D092CF
:103BF0007901E0927A01F0927B01A3019201C70161
:103C0000B6010E946C35AD85BE859A966D937D9305
:103C10008D939C939D970E94142888E08093AC0517
:103C2000E6960FB6F894DEBF0FBECDBFDF91CF9101
:103C30001F910F91FF90EF90DF90CF90BF90AF90CA
:103C40009F908F907F906F905F904F903F902F90BC
:103C50000895A5019401632D722D89819D810E9493
:103C60006D34362E272E89839D8333CFA70196018D
:103C70006C8D7D8D8E8D9F8D0E94C4379B01AC0114
:103C80006C897D898E899F890E946C348B018EABF3
:103C90009DAB9B01AC0168A179A18AA19BA10E9467
:103CA000843718160CF015CF28A139A14AA15BA1C1
:103CB0006C897D898E899F890E946C342C8D3D8D05
:103CC0004E8D5F8D0E946C356B017C0108A119A19E
:103CD0004AA14EAB5BA15DAB82E08F87FACE2CA1EF
:103CE0003DA14EA15FA16C897D898E899F890E942B
:103CF0006C349B01AC010E946D346B017C0129A9DD
:103D00003AA94BA95CA9632D722D89819D810E94DE
:103D10006D349B01AC01C701B6010E946C356B018B
:103D20007C010CA11DA1BEA1BEABEFA1EDABD1CE1C
:103D300028A539A54AA55BA5B8018EA99DA90E9411
:103D4000843718165CF42EE333EC4EE259E3C301DA
:103D5000B2010E946D342B013C01D0CE2F852093FF
:103D60008801E4CE20918401309185014091860143
:103D700050918701688979898A899B890E946D346D
:103D80002B013C0129813A814B815C81C501B40141
:103D90000E946C349B01AC01C301B2010E946C35DE
:103DA0004B015C0129813A814B815C81C701B601DD
:103DB0000E946C34A50194010E94C4376093840171
:103DC00070938501809386019093870120EC31EEFA
:103DD00044E65EE4C501B4010E94C4370E944B353D
:103DE0000E94E535603DB7E07B078105910508F04D
:103DF00048C046E029853A85429FF001439FF00D77
:103E00001124E453FE4F158246E029853A85429FEE
:103E1000F001439FF00D1124E453FE4F748363833C
:103E20008091A6018093A7018F5F863009F482C03C
:103E30008093A60198014EA95DA9609189017091B6
:103E40008A0180918B0190918C010E94623587FFDD
:103E500074C0E091A101F091A201C801AEA9BDA971
:103E600082A793A7A4A7B5A729813A814B815C813A
:103E7000209378013093790140937A0150937B012C
:103E800026CA603A5FE0750781059105A0F526E036
:103E9000A985BA852A9FF0012B9FF00D1124E453C8
:103EA000FE4F31E0358346E029853A85429FF00197
:103EB000439FF00D1124E453FE4F2581022E04C0D0
:103EC00096958795779567950A94D2F7AD81BE81CF
:103ED00002C0AA0FBB1F2A95E2F7B183A083611528
:103EE0007105B1E08B07910508F48ECF8FEF9FEF3E
:103EF0009483838395CF60344FE1740781059105E6
:103F000060F426E0A985BA852A9FF0012B9FF00D69
:103F10001124E453FE4F32E0C5CFA6E049855A850F
:103F2000A49FF001A59FF00D1124E453FE4FB3E0D0
:103F3000B583B9CF1092A6017DCF20E030E0A90172
:103F4000B8018EA99DA90E94843718166CF51092AD
:103F50008D0110928E0110928F011092900110929B
:103F60008401109285011092860110928701C092FF
:103F70007801D0927901E0927A01F0927B01409130
:103F8000A1015091A2015A83498320917C01309173
:103F90007D0140917E0150917F01C701B6010E94D1
:103FA0006C35A981BA8131CE1092A2011092A10183
:103FB0000E9498248CC9F999FECF92BD81BD81E001
:103FC0008FBB80B50895F894F999FECF92BD81BD5D
:103FD00081E08FBB20B5862F8227082E000C990B1D
:103FE00050E086239523892B49F084E16F3F11F03F
:103FF00060BD84E08FBBF99A789408952617E1F3A9
:1040000060BD84E2F7CF9F92AF92BF92CF92DF92D2
:10401000EF92FF920F931F93CF93DF935C018A017E
:104020007B01E40EF51EEB01912C6C01C61AD70A38
:10403000CE018C0D9D1DCE15DF0589F4692DC501BE
:10404000800F911FDF91CF911F910F91FF90EF9003
:10405000DF90CF90BF90AF909F900C94E31F21E032
:10406000911007C0292D990C330B232F221F2227D3
:10407000221F6991962E920E0E94E31FD9CF9F9224
:10408000AF92BF92CF92DF92EF92FF920F931F9366
:10409000CF93DF935B018A017C01E40EF51EEC01F6
:1040A000912C6B01C81AD90AC6018C0F9D1FCE1521
:1040B000DF05C1F4C501800F911F0E94DB1F21E0C5
:1040C00030E0891511F030E020E0C901DF91CF9197
:1040D0001F910F91FF90EF90DF90CF90BF90AF9026
:1040E0009F9008950E94DB1F21E0911007C0292DA9
:1040F000990C330B232F221F2227221F982E920E5A
:104100008993D2CF21E5829FC001112440E550E080
:104110009D5F0C94032040E550E0BC018EEA93E0E3
:104120000C9403202DE0829FC00111244CE050E04C
:104130009E5F0C94032069E090E080E00E94E31F02
:104140004EE450E063E077E081E090E00C940320DF
:10415000E3E0F7E08AE080AB8FEF83AB11AA82E067
:1041600082AB8FE184AB8AE097EDA3EABCE385AB39
:1041700096ABA7ABB0AF8FE692E1A3E0BBE381AF14
:1041800092AFA3AFB4AF17AE80E090E0A8ECB1E47B
:104190008093430790934407A0934507B093460745
:1041A00080E090E0AAEFB4E480934707909348073B
:1041B000A0934907B0934A0784E690E090934C0798
:1041C00080934B0780E090E0A0E8BFE380934D0729
:1041D00090934E07A0934F07B093500782E391E06E
:1041E00096AF85AF80E090E0A8ECB2E48083918345
:1041F000A283B38384839583A683B78380879187C3
:10420000A287B38780E090E4ACE9B5E48487958722
:10421000A687B787808B918BA28BB38B848B958B72
:10422000A68BB78B80E09FECA9E1BAE4808F918FD9
:10423000A28FB38F848F958FA68FB78F80E098EC75
:10424000AFEAB8E480A391A3A2A3B3A386E696EC59
:10425000A0E0B4EC84A395A3A6A3B7A38DEC9CE83F
:10426000A3ECB3EC80A791A7A2A7B3A780E090E04E
:10427000A0E2B2EC84A795A7A6A7B7A70C949B20B1
:104280001F93CF93DF93182FEB0181E5189FB001A7
:1042900011247D5F40E550E0CE010E943F20892B34
:1042A00051F41882BE01812F0E94822080E0DF91AC
:1042B000CF911F91089581E0FACFCF93DF93EC0166
:1042C00040E550E06EEA73E00E943F20892B21F424
:1042D0001882CE010E948B2081E0DF91CF9108955A
:1042E0001F93CF93DF93182FEB018DE0189FB00140
:1042F00011247E5F4CE050E0CE010E943F20892BCC
:1043000071F48CE0FE0111928A95E9F7BE01812FCC
:104310000E94922080E0DF91CF911F91089581E06B
:10432000FACF90E080E00E94DB1F893059F44EE420
:1043300050E061E070E083E097E00E943F2021E0E0
:10434000892B09F420E0822F0895CF92DF92EF921B
:10435000FF92CF93DF93C82F6A017B0120E030E00A
:10436000A901CB01B6010E94623587FD35C1C43673
:1043700008F44AC0C45620E0C330E8F58C2F90E022
:10438000880F991F880F991F223079F0FC01233084
:1043900059F1213039F0ED5FF84FC082D182E282CD
:1043A000F38218C0E15FF84FF8CFEC01C55ED84F3B
:1043B00020E030E040E752E4C701B6010E94C43774
:1043C00020E030E040E752E40E94C43768837983FC
:1043D0008A839B830E949B2080E0DF91CF91FF9096
:1043E000EF90DF90CF900895E95DF84FF7FAF094E1
:1043F000F7F8F094D2CF2F5FCA3008F4EFC0243022
:1044000009F4ECC0CA50B8CFC701B6010E94A73862
:104410000E94E535C93208F0E1C0EC2FF0E0ED5E16
:10442000FD4D0C94FB383C22432246224B224E2267
:104430005C226622EE22EE22EE22702272227B2283
:1044400084228E22EE22EE22EE22EE22EE2298220C
:10445000A422B422BE22C122CA22D322D922EE2211
:10446000EE22EE22EE22EE22EE22EE22EE22EE22CC
:10447000EE22EE22EE22E22286E0633008F4ADCF97
:1044800060933307A7CF60933607A4CF60933407B8
:104490000E94A3189FCF60933507FACF8091400701
:1044A00090914107662331F0846090934107809397
:1044B000400790CF8B7FF9CF8091400790914107C3
:1044C000662311F08064F1CF8F7BEFCF809140079E
:1044D00090914107662311F08068E7CF8F77E5CF91
:1044E00060933707C0923807D0923907E0923A07B5
:1044F000F0923B076FCFC0923C07D0923D07E0920D
:104500003E07F0923F0766CF8091400790914107A8
:10451000662311F08160C9CF8E7FC7CF809140079D
:1045200090914107662311F08260BFCF8D7FBDCF90
:104530008091400790914107662321F084FF50C08D
:104540008062B3CF8F7DB1CF8091400790914107BA
:10455000662341F0886090934107809340070E9452
:10456000092938CF877FF7CF809140079091410785
:10457000662311F0806199CF8F7C97CF60934207BB
:1045800029CFC0924307D0924407E0924507F092AA
:10459000460720CFC0924707D0924807E0924907CC
:1045A000F0924A0717CF70E070934C0760934B0767
:1045B00011CFC0924D07D0924E07E0924F07F09274
:1045C000500708CF8091400790914107662311F072
:1045D00091606BCF9E7F69CF84E0FFCE83E0FDCEFC
:1045E0008AE0FBCE1F93CF93DF93CDB7DEB72C9736
:1045F0000FB6F894DEBF0FBECDBF0E94912181118E
:1046000007C087E00E94A62D0E94A8200E941B2EB2
:1046100010E0BE016F5F7F4F812F0E9470218111DA
:1046200003C087E00E94A62D1F5F183091F72C96DB
:104630000FB6F894DEBF0FBECDBFDF91CF911F91B3
:104640000895882321F0813021F080E1089584E0ED
:10465000089588E00895882321F0813021F080E8D2
:10466000089580E2089580E40895882321F0813040
:1046700021F080E1089582E0089584E008952F926A
:104680003F924F925F926F927F928F929F92AF92E2
:10469000BF92CF92DF92EF92FF920F931F93CF932F
:1046A000DF9300916D02011101C002E101501091F0
:1046B0006B02101709F4BAC0E02EF12C2EE2029F13
:1046C000E0011124C159DD4F8A8C9B8CAC8CBD8CD0
:1046D0006EA17FA188A599A59B01AC010E946D34B4
:1046E0002AA53BA54CA55DA50E94C4376B01D82F18
:1046F000C92F9B01482F592FB401C5010E94623573
:1047000087FF03C06401DA2DCB2D8EE28E9DF00170
:104710008F9DF00D1124E159FD4FC601AD2FBC2F27
:10472000868B978BA08FB18FC02F011101C0C2E182
:10473000C1501C1709F45FC03EE2039F80011124A1
:1047400001591D4FDEE280916B028C1709F459C0AC
:10475000EC2EF12CCD9FC0011124FC01E159FD4F3D
:104760006F01C11101C0C2E1C15080916E028C1372
:1047700002C00E942B19DE9DC001DF9D900D112407
:104780009C0121593D4F7901F901828C938CA48CB5
:10479000B58CA501940166897789808D918D0E94E1
:1047A0006235882331F1F70166A177A180A591A533
:1047B0009B01AC010E946D34F70122A533A544A5ED
:1047C00055A50E94C437F80126893789408D518D3F
:1047D0000E946D342B013C01AC019B01C501B40169
:1047E0000E948437F7011816A4F5468A578A608E0E
:1047F000718E8601A8CF80916E02811302C00E9443
:104800002B19D0916B02FEE2DF9F80011124015928
:104810001D4FC1E0CD0FC23109F4C0E020906D0200
:104820008EE2382E2C121AC0D0936B02DF91CF91FA
:104830001F910F91FF90EF90DF90CF90BF90AF90BE
:104840009F908F907F906F905F904F903F902F90B0
:104850000895868A978AA08EB18ECBCFCC2ED12C8C
:10486000C39DC00111249C0121593D4F7901F801DC
:1048700046885788608C718CF90186889788A08C4F
:10488000B18CA5019401C301B2010E94623587FF7A
:1048900024C0F80166A177A180A591A59B01AC0178
:1048A0000E946D34F80122A533A544A555A50E94A8
:1048B000C437A30192010E946D342B013C01AC016D
:1048C0009B01C501B4010E948437181634F4F70126
:1048D000468A578A608E718EDC2F3C9CF0013D9C8D
:1048E000F00D1124E159FD4F228D338D448D558DEE
:1048F00066897789808D918D0E946235811101C012
:10490000DC2FCF5FC23109F4C0E087018BCFEFE429
:10491000F2E08CE1DF011D928A95E9F710926E02B8
:1049200010926D0281E080936C0210926B020895E8
:1049300090916E0280916D02891769F081E0890F74
:10494000823109F480E020916B02921302C08093BF
:104950006B0280936E02089580916E0290916D02B9
:10496000981739F02EE2829FC001112481599D4F82
:10497000089590E080E00895E0916E02EF5FE231EB
:1049800009F4E0E080916D028E1761F08EE2E89FFD
:10499000F0011124E159FD4F66897789808D918D51
:1049A0000C94633860E070E0CB01089581E02091C1
:1049B0006E0290916C02291380E008952F923F922D
:1049C0004F925F926F927F928F929F92AF92BF921F
:1049D000CF92DF92EF92FF920F931F93CF93DF93CB
:1049E000CDB7DEB7E5970FB6F894DEBF0FBECDBFEB
:1049F000498F5A8F6B8F7C8F2DAB20916D02422F88
:104A000050E058A34F8F5EE2259F90011124F901D9
:104A1000E159FD4FE082F18202831383C482128A3E
:104A2000138A148A158A12A613A614A615A615822F
:104A300049E956E766E97EE746A357A360A771A751
:104A40006C0183E097E09CA38BA3AE01435F5F4FB3
:104A50005EA34DA38FE492E09CA78BA7A9014B58BE
:104A60005D4F5EA74DA7CE0101969AA389A398AB8F
:104A70008FA72FE432E038A72FA343E057E05E8FE3
:104A80004D8FF12C8F01CF0142969AAB89AB3596B1
:104A9000FCABEBAB1801FAE22F0E311CF601619171
:104AA0007191819191916F01ED8DFE8D8190919029
:104AB000A190B190FE8FED8FA50194010E94C437A3
:104AC0000E949137EDA1FEA161937193819391931F
:104AD000FEA3EDA3EFA1F8A54190519061907190D4
:104AE000F8A7EFA364197509860997092B013C0102
:104AF00097FF07C0442455243201461A570A680A12
:104B0000790AEDA5FEA54192519261927192FEA79C
:104B1000EDA7E9A9FAA920813181428153812415A9
:104B200035054605570510F4A3019201E9A9FAA934
:104B300020833183428353830E941636A50194015A
:104B40000E946C354B015C01EFA5F8A9819291920E
:104B5000A192B192F8ABEFA720E030E0A9010E944A
:104B6000623587FF08C08F2D0E942B23EBA9FCA97B
:104B70009081892B8083A5019401C501B4010E9415
:104B8000C437F10120813181428153810E946D340B
:104B9000F1016083718382839383F394F3E0FF12C6
:104BA0007DCF0E9463384B015C01F10180829182CC
:104BB000A282B382F80182899389A489B589892B5D
:104BC0008A2B8B2B09F4EAC120E030E0A901698D22
:104BD0007A8D8B8D9C8D0E94623587FD7DC1FDA9EC
:104BE000FF2361F0298D3A8D4B8D5C8DC501B40199
:104BF0000E946C35698F7A8F8B8F9C8F20E030E01C
:104C000040E85FE3698D7A8D8B8D9C8D0E946235C3
:104C100087FF06C0198E1A8E20E82B8F3FE33C8F4A
:104C2000A501940160E070E080E89FE30E946C358C
:104C30006FA378A789A79AA7E9A1FAA13C96FEA33A
:104C4000EDA3812C912C54012EE24F8D58A1249F6D
:104C5000C001259F900D1124FC01EB56FD4FFE8FE6
:104C6000ED8FE9A1FAA1C190D190E190F190FAA362
:104C7000E9A320E030E0A901C701B6010E94623536
:104C8000882309F46BC02FA138A549A55AA5C701EF
:104C9000B6010E94C4372B013C01E9A1FAA1349767
:104CA0004082518262827382AC019B0160E070E0BD
:104CB00080E89FE30E946C356B017C01E894F7F873
:104CC000EBA1FCA12485358546855785C701B60132
:104CD0000E94C4371B018C01298D3A8D4B8D5C8D50
:104CE0000E948437181624F0298E3A8E0B8F1C8F61
:104CF000ED8DFE8D2080318002811381EBA1FCA11E
:104D0000208D318D428D538DC701B6010E94C4376D
:104D10006B017C019B01AC01B101C8010E946235AD
:104D200087FD02C016018701C101D801ED8DFE8DFE
:104D300080839183A283B383EBA5FCA5248535856D
:104D400046855785C301B2010E94C4379B01AC015F
:104D5000C501B4010E946C344B015C012BA53CA53C
:104D60002C5F3F4F3CA72BA74BA15CA14C5F5F4F33
:104D70005CA34BA38DA19EA1E9A1FAA18E179F0769
:104D800009F06FCF90916D0280916E029813ADC0C3
:104D90008EE22F8D38A1829FF001839FF00D1124A8
:104DA000E159FD4F168A178A108E118E168E178EB6
:104DB00010A211A2298D3A8D4B8D5C8D698D7A8D53
:104DC0008B8D9C8D0E94C4377B018C018EE24F8DB0
:104DD00058A1849FF001859FF00D1124E159FD4FEA
:104DE000C701D80182A393A3A4A3B5A3A68CB78CB3
:104DF000C0A081A0609067027090680290906902E4
:104E0000D0906A029301492D5D2DB701C8010E941F
:104E1000623587FF03C03701902ED12E9301492DB3
:104E20005D2DB5018C2D982D0E94623587FD03C044
:104E30005301C92C8D2C8EE22F8D38A1829FF00159
:104E4000839FF00D1124E159FD4FC501AC2DB82D04
:104E5000828F938FA48FB58F8CE0FE013196ABE5E6
:104E6000B2E001900D928A95E1F7C701D8018093D5
:104E7000670290936802A0936902B0936A028CE083
:104E8000FE013D96AFE4B2E001900D928A95E1F704
:104E900080916C0280936D028F5F823109F480E013
:104EA00080936C02E5960FB6F894DEBF0FBECDBFBF
:104EB000DF91CF911F910F91FF90EF90DF90CF90F6
:104EC000BF90AF909F908F907F906F905F904F902A
:104ED0003F902F900C943F2349E9498F56E75A8F12
:104EE00086E98B8F9EE79C8F9BCEA501940160E0A5
:104EF00070E080E89FE30E946C3420E030E040E006
:104F00005FE30E94C4370E9463386B017C018EE22C
:104F10004F8D58A1849FF001859FF00D1124E15918
:104F2000FD4F209138073091390740913A07509151
:104F30003B0766A177A180A591A50E94C437A70170
:104F400096010E94C4374B015C01A701960160E005
:104F500070E080E89FE30E946C349B01AC01C501C6
:104F6000B4010E946C356B017C0120E030E0A901A6
:104F70000E94623587FF03C0C12CD12C76018EE2DE
:104F80002F8D38A1829FF001839FF00D1124E159EC
:104F9000FD4FC68ED78EE0A2F1A20CCFE5960FB6DC
:104FA000F894DEBF0FBECDBFDF91CF911F910F915F
:104FB000FF90EF90DF90CF90BF90AF909F908F9039
:104FC0007F906F905F904F903F902F900895EFE407
:104FD000F2E0ABEAB5E014964D915D916D917C9154
:104FE0001797408351836283738318964D915D9127
:104FF0006D917C911B9744835583668377831C96C0
:105000008D919D910D90BC91A02D80879187A28755
:10501000B387089580916D0290916E02891710F008
:10502000891B08958E5EFCCF0E942B1980916E0221
:1050300080936B020C943F234F925F926F927F920A
:10504000AF92BF92CF92DF92EF92FF920F931F9396
:10505000CF93DF936C017B015A01DB01EC91E80FE8
:10506000F92FF11D8081EF018D3229F52296818182
:1050700001E0512CF0E010E020E030E0A9013E0119
:10508000E0EDE80FEA3018F5FF5FF930E0F4511079
:105090001150A5E0B0E00E9401399B01AC01220F44
:1050A000331F441F551F2E0F311D411D511D2196C9
:1050B000D3018C91E4CF8B3219F0219600E0D9CF47
:1050C00022968181FBCF5110F2CF1F5FF0CFEE3FD0
:1050D00029F4511003C055245394E9CFFF23F9F06C
:1050E000CA01B9010E9414362B013C0120E030E0D6
:1050F000A9010E94623581112DC0002309F447C027
:1051000077FA709477F87094F50140825182628248
:105110007382CC19DD09C150F701C083F1E08F2FF4
:10512000DF91CF911F910F91FF90EF90DF90CF9083
:10513000BF90AF907F906F905F904F9008952AE05E
:1051400037ED43E25CE3C301B2010E94C4372B0197
:105150003C011E5F1F3F9CF31F3F59F42DEC3CECBC
:105160004CEC5DE3C301B2010E94C4372B013C014A
:10517000C4CF112311F220E030E040E251E4C3013A
:10518000B2010E94C4372B013C011150F2CFD5016E
:105190004D925D926D927C921397BBCF019708F46C
:1051A0000895EFE9FFE03197F1F700C00000F6CF76
:1051B0008F929F92AF92BF92CF92DF92EF92FF9227
:1051C00069017A019B01AC010E94C4374B015C016B
:1051D000A7019601C701B6010E94C4379B01AC012B
:1051E000C501B4010E946D34FF90EF90DF90CF9025
:1051F000BF90AF909F908F900C946338EBE6F0E0F7
:105200008081897E8083E8E6F0E080818E7F8083E4
:10521000089584B1897E84B99091400785B196FF45
:105220000FC0897E85B993FF0DC080916B008661A8
:1052300080936B008091680081608093680008957E
:105240008661F0CF0C94FE281F920F920FB60F923A
:1052500011242F933F934F935F936F937F938F937B
:105260009F93AF93BF93EF93FF938091AC058130F1
:1052700071F08091AD0585FD0AC00E94C4089FB7FA
:10528000F8948091AD0580668093AD059FBFFF9136
:10529000EF91BF91AF919F918F917F916F915F91AE
:1052A0004F913F912F910F900FBE0F901F90189527
:1052B0002F923F924F925F926F927F928F929F9226
:1052C000AF92BF92CF92DF92EF92FF920F931F9314
:1052D000CF93DF93CDB7DEB7A4970FB6F894DEBFB8
:1052E0000FBECDBF282E8091AB058111FAC0E09092
:1052F0004707F09048070091490710914A07EB8A49
:10530000FC8A0D8B1E8B37E2A32E37E0B32E8E0165
:10531000035F1F4F68019E01205F3F4F790110E03E
:10532000312C812C912C00E0812F0E943523D70154
:105330008D937D01812F0E942123F60181936F01BE
:10534000D5014D905D906D907D905D01232D382DA0
:10535000492D502FC301B2010E94623587FF04C05E
:10536000342C852C962C072D1F5F1330E9F620E096
:1053700030E040EC5FEB632D782D892D902F0E945B
:10538000C4374B015C010E94872426E0522EDD24A5
:10539000D39444244394E22DF0E0FC8FEB8F9501ED
:1053A000840130580D8F1E8F2F8F38A32DE030E0F1
:1053B0002C0F3D1F2D5F3F4F388F2F8B8091400763
:1053C0006D2C86FDA7C0A09142078A2F90E09CA378
:1053D0008BA3DE0111961D01FD01712C60E090E0B0
:1053E00080E0A9A33AA2782F4B8D5C8D082E02C0D5
:1053F000559547950A94E2F79A012170332740FFAB
:1054000090C06F5FD11088C0ED8CFE8C0F8D18A1FD
:10541000E082F182028313834BA15CA102C0559507
:1054200047957A95E2F740FF0CC0E080F180028159
:10543000138117FB109517F91095E082F182028312
:105440001383232B49F02DE030E02C0F3D1F280F54
:10545000391FD9012C91722A019634968330910517
:1054600011F670E090E080E00E9414360E946338EC
:105470007092AE052B893C894D895E890E94C437A4
:10548000AB01BC01C12CE12CF12C870120E0CE0145
:1054900001960E94DE240E944D190E942E1693B19F
:1054A000662011F0B6E19B27DE015096FE013D9685
:1054B0008191282F272129F02C91292311F0809503
:1054C00078221196EF88F88CEE15FF0589F7709217
:1054D000AE050E944D198091AD0584FF27C00E9442
:1054E000A914A4960FB6F894DEBF0FBECDBFDF910E
:1054F000CF911F910F91FF90EF90DF90CF90BF90D1
:10550000AF909F908F907F906F905F904F903F9063
:105510002F900895642457CF80829182A282B38213
:105520007BCF108211821282138276CF872D8C71ED
:1055300009F0B5CF0E94DD180E94872480914B07A7
:1055400090914C070E94CE28E0904307F0904407CA
:105550000091450710914607EB8AFC8A0D8B1E8B44
:10556000D4245A9451102ACF80914207082F10E07A
:105570001C8B0B8B80904D0790904E07A0904F078F
:10558000B0905007D501C401B0588F8B988FA98F68
:10559000BA8F8BEAC82E85E0D82E93E0E92E97E0EB
:1055A000F92E10E000E08B8D9C8D002E02C09595A9
:1055B00087950A94E2F780FF72C08B899C89002E40
:1055C00002C0959587950A94E2F780FF57C0D701EE
:1055D00094964D905D906D907C909797A501940165
:1055E000C301B2010E946D34F10160837183828333
:1055F0009383D7012D913D914D915C91C301B201EF
:105600000E94C4370E949137F601648375838683B4
:1056100097830F5F1F4FF4E02F0E311C24E0C20E62
:10562000D11C34E0E30EF11C0330110509F0BBCFAF
:105630000E94E7274091470750914807609149072A
:1056400070914A07C12CE12CF12C870120E089A13F
:105650009AA10E94DE2488E08093AC059FB7F8945D
:105660008091AD0582608093AD059FBF0E94A91413
:105670000E94161684E08093AC0533CF8F89988DF5
:10568000A98DBA8DF10180839183A283B383D60162
:1056900014961D921D921D921C921797BACFF60177
:1056A00064817581868197810E941636D7012D917C
:1056B0003D914D915C910E946C35F1016083718345
:1056C00082839383A6CFAF92BF92CF92DF92EF9265
:1056D000FF920F931F93CF93DF93EC0107E217E044
:1056E0005C018CE0A80EB11CC990D990E990F990AA
:1056F00020E030E0A901C701B6010E9484371816E6
:1057000064F0F80121913191419151918F01C701CC
:10571000B6010E94623587FF33C08091AC058031AD
:10572000C9F49FB7F8948091AD0588608093AD056A
:105730009FBF0E94A9148091AB058823D1F3DF910C
:10574000CF911F910F91FF90EF90DF90CF90BF907E
:10575000AF9008950E94C4089FB7F8948091AD055A
:1057600080668093AD059FBFDF91CF911F910F9110
:10577000FF90EF90DF90CF90BF90AF900C94A91462
:10578000CA15DB0509F0B0CFDACFCF93DF93EC0178
:105790008991811103C0DF91CF9108950E94EE138A
:1057A000F7CFCF93DF93EC01FE0184912196811115
:1057B00003C0DF91CF9108950E94EE13F5CFEF92D1
:1057C000FF920F931F93CF93DF93CDB7DEB7289748
:1057D0000FB6F894DEBF0FBECDBF9E012F5F3F4FC7
:1057E0007901285F3F4FF701982F9170919386952B
:1057F000E217F307C9F78F01F80182918F01805DED
:105800000E94EE130E151F05B9F728960FB6F894EF
:10581000DEBF0FBECDBFDF91CF911F910F91FF90E3
:10582000EF900895EF92FF920F931F93CF93DF9322
:1058300000D01F92CDB7DEB781110CC080E30F906E
:105840000F900F90DF91CF911F910F91FF90EF90EC
:105850000C94EE1300E09E012F5F3F4F79012AE088
:10586000F701E00FF11D622F0E94CD38905D90830B
:105870000F5F8111F5CF0E0D1F2D111DE016F106E2
:1058800051F40F900F900F90DF91CF911F910F91D6
:10589000FF90EF900895F80182918F010E94EE131E
:1058A000EDCF8F929F92AF92BF92CF92DF92EF9205
:1058B000FF920F931F93CF93DF93CDB7DEB72A9755
:1058C0000FB6F894DEBF0FBECDBF6B017C01142F65
:1058D00020E030E0A9010E94623587FF07C08DE219
:1058E0000E94EE13F7FAF094F7F8F094012F0230CB
:1058F00008F054C010FF0AC020E030E040E251E45C
:10590000C701B6010E94C4376B017C0120E030E082
:1059100040E05FE3C701B6010E946D340E94DE35AE
:105920009E012F5F3F4F7901F901E10FF11D2EE23A
:10593000208300E02AE0822E912CA12CB12C61154D
:10594000710581059105B1F5F701E00FF11D80E3C7
:10595000011708F440C0011308C0E1E0E00FEE0DAC
:10596000FF2DF11D0E5F80E380830E0D1F2D111D95
:10597000E016F10699F52A960FB6F894DEBF0FBE31
:10598000CDBFDF91CF911F910F91FF90EF90DF90EE
:10599000CF90BF90AF909F908F90089520E030E01F
:1059A00048EC52E4C701B6010E94C4376B017C0188
:1059B00002509DCF011301C00F5F6701C00ED11CC3
:1059C000A50194010E94D938605DF6016083B90198
:1059D000CA010F5FB4CF0F5F8193BACFF8018291F4
:1059E0008F010E94EE13C4CF2091400743E020FFB7
:1059F00007C02BE832E441E25DE30E94C43744E093
:105A00000C94512C2091400740E020FF07C02BE868
:105A100032E441E25DE30E94C43741E00C94512C32
:105A200043E00C94512C3D988091400787FF04C0BF
:105A30004598109251070895459A80E28093510746
:105A4000089586B1807290915107892708958091B9
:105A5000BC058130A1F40E94212D882381F0109291
:105A6000BC058CE0EFEAF5E0ADEBB5E001900D92FE
:105A70008A95E1F78091AD0588608093AD05089522
:105A8000CF93C82F86ED97E00E94D12BEFEFEC0F5C
:105A9000E63108F053C0F0E0E05BF24D0C94FB38C7
:105AA000662D772D7A2D7D2D802D832D862D892DA8
:105AB0008C2D8F2D922D9E2D9E2D9E2D9E2D9E2DBB
:105AC0009E2D9E2D9E2D982D952D9B2D8EEB97E036
:105AD0000E94D12B87EC96E00E94D12B8091C905C2
